{
  "contractName": "AdvancedZToken",
  "abi": [
    {
      "inputs": [
        {
          "internalType": "address",
          "name": "_goldTokenAddress",
          "type": "address"
        },
        {
          "internalType": "address",
          "name": "_phoenixCrw",
          "type": "address"
        },
        {
          "internalType": "address",
          "name": "_zcrw",
          "type": "address"
        },
        {
          "internalType": "address",
          "name": "_sellingWallet",
          "type": "address"
        }
      ],
      "stateMutability": "nonpayable",
      "type": "constructor"
    },
    {
      "anonymous": false,
      "inputs": [
        {
          "indexed": true,
          "internalType": "address",
          "name": "owner",
          "type": "address"
        },
        {
          "indexed": true,
          "internalType": "address",
          "name": "spender",
          "type": "address"
        },
        {
          "indexed": false,
          "internalType": "uint256",
          "name": "value",
          "type": "uint256"
        }
      ],
      "name": "Approval",
      "type": "event"
    },
    {
      "anonymous": false,
      "inputs": [
        {
          "indexed": false,
          "internalType": "uint256",
          "name": "_numerator",
          "type": "uint256"
        },
        {
          "indexed": false,
          "internalType": "uint256",
          "name": "_denominator",
          "type": "uint256"
        },
        {
          "indexed": false,
          "internalType": "string",
          "name": "_data",
          "type": "string"
        }
      ],
      "name": "CommssionUpdate",
      "type": "event"
    },
    {
      "anonymous": false,
      "inputs": [
        {
          "indexed": true,
          "internalType": "address",
          "name": "previousOwner",
          "type": "address"
        },
        {
          "indexed": true,
          "internalType": "address",
          "name": "newOwner",
          "type": "address"
        }
      ],
      "name": "OwnershipTransferred",
      "type": "event"
    },
    {
      "anonymous": false,
      "inputs": [
        {
          "indexed": true,
          "internalType": "address",
          "name": "from",
          "type": "address"
        },
        {
          "indexed": true,
          "internalType": "address",
          "name": "to",
          "type": "address"
        },
        {
          "indexed": false,
          "internalType": "uint256",
          "name": "value",
          "type": "uint256"
        }
      ],
      "name": "Transfer",
      "type": "event"
    },
    {
      "anonymous": false,
      "inputs": [
        {
          "indexed": false,
          "internalType": "address",
          "name": "_from",
          "type": "address"
        },
        {
          "indexed": false,
          "internalType": "address",
          "name": "_to",
          "type": "address"
        },
        {
          "indexed": false,
          "internalType": "uint256",
          "name": "_value",
          "type": "uint256"
        },
        {
          "indexed": false,
          "internalType": "uint256",
          "name": "_networkFee",
          "type": "uint256"
        }
      ],
      "name": "TransferPreSigned",
      "type": "event"
    },
    {
      "inputs": [
        {
          "internalType": "address",
          "name": "owner",
          "type": "address"
        },
        {
          "internalType": "address",
          "name": "spender",
          "type": "address"
        }
      ],
      "name": "allowance",
      "outputs": [
        {
          "internalType": "uint256",
          "name": "",
          "type": "uint256"
        }
      ],
      "stateMutability": "view",
      "type": "function",
      "constant": true
    },
    {
      "inputs": [
        {
          "internalType": "address",
          "name": "spender",
          "type": "address"
        },
        {
          "internalType": "uint256",
          "name": "amount",
          "type": "uint256"
        }
      ],
      "name": "approve",
      "outputs": [
        {
          "internalType": "bool",
          "name": "",
          "type": "bool"
        }
      ],
      "stateMutability": "nonpayable",
      "type": "function"
    },
    {
      "inputs": [
        {
          "internalType": "address",
          "name": "account",
          "type": "address"
        }
      ],
      "name": "balanceOf",
      "outputs": [
        {
          "internalType": "uint256",
          "name": "",
          "type": "uint256"
        }
      ],
      "stateMutability": "view",
      "type": "function",
      "constant": true
    },
    {
      "inputs": [
        {
          "internalType": "uint256",
          "name": "_amount",
          "type": "uint256"
        }
      ],
      "name": "calculateCommissionMint",
      "outputs": [
        {
          "internalType": "uint256",
          "name": "",
          "type": "uint256"
        }
      ],
      "stateMutability": "view",
      "type": "function",
      "constant": true
    },
    {
      "inputs": [
        {
          "internalType": "uint256",
          "name": "_amount",
          "type": "uint256"
        }
      ],
      "name": "calculateCommissionPhoenixCrw",
      "outputs": [
        {
          "internalType": "uint256",
          "name": "",
          "type": "uint256"
        }
      ],
      "stateMutability": "view",
      "type": "function",
      "constant": true
    },
    {
      "inputs": [
        {
          "internalType": "uint256",
          "name": "_amount",
          "type": "uint256"
        }
      ],
      "name": "calculateCommissionToZCrw",
      "outputs": [
        {
          "internalType": "uint256",
          "name": "",
          "type": "uint256"
        }
      ],
      "stateMutability": "view",
      "type": "function",
      "constant": true
    },
    {
      "inputs": [],
      "name": "commission_denominator_minting",
      "outputs": [
        {
          "internalType": "uint256",
          "name": "",
          "type": "uint256"
        }
      ],
      "stateMutability": "view",
      "type": "function",
      "constant": true
    },
    {
      "inputs": [],
      "name": "commission_denominator_phoenix_crw",
      "outputs": [
        {
          "internalType": "uint256",
          "name": "",
          "type": "uint256"
        }
      ],
      "stateMutability": "view",
      "type": "function",
      "constant": true
    },
    {
      "inputs": [],
      "name": "commission_denominator_zcrw",
      "outputs": [
        {
          "internalType": "uint256",
          "name": "",
          "type": "uint256"
        }
      ],
      "stateMutability": "view",
      "type": "function",
      "constant": true
    },
    {
      "inputs": [],
      "name": "commission_numerator_minting",
      "outputs": [
        {
          "internalType": "uint256",
          "name": "",
          "type": "uint256"
        }
      ],
      "stateMutability": "view",
      "type": "function",
      "constant": true
    },
    {
      "inputs": [],
      "name": "commission_numerator_phoenix_crw",
      "outputs": [
        {
          "internalType": "uint256",
          "name": "",
          "type": "uint256"
        }
      ],
      "stateMutability": "view",
      "type": "function",
      "constant": true
    },
    {
      "inputs": [],
      "name": "commission_numerator_zcrw",
      "outputs": [
        {
          "internalType": "uint256",
          "name": "",
          "type": "uint256"
        }
      ],
      "stateMutability": "view",
      "type": "function",
      "constant": true
    },
    {
      "inputs": [],
      "name": "decimals",
      "outputs": [
        {
          "internalType": "uint8",
          "name": "",
          "type": "uint8"
        }
      ],
      "stateMutability": "view",
      "type": "function",
      "constant": true
    },
    {
      "inputs": [
        {
          "internalType": "address",
          "name": "spender",
          "type": "address"
        },
        {
          "internalType": "uint256",
          "name": "subtractedValue",
          "type": "uint256"
        }
      ],
      "name": "decreaseAllowance",
      "outputs": [
        {
          "internalType": "bool",
          "name": "",
          "type": "bool"
        }
      ],
      "stateMutability": "nonpayable",
      "type": "function"
    },
    {
      "inputs": [
        {
          "internalType": "address",
          "name": "spender",
          "type": "address"
        },
        {
          "internalType": "uint256",
          "name": "addedValue",
          "type": "uint256"
        }
      ],
      "name": "increaseAllowance",
      "outputs": [
        {
          "internalType": "bool",
          "name": "",
          "type": "bool"
        }
      ],
      "stateMutability": "nonpayable",
      "type": "function"
    },
    {
      "inputs": [],
      "name": "methodWord_approve",
      "outputs": [
        {
          "internalType": "bytes4",
          "name": "",
          "type": "bytes4"
        }
      ],
      "stateMutability": "view",
      "type": "function",
      "constant": true
    },
    {
      "inputs": [],
      "name": "methodWord_decreaseApproval",
      "outputs": [
        {
          "internalType": "bytes4",
          "name": "",
          "type": "bytes4"
        }
      ],
      "stateMutability": "view",
      "type": "function",
      "constant": true
    },
    {
      "inputs": [],
      "name": "methodWord_increaseApproval",
      "outputs": [
        {
          "internalType": "bytes4",
          "name": "",
          "type": "bytes4"
        }
      ],
      "stateMutability": "view",
      "type": "function",
      "constant": true
    },
    {
      "inputs": [],
      "name": "methodWord_transfer",
      "outputs": [
        {
          "internalType": "bytes4",
          "name": "",
          "type": "bytes4"
        }
      ],
      "stateMutability": "view",
      "type": "function",
      "constant": true
    },
    {
      "inputs": [],
      "name": "name",
      "outputs": [
        {
          "internalType": "string",
          "name": "",
          "type": "string"
        }
      ],
      "stateMutability": "view",
      "type": "function",
      "constant": true
    },
    {
      "inputs": [],
      "name": "owner",
      "outputs": [
        {
          "internalType": "address",
          "name": "",
          "type": "address"
        }
      ],
      "stateMutability": "view",
      "type": "function",
      "constant": true
    },
    {
      "inputs": [],
      "name": "phoenixCrw",
      "outputs": [
        {
          "internalType": "address",
          "name": "",
          "type": "address"
        }
      ],
      "stateMutability": "view",
      "type": "function",
      "constant": true
    },
    {
      "inputs": [],
      "name": "renounceOwnership",
      "outputs": [],
      "stateMutability": "nonpayable",
      "type": "function"
    },
    {
      "inputs": [],
      "name": "sellingWallet",
      "outputs": [
        {
          "internalType": "address",
          "name": "",
          "type": "address"
        }
      ],
      "stateMutability": "view",
      "type": "function",
      "constant": true
    },
    {
      "inputs": [],
      "name": "symbol",
      "outputs": [
        {
          "internalType": "string",
          "name": "",
          "type": "string"
        }
      ],
      "stateMutability": "view",
      "type": "function",
      "constant": true
    },
    {
      "inputs": [
        {
          "internalType": "address",
          "name": "_from",
          "type": "address"
        },
        {
          "internalType": "uint256",
          "name": "_value",
          "type": "uint256"
        },
        {
          "internalType": "bytes",
          "name": "data",
          "type": "bytes"
        }
      ],
      "name": "tokenFallback",
      "outputs": [],
      "stateMutability": "nonpayable",
      "type": "function"
    },
    {
      "inputs": [
        {
          "internalType": "address",
          "name": "",
          "type": "address"
        },
        {
          "internalType": "bytes32",
          "name": "",
          "type": "bytes32"
        }
      ],
      "name": "tokenUsed",
      "outputs": [
        {
          "internalType": "bool",
          "name": "",
          "type": "bool"
        }
      ],
      "stateMutability": "view",
      "type": "function",
      "constant": true
    },
    {
      "inputs": [],
      "name": "totalSupply",
      "outputs": [
        {
          "internalType": "uint256",
          "name": "",
          "type": "uint256"
        }
      ],
      "stateMutability": "view",
      "type": "function",
      "constant": true
    },
    {
      "inputs": [
        {
          "internalType": "address",
          "name": "recipient",
          "type": "address"
        },
        {
          "internalType": "uint256",
          "name": "amount",
          "type": "uint256"
        }
      ],
      "name": "transfer",
      "outputs": [
        {
          "internalType": "bool",
          "name": "",
          "type": "bool"
        }
      ],
      "stateMutability": "nonpayable",
      "type": "function"
    },
    {
      "inputs": [
        {
          "internalType": "address",
          "name": "sender",
          "type": "address"
        },
        {
          "internalType": "address",
          "name": "recipient",
          "type": "address"
        },
        {
          "internalType": "uint256",
          "name": "amount",
          "type": "uint256"
        }
      ],
      "name": "transferFrom",
      "outputs": [
        {
          "internalType": "bool",
          "name": "",
          "type": "bool"
        }
      ],
      "stateMutability": "nonpayable",
      "type": "function"
    },
    {
      "inputs": [
        {
          "internalType": "address",
          "name": "newOwner",
          "type": "address"
        }
      ],
      "name": "transferOwnership",
      "outputs": [],
      "stateMutability": "nonpayable",
      "type": "function"
    },
    {
      "inputs": [
        {
          "internalType": "uint256",
          "name": "_amount",
          "type": "uint256"
        },
        {
          "internalType": "address",
          "name": "_receiver",
          "type": "address"
        }
      ],
      "name": "transferToken",
      "outputs": [],
      "stateMutability": "nonpayable",
      "type": "function"
    },
    {
      "inputs": [
        {
          "internalType": "uint256",
          "name": "_n",
          "type": "uint256"
        },
        {
          "internalType": "uint256",
          "name": "_d",
          "type": "uint256"
        }
      ],
      "name": "updateCommssionMint",
      "outputs": [],
      "stateMutability": "nonpayable",
      "type": "function"
    },
    {
      "inputs": [
        {
          "internalType": "uint256",
          "name": "_n",
          "type": "uint256"
        },
        {
          "internalType": "uint256",
          "name": "_d",
          "type": "uint256"
        }
      ],
      "name": "updateCommssionPhoenixTransfer",
      "outputs": [],
      "stateMutability": "nonpayable",
      "type": "function"
    },
    {
      "inputs": [
        {
          "internalType": "uint256",
          "name": "_n",
          "type": "uint256"
        },
        {
          "internalType": "uint256",
          "name": "_d",
          "type": "uint256"
        }
      ],
      "name": "updateCommssionZTranfer",
      "outputs": [],
      "stateMutability": "nonpayable",
      "type": "function"
    },
    {
      "inputs": [
        {
          "internalType": "address",
          "name": "_user",
          "type": "address"
        }
      ],
      "name": "updatePhoenixAddress",
      "outputs": [
        {
          "internalType": "bool",
          "name": "",
          "type": "bool"
        }
      ],
      "stateMutability": "nonpayable",
      "type": "function"
    },
    {
      "inputs": [],
      "name": "zCrw",
      "outputs": [
        {
          "internalType": "address",
          "name": "",
          "type": "address"
        }
      ],
      "stateMutability": "view",
      "type": "function",
      "constant": true
    },
    {
      "stateMutability": "payable",
      "type": "receive",
      "payable": true
    },
    {
      "inputs": [],
      "name": "getChainID",
      "outputs": [
        {
          "internalType": "uint256",
          "name": "",
          "type": "uint256"
        }
      ],
      "stateMutability": "view",
      "type": "function",
      "constant": true
    },
    {
      "inputs": [
        {
          "internalType": "bytes32",
          "name": "message",
          "type": "bytes32"
        },
        {
          "internalType": "bytes32",
          "name": "r",
          "type": "bytes32"
        },
        {
          "internalType": "bytes32",
          "name": "s",
          "type": "bytes32"
        },
        {
          "internalType": "uint8",
          "name": "v",
          "type": "uint8"
        }
      ],
      "name": "getSigner",
      "outputs": [
        {
          "internalType": "address",
          "name": "",
          "type": "address"
        }
      ],
      "stateMutability": "pure",
      "type": "function",
      "constant": true
    },
    {
      "inputs": [
        {
          "internalType": "bytes32",
          "name": "message",
          "type": "bytes32"
        },
        {
          "internalType": "bytes32",
          "name": "r",
          "type": "bytes32"
        },
        {
          "internalType": "bytes32",
          "name": "s",
          "type": "bytes32"
        },
        {
          "internalType": "uint8",
          "name": "v",
          "type": "uint8"
        },
        {
          "internalType": "bytes32",
          "name": "token",
          "type": "bytes32"
        },
        {
          "internalType": "uint256",
          "name": "networkFee",
          "type": "uint256"
        },
        {
          "internalType": "address",
          "name": "to",
          "type": "address"
        },
        {
          "internalType": "uint256",
          "name": "amount",
          "type": "uint256"
        }
      ],
      "name": "preAuthorizedTransfer",
      "outputs": [],
      "stateMutability": "nonpayable",
      "type": "function"
    },
    {
      "inputs": [
        {
          "internalType": "bytes4",
          "name": "methodHash",
          "type": "bytes4"
        },
        {
          "internalType": "bytes32",
          "name": "message",
          "type": "bytes32"
        },
        {
          "internalType": "bytes32",
          "name": "r",
          "type": "bytes32"
        },
        {
          "internalType": "bytes32",
          "name": "s",
          "type": "bytes32"
        },
        {
          "internalType": "uint8",
          "name": "v",
          "type": "uint8"
        },
        {
          "internalType": "bytes32",
          "name": "token",
          "type": "bytes32"
        },
        {
          "internalType": "uint256",
          "name": "networkFee",
          "type": "uint256"
        },
        {
          "internalType": "address",
          "name": "to",
          "type": "address"
        },
        {
          "internalType": "uint256",
          "name": "amount",
          "type": "uint256"
        }
      ],
      "name": "preAuthorizedApproval",
      "outputs": [
        {
          "internalType": "bool",
          "name": "",
          "type": "bool"
        }
      ],
      "stateMutability": "nonpayable",
      "type": "function"
    },
    {
      "inputs": [
        {
          "internalType": "bytes4",
          "name": "methodHash",
          "type": "bytes4"
        },
        {
          "internalType": "bytes32",
          "name": "token",
          "type": "bytes32"
        },
        {
          "internalType": "uint256",
          "name": "networkFee",
          "type": "uint256"
        },
        {
          "internalType": "address",
          "name": "broadcaster",
          "type": "address"
        },
        {
          "internalType": "address",
          "name": "to",
          "type": "address"
        },
        {
          "internalType": "uint256",
          "name": "amount",
          "type": "uint256"
        }
      ],
      "name": "getProofTransfer",
      "outputs": [
        {
          "internalType": "bytes32",
          "name": "",
          "type": "bytes32"
        }
      ],
      "stateMutability": "view",
      "type": "function",
      "constant": true
    },
    {
      "inputs": [
        {
          "internalType": "bytes4",
          "name": "methodHash",
          "type": "bytes4"
        },
        {
          "internalType": "bytes32",
          "name": "token",
          "type": "bytes32"
        },
        {
          "internalType": "uint256",
          "name": "networkFee",
          "type": "uint256"
        },
        {
          "internalType": "address",
          "name": "broadcaster",
          "type": "address"
        },
        {
          "internalType": "address",
          "name": "to",
          "type": "address"
        },
        {
          "internalType": "uint256",
          "name": "amount",
          "type": "uint256"
        }
      ],
      "name": "getProofApproval",
      "outputs": [
        {
          "internalType": "bytes32",
          "name": "",
          "type": "bytes32"
        }
      ],
      "stateMutability": "view",
      "type": "function",
      "constant": true
    }
  ],
  "bytecode": "0x60806040526006805460ff60a01b1916600160a31b179055600160078190556004600855600981905560c8600a819055600b91909155600c556011805463ffffffff191663a9059cbb1763ffffffff60201b191667095ea7b3000000001763ffffffff60401b19166b3950935100000000000000001763ffffffff60601b19166fa457c2d7000000000000000000000000179055348015620000a057600080fd5b506040516200283d3803806200283d833981016040819052620000c39162000388565b83838383604051806040016040528060068152602001652d2a37b5b2b760d11b81525060405180604001604052806002815260200161169560f21b8152506200011b620001156200026c60201b60201c565b62000270565b815162000130906004906020850190620002ca565b50805162000146906005906020840190620002ca565b5050508362000169816001600160a01b0316620002c060201b620012951760201c565b620001915760405162461bcd60e51b81526004016200018890620003e4565b60405180910390fd5b836001600160a01b038116620001bb5760405162461bcd60e51b815260040162000188906200041b565b836001600160a01b038116620001e55760405162461bcd60e51b815260040162000188906200041b565b836001600160a01b0381166200020f5760405162461bcd60e51b815260040162000188906200041b565b5050600680546001600160a01b039788166001600160a01b031991821617909155600d8054968816968216969096179095555050600e805492851692841692909217909155600f8054919093169116179055506200048f92505050565b3390565b600080546001600160a01b038381166001600160a01b0319831681178455604051919092169283917f8be0079c531659141344cd1fd0a4f28419497f9722a3daafe3b4186f6b6457e09190a35050565b803b15155b919050565b828054620002d89062000452565b90600052602060002090601f016020900481019282620002fc576000855562000347565b82601f106200031757805160ff191683800117855562000347565b8280016001018555821562000347579182015b82811115620003475782518255916020019190600101906200032a565b506200035592915062000359565b5090565b5b808211156200035557600081556001016200035a565b80516001600160a01b0381168114620002c557600080fd5b600080600080608085870312156200039e578384fd5b620003a98562000370565b9350620003b96020860162000370565b9250620003c96040860162000370565b9150620003d96060860162000370565b905092959194509250565b60208082526016908201527f497320636f6e747261637420697320616c6c6f77656400000000000000000000604082015260600190565b60208082526018908201527f5a65726f2061646472657373206e6f7420616c6c6f7765640000000000000000604082015260600190565b6002810460018216806200046757607f821691505b602082108114156200048957634e487b7160e01b600052602260045260246000fd5b50919050565b61239e806200049f6000396000f3fe6080604052600436106102605760003560e01c80638da5cb5b11610144578063c19fbdec116100b6578063e9891d7f1161007a578063e9891d7f146106c9578063ece3c7fb146106e9578063ecef28e1146106fe578063f2fde38b14610713578063f866e04914610733578063facd7ecf1461075357610286565b8063c19fbdec1461064a578063cfcb9f591461066a578063d84c32791461067f578063dd62ed3e14610694578063e5833006146106b457610286565b8063a457c2d711610108578063a457c2d71461058a578063a5d3d728146105aa578063a9059cbb146105ca578063a93dfb0d146105ea578063bad425901461060a578063c0ee0b8a1461062a57610286565b80638da5cb5b1461050057806395d89b41146105155780639dd0953f1461052a578063a07172321461054a578063a162140d1461056a57610286565b806339509351116101dd57806366618d18116101a157806366618d181461045d57806370a082311461047d578063715018a61461049d5780637620588b146104b45780637b6b6b27146104d65780638608e48b146104eb57610286565b806339509351146103de5780633a3be9d4146103fe578063564b81ef1461041357806362beb1961461042857806364f3448f1461044857610286565b80631cde8a63116102245780631cde8a631461033a5780631e1ad2d41461035a57806323b872dd1461037a57806328b017191461039a578063313ce567146103bc57610286565b8063037311581461028b57806306fdde03146102b6578063095ea7b3146102d8578063111157be1461030557806318160ddd1461032557610286565b366102865760405162461bcd60e51b815260040161027d90611ea6565b60405180910390fd5b600080fd5b34801561029757600080fd5b506102a0610768565b6040516102ad9190611cad565b60405180910390f35b3480156102c257600080fd5b506102cb61076e565b6040516102ad9190611ce9565b3480156102e457600080fd5b506102f86102f336600461190b565b610800565b6040516102ad9190611ca2565b34801561031157600080fd5b506102a0610320366004611afd565b61081d565b34801561033157600080fd5b506102a06108eb565b34801561034657600080fd5b506102a0610355366004611b5b565b6108f1565b34801561036657600080fd5b506102f8610375366004611a80565b610921565b34801561038657600080fd5b506102f86103953660046118d0565b610a01565b3480156103a657600080fd5b506103af610a5f565b6040516102ad9190611c4c565b3480156103c857600080fd5b506103d1610a6e565b6040516102ad919061226f565b3480156103ea57600080fd5b506102f86103f936600461190b565b610a7e565b34801561040a57600080fd5b506103af610acd565b34801561041f57600080fd5b506102a0610adc565b34801561043457600080fd5b506102a0610443366004611b5b565b610ae0565b34801561045457600080fd5b506103af610b02565b34801561046957600080fd5b506103af6104783660046119d6565b610b11565b34801561048957600080fd5b506102a0610498366004611884565b610bd7565b3480156104a957600080fd5b506104b2610bf2565b005b3480156104c057600080fd5b506104c9610c3d565b6040516102ad9190611cd4565b3480156104e257600080fd5b506102a0610c4e565b3480156104f757600080fd5b506104c9610c54565b34801561050c57600080fd5b506103af610c5d565b34801561052157600080fd5b506102cb610c6c565b34801561053657600080fd5b506104b2610545366004611bad565b610c7b565b34801561055657600080fd5b506104b2610565366004611bad565b610ced565b34801561057657600080fd5b506102a0610585366004611afd565b610d68565b34801561059657600080fd5b506102f86105a536600461190b565b610d9d565b3480156105b657600080fd5b506104b26105c5366004611bad565b610e16565b3480156105d657600080fd5b506102f86105e536600461190b565b610e7c565b3480156105f657600080fd5b506102a0610605366004611b5b565b610e89565b34801561061657600080fd5b506104b2610625366004611b8b565b610eab565b34801561063657600080fd5b506104b2610645366004611934565b611043565b34801561065657600080fd5b506104b2610665366004611a14565b6110bc565b34801561067657600080fd5b506102a061114f565b34801561068b57600080fd5b506102a0611155565b3480156106a057600080fd5b506102a06106af36600461189e565b61115b565b3480156106c057600080fd5b506104c9611186565b3480156106d557600080fd5b506102f86106e4366004611884565b611196565b3480156106f557600080fd5b506102a06111e8565b34801561070a57600080fd5b506104c96111ee565b34801561071f57600080fd5b506104b261072e366004611884565b6111fe565b34801561073f57600080fd5b506102f861074e36600461190b565b61126f565b34801561075f57600080fd5b506102a061128f565b600c5481565b60606004805461077d90612317565b80601f01602080910402602001604051908101604052809291908181526020018280546107a990612317565b80156107f65780601f106107cb576101008083540402835291602001916107f6565b820191906000526020600020905b8154815290600101906020018083116107d957829003601f168201915b5050505050905090565b600061081461080d61129b565b848461129f565b50600192915050565b6011546000906001600160e01b031988811664010000000090920460e01b16148061086057506011546001600160e01b0319888116600160401b90920460e01b16145b8061088357506011546001600160e01b0319888116600160601b90920460e01b16145b61089f5760405162461bcd60e51b815260040161027d9061211c565b60006108a9610adc565b883089898989896040516020016108c7989796959493929190611bf0565b60408051808303601f19018152919052805160209091012098975050505050505050565b60035490565b60006109196064610913600c54610913600b548761135390919063ffffffff16565b90611366565b90505b919050565b6000806109328b878733888861081d565b90506000610944828c898d8d8d611372565b90506000610954826106af61129b565b6011549091506001600160e01b03198e811664010000000090920460e01b1614156109895761098482878761129f565b6109ee565b6011546001600160e01b03198e8116600160401b90920460e01b1614156109be5761098482876109b98489611446565b61129f565b6011546001600160e01b03198e8116600160601b90920460e01b1614156109ee576109ee82876109b98489611452565b5060019c9b505050505050505050505050565b600080610a10856106af61129b565b905082811015610a325760405162461bcd60e51b815260040161027d90611f40565b610a4885610a3e61129b565b6109b986856122d4565b610a5385858561145e565b50600195945050505050565b600e546001600160a01b031681565b600654600160a01b900460ff1690565b6000610814610a8b61129b565b848460026000610a9961129b565b6001600160a01b03908116825260208083019390935260409182016000908120918b16815292529020546109b9919061227d565b600d546001600160a01b031681565b4690565b60006109196064610913600a546109136009548761135390919063ffffffff16565b600f546001600160a01b031681565b6000806040518060400160405280601c81526020017f19457468657265756d205369676e6564204d6573736167653a0a333200000000815250905060008187604051602001610b61929190611bce565b604051602081830303815290604052805190602001209050600060018286898960405160008152602001604052604051610b9e9493929190611cb6565b6020604051602081039080840390855afa158015610bc0573d6000803e3d6000fd5b5050604051601f1901519998505050505050505050565b6001600160a01b031660009081526001602052604090205490565b610bfa61129b565b6001600160a01b0316610c0b610c5d565b6001600160a01b031614610c315760405162461bcd60e51b815260040161027d90611f88565b610c3b600061150d565b565b601154640100000000900460e01b81565b60075481565b60115460e01b81565b6000546001600160a01b031690565b60606005805461077d90612317565b600d546001600160a01b03163314610ca55760405162461bcd60e51b815260040161027d90611ffe565b600881905560078290556040517f52157bec5b4f5ad5638e2f13345ca278ff8655617888654f1f51af41367b247790610ce190849084906121c6565b60405180910390a15050565b610cf561129b565b6001600160a01b0316610d06610c5d565b6001600160a01b031614610d2c5760405162461bcd60e51b815260040161027d90611f88565b600a81905560098290556040517f52157bec5b4f5ad5638e2f13345ca278ff8655617888654f1f51af41367b247790610ce190849084906121fd565b60115460009060e01b6001600160e01b03199081169088161461089f5760405162461bcd60e51b815260040161027d9061211c565b60008060026000610dac61129b565b6001600160a01b0390811682526020808301939093526040918201600090812091881681529252902054905082811015610df85760405162461bcd60e51b815260040161027d9061214a565b610e0c610e0361129b565b8585840361129f565b5060019392505050565b600d546001600160a01b03163314610e405760405162461bcd60e51b815260040161027d90611ffe565b600c819055600b8290556040517f52157bec5b4f5ad5638e2f13345ca278ff8655617888654f1f51af41367b247790610ce19084908490612237565b6000610e0c33848461145e565b600061091960646109136008546109136007548761135390919063ffffffff16565b610eb361129b565b6001600160a01b0316610ec4610c5d565b6001600160a01b031614610eea5760405162461bcd60e51b815260040161027d90611f88565b806001600160a01b038116610f115760405162461bcd60e51b815260040161027d906120be565b6006546040516370a0823160e01b815284916001600160a01b0316906370a0823190610f41903090600401611c4c565b60206040518083038186803b158015610f5957600080fd5b505afa158015610f6d573d6000803e3d6000fd5b505050506040513d601f19601f82011682018060405250810190610f919190611b73565b1015610faf5760405162461bcd60e51b815260040161027d90611d5f565b60065460405163a9059cbb60e01b81526001600160a01b039091169063a9059cbb90610fe19085908790600401611c89565b602060405180830381600087803b158015610ffb57600080fd5b505af115801561100f573d6000803e3d6000fd5b505050506040513d601f19601f8201168201806040525081019061103391906119b6565b5061103e338461155d565b505050565b6006546001600160a01b0316331461106d5760405162461bcd60e51b815260040161027d90611f09565b600061107884610e89565b9050801561109657600d54611096906001600160a01b03168261164e565b600f546110b5906001600160a01b03166110b08684611452565b61164e565b5050505050565b6011546000906110d39060e01b8686338787610d68565b905060006110e5828b888c8c8c611372565b905084156110fa576110f881338761145e565b505b61110581858561145e565b507f75d90cfdfda08c895e4262bb15d0bba4f27d5714a5950f85f8cead07b3b7e0048185858860405161113b9493929190611c60565b60405180910390a150505050505050505050565b60085481565b600a5481565b6001600160a01b03918216600090815260026020908152604080832093909416825291909152205490565b601154600160401b900460e01b81565b600d546000906001600160a01b031633146111c35760405162461bcd60e51b815260040161027d90611ffe565b50600d80546001600160a01b0383166001600160a01b03199091161790556001919050565b60095481565b601154600160601b900460e01b81565b61120661129b565b6001600160a01b0316611217610c5d565b6001600160a01b03161461123d5760405162461bcd60e51b815260040161027d90611f88565b6001600160a01b0381166112635760405162461bcd60e51b815260040161027d90611dd8565b61126c8161150d565b50565b601060209081526000928352604080842090915290825290205460ff1681565b600b5481565b3b151590565b3390565b6001600160a01b0383166112c55760405162461bcd60e51b815260040161027d9061207a565b6001600160a01b0382166112eb5760405162461bcd60e51b815260040161027d90611e1e565b6001600160a01b0380841660008181526002602090815260408083209487168084529490915290819020849055517f8c5be1e5ebec7d5bd14f71427d1e84f3dd0314c0f7b2291e5b200ac8c7c3b92590611346908590611cad565b60405180910390a3505050565b600061135f82846122b5565b9392505050565b600061135f8284612295565b60008061138187868686610b11565b90506001600160a01b0381166113a95760405162461bcd60e51b815260040161027d906120be565b6001600160a01b038116600090815260106020908152604080832089845290915290205460ff16156113ed5760405162461bcd60e51b815260040161027d90611edd565b86881461140c5760405162461bcd60e51b815260040161027d906120f5565b6001600160a01b03811660009081526010602090815260408083208984529091529020805460ff1916600117905590509695505050505050565b600061135f828461227d565b600061135f82846122d4565b6000826001600160a01b0381166114875760405162461bcd60e51b815260040161027d906120be565b6000611492846108f1565b9050600061149f85610ae0565b905081156114bf57600d546114bf9088906001600160a01b03168461171a565b80156114dd57600e546114dd9088906001600160a01b03168361171a565b60006114e98284611446565b90506114ff88886114fa8985611452565b61171a565b506001979650505050505050565b600080546001600160a01b038381166001600160a01b0319831681178455604051919092169283917f8be0079c531659141344cd1fd0a4f28419497f9722a3daafe3b4186f6b6457e09190a35050565b6001600160a01b0382166115835760405162461bcd60e51b815260040161027d90611fbd565b61158f8260008361103e565b6001600160a01b038216600090815260016020526040902054818110156115c85760405162461bcd60e51b815260040161027d90611d96565b6001600160a01b03831660009081526001602052604081208383039055600380548492906115f79084906122d4565b90915550506040516000906001600160a01b038516907fddf252ad1be2c89b69c2b068fc378daa952ba7f163c4a11628f55a4df523b3ef9061163a908690611cad565b60405180910390a361103e8360008461103e565b6001600160a01b0382166116745760405162461bcd60e51b815260040161027d9061218f565b6116806000838361103e565b8060036000828254611692919061227d565b90915550506001600160a01b038216600090815260016020526040812080548392906116bf90849061227d565b90915550506040516001600160a01b038316906000907fddf252ad1be2c89b69c2b068fc378daa952ba7f163c4a11628f55a4df523b3ef90611702908590611cad565b60405180910390a36117166000838361103e565b5050565b6001600160a01b0383166117405760405162461bcd60e51b815260040161027d90612035565b6001600160a01b0382166117665760405162461bcd60e51b815260040161027d90611d1c565b61177183838361103e565b6001600160a01b038316600090815260016020526040902054818110156117aa5760405162461bcd60e51b815260040161027d90611e60565b6001600160a01b038085166000908152600160205260408082208585039055918516815290812080548492906117e190849061227d565b92505081905550826001600160a01b0316846001600160a01b03167fddf252ad1be2c89b69c2b068fc378daa952ba7f163c4a11628f55a4df523b3ef8460405161182b9190611cad565b60405180910390a361183e84848461103e565b50505050565b80356001600160a01b038116811461091c57600080fd5b80356001600160e01b03198116811461091c57600080fd5b803560ff8116811461091c57600080fd5b600060208284031215611895578081fd5b61135f82611844565b600080604083850312156118b0578081fd5b6118b983611844565b91506118c760208401611844565b90509250929050565b6000806000606084860312156118e4578081fd5b6118ed84611844565b92506118fb60208501611844565b9150604084013590509250925092565b6000806040838503121561191d578182fd5b61192683611844565b946020939093013593505050565b60008060008060608587031215611949578081fd5b61195285611844565b935060208501359250604085013567ffffffffffffffff80821115611975578283fd5b818701915087601f830112611988578283fd5b813581811115611996578384fd5b8860208285010111156119a7578384fd5b95989497505060200194505050565b6000602082840312156119c7578081fd5b8151801515811461135f578182fd5b600080600080608085870312156119eb578384fd5b843593506020850135925060408501359150611a0960608601611873565b905092959194509250565b600080600080600080600080610100898b031215611a30578384fd5b883597506020890135965060408901359550611a4e60608a01611873565b94506080890135935060a08901359250611a6a60c08a01611844565b915060e089013590509295985092959890939650565b60008060008060008060008060006101208a8c031215611a9e578081fd5b611aa78a61185b565b985060208a0135975060408a0135965060608a01359550611aca60808b01611873565b945060a08a0135935060c08a01359250611ae660e08b01611844565b91506101008a013590509295985092959850929598565b60008060008060008060c08789031215611b15578384fd5b611b1e8761185b565b95506020870135945060408701359350611b3a60608801611844565b9250611b4860808801611844565b915060a087013590509295509295509295565b600060208284031215611b6c578081fd5b5035919050565b600060208284031215611b84578081fd5b5051919050565b60008060408385031215611b9d578182fd5b823591506118c760208401611844565b60008060408385031215611bbf578182fd5b50508035926020909101359150565b60008351611be08184602088016122eb565b9190910191825250602001919050565b9788526001600160e01b03199690961660208801526bffffffffffffffffffffffff19606095861b8116602489015260388801949094526058870192909252831b8216607886015290911b16608c83015260a082015260c00190565b6001600160a01b0391909116815260200190565b6001600160a01b0394851681529290931660208301526040820152606081019190915260800190565b6001600160a01b03929092168252602082015260400190565b901515815260200190565b90815260200190565b93845260ff9290921660208401526040830152606082015260800190565b6001600160e01b031991909116815260200190565b6000602082528251806020840152611d088160408501602087016122eb565b601f01601f19169190910160400192915050565b60208082526023908201527f45524332303a207472616e7366657220746f20746865207a65726f206164647260408201526265737360e81b606082015260800190565b6020808252601c908201527f496e7375666669636965742062616c616e6365206f6620746f6b656e00000000604082015260600190565b60208082526022908201527f45524332303a206275726e20616d6f756e7420657863656564732062616c616e604082015261636560f01b606082015260800190565b60208082526026908201527f4f776e61626c653a206e6577206f776e657220697320746865207a65726f206160408201526564647265737360d01b606082015260800190565b60208082526022908201527f45524332303a20617070726f766520746f20746865207a65726f206164647265604082015261737360f01b606082015260800190565b60208082526026908201527f45524332303a207472616e7366657220616d6f756e7420657863656564732062604082015265616c616e636560d01b606082015260800190565b6020808252601f908201527f436f6e747261637420646f6573206e6f74206163636570742065746865727300604082015260600190565b602080825260129082015271151bdad95b88185b1c9958591e481d5cd95960721b604082015260600190565b6020808252601e908201527f4f6e6c7920546f6b656e20636f6e747261637420697320616c6c6f7765640000604082015260600190565b60208082526028908201527f45524332303a207472616e7366657220616d6f756e74206578636565647320616040820152676c6c6f77616e636560c01b606082015260800190565b6020808252818101527f4f776e61626c653a2063616c6c6572206973206e6f7420746865206f776e6572604082015260600190565b60208082526021908201527f45524332303a206275726e2066726f6d20746865207a65726f206164647265736040820152607360f81b606082015260800190565b60208082526017908201527f4f6e6c792050686f656e697820697320616c6c6f776564000000000000000000604082015260600190565b60208082526025908201527f45524332303a207472616e736665722066726f6d20746865207a65726f206164604082015264647265737360d81b606082015260800190565b60208082526024908201527f45524332303a20617070726f76652066726f6d20746865207a65726f206164646040820152637265737360e01b606082015260800190565b60208082526018908201527f5a65726f2061646472657373206e6f7420616c6c6f7765640000000000000000604082015260600190565b6020808252600d908201526c24b73b30b634b210383937b7b360991b604082015260600190565b60208082526014908201527313595d1a1bd9081b9bdd081cdd5c1c1bdc9d195960621b604082015260600190565b60208082526025908201527f45524332303a2064656372656173656420616c6c6f77616e63652062656c6f77604082015264207a65726f60d81b606082015260800190565b6020808252601f908201527f45524332303a206d696e7420746f20746865207a65726f206164647265737300604082015260600190565b91825260208201526060604082018190526011908201527026b4b73a34b7339031b7b6b6b4b9b4b7b760791b608082015260a00190565b9182526020820152606060408201819052601490820152732d1037bbb732b913b99031b7b6b6b4b9b9b4b7b760611b608082015260a00190565b918252602082015260606040820181905260129082015271283437b2b734bc1031b7b6b6b4b9b9b4b7b760711b608082015260a00190565b60ff91909116815260200190565b6000821982111561229057612290612352565b500190565b6000826122b057634e487b7160e01b81526012600452602481fd5b500490565b60008160001904831182151516156122cf576122cf612352565b500290565b6000828210156122e6576122e6612352565b500390565b60005b838110156123065781810151838201526020016122ee565b8381111561183e5750506000910152565b60028104600182168061232b57607f821691505b6020821081141561234c57634e487b7160e01b600052602260045260246000fd5b50919050565b634e487b7160e01b600052601160045260246000fdfea26469706673582212205bcc9a6382b24f7e821f9c5ef70794f008338c6d5068a3d4caf0c68f48d1782c64736f6c63430008000033",
  "immutableReferences": {},
  "source": "/**\n * MIT License\n * ===========\n *\n * Copyright (c) 2021 Phoenix\n *\n * Permission is hereby granted, free of charge, to any person obtaining a copy\n * of this software and associated documentation files (the \"Software\"), to deal\n * in the Software without restriction, including without limitation the rights\n * to use, copy, modify, merge, publish, distribute, sublicense, and/or sell\n * copies of the Software, and to permit persons to whom the Software is\n * furnished to do so, subject to the following conditions:\n *\n * The above copyright notice and this permission notice shall be included in all\n * copies or substantial portions of the Software.\n *\n * THE SOFTWARE IS PROVIDED \"AS IS\", WITHOUT WARRANTY OF ANY KIND, EXPRESS OR\n * IMPLIED, INCLUDING BUT NOT LIMITED TO THE WARRANTIES OF MERCHANTABILITY,\n * FITNESS FOR A PARTICULAR PURPOSE AND NONINFRINGEMENT. IN NO EVENT SHALL THE\n * AUTHORS OR COPYRIGHT HOLDERS BE LIABLE FOR ANY CLAIM, DAMAGES OR OTHER\n * LIABILITY, WHETHER IN AN ACTION OF CONTRACT, TORT OR OTHERWISE, ARISING FROM,\n * OUT OF OR IN CONNECTION WITH THE SOFTWARE OR THE USE OR OTHER DEALINGS IN THE\n * SOFTWARE.\n *\n */\n\n// SPDX-License-Identifier: MIT\n\npragma solidity ^0.8.0;\n\nimport \"@openzeppelin/contracts/access/Ownable.sol\";\nimport \"@openzeppelin/contracts/utils/math/SafeMath.sol\";\nimport \"@openzeppelin/contracts/token/ERC20/utils/SafeERC20.sol\";\nimport \"@openzeppelin/contracts/token/ERC20/ERC20.sol\";\n\nabstract contract TokenInterface {\n    function balanceOf(address account) external view virtual returns (uint256);\n\n    function transfer(address recipient, uint256 amount)\n        external\n        virtual\n        returns (bool success);\n}\n\n/**\n * @dev interface defining the TokenRecipient\n */\ninterface TokenRecipient {\n    function tokenFallback(\n        address _from,\n        uint256 _value,\n        bytes calldata data\n    ) external;\n}\n\n/**\n * @title ZToken\n * @author Phoenix\n * @notice Contract for the ZToken\n * @dev All function calls are currently implemented without side effects\n */\ncontract ZToken is Ownable, ERC20, TokenRecipient {\n    // attach library functions\n    using SafeMath for uint256;\n    using SafeERC20 for TokenInterface;\n    using Address for address;\n\n    //event\n    event CommssionUpdate(\n        uint256 _numerator,\n        uint256 _denominator,\n        string _data\n    );\n    event TransferPreSigned(address _from, address _to, uint256 _value, uint256 _networkFee);\n\n    //public variables\n    TokenInterface private backedTokenContract;\n\n    //private variables\n    uint8 private decimal = 8;\n\n    // These variable help to calculate the commissions on each token transfer transcation\n    uint256 public commission_numerator_minting = 1; // commission percentage on minting 0.025%\n    uint256 public commission_denominator_minting = 4;\n\n    uint256 public commission_numerator_zcrw = 1; // commission percentage to zowner 0.005%\n    uint256 public commission_denominator_zcrw = 200;\n\n    uint256 public commission_numerator_phoenix_crw = 1; // commission percentage to zowner 0.005%\n    uint256 public commission_denominator_phoenix_crw = 200;\n\n    // addresses at which fees transferred\n    address public phoenixCrw; // Z commission to phoenixCRW\n    address public zCrw; // Z commission to ZCRW\n\n    // tokens minted in this wallet\n    address public sellingWallet;\n\n    constructor(\n        address _goldTokenAddress,\n        address _phoenixCrw,\n        address _zcrw,\n        address _sellingWallet\n    )\n        isContractaAddress(_goldTokenAddress)\n        onlyNonZeroAddress(_phoenixCrw)\n        onlyNonZeroAddress(_zcrw)\n        onlyNonZeroAddress(_sellingWallet)\n        ERC20(\"ZToken\", \"ZT\")\n    {\n        backedTokenContract = TokenInterface(_goldTokenAddress);\n        phoenixCrw = _phoenixCrw;\n        zCrw = _zcrw;\n        sellingWallet = _sellingWallet;\n    }\n\n    ////////////////////////////////////////////////////////////////\n    //                 modifiers\n    ////////////////////////////////////////////////////////////////\n\n    modifier onlyNonZeroAddress(address _user) {\n        require(_user != address(0), \"Zero address not allowed\");\n        _;\n    }\n\n    modifier onlyTokenContract() {\n        require(\n            msg.sender == address(backedTokenContract),\n            \"Only Token contract is allowed\"\n        );\n        _;\n    }\n\n    modifier isContractaAddress(address _addressContract) {\n        require(\n            _addressContract.isContract(),\n            \"Is contract is allowed\"\n        );\n        _;\n    }\n\n    modifier onlyPhoenix {\n        require(msg.sender == phoenixCrw, \"Only Phoenix is allowed\");\n        _;\n    }\n\n    ////////////////////////////////////////////////////////////////\n    //                  Only Owner functions\n    ////////////////////////////////////////////////////////////////\n\n    /**\n     * @notice transfer tokens from contract \n     * @dev Only owner can call, tokens will be transferred and equivalent amount of ZToken will be burnt.\n     * @param _amount the amount of tokens to be transferred\n     * @param _receiver address of the receiver\n\n     */\n    function transferToken(uint256 _amount, address _receiver)\n        external\n        onlyOwner\n        onlyNonZeroAddress(_receiver)\n    {\n        require(\n            backedTokenContract.balanceOf(address(this)) >= _amount,\n            \"Insufficiet balance of token\"\n        );\n        backedTokenContract.transfer(_receiver, _amount);\n        _burn(msg.sender, _amount);\n    }\n\n    /**\n     * @notice Function called by token contract whenever tokens are deposited to this contract\n     * @dev Only token contract can call.\n     * @param _from Who transferred, not utlised\n     * @param _value The amount transferred\n     * @param data The data supplied by token contract. It will be ignored\n     */\n    function tokenFallback(\n        address _from,\n        uint256 _value,\n        bytes calldata data\n    ) external override onlyTokenContract {\n        uint256 fee = calculateCommissionMint(_value);\n        if (fee > 0) _mint(phoenixCrw, fee);\n        _mint(sellingWallet, _value.sub(fee));\n    }\n\n    ////////////////////////////////////////////////////////////////\n    //                  overriden functions\n    ////////////////////////////////////////////////////////////////\n    function decimals() public view virtual override returns (uint8) {\n        return decimal;\n    }\n\n\n    /**\n     * @notice Standard transfer function to Transfer token\n     * @dev overriden Function of the openzeppelin ERC20 contract\n     * @param recipient receiver's address\n     * @param amount The amount to be transferred\n     */\n    function transfer(address recipient, uint256 amount)\n        public\n        virtual\n        override\n        returns (bool)\n    {\n        privateTransfer(msg.sender, recipient, amount);\n        return true;\n    }\n    \n    /**\n     * @notice Standard transferFrom. Send tokens on behalf of spender\n     * @dev overriden Function of the openzeppelin ERC20 contract\n     * @param recipient receiver's address\n     * @param sender transfer token from account\n     * @param amount The amount to be transferred\n     */\n    function transferFrom(address sender, address recipient, uint256 amount)\n        public\n        virtual\n        override\n        returns (bool)\n    {\n        uint256 currentAllowance = allowance(sender, _msgSender());\n        require(currentAllowance >= amount, \"ERC20: transfer amount exceeds allowance\");\n        _approve(sender, _msgSender(), currentAllowance - amount);\n        privateTransfer(sender, recipient, amount);\n        return true;\n    }\n    \n\n    /**\n     * @notice Internal method to handle transfer logic\n     * @dev Notifies recipient, if recipient is a trusted contract\n     * @param _from Sender address\n     * @param _recipient Recipient address\n     * @param _amount amount of tokens to be transferred\n     * @return bool\n     */\n    function privateTransfer(address _from, address _recipient, uint256 _amount)\n        internal\n        onlyNonZeroAddress(_recipient)\n        returns (bool)\n    {\n        uint256 feeToOlegacy = calculateCommissionPhoenixCrw(_amount);\n        uint256 feeToZowner = calculateCommissionToZCrw(_amount);\n\n        if (feeToOlegacy > 0) _transfer(_from, phoenixCrw, feeToOlegacy);\n        if (feeToZowner > 0) _transfer(_from, zCrw, feeToZowner);\n        uint256 amount_credit = feeToZowner.add(feeToOlegacy);\n        _transfer(_from, _recipient, _amount.sub(amount_credit));\n        return true;\n    } \n \n    /**\n     * @notice update phoenix wallet address. This address will be responsible for holding commission on tokens transfer\n     * @dev Only Phoenix can call\n     * @param _user The address of phoenixCrw wallet\n     * @return Bool value\n     */\n    function updatePhoenixAddress(address _user)\n        external\n        onlyPhoenix\n        returns (bool)\n    {\n        phoenixCrw = _user;\n        return true;\n    }\n\n    /**\n     * @notice check Minting fee\n     * @dev Does not checks if sender/recipient is whitelisted\n     * @param _amount The intended amount of transfer\n     * @return uint256 Calculated commission\n     */\n    function calculateCommissionMint(uint256 _amount)\n        public\n        view\n        returns (uint256)\n    {\n        return\n            _amount\n                .mul(commission_numerator_minting)\n                .div(commission_denominator_minting)\n                .div(100);\n    }\n\n    /**\n     * @notice check transer fee credited to ZToken owner\n     * @param _amount The intended amount of transfer\n     * @return uint256 Calculated commission\n     */\n    function calculateCommissionToZCrw(uint256 _amount)\n        public\n        view\n        returns (uint256)\n    {\n        return\n            _amount\n                .mul(commission_numerator_zcrw)\n                .div(commission_denominator_zcrw)\n                .div(100);\n    }\n\n    /**\n     * @notice check transer fee credited to Phoenix\n     * @param _amount The intended amount of transfer\n     * @return uint256 Calculated commission\n     */\n    function calculateCommissionPhoenixCrw(uint256 _amount)\n        public\n        view\n        returns (uint256)\n    {\n        return\n            _amount\n                .mul(commission_numerator_phoenix_crw)\n                .div(commission_denominator_phoenix_crw)\n                .div(100);\n    }\n\n    /**\n     * @notice Update commission to be charged on each token transfer for Phoenix\n     * @dev Only Phoenix Owner can call\n     * @param _n The numerator of commission\n     * @param _d The denominator of commission\n     */\n    function updateCommssionPhoenixTransfer(uint256 _n, uint256 _d)\n        public\n        onlyPhoenix\n    {\n        commission_denominator_phoenix_crw = _d;\n        commission_numerator_phoenix_crw = _n;\n        emit CommssionUpdate(_n, _d, \"Phoenix commission\");\n    }\n\n    /**\n     * @notice Update commission to be charged on each token transfer for Z owner\n     * @dev Only owner can call\n     * @param _n The numerator of commission\n     * @param _d The denominator of commission\n     */\n    function updateCommssionZTranfer(uint256 _n, uint256 _d) public onlyOwner {\n        commission_denominator_zcrw = _d;\n        commission_numerator_zcrw = _n;\n        emit CommssionUpdate(_n, _d, \"Z owner's commission\");\n    }\n\n    /**\n     * @notice Update commission to be charged on token minting\n     * @dev Only phoenix can call\n     * @param _n The numerator of commission\n     * @param _d The denominator of commission\n     */\n    function updateCommssionMint(uint256 _n, uint256 _d) public onlyPhoenix {\n        commission_denominator_minting = _d;\n        commission_numerator_minting = _n;\n        emit CommssionUpdate(_n, _d, \"Minting commision\");\n    }\n    \n    \n    /**\n     * @notice Prevents contract from accepting ETHs\n     * @dev Contracts can still be sent ETH with self destruct. If anyone deliberately does that, the ETHs will be lost\n     */\n    receive() external payable {\n        revert(\"Contract does not accept ethers\");\n    }\n    \n    \n}\n\n/**\n * @title AdvancedOToken\n * @author Phoenix \n */    \ncontract AdvancedZToken is ZToken {\n    mapping(address => mapping(bytes32 => bool)) public tokenUsed; // mapping to track token is used or not\n    \n    bytes4 public methodWord_transfer = bytes4(keccak256(\"transfer(address,uint256)\"));\n    bytes4 public methodWord_approve = bytes4(keccak256(\"approve(address,uint256)\"));\n    bytes4 public methodWord_increaseApproval = bytes4(keccak256(\"increaseAllowance(address,uint256)\"));\n    bytes4 public methodWord_decreaseApproval = bytes4(keccak256(\"decreaseAllowance(address,uint256)\"));\n\n    using SafeMath for uint256;\n\n    constructor(\n        address _goldTokenAddress,\n        address _phoenixCrw,\n        address _zcrw,\n        address _sellingWallet)  ZToken( _goldTokenAddress, _phoenixCrw, _zcrw, _sellingWallet) {\n    }\n\n    /**\n    * @dev ID of the executing chain\n    * @return uint value\n     */\n    function getChainID() public view returns (uint256) {\n        uint256 id;\n        assembly {\n            id := chainid()\n        }\n        return id;\n    }\n\n    /**\n     * @notice Validates the message and signature\n     * @param proof The message that was expected to be signed by user\n     * @param message The message that user signed\n     * @param r Signature component\n     * @param s Signature component\n     * @param v Signature component\n     * @param token The unique token for each delegated function\n     * @return address Signer of message\n     */\n    function preAuthValidations(bytes32 proof, bytes32 message, bytes32 token, bytes32 r, bytes32 s, uint8 v)\n        private\n        returns(address)\n    {\n        address signer = getSigner(message, r, s, v);\n        require(signer != address(0),\"Zero address not allowed\");\n        require(!tokenUsed[signer][token],\"Token already used\");\n        require(proof == message, \"Invalid proof\");\n        tokenUsed[signer][token] = true;\n        return signer;\n    }\n\n    /**\n     * @notice Find signer\n     * @param message The message that user signed\n     * @param r Signature component\n     * @param s Signature component\n     * @param v Signature component\n     * @return address Signer of message\n     */\n    function getSigner(bytes32 message, bytes32 r, bytes32 s, uint8 v)\n        public\n        pure\n        returns (address)\n    {\n        bytes memory prefix = \"\\x19Ethereum Signed Message:\\n32\";\n        bytes32 prefixedHash = keccak256(abi.encodePacked(prefix, message));\n        address signer = ecrecover(prefixedHash, v, r, s);\n        return signer;\n    }\n\n     /**\n     * @notice Delegated transfer. Gas fee will be paid by relayer\n     * @param message The message that user signed\n     * @param r Signature component\n     * @param s Signature component\n     * @param v Signature component\n     * @param token The unique token for each delegated function\n     * @param networkFee The fee that will be paid to relayer for gas fee he spends\n     * @param to The array of recipients\n     * @param amount The array of amounts to be transferred\n     */\n    function preAuthorizedTransfer(\n        bytes32 message, bytes32 r, bytes32 s, uint8 v, bytes32 token, uint256 networkFee, address to, uint256 amount)\n        public\n    {\n        bytes32 proof = getProofTransfer(methodWord_transfer, token, networkFee, msg.sender, to, amount);\n        address signer = preAuthValidations(proof, message, token, r, s, v);\n\n        // Deduct network fee if broadcaster charges network fee\n        if (networkFee > 0) {\n            privateTransfer(signer, msg.sender, networkFee);\n        }\n        privateTransfer(signer, to, amount);\n        emit TransferPreSigned(signer, to, amount, networkFee);\n    }\n\n    /**\n     * @notice Delegated approval. Gas fee will be paid by relayer\n     * @dev Only approve, increaseApproval and decreaseApproval can be delegated\n     * @param message The message that user signed\n     * @param r Signature component\n     * @param s Signature component\n     * @param v Signature component\n     * @param token The unique token for each delegated function\n     * @param networkFee The fee that will be paid to relayer for gas fee he spends\n     * @param to The spender address\n     * @param amount The amount to be allowed\n     * @return Bool value\n     */\n    function preAuthorizedApproval(\n        bytes4 methodHash, bytes32 message, bytes32 r, bytes32 s, uint8 v, bytes32 token, uint256 networkFee, address to, uint256 amount)\n        public\n        returns (bool)\n    {\n        bytes32 proof = getProofApproval (methodHash, token, networkFee, msg.sender, to, amount);\n        address signer = preAuthValidations(proof, message, token, r, s, v);\n        uint256 currentAllowance = allowance(signer, _msgSender());\n        // Perform approval\n        if(methodHash == methodWord_approve) _approve(signer, to, amount);\n        else if(methodHash == methodWord_increaseApproval) _approve(signer, to, currentAllowance.add(amount));\n        else if(methodHash == methodWord_decreaseApproval) _approve(signer, to, currentAllowance.sub(amount));\n        return true;\n    }\n\n    /**\n     * @notice Get the message to be signed in case of delegated transfer/approvals\n     * @param methodHash The method hash for which delegate action in to be performed\n     * @param token The unique token for each delegated function\n     * @param networkFee The fee that will be paid to relayer for gas fee he spends\n     * @param to The recipient or spender\n     * @param amount The amount to be transferred\n     * @return Bool value\n     */\n    function getProofTransfer(bytes4 methodHash, bytes32 token, uint256 networkFee, address broadcaster, address to, uint256 amount)\n        public\n        view\n        returns (bytes32)\n    {\n        require(methodHash == methodWord_transfer, \"Method not supported\");\n        bytes32 proof = keccak256(abi.encodePacked(\n            getChainID(),\n            bytes4(methodHash),\n            address(this),\n            token,\n            networkFee,\n            broadcaster,\n            to,\n            amount\n    ));\n        return proof;\n    }\n\n    /**\n     * @notice Get the message to be signed in case of delegated transfer/approvals\n     * @param methodHash The method hash for which delegate action in to be performed\n     * @param token The unique token for each delegated function\n     * @param networkFee The fee that will be paid to relayer for gas fee he spends\n     * @param to The recipient or spender\n     * @param amount The amount to be approved\n     * @return Bool value\n     */\n    function getProofApproval(bytes4 methodHash, bytes32 token, uint256 networkFee, address broadcaster, address to, uint256 amount)\n        public\n        view\n        returns (bytes32)\n    {\n        require(\n            methodHash == methodWord_approve ||\n            methodHash == methodWord_increaseApproval ||\n            methodHash == methodWord_decreaseApproval,\n            \"Method not supported\");\n        bytes32 proof = keccak256(abi.encodePacked(\n            getChainID(),\n            bytes4(methodHash),\n            address(this),\n            token,\n            networkFee,\n            broadcaster,\n            to,\n            amount\n        ));\n        return proof;\n    }\n    \n}",
  "sourcePath": "/home/prashant/projects/z-token-smartcontract/contracts/AdvancedZToken.sol",
  "compiler": {
    "name": "solc",
    "version": "0.8.0+commit.c7dfd78e.Emscripten.clang"
  },
  "schemaVersion": "3.4.1",
  "updatedAt": "2021-07-06T08:26:57.510Z",
  "networkType": "ethereum",
  "devdoc": {
    "author": "Phoenix ",
    "kind": "dev",
    "methods": {
      "allowance(address,address)": {
        "details": "See {IERC20-allowance}."
      },
      "approve(address,uint256)": {
        "details": "See {IERC20-approve}. Requirements: - `spender` cannot be the zero address."
      },
      "balanceOf(address)": {
        "details": "See {IERC20-balanceOf}."
      },
      "calculateCommissionMint(uint256)": {
        "details": "Does not checks if sender/recipient is whitelisted",
        "params": {
          "_amount": "The intended amount of transfer"
        },
        "returns": {
          "_0": "uint256 Calculated commission"
        }
      },
      "calculateCommissionPhoenixCrw(uint256)": {
        "params": {
          "_amount": "The intended amount of transfer"
        },
        "returns": {
          "_0": "uint256 Calculated commission"
        }
      },
      "calculateCommissionToZCrw(uint256)": {
        "params": {
          "_amount": "The intended amount of transfer"
        },
        "returns": {
          "_0": "uint256 Calculated commission"
        }
      },
      "decimals()": {
        "details": "Returns the number of decimals used to get its user representation. For example, if `decimals` equals `2`, a balance of `505` tokens should be displayed to a user as `5,05` (`505 / 10 ** 2`). Tokens usually opt for a value of 18, imitating the relationship between Ether and Wei. This is the value {ERC20} uses, unless this function is overridden; NOTE: This information is only used for _display_ purposes: it in no way affects any of the arithmetic of the contract, including {IERC20-balanceOf} and {IERC20-transfer}."
      },
      "decreaseAllowance(address,uint256)": {
        "details": "Atomically decreases the allowance granted to `spender` by the caller. This is an alternative to {approve} that can be used as a mitigation for problems described in {IERC20-approve}. Emits an {Approval} event indicating the updated allowance. Requirements: - `spender` cannot be the zero address. - `spender` must have allowance for the caller of at least `subtractedValue`."
      },
      "getChainID()": {
        "details": "ID of the executing chain",
        "returns": {
          "_0": "uint value"
        }
      },
      "getProofApproval(bytes4,bytes32,uint256,address,address,uint256)": {
        "params": {
          "amount": "The amount to be approved",
          "methodHash": "The method hash for which delegate action in to be performed",
          "networkFee": "The fee that will be paid to relayer for gas fee he spends",
          "to": "The recipient or spender",
          "token": "The unique token for each delegated function"
        },
        "returns": {
          "_0": "Bool value"
        }
      },
      "getProofTransfer(bytes4,bytes32,uint256,address,address,uint256)": {
        "params": {
          "amount": "The amount to be transferred",
          "methodHash": "The method hash for which delegate action in to be performed",
          "networkFee": "The fee that will be paid to relayer for gas fee he spends",
          "to": "The recipient or spender",
          "token": "The unique token for each delegated function"
        },
        "returns": {
          "_0": "Bool value"
        }
      },
      "getSigner(bytes32,bytes32,bytes32,uint8)": {
        "params": {
          "message": "The message that user signed",
          "r": "Signature component",
          "s": "Signature component",
          "v": "Signature component"
        },
        "returns": {
          "_0": "address Signer of message"
        }
      },
      "increaseAllowance(address,uint256)": {
        "details": "Atomically increases the allowance granted to `spender` by the caller. This is an alternative to {approve} that can be used as a mitigation for problems described in {IERC20-approve}. Emits an {Approval} event indicating the updated allowance. Requirements: - `spender` cannot be the zero address."
      },
      "name()": {
        "details": "Returns the name of the token."
      },
      "owner()": {
        "details": "Returns the address of the current owner."
      },
      "preAuthorizedApproval(bytes4,bytes32,bytes32,bytes32,uint8,bytes32,uint256,address,uint256)": {
        "details": "Only approve, increaseApproval and decreaseApproval can be delegated",
        "params": {
          "amount": "The amount to be allowed",
          "message": "The message that user signed",
          "networkFee": "The fee that will be paid to relayer for gas fee he spends",
          "r": "Signature component",
          "s": "Signature component",
          "to": "The spender address",
          "token": "The unique token for each delegated function",
          "v": "Signature component"
        },
        "returns": {
          "_0": "Bool value"
        }
      },
      "preAuthorizedTransfer(bytes32,bytes32,bytes32,uint8,bytes32,uint256,address,uint256)": {
        "params": {
          "amount": "The array of amounts to be transferred",
          "message": "The message that user signed",
          "networkFee": "The fee that will be paid to relayer for gas fee he spends",
          "r": "Signature component",
          "s": "Signature component",
          "to": "The array of recipients",
          "token": "The unique token for each delegated function",
          "v": "Signature component"
        }
      },
      "renounceOwnership()": {
        "details": "Leaves the contract without owner. It will not be possible to call `onlyOwner` functions anymore. Can only be called by the current owner. NOTE: Renouncing ownership will leave the contract without an owner, thereby removing any functionality that is only available to the owner."
      },
      "symbol()": {
        "details": "Returns the symbol of the token, usually a shorter version of the name."
      },
      "tokenFallback(address,uint256,bytes)": {
        "details": "Only token contract can call.",
        "params": {
          "_from": "Who transferred, not utlised",
          "_value": "The amount transferred",
          "data": "The data supplied by token contract. It will be ignored"
        }
      },
      "totalSupply()": {
        "details": "See {IERC20-totalSupply}."
      },
      "transfer(address,uint256)": {
        "details": "overriden Function of the openzeppelin ERC20 contract",
        "params": {
          "amount": "The amount to be transferred",
          "recipient": "receiver's address"
        }
      },
      "transferFrom(address,address,uint256)": {
        "details": "overriden Function of the openzeppelin ERC20 contract",
        "params": {
          "amount": "The amount to be transferred",
          "recipient": "receiver's address",
          "sender": "transfer token from account"
        }
      },
      "transferOwnership(address)": {
        "details": "Transfers ownership of the contract to a new account (`newOwner`). Can only be called by the current owner."
      },
      "transferToken(uint256,address)": {
        "details": "Only owner can call, tokens will be transferred and equivalent amount of ZToken will be burnt.",
        "params": {
          "_amount": "the amount of tokens to be transferred",
          "_receiver": "address of the receiver"
        }
      },
      "updateCommssionMint(uint256,uint256)": {
        "details": "Only phoenix can call",
        "params": {
          "_d": "The denominator of commission",
          "_n": "The numerator of commission"
        }
      },
      "updateCommssionPhoenixTransfer(uint256,uint256)": {
        "details": "Only Phoenix Owner can call",
        "params": {
          "_d": "The denominator of commission",
          "_n": "The numerator of commission"
        }
      },
      "updateCommssionZTranfer(uint256,uint256)": {
        "details": "Only owner can call",
        "params": {
          "_d": "The denominator of commission",
          "_n": "The numerator of commission"
        }
      },
      "updatePhoenixAddress(address)": {
        "details": "Only Phoenix can call",
        "params": {
          "_user": "The address of phoenixCrw wallet"
        },
        "returns": {
          "_0": "Bool value"
        }
      }
    },
    "title": "AdvancedOToken",
    "version": 1
  },
  "userdoc": {
    "kind": "user",
    "methods": {
      "calculateCommissionMint(uint256)": {
        "notice": "check Minting fee"
      },
      "calculateCommissionPhoenixCrw(uint256)": {
        "notice": "check transer fee credited to Phoenix"
      },
      "calculateCommissionToZCrw(uint256)": {
        "notice": "check transer fee credited to ZToken owner"
      },
      "getProofApproval(bytes4,bytes32,uint256,address,address,uint256)": {
        "notice": "Get the message to be signed in case of delegated transfer/approvals"
      },
      "getProofTransfer(bytes4,bytes32,uint256,address,address,uint256)": {
        "notice": "Get the message to be signed in case of delegated transfer/approvals"
      },
      "getSigner(bytes32,bytes32,bytes32,uint8)": {
        "notice": "Find signer"
      },
      "preAuthorizedApproval(bytes4,bytes32,bytes32,bytes32,uint8,bytes32,uint256,address,uint256)": {
        "notice": "Delegated approval. Gas fee will be paid by relayer"
      },
      "preAuthorizedTransfer(bytes32,bytes32,bytes32,uint8,bytes32,uint256,address,uint256)": {
        "notice": "Delegated transfer. Gas fee will be paid by relayer"
      },
      "tokenFallback(address,uint256,bytes)": {
        "notice": "Function called by token contract whenever tokens are deposited to this contract"
      },
      "transfer(address,uint256)": {
        "notice": "Standard transfer function to Transfer token"
      },
      "transferFrom(address,address,uint256)": {
        "notice": "Standard transferFrom. Send tokens on behalf of spender"
      },
      "transferToken(uint256,address)": {
        "notice": "transfer tokens from contract "
      },
      "updateCommssionMint(uint256,uint256)": {
        "notice": "Update commission to be charged on token minting"
      },
      "updateCommssionPhoenixTransfer(uint256,uint256)": {
        "notice": "Update commission to be charged on each token transfer for Phoenix"
      },
      "updateCommssionZTranfer(uint256,uint256)": {
        "notice": "Update commission to be charged on each token transfer for Z owner"
      },
      "updatePhoenixAddress(address)": {
        "notice": "update phoenix wallet address. This address will be responsible for holding commission on tokens transfer"
      }
    },
    "version": 1
  }
}