{
  "contractName": "ERC20Token",
  "abi": [
    {
      "inputs": [
        {
          "internalType": "address",
          "name": "_goldTokenAddress",
          "type": "address"
        },
        {
          "internalType": "address",
          "name": "_phoenixCrw",
          "type": "address"
        },
        {
          "internalType": "address",
          "name": "_mytokencrw",
          "type": "address"
        },
        {
          "internalType": "address",
          "name": "_sellingWallet",
          "type": "address"
        },
        {
          "internalType": "string",
          "name": "_name",
          "type": "string"
        },
        {
          "internalType": "string",
          "name": "_symbol",
          "type": "string"
        }
      ],
      "stateMutability": "nonpayable",
      "type": "constructor"
    },
    {
      "anonymous": false,
      "inputs": [
        {
          "indexed": true,
          "internalType": "address",
          "name": "owner",
          "type": "address"
        },
        {
          "indexed": true,
          "internalType": "address",
          "name": "spender",
          "type": "address"
        },
        {
          "indexed": false,
          "internalType": "uint256",
          "name": "value",
          "type": "uint256"
        }
      ],
      "name": "Approval",
      "type": "event"
    },
    {
      "anonymous": false,
      "inputs": [
        {
          "indexed": false,
          "internalType": "uint256",
          "name": "_numerator",
          "type": "uint256"
        },
        {
          "indexed": false,
          "internalType": "uint256",
          "name": "_denominator",
          "type": "uint256"
        },
        {
          "indexed": false,
          "internalType": "string",
          "name": "_data",
          "type": "string"
        }
      ],
      "name": "CommssionUpdate",
      "type": "event"
    },
    {
      "anonymous": false,
      "inputs": [
        {
          "indexed": true,
          "internalType": "address",
          "name": "previousOwner",
          "type": "address"
        },
        {
          "indexed": true,
          "internalType": "address",
          "name": "newOwner",
          "type": "address"
        }
      ],
      "name": "OwnershipTransferred",
      "type": "event"
    },
    {
      "anonymous": false,
      "inputs": [
        {
          "indexed": true,
          "internalType": "address",
          "name": "from",
          "type": "address"
        },
        {
          "indexed": true,
          "internalType": "address",
          "name": "to",
          "type": "address"
        },
        {
          "indexed": false,
          "internalType": "uint256",
          "name": "value",
          "type": "uint256"
        }
      ],
      "name": "Transfer",
      "type": "event"
    },
    {
      "anonymous": false,
      "inputs": [
        {
          "indexed": false,
          "internalType": "address",
          "name": "_from",
          "type": "address"
        },
        {
          "indexed": false,
          "internalType": "address",
          "name": "_to",
          "type": "address"
        },
        {
          "indexed": false,
          "internalType": "uint256",
          "name": "_value",
          "type": "uint256"
        },
        {
          "indexed": false,
          "internalType": "uint256",
          "name": "_networkFee",
          "type": "uint256"
        }
      ],
      "name": "TransferPreSigned",
      "type": "event"
    },
    {
      "inputs": [
        {
          "internalType": "address",
          "name": "owner",
          "type": "address"
        },
        {
          "internalType": "address",
          "name": "spender",
          "type": "address"
        }
      ],
      "name": "allowance",
      "outputs": [
        {
          "internalType": "uint256",
          "name": "",
          "type": "uint256"
        }
      ],
      "stateMutability": "view",
      "type": "function"
    },
    {
      "inputs": [
        {
          "internalType": "address",
          "name": "spender",
          "type": "address"
        },
        {
          "internalType": "uint256",
          "name": "amount",
          "type": "uint256"
        }
      ],
      "name": "approve",
      "outputs": [
        {
          "internalType": "bool",
          "name": "",
          "type": "bool"
        }
      ],
      "stateMutability": "nonpayable",
      "type": "function"
    },
    {
      "inputs": [
        {
          "internalType": "address",
          "name": "account",
          "type": "address"
        }
      ],
      "name": "balanceOf",
      "outputs": [
        {
          "internalType": "uint256",
          "name": "",
          "type": "uint256"
        }
      ],
      "stateMutability": "view",
      "type": "function"
    },
    {
      "inputs": [],
      "name": "commission_denominator_minting",
      "outputs": [
        {
          "internalType": "uint256",
          "name": "",
          "type": "uint256"
        }
      ],
      "stateMutability": "view",
      "type": "function"
    },
    {
      "inputs": [],
      "name": "commission_denominator_phoenix_crw",
      "outputs": [
        {
          "internalType": "uint256",
          "name": "",
          "type": "uint256"
        }
      ],
      "stateMutability": "view",
      "type": "function"
    },
    {
      "inputs": [],
      "name": "commission_denominator_tokenCrw",
      "outputs": [
        {
          "internalType": "uint256",
          "name": "",
          "type": "uint256"
        }
      ],
      "stateMutability": "view",
      "type": "function"
    },
    {
      "inputs": [],
      "name": "commission_numerator_minting",
      "outputs": [
        {
          "internalType": "uint256",
          "name": "",
          "type": "uint256"
        }
      ],
      "stateMutability": "view",
      "type": "function"
    },
    {
      "inputs": [],
      "name": "commission_numerator_phoenix_crw",
      "outputs": [
        {
          "internalType": "uint256",
          "name": "",
          "type": "uint256"
        }
      ],
      "stateMutability": "view",
      "type": "function"
    },
    {
      "inputs": [],
      "name": "commission_numerator_tokenCrw",
      "outputs": [
        {
          "internalType": "uint256",
          "name": "",
          "type": "uint256"
        }
      ],
      "stateMutability": "view",
      "type": "function"
    },
    {
      "inputs": [
        {
          "internalType": "address",
          "name": "spender",
          "type": "address"
        },
        {
          "internalType": "uint256",
          "name": "subtractedValue",
          "type": "uint256"
        }
      ],
      "name": "decreaseAllowance",
      "outputs": [
        {
          "internalType": "bool",
          "name": "",
          "type": "bool"
        }
      ],
      "stateMutability": "nonpayable",
      "type": "function"
    },
    {
      "inputs": [
        {
          "internalType": "address",
          "name": "spender",
          "type": "address"
        },
        {
          "internalType": "uint256",
          "name": "addedValue",
          "type": "uint256"
        }
      ],
      "name": "increaseAllowance",
      "outputs": [
        {
          "internalType": "bool",
          "name": "",
          "type": "bool"
        }
      ],
      "stateMutability": "nonpayable",
      "type": "function"
    },
    {
      "inputs": [],
      "name": "myTokenCrw",
      "outputs": [
        {
          "internalType": "address",
          "name": "",
          "type": "address"
        }
      ],
      "stateMutability": "view",
      "type": "function"
    },
    {
      "inputs": [],
      "name": "name",
      "outputs": [
        {
          "internalType": "string",
          "name": "",
          "type": "string"
        }
      ],
      "stateMutability": "view",
      "type": "function"
    },
    {
      "inputs": [],
      "name": "owner",
      "outputs": [
        {
          "internalType": "address",
          "name": "",
          "type": "address"
        }
      ],
      "stateMutability": "view",
      "type": "function"
    },
    {
      "inputs": [],
      "name": "phoenixCrw",
      "outputs": [
        {
          "internalType": "address",
          "name": "",
          "type": "address"
        }
      ],
      "stateMutability": "view",
      "type": "function"
    },
    {
      "inputs": [],
      "name": "renounceOwnership",
      "outputs": [],
      "stateMutability": "nonpayable",
      "type": "function"
    },
    {
      "inputs": [],
      "name": "sellingWallet",
      "outputs": [
        {
          "internalType": "address",
          "name": "",
          "type": "address"
        }
      ],
      "stateMutability": "view",
      "type": "function"
    },
    {
      "inputs": [],
      "name": "symbol",
      "outputs": [
        {
          "internalType": "string",
          "name": "",
          "type": "string"
        }
      ],
      "stateMutability": "view",
      "type": "function"
    },
    {
      "inputs": [],
      "name": "totalSupply",
      "outputs": [
        {
          "internalType": "uint256",
          "name": "",
          "type": "uint256"
        }
      ],
      "stateMutability": "view",
      "type": "function"
    },
    {
      "inputs": [
        {
          "internalType": "address",
          "name": "newOwner",
          "type": "address"
        }
      ],
      "name": "transferOwnership",
      "outputs": [],
      "stateMutability": "nonpayable",
      "type": "function"
    },
    {
      "stateMutability": "payable",
      "type": "receive"
    },
    {
      "inputs": [
        {
          "internalType": "uint256",
          "name": "_amount",
          "type": "uint256"
        },
        {
          "internalType": "address",
          "name": "_receiver",
          "type": "address"
        }
      ],
      "name": "transferToken",
      "outputs": [],
      "stateMutability": "nonpayable",
      "type": "function"
    },
    {
      "inputs": [
        {
          "internalType": "address",
          "name": "_from",
          "type": "address"
        },
        {
          "internalType": "uint256",
          "name": "_value",
          "type": "uint256"
        },
        {
          "internalType": "bytes",
          "name": "data",
          "type": "bytes"
        }
      ],
      "name": "tokenFallback",
      "outputs": [],
      "stateMutability": "nonpayable",
      "type": "function"
    },
    {
      "inputs": [],
      "name": "decimals",
      "outputs": [
        {
          "internalType": "uint8",
          "name": "",
          "type": "uint8"
        }
      ],
      "stateMutability": "view",
      "type": "function"
    },
    {
      "inputs": [
        {
          "internalType": "address",
          "name": "recipient",
          "type": "address"
        },
        {
          "internalType": "uint256",
          "name": "amount",
          "type": "uint256"
        }
      ],
      "name": "transfer",
      "outputs": [
        {
          "internalType": "bool",
          "name": "",
          "type": "bool"
        }
      ],
      "stateMutability": "nonpayable",
      "type": "function"
    },
    {
      "inputs": [
        {
          "internalType": "address",
          "name": "sender",
          "type": "address"
        },
        {
          "internalType": "address",
          "name": "recipient",
          "type": "address"
        },
        {
          "internalType": "uint256",
          "name": "amount",
          "type": "uint256"
        }
      ],
      "name": "transferFrom",
      "outputs": [
        {
          "internalType": "bool",
          "name": "",
          "type": "bool"
        }
      ],
      "stateMutability": "nonpayable",
      "type": "function"
    },
    {
      "inputs": [
        {
          "internalType": "address",
          "name": "_user",
          "type": "address"
        }
      ],
      "name": "updatePhoenixAddress",
      "outputs": [
        {
          "internalType": "bool",
          "name": "",
          "type": "bool"
        }
      ],
      "stateMutability": "nonpayable",
      "type": "function"
    },
    {
      "inputs": [
        {
          "internalType": "uint256",
          "name": "_amount",
          "type": "uint256"
        }
      ],
      "name": "calculateCommissionMint",
      "outputs": [
        {
          "internalType": "uint256",
          "name": "",
          "type": "uint256"
        }
      ],
      "stateMutability": "view",
      "type": "function"
    },
    {
      "inputs": [
        {
          "internalType": "uint256",
          "name": "_amount",
          "type": "uint256"
        }
      ],
      "name": "calculateCommissionMyTokenCrw",
      "outputs": [
        {
          "internalType": "uint256",
          "name": "",
          "type": "uint256"
        }
      ],
      "stateMutability": "view",
      "type": "function"
    },
    {
      "inputs": [
        {
          "internalType": "uint256",
          "name": "_amount",
          "type": "uint256"
        }
      ],
      "name": "calculateCommissionPhoenixCrw",
      "outputs": [
        {
          "internalType": "uint256",
          "name": "",
          "type": "uint256"
        }
      ],
      "stateMutability": "view",
      "type": "function"
    },
    {
      "inputs": [
        {
          "internalType": "uint256",
          "name": "_n",
          "type": "uint256"
        },
        {
          "internalType": "uint256",
          "name": "_d",
          "type": "uint256"
        }
      ],
      "name": "updateCommssionPhoenixTransfer",
      "outputs": [],
      "stateMutability": "nonpayable",
      "type": "function"
    },
    {
      "inputs": [
        {
          "internalType": "uint256",
          "name": "_n",
          "type": "uint256"
        },
        {
          "internalType": "uint256",
          "name": "_d",
          "type": "uint256"
        }
      ],
      "name": "updateCommssionMyTokenTranfer",
      "outputs": [],
      "stateMutability": "nonpayable",
      "type": "function"
    },
    {
      "inputs": [
        {
          "internalType": "uint256",
          "name": "_n",
          "type": "uint256"
        },
        {
          "internalType": "uint256",
          "name": "_d",
          "type": "uint256"
        }
      ],
      "name": "updateCommssionMint",
      "outputs": [],
      "stateMutability": "nonpayable",
      "type": "function"
    }
  ],
  "bytecode": "0x60806040526006805460ff60a01b1916600160a31b179055600160078190556004600855600981905560c8600a819055600b91909155600c553480156200004557600080fd5b5060405162001f9b38038062001f9b833981016040819052620000689162000393565b81816200007e62000078620001cc565b620001d0565b8151620000939060049060208501906200022a565b508051620000a99060059060208401906200022a565b50505085620000cc816001600160a01b03166200022060201b62000d5d1760201c565b620000f45760405162461bcd60e51b8152600401620000eb9062000444565b60405180910390fd5b856001600160a01b0381166200011e5760405162461bcd60e51b8152600401620000eb906200047b565b856001600160a01b038116620001485760405162461bcd60e51b8152600401620000eb906200047b565b856001600160a01b038116620001725760405162461bcd60e51b8152600401620000eb906200047b565b5050600680546001600160a01b03199081166001600160a01b039a8b1617909155600d80548216988a16989098179097555050600e805486169487169490941790935550600f805490931693169290921790555062000505565b3390565b600080546001600160a01b038381166001600160a01b0319831681178455604051919092169283917f8be0079c531659141344cd1fd0a4f28419497f9722a3daafe3b4186f6b6457e09190a35050565b803b15155b919050565b8280546200023890620004b2565b90600052602060002090601f0160209004810192826200025c5760008555620002a7565b82601f106200027757805160ff1916838001178555620002a7565b82800160010185558215620002a7579182015b82811115620002a75782518255916020019190600101906200028a565b50620002b5929150620002b9565b5090565b5b80821115620002b55760008155600101620002ba565b80516001600160a01b03811681146200022557600080fd5b600082601f830112620002f9578081fd5b81516001600160401b0380821115620003165762000316620004ef565b6040516020601f8401601f19168201810183811183821017156200033e576200033e620004ef565b604052838252858401810187101562000355578485fd5b8492505b8383101562000378578583018101518284018201529182019162000359565b838311156200038957848185840101525b5095945050505050565b60008060008060008060c08789031215620003ac578182fd5b620003b787620002d0565b9550620003c760208801620002d0565b9450620003d760408801620002d0565b9350620003e760608801620002d0565b60808801519093506001600160401b038082111562000404578384fd5b620004128a838b01620002e8565b935060a089015191508082111562000428578283fd5b506200043789828a01620002e8565b9150509295509295509295565b60208082526018908201527f4f6e6c7920636f6e747261637420697320616c6c6f7765640000000000000000604082015260600190565b60208082526018908201527f5a65726f2061646472657373206e6f7420616c6c6f7765640000000000000000604082015260600190565b600281046001821680620004c757607f821691505b60208210811415620004e957634e487b7160e01b600052602260045260246000fd5b50919050565b634e487b7160e01b600052604160045260246000fd5b611a8680620005156000396000f3fe6080604052600436106101e75760003560e01c806394a5842511610102578063bad4259011610095578063e9891d7f11610064578063e9891d7f1461054f578063f2fde38b1461056f578063f97cedf71461058f578063facd7ecf146105a45761020d565b8063bad42590146104da578063c0ee0b8a146104fa578063cfcb9f591461051a578063dd62ed3e1461052f5761020d565b8063a457c2d7116100d1578063a457c2d71461045a578063a5d3d7281461047a578063a9059cbb1461049a578063a93dfb0d146104ba5761020d565b806394a58425146103f057806395d89b41146104055780639bc0df6c1461041a5780639dd0953f1461043a5761020d565b80633691e0cf1161017a57806370a082311161014957806370a0823114610391578063715018a6146103b15780637b6b6b27146103c65780638da5cb5b146103db5761020d565b80633691e0cf14610325578063395093511461033a5780633a3be9d41461035a57806364f3448f1461037c5761020d565b806318160ddd116101b657806318160ddd146102ae5780631cde8a63146102c357806323b872dd146102e3578063313ce567146103035761020d565b8063037311581461021257806306fdde031461023d578063095ea7b31461025f5780630ba4adcd1461028c5761020d565b3661020d5760405162461bcd60e51b815260040161020490611629565b60405180910390fd5b600080fd5b34801561021e57600080fd5b506102276105b9565b60405161023491906118c8565b60405180910390f35b34801561024957600080fd5b506102526105bf565b604051610234919061144c565b34801561026b57600080fd5b5061027f61027a3660046112d6565b610651565b6040516102349190611441565b34801561029857600080fd5b506102ac6102a73660046113f3565b61066e565b005b3480156102ba57600080fd5b506102276106f5565b3480156102cf57600080fd5b506102276102de3660046113a1565b6106fb565b3480156102ef57600080fd5b5061027f6102fe36600461129b565b61072b565b34801561030f57600080fd5b5061031861078e565b6040516102349190611983565b34801561033157600080fd5b5061022761079e565b34801561034657600080fd5b5061027f6103553660046112d6565b6107a4565b34801561036657600080fd5b5061036f6107f3565b6040516102349190611414565b34801561038857600080fd5b5061036f610802565b34801561039d57600080fd5b506102276103ac36600461124f565b610811565b3480156103bd57600080fd5b506102ac61082c565b3480156103d257600080fd5b50610227610877565b3480156103e757600080fd5b5061036f61087d565b3480156103fc57600080fd5b5061036f61088c565b34801561041157600080fd5b5061025261089b565b34801561042657600080fd5b506102276104353660046113a1565b6108aa565b34801561044657600080fd5b506102ac6104553660046113f3565b6108cc565b34801561046657600080fd5b5061027f6104753660046112d6565b610932565b34801561048657600080fd5b506102ac6104953660046113f3565b6109ab565b3480156104a657600080fd5b5061027f6104b53660046112d6565b610a11565b3480156104c657600080fd5b506102276104d53660046113a1565b610a1e565b3480156104e657600080fd5b506102ac6104f53660046113d1565b610a40565b34801561050657600080fd5b506102ac6105153660046112ff565b610be4565b34801561052657600080fd5b50610227610c5d565b34801561053b57600080fd5b5061022761054a366004611269565b610c63565b34801561055b57600080fd5b5061027f61056a36600461124f565b610c8e565b34801561057b57600080fd5b506102ac61058a36600461124f565b610ce0565b34801561059b57600080fd5b50610227610d51565b3480156105b057600080fd5b50610227610d57565b600c5481565b6060600480546105ce906119ff565b80601f01602080910402602001604051908101604052809291908181526020018280546105fa906119ff565b80156106475780601f1061061c57610100808354040283529160200191610647565b820191906000526020600020905b81548152906001019060200180831161062a57829003601f168201915b5050505050905090565b600061066561065e610d63565b8484610d67565b50600192915050565b610676610d63565b6001600160a01b031661068761087d565b6001600160a01b0316146106ad5760405162461bcd60e51b8152600401610204906116df565b600a81905560098290556040517f52157bec5b4f5ad5638e2f13345ca278ff8655617888654f1f51af41367b2477906106e990849084906118d1565b60405180910390a15050565b60035490565b6000610723606461071d600c5461071d600b5487610e1b90919063ffffffff16565b90610e2e565b90505b919050565b60008061073a8561054a610d63565b90508281101561075c5760405162461bcd60e51b815260040161020490611697565b61077785610768610d63565b6107728487610e3a565b610d67565b610782858585610e46565b50600195945050505050565b600654600160a01b900460ff1690565b600a5481565b60006106656107b1610d63565b8484600260006107bf610d63565b6001600160a01b03908116825260208083019390935260409182016000908120918b16815292529020546107729190611991565b600d546001600160a01b031681565b600f546001600160a01b031681565b6001600160a01b031660009081526001602052604090205490565b610834610d63565b6001600160a01b031661084561087d565b6001600160a01b03161461086b5760405162461bcd60e51b8152600401610204906116df565b6108756000610ef5565b565b60075481565b6000546001600160a01b031690565b600e546001600160a01b031681565b6060600580546105ce906119ff565b6000610723606461071d600a5461071d60095487610e1b90919063ffffffff16565b600d546001600160a01b031633146108f65760405162461bcd60e51b815260040161020490611755565b600881905560078290556040517f52157bec5b4f5ad5638e2f13345ca278ff8655617888654f1f51af41367b2477906106e99084908490611914565b60008060026000610941610d63565b6001600160a01b039081168252602080830193909352604091820160009081209188168152925290205490508281101561098d5760405162461bcd60e51b81526004016102049061184c565b6109a1610998610d63565b85858403610d67565b5060019392505050565b600d546001600160a01b031633146109d55760405162461bcd60e51b815260040161020490611755565b600c819055600b8290556040517f52157bec5b4f5ad5638e2f13345ca278ff8655617888654f1f51af41367b2477906106e9908490849061194b565b60006109a1338484610e46565b6000610723606461071d60085461071d60075487610e1b90919063ffffffff16565b610a48610d63565b6001600160a01b0316610a5961087d565b6001600160a01b031614610a7f5760405162461bcd60e51b8152600401610204906116df565b806001600160a01b038116610aa65760405162461bcd60e51b815260040161020490611815565b6006546040516370a0823160e01b815284916001600160a01b0316906370a0823190610ad6903090600401611414565b60206040518083038186803b158015610aee57600080fd5b505afa158015610b02573d6000803e3d6000fd5b505050506040513d601f19601f82011682018060405250810190610b2691906113b9565b1015610b445760405162461bcd60e51b8152600401610204906114e2565b60065460405163a9059cbb60e01b81526001600160a01b039091169063a9059cbb90610b769085908790600401611428565b602060405180830381600087803b158015610b9057600080fd5b505af1158015610ba4573d6000803e3d6000fd5b505050506040513d601f19601f82011682018060405250810190610bc89190611381565b50600f54610bdf906001600160a01b031684610f45565b505050565b6006546001600160a01b03163314610c0e5760405162461bcd60e51b815260040161020490611660565b6000610c1984610a1e565b90508015610c3757600d54610c37906001600160a01b031682611036565b600f54610c56906001600160a01b0316610c518684610e3a565b611036565b5050505050565b60085481565b6001600160a01b03918216600090815260026020908152604080832093909416825291909152205490565b600d546000906001600160a01b03163314610cbb5760405162461bcd60e51b815260040161020490611755565b50600d80546001600160a01b0383166001600160a01b03199091161790556001919050565b610ce8610d63565b6001600160a01b0316610cf961087d565b6001600160a01b031614610d1f5760405162461bcd60e51b8152600401610204906116df565b6001600160a01b038116610d455760405162461bcd60e51b81526004016102049061155b565b610d4e81610ef5565b50565b60095481565b600b5481565b3b151590565b3390565b6001600160a01b038316610d8d5760405162461bcd60e51b8152600401610204906117d1565b6001600160a01b038216610db35760405162461bcd60e51b8152600401610204906115a1565b6001600160a01b0380841660008181526002602090815260408083209487168084529490915290819020849055517f8c5be1e5ebec7d5bd14f71427d1e84f3dd0314c0f7b2291e5b200ac8c7c3b92590610e0e9085906118c8565b60405180910390a3505050565b6000610e2782846119c9565b9392505050565b6000610e2782846119a9565b6000610e2782846119e8565b6000826001600160a01b038116610e6f5760405162461bcd60e51b815260040161020490611815565b6000610e7a846106fb565b90506000610e87856108aa565b90508115610ea757600d54610ea79088906001600160a01b031684611102565b8015610ec557600e54610ec59088906001600160a01b031683611102565b6000610ed1828461122c565b9050610ee78888610ee28985610e3a565b611102565b506001979650505050505050565b600080546001600160a01b038381166001600160a01b0319831681178455604051919092169283917f8be0079c531659141344cd1fd0a4f28419497f9722a3daafe3b4186f6b6457e09190a35050565b6001600160a01b038216610f6b5760405162461bcd60e51b815260040161020490611714565b610f7782600083610bdf565b6001600160a01b03821660009081526001602052604090205481811015610fb05760405162461bcd60e51b815260040161020490611519565b6001600160a01b0383166000908152600160205260408120838303905560038054849290610fdf9084906119e8565b90915550506040516000906001600160a01b038516907fddf252ad1be2c89b69c2b068fc378daa952ba7f163c4a11628f55a4df523b3ef906110229086906118c8565b60405180910390a3610bdf83600084610bdf565b6001600160a01b03821661105c5760405162461bcd60e51b815260040161020490611891565b61106860008383610bdf565b806003600082825461107a9190611991565b90915550506001600160a01b038216600090815260016020526040812080548392906110a7908490611991565b90915550506040516001600160a01b038316906000907fddf252ad1be2c89b69c2b068fc378daa952ba7f163c4a11628f55a4df523b3ef906110ea9085906118c8565b60405180910390a36110fe60008383610bdf565b5050565b6001600160a01b0383166111285760405162461bcd60e51b81526004016102049061178c565b6001600160a01b03821661114e5760405162461bcd60e51b81526004016102049061149f565b611159838383610bdf565b6001600160a01b038316600090815260016020526040902054818110156111925760405162461bcd60e51b8152600401610204906115e3565b6001600160a01b038085166000908152600160205260408082208585039055918516815290812080548492906111c9908490611991565b92505081905550826001600160a01b0316846001600160a01b03167fddf252ad1be2c89b69c2b068fc378daa952ba7f163c4a11628f55a4df523b3ef8460405161121391906118c8565b60405180910390a3611226848484610bdf565b50505050565b6000610e278284611991565b80356001600160a01b038116811461072657600080fd5b600060208284031215611260578081fd5b610e2782611238565b6000806040838503121561127b578081fd5b61128483611238565b915061129260208401611238565b90509250929050565b6000806000606084860312156112af578081fd5b6112b884611238565b92506112c660208501611238565b9150604084013590509250925092565b600080604083850312156112e8578182fd5b6112f183611238565b946020939093013593505050565b60008060008060608587031215611314578081fd5b61131d85611238565b935060208501359250604085013567ffffffffffffffff80821115611340578283fd5b818701915087601f830112611353578283fd5b813581811115611361578384fd5b886020828501011115611372578384fd5b95989497505060200194505050565b600060208284031215611392578081fd5b81518015158114610e27578182fd5b6000602082840312156113b2578081fd5b5035919050565b6000602082840312156113ca578081fd5b5051919050565b600080604083850312156113e3578182fd5b8235915061129260208401611238565b60008060408385031215611405578182fd5b50508035926020909101359150565b6001600160a01b0391909116815260200190565b6001600160a01b03929092168252602082015260400190565b901515815260200190565b6000602080835283518082850152825b818110156114785785810183015185820160400152820161145c565b818111156114895783604083870101525b50601f01601f1916929092016040019392505050565b60208082526023908201527f45524332303a207472616e7366657220746f20746865207a65726f206164647260408201526265737360e81b606082015260800190565b6020808252601c908201527f496e7375666669636965742062616c616e6365206f6620746f6b656e00000000604082015260600190565b60208082526022908201527f45524332303a206275726e20616d6f756e7420657863656564732062616c616e604082015261636560f01b606082015260800190565b60208082526026908201527f4f776e61626c653a206e6577206f776e657220697320746865207a65726f206160408201526564647265737360d01b606082015260800190565b60208082526022908201527f45524332303a20617070726f766520746f20746865207a65726f206164647265604082015261737360f01b606082015260800190565b60208082526026908201527f45524332303a207472616e7366657220616d6f756e7420657863656564732062604082015265616c616e636560d01b606082015260800190565b6020808252601f908201527f436f6e747261637420646f6573206e6f74206163636570742065746865727300604082015260600190565b6020808252601e908201527f4f6e6c7920546f6b656e20636f6e747261637420697320616c6c6f7765640000604082015260600190565b60208082526028908201527f45524332303a207472616e7366657220616d6f756e74206578636565647320616040820152676c6c6f77616e636560c01b606082015260800190565b6020808252818101527f4f776e61626c653a2063616c6c6572206973206e6f7420746865206f776e6572604082015260600190565b60208082526021908201527f45524332303a206275726e2066726f6d20746865207a65726f206164647265736040820152607360f81b606082015260800190565b60208082526017908201527f4f6e6c792050686f656e697820697320616c6c6f776564000000000000000000604082015260600190565b60208082526025908201527f45524332303a207472616e736665722066726f6d20746865207a65726f206164604082015264647265737360d81b606082015260800190565b60208082526024908201527f45524332303a20617070726f76652066726f6d20746865207a65726f206164646040820152637265737360e01b606082015260800190565b60208082526018908201527f5a65726f2061646472657373206e6f7420616c6c6f7765640000000000000000604082015260600190565b60208082526025908201527f45524332303a2064656372656173656420616c6c6f77616e63652062656c6f77604082015264207a65726f60d81b606082015260800190565b6020808252601f908201527f45524332303a206d696e7420746f20746865207a65726f206164647265737300604082015260600190565b90815260200190565b9182526020820152606060408201819052601a908201527f4d79546f6b656e206f776e6572277320636f6d6d697373696f6e000000000000608082015260a00190565b91825260208201526060604082018190526011908201527026b4b73a34b7339031b7b6b6b4b9b4b7b760791b608082015260a00190565b918252602082015260606040820181905260129082015271283437b2b734bc1031b7b6b6b4b9b9b4b7b760711b608082015260a00190565b60ff91909116815260200190565b600082198211156119a4576119a4611a3a565b500190565b6000826119c457634e487b7160e01b81526012600452602481fd5b500490565b60008160001904831182151516156119e3576119e3611a3a565b500290565b6000828210156119fa576119fa611a3a565b500390565b600281046001821680611a1357607f821691505b60208210811415611a3457634e487b7160e01b600052602260045260246000fd5b50919050565b634e487b7160e01b600052601160045260246000fdfea2646970667358221220defc2e64224410c6bc64ec7f08c496b998019f93a7f02b6974b7b5830eead1c564736f6c63430008000033",
  "immutableReferences": {},
  "source": "\n// SPDX-License-Identifier: MIT\n\npragma solidity ^0.8.0;\n\nimport \"./access/Ownable.sol\";\nimport \"./utils/math/SafeMath.sol\";\nimport \"./token/ERC20/utils/SafeERC20.sol\";\nimport \"./token/ERC20/ERC20.sol\";\n\nabstract contract TokenInterface {\n    function balanceOf(address account) external view virtual returns (uint256);\n\n    function transfer(address recipient, uint256 amount)\n        external\n        virtual\n        returns (bool success);\n}\n\n/**\n * @dev interface defining the TokenRecipient\n */\ninterface TokenRecipient {\n    function tokenFallback(\n        address _from,\n        uint256 _value,\n        bytes calldata data\n    ) external;\n}\n\n/**\n * @title ERC20 Token\n * @author Phoenix\n * @notice Contract for the Token\n */\ncontract ERC20Token is Ownable, ERC20, TokenRecipient {\n    // attach library functions\n    using SafeMath for uint256;\n    using SafeERC20 for TokenInterface;\n    using Address for address;\n\n    //event\n    event CommssionUpdate(\n        uint256 _numerator,\n        uint256 _denominator,\n        string _data\n    );\n    event TransferPreSigned(address _from, address _to, uint256 _value, uint256 _networkFee);\n\n    //public variables\n    TokenInterface private backedTokenContract;\n\n    //private variables\n    uint8 private decimal = 8;\n\n    // These variable help to calculate the commissions on each token transfer transcation\n    uint256 public commission_numerator_minting = 1; // commission percentage on minting 0.025%\n    uint256 public commission_denominator_minting = 4;\n\n    uint256 public commission_numerator_tokenCrw = 1; // commission percentage to token owner 0.005%\n    uint256 public commission_denominator_tokenCrw = 200;\n\n    uint256 public commission_numerator_phoenix_crw = 1; // commission percentage to token owner 0.005%\n    uint256 public commission_denominator_phoenix_crw = 200;\n\n    // addresses at which fees transferred\n    address public phoenixCrw; // token commission to phoenixCRW\n    address public myTokenCrw; // token commission to token Central revenue wallet\n\n    // tokens minted in this wallet when backed token is received\n    address public sellingWallet;\n\n    constructor(\n        address _goldTokenAddress,\n        address _phoenixCrw,\n        address _mytokencrw,\n        address _sellingWallet,\n        string memory _name,\n        string memory _symbol\n    )\n        isContractAddress(_goldTokenAddress)\n        onlyNonZeroAddress(_phoenixCrw)\n        onlyNonZeroAddress(_mytokencrw)\n        onlyNonZeroAddress(_sellingWallet)\n        ERC20(_name, _symbol)\n    {\n        backedTokenContract = TokenInterface(_goldTokenAddress);\n        phoenixCrw = _phoenixCrw;\n        myTokenCrw = _mytokencrw;\n        sellingWallet = _sellingWallet;\n    }\n\n    ////////////////////////////////////////////////////////////////\n    //                 modifiers\n    ////////////////////////////////////////////////////////////////\n\n    modifier onlyNonZeroAddress(address _user) {\n        require(_user != address(0), \"Zero address not allowed\");\n        _;\n    }\n\n    modifier onlyTokenContract() {\n        require(\n            msg.sender == address(backedTokenContract),\n            \"Only Token contract is allowed\"\n        );\n        _;\n    }\n\n    modifier isContractAddress(address _addressContract) {\n        require(\n            _addressContract.isContract(),\n            \"Only contract is allowed\"\n        );\n        _;\n    }\n\n    modifier onlyPhoenix {\n        require(msg.sender == phoenixCrw, \"Only Phoenix is allowed\");\n        _;\n    }\n\n    ////////////////////////////////////////////////////////////////\n    //                  Only Owner functions\n    ////////////////////////////////////////////////////////////////\n\n    /**\n     * @notice transfer tokens from contract \n     * @dev Only owner can call, tokens will be transferred and equivalent amount of Token will be burnt from owner address.\n     * @param _amount the amount of tokens to be transferred\n     * @param _receiver address of the receiver\n\n     */\n    function transferToken(uint256 _amount, address _receiver)\n        external\n        onlyOwner\n        onlyNonZeroAddress(_receiver)\n    {\n        require(\n            backedTokenContract.balanceOf(address(this)) >= _amount,\n            \"Insufficiet balance of token\"\n        );\n        backedTokenContract.transfer(_receiver, _amount);\n        _burn(sellingWallet, _amount);\n    }\n\n    /**\n     * @notice Function called by token contract whenever tokens are deposited to this contract\n     * @dev Only token contract can call.\n     * @param _from Who transferred, not utlised\n     * @param _value The amount transferred\n     * @param data The data supplied by token contract. It will be ignored\n     */\n    function tokenFallback(\n        address _from,\n        uint256 _value,\n        bytes calldata data\n    ) external override onlyTokenContract {\n        uint256 fee = calculateCommissionMint(_value);\n        if (fee > 0) _mint(phoenixCrw, fee);\n        _mint(sellingWallet, _value.sub(fee));\n    }\n\n    ////////////////////////////////////////////////////////////////\n    //                  overriden functions\n    ////////////////////////////////////////////////////////////////\n    function decimals() public view virtual override returns (uint8) {\n        return decimal;\n    }\n\n\n    /**\n     * @notice Standard transfer function to Transfer token\n     * @dev overriden Function of the openzeppelin ERC20 contract\n     * @param recipient receiver's address\n     * @param amount The amount to be transferred\n     */\n    function transfer(address recipient, uint256 amount)\n        public\n        virtual\n        override\n        returns (bool)\n    {\n        privateTransfer(msg.sender, recipient, amount);\n        return true;\n    }\n    \n    /**\n     * @notice Standard transferFrom. Send tokens on behalf of spender\n     * @dev overriden Function of the openzeppelin ERC20 contract\n     * @param recipient receiver's address\n     * @param sender transfer token from account\n     * @param amount The amount to be transferred\n     */\n    function transferFrom(address sender, address recipient, uint256 amount)\n        public\n        virtual\n        override\n        returns (bool)\n    {\n        uint256 currentAllowance = allowance(sender, _msgSender());\n        require(currentAllowance >= amount, \"ERC20: transfer amount exceeds allowance\");\n        _approve(sender, _msgSender(), currentAllowance.sub(amount));\n        privateTransfer(sender, recipient, amount);\n        return true;\n    }\n    \n\n    /**\n     * @notice Internal method to handle transfer logic\n     * @dev Notifies recipient, if recipient is a trusted contract\n     * @param _from Sender address\n     * @param _recipient Recipient address\n     * @param _amount amount of tokens to be transferred\n     * @return bool\n     */\n    function privateTransfer(address _from, address _recipient, uint256 _amount)\n        internal\n        onlyNonZeroAddress(_recipient)\n        returns (bool)\n    {\n        uint256 feeToPhoenix = calculateCommissionPhoenixCrw(_amount);\n        uint256 feeMyTokenOwner = calculateCommissionMyTokenCrw(_amount);\n\n        if (feeToPhoenix > 0) _transfer(_from, phoenixCrw, feeToPhoenix);\n        if (feeMyTokenOwner > 0) _transfer(_from, myTokenCrw, feeMyTokenOwner);\n        uint256 amount_credit = feeMyTokenOwner.add(feeToPhoenix);\n        _transfer(_from, _recipient, _amount.sub(amount_credit));\n        return true;\n    } \n \n    /**\n     * @notice update phoenix wallet address. This address will be responsible for holding commission on tokens transfer\n     * @dev Only Phoenix can call\n     * @param _user The address of phoenixCrw wallet\n     * @return Bool value\n     */\n    function updatePhoenixAddress(address _user)\n        external\n        onlyPhoenix\n        returns (bool)\n    {\n        phoenixCrw = _user;\n        return true;\n    }\n\n    /**\n     * @notice check Minting fee\n     * @dev Does not checks if sender/recipient is whitelisted\n     * @param _amount The intended amount of transfer\n     * @return uint256 Calculated commission\n     */\n    function calculateCommissionMint(uint256 _amount)\n        public\n        view\n        returns (uint256)\n    {\n        return\n            _amount\n                .mul(commission_numerator_minting)\n                .div(commission_denominator_minting)\n                .div(100);\n    }\n\n    /**\n     * @notice check transer fee credited to Token owner\n     * @param _amount The intended amount of transfer\n     * @return uint256 Calculated commission\n     */\n    function calculateCommissionMyTokenCrw(uint256 _amount)\n        public\n        view\n        returns (uint256)\n    {\n        return\n            _amount\n                .mul(commission_numerator_tokenCrw)\n                .div(commission_denominator_tokenCrw)\n                .div(100);\n    }\n\n    /**\n     * @notice check transer fee credited to Phoenix\n     * @param _amount The intended amount of transfer\n     * @return uint256 Calculated commission\n     */\n    function calculateCommissionPhoenixCrw(uint256 _amount)\n        public\n        view\n        returns (uint256)\n    {\n        return\n            _amount\n                .mul(commission_numerator_phoenix_crw)\n                .div(commission_denominator_phoenix_crw)\n                .div(100);\n    }\n\n    /**\n     * @notice Update commission to be charged on each token transfer for Phoenix\n     * @dev Only Phoenix Owner can call\n     * @param _n The numerator of commission\n     * @param _d The denominator of commission\n     */\n    function updateCommssionPhoenixTransfer(uint256 _n, uint256 _d)\n        public\n        onlyPhoenix\n    {\n        commission_denominator_phoenix_crw = _d;\n        commission_numerator_phoenix_crw = _n;\n        emit CommssionUpdate(_n, _d, \"Phoenix commission\");\n    }\n\n    /**\n     * @notice Update commission to be charged on token transfer\n     * @dev Only owner can call\n     * @param _n The numerator of commission\n     * @param _d The denominator of commission\n     */\n    function updateCommssionMyTokenTranfer(uint256 _n, uint256 _d) public onlyOwner {\n        commission_denominator_tokenCrw = _d;\n        commission_numerator_tokenCrw = _n;\n        emit CommssionUpdate(_n, _d, \"MyToken owner's commission\");\n    }\n\n    /**\n     * @notice Update commission to be charged on token minting\n     * @dev Only phoenix can call\n     * @param _n The numerator of commission\n     * @param _d The denominator of commission\n     */\n    function updateCommssionMint(uint256 _n, uint256 _d) public onlyPhoenix {\n        commission_denominator_minting = _d;\n        commission_numerator_minting = _n;\n        emit CommssionUpdate(_n, _d, \"Minting commision\");\n    }\n    \n    \n    /**\n     * @notice Prevents contract from accepting ETHs\n     * @dev Contracts can still be sent ETH with self destruct. If anyone deliberately does that, the ETHs will be lost\n     */\n    receive() external payable {\n        revert(\"Contract does not accept ethers\");\n    }\n    \n    \n}\n\n/**\n * @title AdvancedOToken\n * @author Phoenix \n */    \ncontract MyToken is ERC20Token {\n    mapping(address => mapping(bytes32 => bool)) public tokenUsed; // mapping to track token is used or not\n    \n    bytes4 public methodWord_transfer = bytes4(keccak256(\"transfer(address,uint256)\"));\n    bytes4 public methodWord_approve = bytes4(keccak256(\"approve(address,uint256)\"));\n    bytes4 public methodWord_increaseApproval = bytes4(keccak256(\"increaseAllowance(address,uint256)\"));\n    bytes4 public methodWord_decreaseApproval = bytes4(keccak256(\"decreaseAllowance(address,uint256)\"));\n\n    using SafeMath for uint256;\n\n    constructor(\n        address _goldTokenAddress,\n        address _phoenixCrw,\n        address _tokenCrw,\n        address _sellingWallet,\n        string memory _name,\n        string memory _symbol\n        )  ERC20Token( _goldTokenAddress, _phoenixCrw, _tokenCrw, _sellingWallet, _name, _symbol) {\n    }\n\n    /**\n    * @dev ID of the executing chain\n    * @return uint value\n     */\n    function getChainID() public view returns (uint256) {\n        uint256 id;\n        assembly {\n            id := chainid()\n        }\n        return id;\n    }\n\n    /**\n     * @notice Validates the message and signature\n     * @param proof The message that was expected to be signed by user\n     * @param message The message that user signed\n     * @param r Signature component\n     * @param s Signature component\n     * @param v Signature component\n     * @param token The unique token for each delegated function\n     * @return address Signer of message\n     */\n    function preAuthValidations(bytes32 proof, bytes32 message, bytes32 token, bytes32 r, bytes32 s, uint8 v)\n        private\n        returns(address)\n    {\n        address signer = getSigner(message, r, s, v);\n        require(signer != address(0),\"Zero address not allowed\");\n        require(!tokenUsed[signer][token],\"Token already used\");\n        require(proof == message, \"Invalid proof\");\n        tokenUsed[signer][token] = true;\n        return signer;\n    }\n\n    /**\n     * @notice Find signer\n     * @param message The message that user signed\n     * @param r Signature component\n     * @param s Signature component\n     * @param v Signature component\n     * @return address Signer of message\n     */\n    function getSigner(bytes32 message, bytes32 r, bytes32 s, uint8 v)\n        public\n        pure\n        returns (address)\n    {\n        bytes memory prefix = \"\\x19Ethereum Signed Message:\\n32\";\n        bytes32 prefixedHash = keccak256(abi.encodePacked(prefix, message));\n        address signer = ecrecover(prefixedHash, v, r, s);\n        return signer;\n    }\n\n     /**\n     * @notice Delegated transfer. Gas fee will be paid by relayer\n     * @param message The message that user signed\n     * @param r Signature component\n     * @param s Signature component\n     * @param v Signature component\n     * @param token The unique token for each delegated function\n     * @param networkFee The fee that will be paid to relayer for gas fee he spends\n     * @param to The array of recipients\n     * @param amount The array of amounts to be transferred\n     */\n    function preAuthorizedTransfer(\n        bytes32 message, bytes32 r, bytes32 s, uint8 v, bytes32 token, uint256 networkFee, address to, uint256 amount)\n        public\n    {\n        bytes32 proof = getProofTransfer(methodWord_transfer, token, networkFee, msg.sender, to, amount);\n        address signer = preAuthValidations(proof, message, token, r, s, v);\n\n        // Deduct network fee if broadcaster charges network fee\n        if (networkFee > 0) {\n            privateTransfer(signer, msg.sender, networkFee);\n        }\n        privateTransfer(signer, to, amount);\n        emit TransferPreSigned(signer, to, amount, networkFee);\n    }\n\n    /**\n     * @notice Delegated approval. Gas fee will be paid by relayer\n     * @dev Only approve, increaseApproval and decreaseApproval can be delegated\n     * @param message The message that user signed\n     * @param r Signature component\n     * @param s Signature component\n     * @param v Signature component\n     * @param token The unique token for each delegated function\n     * @param networkFee The fee that will be paid to relayer for gas fee he spends\n     * @param to The spender address\n     * @param amount The amount to be allowed\n     * @return Bool value\n     */\n    function preAuthorizedApproval(\n        bytes4 methodHash, bytes32 message, bytes32 r, bytes32 s, uint8 v, bytes32 token, uint256 networkFee, address to, uint256 amount)\n        public\n        returns (bool)\n    {\n        bytes32 proof = getProofApproval (methodHash, token, networkFee, msg.sender, to, amount);\n        address signer = preAuthValidations(proof, message, token, r, s, v);\n        uint256 currentAllowance = allowance(signer, _msgSender());\n        // Perform approval\n        if(methodHash == methodWord_approve) _approve(signer, to, amount);\n        else if(methodHash == methodWord_increaseApproval) _approve(signer, to, currentAllowance.add(amount));\n        else if(methodHash == methodWord_decreaseApproval) _approve(signer, to, currentAllowance.sub(amount));\n        return true;\n    }\n\n    /**\n     * @notice Get the message to be signed in case of delegated transfer/approvals\n     * @param methodHash The method hash for which delegate action in to be performed\n     * @param token The unique token for each delegated function\n     * @param networkFee The fee that will be paid to relayer for gas fee he spends\n     * @param to The recipient or spender\n     * @param amount The amount to be transferred\n     * @return Bool value\n     */\n    function getProofTransfer(bytes4 methodHash, bytes32 token, uint256 networkFee, address broadcaster, address to, uint256 amount)\n        public\n        view\n        returns (bytes32)\n    {\n        require(methodHash == methodWord_transfer, \"Method not supported\");\n        bytes32 proof = keccak256(abi.encodePacked(\n            getChainID(),\n            bytes4(methodHash),\n            address(this),\n            token,\n            networkFee,\n            broadcaster,\n            to,\n            amount\n    ));\n        return proof;\n    }\n\n    /**\n     * @notice Get the message to be signed in case of delegated transfer/approvals\n     * @param methodHash The method hash for which delegate action in to be performed\n     * @param token The unique token for each delegated function\n     * @param networkFee The fee that will be paid to relayer for gas fee he spends\n     * @param to The recipient or spender\n     * @param amount The amount to be approved\n     * @return Bool value\n     */\n    function getProofApproval(bytes4 methodHash, bytes32 token, uint256 networkFee, address broadcaster, address to, uint256 amount)\n        public\n        view\n        returns (bytes32)\n    {\n        require(\n            methodHash == methodWord_approve ||\n            methodHash == methodWord_increaseApproval ||\n            methodHash == methodWord_decreaseApproval,\n            \"Method not supported\");\n        bytes32 proof = keccak256(abi.encodePacked(\n            getChainID(),\n            bytes4(methodHash),\n            address(this),\n            token,\n            networkFee,\n            broadcaster,\n            to,\n            amount\n        ));\n        return proof;\n    }\n    \n}",
  "sourcePath": "/home/prashant/projects/z-token-smartcontract/contracts/AdvancedZToken.sol",
  "compiler": {
    "name": "solc",
    "version": "0.8.0+commit.c7dfd78e.Emscripten.clang"
  },
  "schemaVersion": "3.4.1",
  "updatedAt": "2021-09-04T17:18:18.428Z",
  "devdoc": {
    "author": "Phoenix",
    "kind": "dev",
    "methods": {
      "allowance(address,address)": {
        "details": "See {IERC20-allowance}."
      },
      "approve(address,uint256)": {
        "details": "See {IERC20-approve}. Requirements: - `spender` cannot be the zero address."
      },
      "balanceOf(address)": {
        "details": "See {IERC20-balanceOf}."
      },
      "calculateCommissionMint(uint256)": {
        "details": "Does not checks if sender/recipient is whitelisted",
        "params": {
          "_amount": "The intended amount of transfer"
        },
        "returns": {
          "_0": "uint256 Calculated commission"
        }
      },
      "calculateCommissionMyTokenCrw(uint256)": {
        "params": {
          "_amount": "The intended amount of transfer"
        },
        "returns": {
          "_0": "uint256 Calculated commission"
        }
      },
      "calculateCommissionPhoenixCrw(uint256)": {
        "params": {
          "_amount": "The intended amount of transfer"
        },
        "returns": {
          "_0": "uint256 Calculated commission"
        }
      },
      "decimals()": {
        "details": "Returns the number of decimals used to get its user representation. For example, if `decimals` equals `2`, a balance of `505` tokens should be displayed to a user as `5.05` (`505 / 10 ** 2`). Tokens usually opt for a value of 18, imitating the relationship between Ether and Wei. This is the value {ERC20} uses, unless this function is overridden; NOTE: This information is only used for _display_ purposes: it in no way affects any of the arithmetic of the contract, including {IERC20-balanceOf} and {IERC20-transfer}."
      },
      "decreaseAllowance(address,uint256)": {
        "details": "Atomically decreases the allowance granted to `spender` by the caller. This is an alternative to {approve} that can be used as a mitigation for problems described in {IERC20-approve}. Emits an {Approval} event indicating the updated allowance. Requirements: - `spender` cannot be the zero address. - `spender` must have allowance for the caller of at least `subtractedValue`."
      },
      "increaseAllowance(address,uint256)": {
        "details": "Atomically increases the allowance granted to `spender` by the caller. This is an alternative to {approve} that can be used as a mitigation for problems described in {IERC20-approve}. Emits an {Approval} event indicating the updated allowance. Requirements: - `spender` cannot be the zero address."
      },
      "name()": {
        "details": "Returns the name of the token."
      },
      "owner()": {
        "details": "Returns the address of the current owner."
      },
      "renounceOwnership()": {
        "details": "Leaves the contract without owner. It will not be possible to call `onlyOwner` functions anymore. Can only be called by the current owner. NOTE: Renouncing ownership will leave the contract without an owner, thereby removing any functionality that is only available to the owner."
      },
      "symbol()": {
        "details": "Returns the symbol of the token, usually a shorter version of the name."
      },
      "tokenFallback(address,uint256,bytes)": {
        "details": "Only token contract can call.",
        "params": {
          "_from": "Who transferred, not utlised",
          "_value": "The amount transferred",
          "data": "The data supplied by token contract. It will be ignored"
        }
      },
      "totalSupply()": {
        "details": "See {IERC20-totalSupply}."
      },
      "transfer(address,uint256)": {
        "details": "overriden Function of the openzeppelin ERC20 contract",
        "params": {
          "amount": "The amount to be transferred",
          "recipient": "receiver's address"
        }
      },
      "transferFrom(address,address,uint256)": {
        "details": "overriden Function of the openzeppelin ERC20 contract",
        "params": {
          "amount": "The amount to be transferred",
          "recipient": "receiver's address",
          "sender": "transfer token from account"
        }
      },
      "transferOwnership(address)": {
        "details": "Transfers ownership of the contract to a new account (`newOwner`). Can only be called by the current owner."
      },
      "transferToken(uint256,address)": {
        "details": "Only owner can call, tokens will be transferred and equivalent amount of Token will be burnt from owner address.",
        "params": {
          "_amount": "the amount of tokens to be transferred",
          "_receiver": "address of the receiver"
        }
      },
      "updateCommssionMint(uint256,uint256)": {
        "details": "Only phoenix can call",
        "params": {
          "_d": "The denominator of commission",
          "_n": "The numerator of commission"
        }
      },
      "updateCommssionMyTokenTranfer(uint256,uint256)": {
        "details": "Only owner can call",
        "params": {
          "_d": "The denominator of commission",
          "_n": "The numerator of commission"
        }
      },
      "updateCommssionPhoenixTransfer(uint256,uint256)": {
        "details": "Only Phoenix Owner can call",
        "params": {
          "_d": "The denominator of commission",
          "_n": "The numerator of commission"
        }
      },
      "updatePhoenixAddress(address)": {
        "details": "Only Phoenix can call",
        "params": {
          "_user": "The address of phoenixCrw wallet"
        },
        "returns": {
          "_0": "Bool value"
        }
      }
    },
    "title": "ERC20 Token",
    "version": 1
  },
  "userdoc": {
    "kind": "user",
    "methods": {
      "calculateCommissionMint(uint256)": {
        "notice": "check Minting fee"
      },
      "calculateCommissionMyTokenCrw(uint256)": {
        "notice": "check transer fee credited to Token owner"
      },
      "calculateCommissionPhoenixCrw(uint256)": {
        "notice": "check transer fee credited to Phoenix"
      },
      "tokenFallback(address,uint256,bytes)": {
        "notice": "Function called by token contract whenever tokens are deposited to this contract"
      },
      "transfer(address,uint256)": {
        "notice": "Standard transfer function to Transfer token"
      },
      "transferFrom(address,address,uint256)": {
        "notice": "Standard transferFrom. Send tokens on behalf of spender"
      },
      "transferToken(uint256,address)": {
        "notice": "transfer tokens from contract "
      },
      "updateCommssionMint(uint256,uint256)": {
        "notice": "Update commission to be charged on token minting"
      },
      "updateCommssionMyTokenTranfer(uint256,uint256)": {
        "notice": "Update commission to be charged on token transfer"
      },
      "updateCommssionPhoenixTransfer(uint256,uint256)": {
        "notice": "Update commission to be charged on each token transfer for Phoenix"
      },
      "updatePhoenixAddress(address)": {
        "notice": "update phoenix wallet address. This address will be responsible for holding commission on tokens transfer"
      }
    },
    "notice": "Contract for the Token",
    "version": 1
  }
}