{
  "contractName": "ERC20Token",
  "abi": [
    {
      "inputs": [
        {
          "internalType": "address",
          "name": "_goldTokenAddress",
          "type": "address"
        },
        {
          "internalType": "address",
          "name": "_phoenixCrw",
          "type": "address"
        },
        {
          "internalType": "address",
          "name": "_mytokencrw",
          "type": "address"
        },
        {
          "internalType": "address",
          "name": "_sellingWallet",
          "type": "address"
        },
        {
          "internalType": "string",
          "name": "_name",
          "type": "string"
        },
        {
          "internalType": "string",
          "name": "_symbol",
          "type": "string"
        }
      ],
      "stateMutability": "nonpayable",
      "type": "constructor"
    },
    {
      "anonymous": false,
      "inputs": [
        {
          "indexed": true,
          "internalType": "address",
          "name": "owner",
          "type": "address"
        },
        {
          "indexed": true,
          "internalType": "address",
          "name": "spender",
          "type": "address"
        },
        {
          "indexed": false,
          "internalType": "uint256",
          "name": "value",
          "type": "uint256"
        }
      ],
      "name": "Approval",
      "type": "event"
    },
    {
      "anonymous": false,
      "inputs": [
        {
          "indexed": false,
          "internalType": "uint256",
          "name": "_numerator",
          "type": "uint256"
        },
        {
          "indexed": false,
          "internalType": "uint256",
          "name": "_denominator",
          "type": "uint256"
        },
        {
          "indexed": false,
          "internalType": "string",
          "name": "_data",
          "type": "string"
        }
      ],
      "name": "CommssionUpdate",
      "type": "event"
    },
    {
      "anonymous": false,
      "inputs": [
        {
          "indexed": true,
          "internalType": "address",
          "name": "previousOwner",
          "type": "address"
        },
        {
          "indexed": true,
          "internalType": "address",
          "name": "newOwner",
          "type": "address"
        }
      ],
      "name": "OwnershipTransferred",
      "type": "event"
    },
    {
      "anonymous": false,
      "inputs": [
        {
          "indexed": true,
          "internalType": "address",
          "name": "from",
          "type": "address"
        },
        {
          "indexed": true,
          "internalType": "address",
          "name": "to",
          "type": "address"
        },
        {
          "indexed": false,
          "internalType": "uint256",
          "name": "value",
          "type": "uint256"
        }
      ],
      "name": "Transfer",
      "type": "event"
    },
    {
      "anonymous": false,
      "inputs": [
        {
          "indexed": false,
          "internalType": "address",
          "name": "_from",
          "type": "address"
        },
        {
          "indexed": false,
          "internalType": "address",
          "name": "_to",
          "type": "address"
        },
        {
          "indexed": false,
          "internalType": "uint256",
          "name": "_value",
          "type": "uint256"
        },
        {
          "indexed": false,
          "internalType": "uint256",
          "name": "_networkFee",
          "type": "uint256"
        }
      ],
      "name": "TransferPreSigned",
      "type": "event"
    },
    {
      "inputs": [
        {
          "internalType": "address",
          "name": "owner",
          "type": "address"
        },
        {
          "internalType": "address",
          "name": "spender",
          "type": "address"
        }
      ],
      "name": "allowance",
      "outputs": [
        {
          "internalType": "uint256",
          "name": "",
          "type": "uint256"
        }
      ],
      "stateMutability": "view",
      "type": "function"
    },
    {
      "inputs": [
        {
          "internalType": "address",
          "name": "spender",
          "type": "address"
        },
        {
          "internalType": "uint256",
          "name": "amount",
          "type": "uint256"
        }
      ],
      "name": "approve",
      "outputs": [
        {
          "internalType": "bool",
          "name": "",
          "type": "bool"
        }
      ],
      "stateMutability": "nonpayable",
      "type": "function"
    },
    {
      "inputs": [
        {
          "internalType": "address",
          "name": "account",
          "type": "address"
        }
      ],
      "name": "balanceOf",
      "outputs": [
        {
          "internalType": "uint256",
          "name": "",
          "type": "uint256"
        }
      ],
      "stateMutability": "view",
      "type": "function"
    },
    {
      "inputs": [],
      "name": "commission_denominator_minting",
      "outputs": [
        {
          "internalType": "uint256",
          "name": "",
          "type": "uint256"
        }
      ],
      "stateMutability": "view",
      "type": "function"
    },
    {
      "inputs": [],
      "name": "commission_denominator_phoenix_crw",
      "outputs": [
        {
          "internalType": "uint256",
          "name": "",
          "type": "uint256"
        }
      ],
      "stateMutability": "view",
      "type": "function"
    },
    {
      "inputs": [],
      "name": "commission_denominator_tokenCrw",
      "outputs": [
        {
          "internalType": "uint256",
          "name": "",
          "type": "uint256"
        }
      ],
      "stateMutability": "view",
      "type": "function"
    },
    {
      "inputs": [],
      "name": "commission_numerator_minting",
      "outputs": [
        {
          "internalType": "uint256",
          "name": "",
          "type": "uint256"
        }
      ],
      "stateMutability": "view",
      "type": "function"
    },
    {
      "inputs": [],
      "name": "commission_numerator_phoenix_crw",
      "outputs": [
        {
          "internalType": "uint256",
          "name": "",
          "type": "uint256"
        }
      ],
      "stateMutability": "view",
      "type": "function"
    },
    {
      "inputs": [],
      "name": "commission_numerator_tokenCrw",
      "outputs": [
        {
          "internalType": "uint256",
          "name": "",
          "type": "uint256"
        }
      ],
      "stateMutability": "view",
      "type": "function"
    },
    {
      "inputs": [
        {
          "internalType": "address",
          "name": "spender",
          "type": "address"
        },
        {
          "internalType": "uint256",
          "name": "subtractedValue",
          "type": "uint256"
        }
      ],
      "name": "decreaseAllowance",
      "outputs": [
        {
          "internalType": "bool",
          "name": "",
          "type": "bool"
        }
      ],
      "stateMutability": "nonpayable",
      "type": "function"
    },
    {
      "inputs": [
        {
          "internalType": "address",
          "name": "spender",
          "type": "address"
        },
        {
          "internalType": "uint256",
          "name": "addedValue",
          "type": "uint256"
        }
      ],
      "name": "increaseAllowance",
      "outputs": [
        {
          "internalType": "bool",
          "name": "",
          "type": "bool"
        }
      ],
      "stateMutability": "nonpayable",
      "type": "function"
    },
    {
      "inputs": [],
      "name": "myTokenCrw",
      "outputs": [
        {
          "internalType": "address",
          "name": "",
          "type": "address"
        }
      ],
      "stateMutability": "view",
      "type": "function"
    },
    {
      "inputs": [],
      "name": "name",
      "outputs": [
        {
          "internalType": "string",
          "name": "",
          "type": "string"
        }
      ],
      "stateMutability": "view",
      "type": "function"
    },
    {
      "inputs": [],
      "name": "owner",
      "outputs": [
        {
          "internalType": "address",
          "name": "",
          "type": "address"
        }
      ],
      "stateMutability": "view",
      "type": "function"
    },
    {
      "inputs": [],
      "name": "phoenixCrw",
      "outputs": [
        {
          "internalType": "address",
          "name": "",
          "type": "address"
        }
      ],
      "stateMutability": "view",
      "type": "function"
    },
    {
      "inputs": [],
      "name": "renounceOwnership",
      "outputs": [],
      "stateMutability": "nonpayable",
      "type": "function"
    },
    {
      "inputs": [],
      "name": "sellingWallet",
      "outputs": [
        {
          "internalType": "address",
          "name": "",
          "type": "address"
        }
      ],
      "stateMutability": "view",
      "type": "function"
    },
    {
      "inputs": [],
      "name": "symbol",
      "outputs": [
        {
          "internalType": "string",
          "name": "",
          "type": "string"
        }
      ],
      "stateMutability": "view",
      "type": "function"
    },
    {
      "inputs": [],
      "name": "totalSupply",
      "outputs": [
        {
          "internalType": "uint256",
          "name": "",
          "type": "uint256"
        }
      ],
      "stateMutability": "view",
      "type": "function"
    },
    {
      "inputs": [
        {
          "internalType": "address",
          "name": "newOwner",
          "type": "address"
        }
      ],
      "name": "transferOwnership",
      "outputs": [],
      "stateMutability": "nonpayable",
      "type": "function"
    },
    {
      "stateMutability": "payable",
      "type": "receive"
    },
    {
      "inputs": [
        {
          "internalType": "uint256",
          "name": "_amount",
          "type": "uint256"
        },
        {
          "internalType": "address",
          "name": "_receiver",
          "type": "address"
        }
      ],
      "name": "transferToken",
      "outputs": [],
      "stateMutability": "nonpayable",
      "type": "function"
    },
    {
      "inputs": [
        {
          "internalType": "address",
          "name": "_from",
          "type": "address"
        },
        {
          "internalType": "uint256",
          "name": "_value",
          "type": "uint256"
        },
        {
          "internalType": "bytes",
          "name": "data",
          "type": "bytes"
        }
      ],
      "name": "tokenFallback",
      "outputs": [],
      "stateMutability": "nonpayable",
      "type": "function"
    },
    {
      "inputs": [],
      "name": "decimals",
      "outputs": [
        {
          "internalType": "uint8",
          "name": "",
          "type": "uint8"
        }
      ],
      "stateMutability": "view",
      "type": "function"
    },
    {
      "inputs": [
        {
          "internalType": "address",
          "name": "recipient",
          "type": "address"
        },
        {
          "internalType": "uint256",
          "name": "amount",
          "type": "uint256"
        }
      ],
      "name": "transfer",
      "outputs": [
        {
          "internalType": "bool",
          "name": "",
          "type": "bool"
        }
      ],
      "stateMutability": "nonpayable",
      "type": "function"
    },
    {
      "inputs": [
        {
          "internalType": "address",
          "name": "sender",
          "type": "address"
        },
        {
          "internalType": "address",
          "name": "recipient",
          "type": "address"
        },
        {
          "internalType": "uint256",
          "name": "amount",
          "type": "uint256"
        }
      ],
      "name": "transferFrom",
      "outputs": [
        {
          "internalType": "bool",
          "name": "",
          "type": "bool"
        }
      ],
      "stateMutability": "nonpayable",
      "type": "function"
    },
    {
      "inputs": [
        {
          "internalType": "address",
          "name": "_user",
          "type": "address"
        }
      ],
      "name": "updatePhoenixAddress",
      "outputs": [
        {
          "internalType": "bool",
          "name": "",
          "type": "bool"
        }
      ],
      "stateMutability": "nonpayable",
      "type": "function"
    },
    {
      "inputs": [
        {
          "internalType": "uint256",
          "name": "_amount",
          "type": "uint256"
        }
      ],
      "name": "calculateCommissionMint",
      "outputs": [
        {
          "internalType": "uint256",
          "name": "",
          "type": "uint256"
        }
      ],
      "stateMutability": "view",
      "type": "function"
    },
    {
      "inputs": [
        {
          "internalType": "uint256",
          "name": "_amount",
          "type": "uint256"
        }
      ],
      "name": "calculateCommissionMyTokenCrw",
      "outputs": [
        {
          "internalType": "uint256",
          "name": "",
          "type": "uint256"
        }
      ],
      "stateMutability": "view",
      "type": "function"
    },
    {
      "inputs": [
        {
          "internalType": "uint256",
          "name": "_amount",
          "type": "uint256"
        }
      ],
      "name": "calculateCommissionPhoenixCrw",
      "outputs": [
        {
          "internalType": "uint256",
          "name": "",
          "type": "uint256"
        }
      ],
      "stateMutability": "view",
      "type": "function"
    },
    {
      "inputs": [
        {
          "internalType": "uint256",
          "name": "_n",
          "type": "uint256"
        },
        {
          "internalType": "uint256",
          "name": "_d",
          "type": "uint256"
        }
      ],
      "name": "updateCommssionPhoenixTransfer",
      "outputs": [],
      "stateMutability": "nonpayable",
      "type": "function"
    },
    {
      "inputs": [
        {
          "internalType": "uint256",
          "name": "_n",
          "type": "uint256"
        },
        {
          "internalType": "uint256",
          "name": "_d",
          "type": "uint256"
        }
      ],
      "name": "updateCommssionMyTokenTranfer",
      "outputs": [],
      "stateMutability": "nonpayable",
      "type": "function"
    },
    {
      "inputs": [
        {
          "internalType": "uint256",
          "name": "_n",
          "type": "uint256"
        },
        {
          "internalType": "uint256",
          "name": "_d",
          "type": "uint256"
        }
      ],
      "name": "updateCommssionMint",
      "outputs": [],
      "stateMutability": "nonpayable",
      "type": "function"
    },
    {
      "inputs": [
        {
          "internalType": "address",
          "name": "_tokenAddress",
          "type": "address"
        },
        {
          "internalType": "uint256",
          "name": "_value",
          "type": "uint256"
        }
      ],
      "name": "transferAnyERC20Token",
      "outputs": [],
      "stateMutability": "nonpayable",
      "type": "function"
    }
  ],
  "bytecode": "0x60806040526006805460ff60a01b1916600160a31b179055600160078190556004600855600981905560c8600a819055600b91909155600c553480156200004557600080fd5b506040516200236538038062002365833981016040819052620000689162000393565b81816200007e62000078620001cc565b620001d0565b8151620000939060049060208501906200022a565b508051620000a99060059060208401906200022a565b50505085620000cc816001600160a01b03166200022060201b62000e171760201c565b620000f45760405162461bcd60e51b8152600401620000eb9062000444565b60405180910390fd5b856001600160a01b0381166200011e5760405162461bcd60e51b8152600401620000eb906200047b565b856001600160a01b038116620001485760405162461bcd60e51b8152600401620000eb906200047b565b856001600160a01b038116620001725760405162461bcd60e51b8152600401620000eb906200047b565b5050600680546001600160a01b03199081166001600160a01b039a8b1617909155600d80548216988a16989098179097555050600e805486169487169490941790935550600f805490931693169290921790555062000505565b3390565b600080546001600160a01b038381166001600160a01b0319831681178455604051919092169283917f8be0079c531659141344cd1fd0a4f28419497f9722a3daafe3b4186f6b6457e09190a35050565b803b15155b919050565b8280546200023890620004b2565b90600052602060002090601f0160209004810192826200025c5760008555620002a7565b82601f106200027757805160ff1916838001178555620002a7565b82800160010185558215620002a7579182015b82811115620002a75782518255916020019190600101906200028a565b50620002b5929150620002b9565b5090565b5b80821115620002b55760008155600101620002ba565b80516001600160a01b03811681146200022557600080fd5b600082601f830112620002f9578081fd5b81516001600160401b0380821115620003165762000316620004ef565b6040516020601f8401601f19168201810183811183821017156200033e576200033e620004ef565b604052838252858401810187101562000355578485fd5b8492505b8383101562000378578583018101518284018201529182019162000359565b838311156200038957848185840101525b5095945050505050565b60008060008060008060c08789031215620003ac578182fd5b620003b787620002d0565b9550620003c760208801620002d0565b9450620003d760408801620002d0565b9350620003e760608801620002d0565b60808801519093506001600160401b038082111562000404578384fd5b620004128a838b01620002e8565b935060a089015191508082111562000428578283fd5b506200043789828a01620002e8565b9150509295509295509295565b60208082526018908201527f4f6e6c7920636f6e747261637420697320616c6c6f7765640000000000000000604082015260600190565b60208082526018908201527f5a65726f2061646472657373206e6f7420616c6c6f7765640000000000000000604082015260600190565b600281046001821680620004c757607f821691505b60208210811415620004e957634e487b7160e01b600052602260045260246000fd5b50919050565b634e487b7160e01b600052604160045260246000fd5b611e5080620005156000396000f3fe6080604052600436106101f25760003560e01c806394a584251161010d578063bad42590116100a0578063dd62ed3e1161006f578063dd62ed3e1461055a578063e9891d7f1461057a578063f2fde38b1461059a578063f97cedf7146105ba578063facd7ecf146105cf57610218565b8063bad42590146104e5578063c0ee0b8a14610505578063cfcb9f5914610525578063dc39d06d1461053a57610218565b8063a457c2d7116100dc578063a457c2d714610465578063a5d3d72814610485578063a9059cbb146104a5578063a93dfb0d146104c557610218565b806394a58425146103fb57806395d89b41146104105780639bc0df6c146104255780639dd0953f1461044557610218565b80633691e0cf1161018557806370a082311161015457806370a082311461039c578063715018a6146103bc5780637b6b6b27146103d15780638da5cb5b146103e657610218565b80633691e0cf1461033057806339509351146103455780633a3be9d41461036557806364f3448f1461038757610218565b806318160ddd116101c157806318160ddd146102b95780631cde8a63146102ce57806323b872dd146102ee578063313ce5671461030e57610218565b8063037311581461021d57806306fdde0314610248578063095ea7b31461026a5780630ba4adcd1461029757610218565b366102185760405162461bcd60e51b815260040161020f9061190f565b60405180910390fd5b600080fd5b34801561022957600080fd5b506102326105e4565b60405161023f9190611c66565b60405180910390f35b34801561025457600080fd5b5061025d6105ea565b60405161023f919061170c565b34801561027657600080fd5b5061028a61028536600461157a565b61067c565b60405161023f9190611701565b3480156102a357600080fd5b506102b76102b2366004611697565b610699565b005b3480156102c557600080fd5b50610232610720565b3480156102da57600080fd5b506102326102e9366004611645565b610726565b3480156102fa57600080fd5b5061028a61030936600461153f565b610756565b34801561031a57600080fd5b506103236107bb565b60405161023f9190611d21565b34801561033c57600080fd5b506102326107cb565b34801561035157600080fd5b5061028a61036036600461157a565b6107d1565b34801561037157600080fd5b5061037a610820565b60405161023f91906116d4565b34801561039357600080fd5b5061037a61082f565b3480156103a857600080fd5b506102326103b73660046114f3565b61083e565b3480156103c857600080fd5b506102b7610859565b3480156103dd57600080fd5b506102326108a4565b3480156103f257600080fd5b5061037a6108aa565b34801561040757600080fd5b5061037a6108b9565b34801561041c57600080fd5b5061025d6108c8565b34801561043157600080fd5b50610232610440366004611645565b6108d7565b34801561045157600080fd5b506102b7610460366004611697565b6108f9565b34801561047157600080fd5b5061028a61048036600461157a565b61095f565b34801561049157600080fd5b506102b76104a0366004611697565b6109d8565b3480156104b157600080fd5b5061028a6104c036600461157a565b610a3e565b3480156104d157600080fd5b506102326104e0366004611645565b610a4b565b3480156104f157600080fd5b506102b7610500366004611675565b610a6d565b34801561051157600080fd5b506102b76105203660046115a3565b610c11565b34801561053157600080fd5b50610232610c8a565b34801561054657600080fd5b506102b761055536600461157a565b610c90565b34801561056657600080fd5b5061023261057536600461150d565b610d1d565b34801561058657600080fd5b5061028a6105953660046114f3565b610d48565b3480156105a657600080fd5b506102b76105b53660046114f3565b610d9a565b3480156105c657600080fd5b50610232610e0b565b3480156105db57600080fd5b50610232610e11565b600c5481565b6060600480546105f990611dc9565b80601f016020809104026020016040519081016040528092919081815260200182805461062590611dc9565b80156106725780601f1061064757610100808354040283529160200191610672565b820191906000526020600020905b81548152906001019060200180831161065557829003601f168201915b5050505050905090565b6000610690610689610e1d565b8484610e21565b50600192915050565b6106a1610e1d565b6001600160a01b03166106b26108aa565b6001600160a01b0316146106d85760405162461bcd60e51b815260040161020f906119c5565b600a81905560098290556040517f52157bec5b4f5ad5638e2f13345ca278ff8655617888654f1f51af41367b2477906107149084908490611c6f565b60405180910390a15050565b60035490565b600061074e6064610748600c54610748600b5487610ed590919063ffffffff16565b90610ee1565b90505b919050565b60008061076585610575610e1d565b9050828110156107875760405162461bcd60e51b815260040161020f9061197d565b6107a285610793610e1d565b61079d8487610eed565b610e21565b6107ad858585610ef9565b5060019150505b9392505050565b600654600160a01b900460ff1690565b600a5481565b60006106906107de610e1d565b8484600260006107ec610e1d565b6001600160a01b03908116825260208083019390935260409182016000908120918b168152925290205461079d9190611d2f565b600d546001600160a01b031681565b600f546001600160a01b031681565b6001600160a01b031660009081526001602052604090205490565b610861610e1d565b6001600160a01b03166108726108aa565b6001600160a01b0316146108985760405162461bcd60e51b815260040161020f906119c5565b6108a26000610fa8565b565b60075481565b6000546001600160a01b031690565b600e546001600160a01b031681565b6060600580546105f990611dc9565b600061074e6064610748600a5461074860095487610ed590919063ffffffff16565b600d546001600160a01b031633146109235760405162461bcd60e51b815260040161020f90611a3b565b600881905560078290556040517f52157bec5b4f5ad5638e2f13345ca278ff8655617888654f1f51af41367b2477906107149084908490611cb2565b6000806002600061096e610e1d565b6001600160a01b03908116825260208083019390935260409182016000908120918816815292529020549050828110156109ba5760405162461bcd60e51b815260040161020f90611bea565b6109ce6109c5610e1d565b85858403610e21565b5060019392505050565b600d546001600160a01b03163314610a025760405162461bcd60e51b815260040161020f90611a3b565b600c819055600b8290556040517f52157bec5b4f5ad5638e2f13345ca278ff8655617888654f1f51af41367b2477906107149084908490611ce9565b60006109ce338484610ef9565b600061074e606461074860085461074860075487610ed590919063ffffffff16565b610a75610e1d565b6001600160a01b0316610a866108aa565b6001600160a01b031614610aac5760405162461bcd60e51b815260040161020f906119c5565b806001600160a01b038116610ad35760405162461bcd60e51b815260040161020f90611b32565b6006546040516370a0823160e01b815284916001600160a01b0316906370a0823190610b039030906004016116d4565b60206040518083038186803b158015610b1b57600080fd5b505afa158015610b2f573d6000803e3d6000fd5b505050506040513d601f19601f82011682018060405250810190610b53919061165d565b1015610b715760405162461bcd60e51b815260040161020f90611782565b60065460405163a9059cbb60e01b81526001600160a01b039091169063a9059cbb90610ba390859087906004016116e8565b602060405180830381600087803b158015610bbd57600080fd5b505af1158015610bd1573d6000803e3d6000fd5b505050506040513d601f19601f82011682018060405250810190610bf59190611625565b50600f54610c0c906001600160a01b031684610ff8565b505050565b6006546001600160a01b03163314610c3b5760405162461bcd60e51b815260040161020f90611946565b6000610c4684610a4b565b90508015610c6457600d54610c64906001600160a01b0316826110e9565b600f54610c83906001600160a01b0316610c7e8684610eed565b6110e9565b5050505050565b60085481565b610c98610e1d565b6001600160a01b0316610ca96108aa565b6001600160a01b031614610ccf5760405162461bcd60e51b815260040161020f906119c5565b6006546001600160a01b0383811691161415610cfd5760405162461bcd60e51b815260040161020f90611b69565b610d19610d086108aa565b6001600160a01b03841690836111b1565b5050565b6001600160a01b03918216600090815260026020908152604080832093909416825291909152205490565b600d546000906001600160a01b03163314610d755760405162461bcd60e51b815260040161020f90611a3b565b50600d80546001600160a01b0383166001600160a01b03199091161790556001919050565b610da2610e1d565b6001600160a01b0316610db36108aa565b6001600160a01b031614610dd95760405162461bcd60e51b815260040161020f906119c5565b6001600160a01b038116610dff5760405162461bcd60e51b815260040161020f906117fb565b610e0881610fa8565b50565b60095481565b600b5481565b3b151590565b3390565b6001600160a01b038316610e475760405162461bcd60e51b815260040161020f90611ab7565b6001600160a01b038216610e6d5760405162461bcd60e51b815260040161020f90611841565b6001600160a01b0380841660008181526002602090815260408083209487168084529490915290819020849055517f8c5be1e5ebec7d5bd14f71427d1e84f3dd0314c0f7b2291e5b200ac8c7c3b92590610ec8908590611c66565b60405180910390a3505050565b60006107b48284611d67565b60006107b48284611d47565b60006107b48284611d86565b6000826001600160a01b038116610f225760405162461bcd60e51b815260040161020f90611b32565b6000610f2d84610726565b90506000610f3a856108d7565b90508115610f5a57600d54610f5a9088906001600160a01b031684611207565b8015610f7857600e54610f789088906001600160a01b031683611207565b6000610f848284611331565b9050610f9a8888610f958985610eed565b611207565b506001979650505050505050565b600080546001600160a01b038381166001600160a01b0319831681178455604051919092169283917f8be0079c531659141344cd1fd0a4f28419497f9722a3daafe3b4186f6b6457e09190a35050565b6001600160a01b03821661101e5760405162461bcd60e51b815260040161020f906119fa565b61102a82600083610c0c565b6001600160a01b038216600090815260016020526040902054818110156110635760405162461bcd60e51b815260040161020f906117b9565b6001600160a01b0383166000908152600160205260408120838303905560038054849290611092908490611d86565b90915550506040516000906001600160a01b038516907fddf252ad1be2c89b69c2b068fc378daa952ba7f163c4a11628f55a4df523b3ef906110d5908690611c66565b60405180910390a3610c0c83600084610c0c565b6001600160a01b03821661110f5760405162461bcd60e51b815260040161020f90611c2f565b61111b60008383610c0c565b806003600082825461112d9190611d2f565b90915550506001600160a01b0382166000908152600160205260408120805483929061115a908490611d2f565b90915550506040516001600160a01b038316906000907fddf252ad1be2c89b69c2b068fc378daa952ba7f163c4a11628f55a4df523b3ef9061119d908590611c66565b60405180910390a3610d1960008383610c0c565b610c0c8363a9059cbb60e01b84846040516024016111d09291906116e8565b60408051601f198184030181529190526020810180516001600160e01b03166001600160e01b03199093169290921790915261133d565b6001600160a01b03831661122d5760405162461bcd60e51b815260040161020f90611a72565b6001600160a01b0382166112535760405162461bcd60e51b815260040161020f9061173f565b61125e838383610c0c565b6001600160a01b038316600090815260016020526040902054818110156112975760405162461bcd60e51b815260040161020f90611883565b6001600160a01b038085166000908152600160205260408082208585039055918516815290812080548492906112ce908490611d2f565b92505081905550826001600160a01b0316846001600160a01b03167fddf252ad1be2c89b69c2b068fc378daa952ba7f163c4a11628f55a4df523b3ef846040516113189190611c66565b60405180910390a361132b848484610c0c565b50505050565b60006107b48284611d2f565b6000611392826040518060400160405280602081526020017f5361666545524332303a206c6f772d6c6576656c2063616c6c206661696c6564815250856001600160a01b03166113cc9092919063ffffffff16565b805190915015610c0c57808060200190518101906113b09190611625565b610c0c5760405162461bcd60e51b815260040161020f90611ba0565b60606113db84846000856113e3565b949350505050565b6060824710156114055760405162461bcd60e51b815260040161020f906118c9565b61140e85610e17565b61142a5760405162461bcd60e51b815260040161020f90611afb565b600080866001600160a01b0316858760405161144691906116b8565b60006040518083038185875af1925050503d8060008114611483576040519150601f19603f3d011682016040523d82523d6000602084013e611488565b606091505b50915091506114988282866114a3565b979650505050505050565b606083156114b25750816107b4565b8251156114c25782518084602001fd5b8160405162461bcd60e51b815260040161020f919061170c565b80356001600160a01b038116811461075157600080fd5b600060208284031215611504578081fd5b6107b4826114dc565b6000806040838503121561151f578081fd5b611528836114dc565b9150611536602084016114dc565b90509250929050565b600080600060608486031215611553578081fd5b61155c846114dc565b925061156a602085016114dc565b9150604084013590509250925092565b6000806040838503121561158c578182fd5b611595836114dc565b946020939093013593505050565b600080600080606085870312156115b8578081fd5b6115c1856114dc565b935060208501359250604085013567ffffffffffffffff808211156115e4578283fd5b818701915087601f8301126115f7578283fd5b813581811115611605578384fd5b886020828501011115611616578384fd5b95989497505060200194505050565b600060208284031215611636578081fd5b815180151581146107b4578182fd5b600060208284031215611656578081fd5b5035919050565b60006020828403121561166e578081fd5b5051919050565b60008060408385031215611687578182fd5b82359150611536602084016114dc565b600080604083850312156116a9578182fd5b50508035926020909101359150565b600082516116ca818460208701611d9d565b9190910192915050565b6001600160a01b0391909116815260200190565b6001600160a01b03929092168252602082015260400190565b901515815260200190565b600060208252825180602084015261172b816040850160208701611d9d565b601f01601f19169190910160400192915050565b60208082526023908201527f45524332303a207472616e7366657220746f20746865207a65726f206164647260408201526265737360e81b606082015260800190565b6020808252601c908201527f496e7375666669636965742062616c616e6365206f6620746f6b656e00000000604082015260600190565b60208082526022908201527f45524332303a206275726e20616d6f756e7420657863656564732062616c616e604082015261636560f01b606082015260800190565b60208082526026908201527f4f776e61626c653a206e6577206f776e657220697320746865207a65726f206160408201526564647265737360d01b606082015260800190565b60208082526022908201527f45524332303a20617070726f766520746f20746865207a65726f206164647265604082015261737360f01b606082015260800190565b60208082526026908201527f45524332303a207472616e7366657220616d6f756e7420657863656564732062604082015265616c616e636560d01b606082015260800190565b60208082526026908201527f416464726573733a20696e73756666696369656e742062616c616e636520666f6040820152651c8818d85b1b60d21b606082015260800190565b6020808252601f908201527f436f6e747261637420646f6573206e6f74206163636570742065746865727300604082015260600190565b6020808252601e908201527f4f6e6c7920546f6b656e20636f6e747261637420697320616c6c6f7765640000604082015260600190565b60208082526028908201527f45524332303a207472616e7366657220616d6f756e74206578636565647320616040820152676c6c6f77616e636560c01b606082015260800190565b6020808252818101527f4f776e61626c653a2063616c6c6572206973206e6f7420746865206f776e6572604082015260600190565b60208082526021908201527f45524332303a206275726e2066726f6d20746865207a65726f206164647265736040820152607360f81b606082015260800190565b60208082526017908201527f4f6e6c792050686f656e697820697320616c6c6f776564000000000000000000604082015260600190565b60208082526025908201527f45524332303a207472616e736665722066726f6d20746865207a65726f206164604082015264647265737360d81b606082015260800190565b60208082526024908201527f45524332303a20617070726f76652066726f6d20746865207a65726f206164646040820152637265737360e01b606082015260800190565b6020808252601d908201527f416464726573733a2063616c6c20746f206e6f6e2d636f6e7472616374000000604082015260600190565b60208082526018908201527f5a65726f2061646472657373206e6f7420616c6c6f7765640000000000000000604082015260600190565b6020808252601d908201527f43616e206e6f74207769746864726177204261636b656420546f6b656e000000604082015260600190565b6020808252602a908201527f5361666545524332303a204552433230206f7065726174696f6e20646964206e6040820152691bdd081cdd58d8d9595960b21b606082015260800190565b60208082526025908201527f45524332303a2064656372656173656420616c6c6f77616e63652062656c6f77604082015264207a65726f60d81b606082015260800190565b6020808252601f908201527f45524332303a206d696e7420746f20746865207a65726f206164647265737300604082015260600190565b90815260200190565b9182526020820152606060408201819052601a908201527f4d79546f6b656e206f776e6572277320636f6d6d697373696f6e000000000000608082015260a00190565b91825260208201526060604082018190526011908201527026b4b73a34b7339031b7b6b6b4b9b4b7b760791b608082015260a00190565b918252602082015260606040820181905260129082015271283437b2b734bc1031b7b6b6b4b9b9b4b7b760711b608082015260a00190565b60ff91909116815260200190565b60008219821115611d4257611d42611e04565b500190565b600082611d6257634e487b7160e01b81526012600452602481fd5b500490565b6000816000190483118215151615611d8157611d81611e04565b500290565b600082821015611d9857611d98611e04565b500390565b60005b83811015611db8578181015183820152602001611da0565b8381111561132b5750506000910152565b600281046001821680611ddd57607f821691505b60208210811415611dfe57634e487b7160e01b600052602260045260246000fd5b50919050565b634e487b7160e01b600052601160045260246000fdfea2646970667358221220b69730d96b59a07398abbb4cbaaf3eecdaf75aecd00d540293bd0a6042d04b5d64736f6c63430008000033",
  "immutableReferences": {},
  "source": "\n// SPDX-License-Identifier: MIT\n\npragma solidity ^0.8.0;\n\nimport \"@openzeppelin/contracts/access/Ownable.sol\";\nimport \"@openzeppelin/contracts/utils/math/SafeMath.sol\";\nimport \"@openzeppelin/contracts/token/ERC20/utils/SafeERC20.sol\";\nimport \"@openzeppelin/contracts/token/ERC20/ERC20.sol\";\n\n// import \"./token/ERC20/IERC20.sol\";\n\nabstract contract TokenInterface is IERC20{\n    function balanceOf(address account) external view override virtual returns (uint256);\n\n    function transfer(address recipient, uint256 amount)\n        external\n        override\n        virtual\n        returns (bool success);\n}\n\n/**\n * @dev interface defining the TokenRecipient\n */\ninterface TokenRecipient {\n    function tokenFallback(\n        address _from,\n        uint256 _value,\n        bytes calldata data\n    ) external;\n}\n\n/**\n * @title ERC20 Token\n * @author Phoenix\n * @notice Contract for the Token\n */\ncontract ERC20Token is Ownable, ERC20, TokenRecipient {\n    // attach library functions\n    using SafeMath for uint256;\n    using SafeERC20 for TokenInterface;\n    using Address for address;\n\n    //event\n    event CommssionUpdate(\n        uint256 _numerator,\n        uint256 _denominator,\n        string _data\n    );\n    event TransferPreSigned(address _from, address _to, uint256 _value, uint256 _networkFee);\n\n    //public variables\n    TokenInterface private backedTokenContract;\n\n    //private variables\n    uint8 private decimal = 8;\n\n    // These variable help to calculate the commissions on each token transfer transcation\n    uint256 public commission_numerator_minting = 1; // commission percentage on minting 0.025%\n    uint256 public commission_denominator_minting = 4;\n\n    uint256 public commission_numerator_tokenCrw = 1; // commission percentage to token owner 0.005%\n    uint256 public commission_denominator_tokenCrw = 200;\n\n    uint256 public commission_numerator_phoenix_crw = 1; // commission percentage to token owner 0.005%\n    uint256 public commission_denominator_phoenix_crw = 200;\n\n    // addresses at which fees transferred\n    address public phoenixCrw; // token commission to phoenixCRW\n    address public myTokenCrw; // token commission to token Central revenue wallet\n\n    // tokens minted in this wallet when backed token is received\n    address public sellingWallet;\n\n    constructor(\n        address _goldTokenAddress,\n        address _phoenixCrw,\n        address _mytokencrw,\n        address _sellingWallet,\n        string memory _name,\n        string memory _symbol\n    )\n        isContractAddress(_goldTokenAddress)\n        onlyNonZeroAddress(_phoenixCrw)\n        onlyNonZeroAddress(_mytokencrw)\n        onlyNonZeroAddress(_sellingWallet)\n        ERC20(_name, _symbol)\n    {\n        backedTokenContract = TokenInterface(_goldTokenAddress);\n        phoenixCrw = _phoenixCrw;\n        myTokenCrw = _mytokencrw;\n        sellingWallet = _sellingWallet;\n    }\n\n    ////////////////////////////////////////////////////////////////\n    //                 modifiers\n    ////////////////////////////////////////////////////////////////\n\n    modifier onlyNonZeroAddress(address _user) {\n        require(_user != address(0), \"Zero address not allowed\");\n        _;\n    }\n\n    modifier onlyTokenContract() {\n        require(\n            msg.sender == address(backedTokenContract),\n            \"Only Token contract is allowed\"\n        );\n        _;\n    }\n\n    modifier isContractAddress(address _addressContract) {\n        require(\n            _addressContract.isContract(),\n            \"Only contract is allowed\"\n        );\n        _;\n    }\n\n    modifier onlyPhoenix {\n        require(msg.sender == phoenixCrw, \"Only Phoenix is allowed\");\n        _;\n    }\n\n    ////////////////////////////////////////////////////////////////\n    //                  Only Owner functions\n    ////////////////////////////////////////////////////////////////\n\n    /**\n     * @notice transfer tokens from contract \n     * @dev Only owner can call, tokens will be transferred and equivalent amount of Token will be burnt from owner address.\n     * @param _amount the amount of tokens to be transferred\n     * @param _receiver address of the receiver\n\n     */\n    function transferToken(uint256 _amount, address _receiver)\n        external\n        onlyOwner\n        onlyNonZeroAddress(_receiver)\n    {\n        require(\n            backedTokenContract.balanceOf(address(this)) >= _amount,\n            \"Insufficiet balance of token\"\n        );\n        backedTokenContract.transfer(_receiver, _amount);\n        _burn(sellingWallet, _amount);\n    }\n\n    /**\n     * @notice Function called by token contract whenever tokens are deposited to this contract\n     * @dev Only token contract can call.\n     * @param _from Who transferred, not utlised\n     * @param _value The amount transferred\n     * @param data The data supplied by token contract. It will be ignored\n     */\n    function tokenFallback(\n        address _from,\n        uint256 _value,\n        bytes calldata data\n    ) external override onlyTokenContract {\n        uint256 fee = calculateCommissionMint(_value);\n        if (fee > 0) _mint(phoenixCrw, fee);\n        _mint(sellingWallet, _value.sub(fee));\n    }\n\n    ////////////////////////////////////////////////////////////////\n    //                  overriden functions\n    ////////////////////////////////////////////////////////////////\n    function decimals() public view virtual override returns (uint8) {\n        return decimal;\n    }\n\n\n    /**\n     * @notice Standard transfer function to Transfer token\n     * @dev overriden Function of the openzeppelin ERC20 contract\n     * @param recipient receiver's address\n     * @param amount The amount to be transferred\n     */\n    function transfer(address recipient, uint256 amount)\n        public\n        virtual\n        override\n        returns (bool)\n    {\n        privateTransfer(msg.sender, recipient, amount);\n        return true;\n    }\n    \n    /**\n     * @notice Standard transferFrom. Send tokens on behalf of spender\n     * @dev overriden Function of the openzeppelin ERC20 contract\n     * @param recipient receiver's address\n     * @param sender transfer token from account\n     * @param amount The amount to be transferred\n     */\n    function transferFrom(address sender, address recipient, uint256 amount)\n        public\n        virtual\n        override\n        returns (bool)\n    {\n        uint256 currentAllowance = allowance(sender, _msgSender());\n        require(currentAllowance >= amount, \"ERC20: transfer amount exceeds allowance\");\n        _approve(sender, _msgSender(), currentAllowance.sub(amount));\n        privateTransfer(sender, recipient, amount);\n        return true;\n    }\n    \n\n    /**\n     * @notice Internal method to handle transfer logic\n     * @dev Notifies recipient, if recipient is a trusted contract\n     * @param _from Sender address\n     * @param _recipient Recipient address\n     * @param _amount amount of tokens to be transferred\n     * @return bool\n     */\n    function privateTransfer(address _from, address _recipient, uint256 _amount)\n        internal\n        onlyNonZeroAddress(_recipient)\n        returns (bool)\n    {\n        uint256 feeToPhoenix = calculateCommissionPhoenixCrw(_amount);\n        uint256 feeMyTokenOwner = calculateCommissionMyTokenCrw(_amount);\n\n        if (feeToPhoenix > 0) _transfer(_from, phoenixCrw, feeToPhoenix);\n        if (feeMyTokenOwner > 0) _transfer(_from, myTokenCrw, feeMyTokenOwner);\n        uint256 amount_credit = feeMyTokenOwner.add(feeToPhoenix);\n        _transfer(_from, _recipient, _amount.sub(amount_credit));\n        return true;\n    } \n \n    /**\n     * @notice update phoenix wallet address. This address will be responsible for holding commission on tokens transfer\n     * @dev Only Phoenix can call\n     * @param _user The address of phoenixCrw wallet\n     * @return Bool value\n     */\n    function updatePhoenixAddress(address _user)\n        external\n        onlyPhoenix\n        returns (bool)\n    {\n        phoenixCrw = _user;\n        return true;\n    }\n\n    /**\n     * @notice check Minting fee\n     * @dev Does not checks if sender/recipient is whitelisted\n     * @param _amount The intended amount of transfer\n     * @return uint256 Calculated commission\n     */\n    function calculateCommissionMint(uint256 _amount)\n        public\n        view\n        returns (uint256)\n    {\n        return\n            _amount\n                .mul(commission_numerator_minting)\n                .div(commission_denominator_minting)\n                .div(100);\n    }\n\n    /**\n     * @notice check transer fee credited to Token owner\n     * @param _amount The intended amount of transfer\n     * @return uint256 Calculated commission\n     */\n    function calculateCommissionMyTokenCrw(uint256 _amount)\n        public\n        view\n        returns (uint256)\n    {\n        return\n            _amount\n                .mul(commission_numerator_tokenCrw)\n                .div(commission_denominator_tokenCrw)\n                .div(100);\n    }\n\n    /**\n     * @notice check transer fee credited to Phoenix\n     * @param _amount The intended amount of transfer\n     * @return uint256 Calculated commission\n     */\n    function calculateCommissionPhoenixCrw(uint256 _amount)\n        public\n        view\n        returns (uint256)\n    {\n        return\n            _amount\n                .mul(commission_numerator_phoenix_crw)\n                .div(commission_denominator_phoenix_crw)\n                .div(100);\n    }\n\n    /**\n     * @notice Update commission to be charged on each token transfer for Phoenix\n     * @dev Only Phoenix Owner can call\n     * @param _n The numerator of commission\n     * @param _d The denominator of commission\n     */\n    function updateCommssionPhoenixTransfer(uint256 _n, uint256 _d)\n        public\n        onlyPhoenix\n    {\n        commission_denominator_phoenix_crw = _d;\n        commission_numerator_phoenix_crw = _n;\n        emit CommssionUpdate(_n, _d, \"Phoenix commission\");\n    }\n\n    /**\n     * @notice Update commission to be charged on token transfer\n     * @dev Only owner can call\n     * @param _n The numerator of commission\n     * @param _d The denominator of commission\n     */\n    function updateCommssionMyTokenTranfer(uint256 _n, uint256 _d) public onlyOwner {\n        commission_denominator_tokenCrw = _d;\n        commission_numerator_tokenCrw = _n;\n        emit CommssionUpdate(_n, _d, \"MyToken owner's commission\");\n    }\n\n    /**\n     * @notice Update commission to be charged on token minting\n     * @dev Only phoenix can call\n     * @param _n The numerator of commission\n     * @param _d The denominator of commission\n     */\n    function updateCommssionMint(uint256 _n, uint256 _d) public onlyPhoenix {\n        commission_denominator_minting = _d;\n        commission_numerator_minting = _n;\n        emit CommssionUpdate(_n, _d, \"Minting commision\");\n    }\n    \n    \n    /**\n     * @notice Prevents contract from accepting ETHs\n     * @dev Contracts can still be sent ETH with self destruct. If anyone deliberately does that, the ETHs will be lost\n     */\n    receive() external payable {\n        revert(\"Contract does not accept ethers\");\n    }\n    \n    /**\n     * @notice Owner can transfer out any accidentally sent ERC20 tokens accept OTokens\n     * @param _tokenAddress The contract address of ERC-20 compitable token\n     * @param _value The number of tokens to be transferred to owner\n     */\n    function transferAnyERC20Token(address _tokenAddress, uint _value) public onlyOwner {\n        require (_tokenAddress != address(backedTokenContract),\"Can not withdraw Backed Token\");\n        TokenInterface(_tokenAddress).safeTransfer(owner(), _value);\n    }\n}\n\n/**\n * @title AdvancedOToken\n * @author Phoenix \n */    \ncontract MyToken is ERC20Token {\n    mapping(address => mapping(bytes32 => bool)) public tokenUsed; // mapping to track token is used or not\n    \n    bytes4 public methodWord_transfer = bytes4(keccak256(\"transfer(address,uint256)\"));\n    bytes4 public methodWord_approve = bytes4(keccak256(\"approve(address,uint256)\"));\n    bytes4 public methodWord_increaseApproval = bytes4(keccak256(\"increaseAllowance(address,uint256)\"));\n    bytes4 public methodWord_decreaseApproval = bytes4(keccak256(\"decreaseAllowance(address,uint256)\"));\n\n    using SafeMath for uint256;\n\n    constructor(\n        address _goldTokenAddress,\n        address _phoenixCrw,\n        address _tokenCrw,\n        address _sellingWallet,\n        string memory _name,\n        string memory _symbol\n        )  ERC20Token( _goldTokenAddress, _phoenixCrw, _tokenCrw, _sellingWallet, _name, _symbol) {\n    }\n\n    /**\n    * @dev ID of the executing chain\n    * @return uint value\n     */\n    function getChainID() public view returns (uint256) {\n        uint256 id;\n        assembly {\n            id := chainid()\n        }\n        return id;\n    }\n\n    /**\n     * @notice Validates the message and signature\n     * @param proof The message that was expected to be signed by user\n     * @param message The message that user signed\n     * @param r Signature component\n     * @param s Signature component\n     * @param v Signature component\n     * @param token The unique token for each delegated function\n     * @return address Signer of message\n     */\n    function preAuthValidations(bytes32 proof, bytes32 message, bytes32 token, bytes32 r, bytes32 s, uint8 v)\n        private\n        returns(address)\n    {\n        address signer = getSigner(message, r, s, v);\n        require(signer != address(0),\"Zero address not allowed\");\n        require(!tokenUsed[signer][token],\"Token already used\");\n        require(proof == message, \"Invalid proof\");\n        tokenUsed[signer][token] = true;\n        return signer;\n    }\n\n    /**\n     * @notice Find signer\n     * @param message The message that user signed\n     * @param r Signature component\n     * @param s Signature component\n     * @param v Signature component\n     * @return address Signer of message\n     */\n    function getSigner(bytes32 message, bytes32 r, bytes32 s, uint8 v)\n        public\n        pure\n        returns (address)\n    {\n        bytes memory prefix = \"\\x19Ethereum Signed Message:\\n32\";\n        bytes32 prefixedHash = keccak256(abi.encodePacked(prefix, message));\n        address signer = ecrecover(prefixedHash, v, r, s);\n        return signer;\n    }\n\n     /**\n     * @notice Delegated transfer. Gas fee will be paid by relayer\n     * @param message The message that user signed\n     * @param r Signature component\n     * @param s Signature component\n     * @param v Signature component\n     * @param token The unique token for each delegated function\n     * @param networkFee The fee that will be paid to relayer for gas fee he spends\n     * @param to The array of recipients\n     * @param amount The array of amounts to be transferred\n     */\n    function preAuthorizedTransfer(\n        bytes32 message, bytes32 r, bytes32 s, uint8 v, bytes32 token, uint256 networkFee, address to, uint256 amount)\n        public\n    {\n        bytes32 proof = getProofTransfer(methodWord_transfer, token, networkFee, msg.sender, to, amount);\n        address signer = preAuthValidations(proof, message, token, r, s, v);\n\n        // Deduct network fee if broadcaster charges network fee\n        if (networkFee > 0) {\n            privateTransfer(signer, msg.sender, networkFee);\n        }\n        privateTransfer(signer, to, amount);\n        emit TransferPreSigned(signer, to, amount, networkFee);\n    }\n\n    /**\n     * @notice Delegated approval. Gas fee will be paid by relayer\n     * @dev Only approve, increaseApproval and decreaseApproval can be delegated\n     * @param message The message that user signed\n     * @param r Signature component\n     * @param s Signature component\n     * @param v Signature component\n     * @param token The unique token for each delegated function\n     * @param networkFee The fee that will be paid to relayer for gas fee he spends\n     * @param to The spender address\n     * @param amount The amount to be allowed\n     * @return Bool value\n     */\n    function preAuthorizedApproval(\n        bytes4 methodHash, bytes32 message, bytes32 r, bytes32 s, uint8 v, bytes32 token, uint256 networkFee, address to, uint256 amount)\n        public\n        returns (bool)\n    {\n        bytes32 proof = getProofApproval (methodHash, token, networkFee, msg.sender, to, amount);\n        address signer = preAuthValidations(proof, message, token, r, s, v);\n        uint256 currentAllowance = allowance(signer, _msgSender());\n        // Perform approval\n        if(methodHash == methodWord_approve) _approve(signer, to, amount);\n        else if(methodHash == methodWord_increaseApproval) _approve(signer, to, currentAllowance.add(amount));\n        else if(methodHash == methodWord_decreaseApproval) _approve(signer, to, currentAllowance.sub(amount));\n        return true;\n    }\n\n    /**\n     * @notice Get the message to be signed in case of delegated transfer/approvals\n     * @param methodHash The method hash for which delegate action in to be performed\n     * @param token The unique token for each delegated function\n     * @param networkFee The fee that will be paid to relayer for gas fee he spends\n     * @param to The recipient or spender\n     * @param amount The amount to be transferred\n     * @return Bool value\n     */\n    function getProofTransfer(bytes4 methodHash, bytes32 token, uint256 networkFee, address broadcaster, address to, uint256 amount)\n        public\n        view\n        returns (bytes32)\n    {\n        require(methodHash == methodWord_transfer, \"Method not supported\");\n        bytes32 proof = keccak256(abi.encodePacked(\n            getChainID(),\n            bytes4(methodHash),\n            address(this),\n            token,\n            networkFee,\n            broadcaster,\n            to,\n            amount\n    ));\n        return proof;\n    }\n\n    /**\n     * @notice Get the message to be signed in case of delegated transfer/approvals\n     * @param methodHash The method hash for which delegate action in to be performed\n     * @param token The unique token for each delegated function\n     * @param networkFee The fee that will be paid to relayer for gas fee he spends\n     * @param to The recipient or spender\n     * @param amount The amount to be approved\n     * @return Bool value\n     */\n    function getProofApproval(bytes4 methodHash, bytes32 token, uint256 networkFee, address broadcaster, address to, uint256 amount)\n        public\n        view\n        returns (bytes32)\n    {\n        require(\n            methodHash == methodWord_approve ||\n            methodHash == methodWord_increaseApproval ||\n            methodHash == methodWord_decreaseApproval,\n            \"Method not supported\");\n        bytes32 proof = keccak256(abi.encodePacked(\n            getChainID(),\n            bytes4(methodHash),\n            address(this),\n            token,\n            networkFee,\n            broadcaster,\n            to,\n            amount\n        ));\n        return proof;\n    }\n    \n}",
  "sourcePath": "/home/prashant/projects/z-token-smartcontract/contracts/MyToken.sol",
  "compiler": {
    "name": "solc",
    "version": "0.8.0+commit.c7dfd78e.Emscripten.clang"
  },
  "schemaVersion": "3.4.1",
  "updatedAt": "2021-09-06T16:44:45.713Z",
  "devdoc": {
    "author": "Phoenix",
    "kind": "dev",
    "methods": {
      "allowance(address,address)": {
        "details": "See {IERC20-allowance}."
      },
      "approve(address,uint256)": {
        "details": "See {IERC20-approve}. Requirements: - `spender` cannot be the zero address."
      },
      "balanceOf(address)": {
        "details": "See {IERC20-balanceOf}."
      },
      "calculateCommissionMint(uint256)": {
        "details": "Does not checks if sender/recipient is whitelisted",
        "params": {
          "_amount": "The intended amount of transfer"
        },
        "returns": {
          "_0": "uint256 Calculated commission"
        }
      },
      "calculateCommissionMyTokenCrw(uint256)": {
        "params": {
          "_amount": "The intended amount of transfer"
        },
        "returns": {
          "_0": "uint256 Calculated commission"
        }
      },
      "calculateCommissionPhoenixCrw(uint256)": {
        "params": {
          "_amount": "The intended amount of transfer"
        },
        "returns": {
          "_0": "uint256 Calculated commission"
        }
      },
      "decimals()": {
        "details": "Returns the number of decimals used to get its user representation. For example, if `decimals` equals `2`, a balance of `505` tokens should be displayed to a user as `5,05` (`505 / 10 ** 2`). Tokens usually opt for a value of 18, imitating the relationship between Ether and Wei. This is the value {ERC20} uses, unless this function is overridden; NOTE: This information is only used for _display_ purposes: it in no way affects any of the arithmetic of the contract, including {IERC20-balanceOf} and {IERC20-transfer}."
      },
      "decreaseAllowance(address,uint256)": {
        "details": "Atomically decreases the allowance granted to `spender` by the caller. This is an alternative to {approve} that can be used as a mitigation for problems described in {IERC20-approve}. Emits an {Approval} event indicating the updated allowance. Requirements: - `spender` cannot be the zero address. - `spender` must have allowance for the caller of at least `subtractedValue`."
      },
      "increaseAllowance(address,uint256)": {
        "details": "Atomically increases the allowance granted to `spender` by the caller. This is an alternative to {approve} that can be used as a mitigation for problems described in {IERC20-approve}. Emits an {Approval} event indicating the updated allowance. Requirements: - `spender` cannot be the zero address."
      },
      "name()": {
        "details": "Returns the name of the token."
      },
      "owner()": {
        "details": "Returns the address of the current owner."
      },
      "renounceOwnership()": {
        "details": "Leaves the contract without owner. It will not be possible to call `onlyOwner` functions anymore. Can only be called by the current owner. NOTE: Renouncing ownership will leave the contract without an owner, thereby removing any functionality that is only available to the owner."
      },
      "symbol()": {
        "details": "Returns the symbol of the token, usually a shorter version of the name."
      },
      "tokenFallback(address,uint256,bytes)": {
        "details": "Only token contract can call.",
        "params": {
          "_from": "Who transferred, not utlised",
          "_value": "The amount transferred",
          "data": "The data supplied by token contract. It will be ignored"
        }
      },
      "totalSupply()": {
        "details": "See {IERC20-totalSupply}."
      },
      "transfer(address,uint256)": {
        "details": "overriden Function of the openzeppelin ERC20 contract",
        "params": {
          "amount": "The amount to be transferred",
          "recipient": "receiver's address"
        }
      },
      "transferAnyERC20Token(address,uint256)": {
        "params": {
          "_tokenAddress": "The contract address of ERC-20 compitable token",
          "_value": "The number of tokens to be transferred to owner"
        }
      },
      "transferFrom(address,address,uint256)": {
        "details": "overriden Function of the openzeppelin ERC20 contract",
        "params": {
          "amount": "The amount to be transferred",
          "recipient": "receiver's address",
          "sender": "transfer token from account"
        }
      },
      "transferOwnership(address)": {
        "details": "Transfers ownership of the contract to a new account (`newOwner`). Can only be called by the current owner."
      },
      "transferToken(uint256,address)": {
        "details": "Only owner can call, tokens will be transferred and equivalent amount of Token will be burnt from owner address.",
        "params": {
          "_amount": "the amount of tokens to be transferred",
          "_receiver": "address of the receiver"
        }
      },
      "updateCommssionMint(uint256,uint256)": {
        "details": "Only phoenix can call",
        "params": {
          "_d": "The denominator of commission",
          "_n": "The numerator of commission"
        }
      },
      "updateCommssionMyTokenTranfer(uint256,uint256)": {
        "details": "Only owner can call",
        "params": {
          "_d": "The denominator of commission",
          "_n": "The numerator of commission"
        }
      },
      "updateCommssionPhoenixTransfer(uint256,uint256)": {
        "details": "Only Phoenix Owner can call",
        "params": {
          "_d": "The denominator of commission",
          "_n": "The numerator of commission"
        }
      },
      "updatePhoenixAddress(address)": {
        "details": "Only Phoenix can call",
        "params": {
          "_user": "The address of phoenixCrw wallet"
        },
        "returns": {
          "_0": "Bool value"
        }
      }
    },
    "title": "ERC20 Token",
    "version": 1
  },
  "userdoc": {
    "kind": "user",
    "methods": {
      "calculateCommissionMint(uint256)": {
        "notice": "check Minting fee"
      },
      "calculateCommissionMyTokenCrw(uint256)": {
        "notice": "check transer fee credited to Token owner"
      },
      "calculateCommissionPhoenixCrw(uint256)": {
        "notice": "check transer fee credited to Phoenix"
      },
      "tokenFallback(address,uint256,bytes)": {
        "notice": "Function called by token contract whenever tokens are deposited to this contract"
      },
      "transfer(address,uint256)": {
        "notice": "Standard transfer function to Transfer token"
      },
      "transferAnyERC20Token(address,uint256)": {
        "notice": "Owner can transfer out any accidentally sent ERC20 tokens accept OTokens"
      },
      "transferFrom(address,address,uint256)": {
        "notice": "Standard transferFrom. Send tokens on behalf of spender"
      },
      "transferToken(uint256,address)": {
        "notice": "transfer tokens from contract "
      },
      "updateCommssionMint(uint256,uint256)": {
        "notice": "Update commission to be charged on token minting"
      },
      "updateCommssionMyTokenTranfer(uint256,uint256)": {
        "notice": "Update commission to be charged on token transfer"
      },
      "updateCommssionPhoenixTransfer(uint256,uint256)": {
        "notice": "Update commission to be charged on each token transfer for Phoenix"
      },
      "updatePhoenixAddress(address)": {
        "notice": "update phoenix wallet address. This address will be responsible for holding commission on tokens transfer"
      }
    },
    "notice": "Contract for the Token",
    "version": 1
  }
}