{
  "contractName": "MyToken",
  "abi": [
    {
      "inputs": [
        {
          "internalType": "address",
          "name": "_goldTokenAddress",
          "type": "address"
        },
        {
          "internalType": "address",
          "name": "_phoenixCrw",
          "type": "address"
        },
        {
          "internalType": "address",
          "name": "_tokenCrw",
          "type": "address"
        },
        {
          "internalType": "address",
          "name": "_sellingWallet",
          "type": "address"
        },
        {
          "internalType": "string",
          "name": "_name",
          "type": "string"
        },
        {
          "internalType": "string",
          "name": "_symbol",
          "type": "string"
        }
      ],
      "stateMutability": "nonpayable",
      "type": "constructor"
    },
    {
      "anonymous": false,
      "inputs": [
        {
          "indexed": true,
          "internalType": "address",
          "name": "owner",
          "type": "address"
        },
        {
          "indexed": true,
          "internalType": "address",
          "name": "spender",
          "type": "address"
        },
        {
          "indexed": false,
          "internalType": "uint256",
          "name": "value",
          "type": "uint256"
        }
      ],
      "name": "Approval",
      "type": "event"
    },
    {
      "anonymous": false,
      "inputs": [
        {
          "indexed": false,
          "internalType": "uint256",
          "name": "_numerator",
          "type": "uint256"
        },
        {
          "indexed": false,
          "internalType": "uint256",
          "name": "_denominator",
          "type": "uint256"
        },
        {
          "indexed": false,
          "internalType": "string",
          "name": "_data",
          "type": "string"
        }
      ],
      "name": "CommssionUpdate",
      "type": "event"
    },
    {
      "anonymous": false,
      "inputs": [
        {
          "indexed": true,
          "internalType": "address",
          "name": "previousOwner",
          "type": "address"
        },
        {
          "indexed": true,
          "internalType": "address",
          "name": "newOwner",
          "type": "address"
        }
      ],
      "name": "OwnershipTransferred",
      "type": "event"
    },
    {
      "anonymous": false,
      "inputs": [
        {
          "indexed": true,
          "internalType": "address",
          "name": "from",
          "type": "address"
        },
        {
          "indexed": true,
          "internalType": "address",
          "name": "to",
          "type": "address"
        },
        {
          "indexed": false,
          "internalType": "uint256",
          "name": "value",
          "type": "uint256"
        }
      ],
      "name": "Transfer",
      "type": "event"
    },
    {
      "anonymous": false,
      "inputs": [
        {
          "indexed": false,
          "internalType": "address",
          "name": "_from",
          "type": "address"
        },
        {
          "indexed": false,
          "internalType": "address",
          "name": "_to",
          "type": "address"
        },
        {
          "indexed": false,
          "internalType": "uint256",
          "name": "_value",
          "type": "uint256"
        },
        {
          "indexed": false,
          "internalType": "uint256",
          "name": "_networkFee",
          "type": "uint256"
        }
      ],
      "name": "TransferPreSigned",
      "type": "event"
    },
    {
      "inputs": [
        {
          "internalType": "address",
          "name": "owner",
          "type": "address"
        },
        {
          "internalType": "address",
          "name": "spender",
          "type": "address"
        }
      ],
      "name": "allowance",
      "outputs": [
        {
          "internalType": "uint256",
          "name": "",
          "type": "uint256"
        }
      ],
      "stateMutability": "view",
      "type": "function",
      "constant": true
    },
    {
      "inputs": [
        {
          "internalType": "address",
          "name": "spender",
          "type": "address"
        },
        {
          "internalType": "uint256",
          "name": "amount",
          "type": "uint256"
        }
      ],
      "name": "approve",
      "outputs": [
        {
          "internalType": "bool",
          "name": "",
          "type": "bool"
        }
      ],
      "stateMutability": "nonpayable",
      "type": "function"
    },
    {
      "inputs": [
        {
          "internalType": "address",
          "name": "account",
          "type": "address"
        }
      ],
      "name": "balanceOf",
      "outputs": [
        {
          "internalType": "uint256",
          "name": "",
          "type": "uint256"
        }
      ],
      "stateMutability": "view",
      "type": "function",
      "constant": true
    },
    {
      "inputs": [
        {
          "internalType": "uint256",
          "name": "_amount",
          "type": "uint256"
        }
      ],
      "name": "calculateCommissionMint",
      "outputs": [
        {
          "internalType": "uint256",
          "name": "",
          "type": "uint256"
        }
      ],
      "stateMutability": "view",
      "type": "function",
      "constant": true
    },
    {
      "inputs": [
        {
          "internalType": "uint256",
          "name": "_amount",
          "type": "uint256"
        }
      ],
      "name": "calculateCommissionMyTokenCrw",
      "outputs": [
        {
          "internalType": "uint256",
          "name": "",
          "type": "uint256"
        }
      ],
      "stateMutability": "view",
      "type": "function",
      "constant": true
    },
    {
      "inputs": [
        {
          "internalType": "uint256",
          "name": "_amount",
          "type": "uint256"
        }
      ],
      "name": "calculateCommissionPhoenixCrw",
      "outputs": [
        {
          "internalType": "uint256",
          "name": "",
          "type": "uint256"
        }
      ],
      "stateMutability": "view",
      "type": "function",
      "constant": true
    },
    {
      "inputs": [],
      "name": "commission_denominator_minting",
      "outputs": [
        {
          "internalType": "uint256",
          "name": "",
          "type": "uint256"
        }
      ],
      "stateMutability": "view",
      "type": "function",
      "constant": true
    },
    {
      "inputs": [],
      "name": "commission_denominator_phoenix_crw",
      "outputs": [
        {
          "internalType": "uint256",
          "name": "",
          "type": "uint256"
        }
      ],
      "stateMutability": "view",
      "type": "function",
      "constant": true
    },
    {
      "inputs": [],
      "name": "commission_denominator_tokenCrw",
      "outputs": [
        {
          "internalType": "uint256",
          "name": "",
          "type": "uint256"
        }
      ],
      "stateMutability": "view",
      "type": "function",
      "constant": true
    },
    {
      "inputs": [],
      "name": "commission_numerator_minting",
      "outputs": [
        {
          "internalType": "uint256",
          "name": "",
          "type": "uint256"
        }
      ],
      "stateMutability": "view",
      "type": "function",
      "constant": true
    },
    {
      "inputs": [],
      "name": "commission_numerator_phoenix_crw",
      "outputs": [
        {
          "internalType": "uint256",
          "name": "",
          "type": "uint256"
        }
      ],
      "stateMutability": "view",
      "type": "function",
      "constant": true
    },
    {
      "inputs": [],
      "name": "commission_numerator_tokenCrw",
      "outputs": [
        {
          "internalType": "uint256",
          "name": "",
          "type": "uint256"
        }
      ],
      "stateMutability": "view",
      "type": "function",
      "constant": true
    },
    {
      "inputs": [],
      "name": "decimals",
      "outputs": [
        {
          "internalType": "uint8",
          "name": "",
          "type": "uint8"
        }
      ],
      "stateMutability": "view",
      "type": "function",
      "constant": true
    },
    {
      "inputs": [
        {
          "internalType": "address",
          "name": "spender",
          "type": "address"
        },
        {
          "internalType": "uint256",
          "name": "subtractedValue",
          "type": "uint256"
        }
      ],
      "name": "decreaseAllowance",
      "outputs": [
        {
          "internalType": "bool",
          "name": "",
          "type": "bool"
        }
      ],
      "stateMutability": "nonpayable",
      "type": "function"
    },
    {
      "inputs": [
        {
          "internalType": "address",
          "name": "spender",
          "type": "address"
        },
        {
          "internalType": "uint256",
          "name": "addedValue",
          "type": "uint256"
        }
      ],
      "name": "increaseAllowance",
      "outputs": [
        {
          "internalType": "bool",
          "name": "",
          "type": "bool"
        }
      ],
      "stateMutability": "nonpayable",
      "type": "function"
    },
    {
      "inputs": [],
      "name": "methodWord_approve",
      "outputs": [
        {
          "internalType": "bytes4",
          "name": "",
          "type": "bytes4"
        }
      ],
      "stateMutability": "view",
      "type": "function",
      "constant": true
    },
    {
      "inputs": [],
      "name": "methodWord_decreaseApproval",
      "outputs": [
        {
          "internalType": "bytes4",
          "name": "",
          "type": "bytes4"
        }
      ],
      "stateMutability": "view",
      "type": "function",
      "constant": true
    },
    {
      "inputs": [],
      "name": "methodWord_increaseApproval",
      "outputs": [
        {
          "internalType": "bytes4",
          "name": "",
          "type": "bytes4"
        }
      ],
      "stateMutability": "view",
      "type": "function",
      "constant": true
    },
    {
      "inputs": [],
      "name": "methodWord_transfer",
      "outputs": [
        {
          "internalType": "bytes4",
          "name": "",
          "type": "bytes4"
        }
      ],
      "stateMutability": "view",
      "type": "function",
      "constant": true
    },
    {
      "inputs": [],
      "name": "myTokenCrw",
      "outputs": [
        {
          "internalType": "address",
          "name": "",
          "type": "address"
        }
      ],
      "stateMutability": "view",
      "type": "function",
      "constant": true
    },
    {
      "inputs": [],
      "name": "name",
      "outputs": [
        {
          "internalType": "string",
          "name": "",
          "type": "string"
        }
      ],
      "stateMutability": "view",
      "type": "function",
      "constant": true
    },
    {
      "inputs": [],
      "name": "owner",
      "outputs": [
        {
          "internalType": "address",
          "name": "",
          "type": "address"
        }
      ],
      "stateMutability": "view",
      "type": "function",
      "constant": true
    },
    {
      "inputs": [],
      "name": "phoenixCrw",
      "outputs": [
        {
          "internalType": "address",
          "name": "",
          "type": "address"
        }
      ],
      "stateMutability": "view",
      "type": "function",
      "constant": true
    },
    {
      "inputs": [],
      "name": "renounceOwnership",
      "outputs": [],
      "stateMutability": "nonpayable",
      "type": "function"
    },
    {
      "inputs": [],
      "name": "sellingWallet",
      "outputs": [
        {
          "internalType": "address",
          "name": "",
          "type": "address"
        }
      ],
      "stateMutability": "view",
      "type": "function",
      "constant": true
    },
    {
      "inputs": [],
      "name": "symbol",
      "outputs": [
        {
          "internalType": "string",
          "name": "",
          "type": "string"
        }
      ],
      "stateMutability": "view",
      "type": "function",
      "constant": true
    },
    {
      "inputs": [
        {
          "internalType": "address",
          "name": "_from",
          "type": "address"
        },
        {
          "internalType": "uint256",
          "name": "_value",
          "type": "uint256"
        },
        {
          "internalType": "bytes",
          "name": "data",
          "type": "bytes"
        }
      ],
      "name": "tokenFallback",
      "outputs": [],
      "stateMutability": "nonpayable",
      "type": "function"
    },
    {
      "inputs": [
        {
          "internalType": "address",
          "name": "",
          "type": "address"
        },
        {
          "internalType": "bytes32",
          "name": "",
          "type": "bytes32"
        }
      ],
      "name": "tokenUsed",
      "outputs": [
        {
          "internalType": "bool",
          "name": "",
          "type": "bool"
        }
      ],
      "stateMutability": "view",
      "type": "function",
      "constant": true
    },
    {
      "inputs": [],
      "name": "totalSupply",
      "outputs": [
        {
          "internalType": "uint256",
          "name": "",
          "type": "uint256"
        }
      ],
      "stateMutability": "view",
      "type": "function",
      "constant": true
    },
    {
      "inputs": [
        {
          "internalType": "address",
          "name": "recipient",
          "type": "address"
        },
        {
          "internalType": "uint256",
          "name": "amount",
          "type": "uint256"
        }
      ],
      "name": "transfer",
      "outputs": [
        {
          "internalType": "bool",
          "name": "",
          "type": "bool"
        }
      ],
      "stateMutability": "nonpayable",
      "type": "function"
    },
    {
      "inputs": [
        {
          "internalType": "address",
          "name": "sender",
          "type": "address"
        },
        {
          "internalType": "address",
          "name": "recipient",
          "type": "address"
        },
        {
          "internalType": "uint256",
          "name": "amount",
          "type": "uint256"
        }
      ],
      "name": "transferFrom",
      "outputs": [
        {
          "internalType": "bool",
          "name": "",
          "type": "bool"
        }
      ],
      "stateMutability": "nonpayable",
      "type": "function"
    },
    {
      "inputs": [
        {
          "internalType": "address",
          "name": "newOwner",
          "type": "address"
        }
      ],
      "name": "transferOwnership",
      "outputs": [],
      "stateMutability": "nonpayable",
      "type": "function"
    },
    {
      "inputs": [
        {
          "internalType": "uint256",
          "name": "_amount",
          "type": "uint256"
        },
        {
          "internalType": "address",
          "name": "_receiver",
          "type": "address"
        }
      ],
      "name": "transferToken",
      "outputs": [],
      "stateMutability": "nonpayable",
      "type": "function"
    },
    {
      "inputs": [
        {
          "internalType": "uint256",
          "name": "_n",
          "type": "uint256"
        },
        {
          "internalType": "uint256",
          "name": "_d",
          "type": "uint256"
        }
      ],
      "name": "updateCommssionMint",
      "outputs": [],
      "stateMutability": "nonpayable",
      "type": "function"
    },
    {
      "inputs": [
        {
          "internalType": "uint256",
          "name": "_n",
          "type": "uint256"
        },
        {
          "internalType": "uint256",
          "name": "_d",
          "type": "uint256"
        }
      ],
      "name": "updateCommssionMyTokenTranfer",
      "outputs": [],
      "stateMutability": "nonpayable",
      "type": "function"
    },
    {
      "inputs": [
        {
          "internalType": "uint256",
          "name": "_n",
          "type": "uint256"
        },
        {
          "internalType": "uint256",
          "name": "_d",
          "type": "uint256"
        }
      ],
      "name": "updateCommssionPhoenixTransfer",
      "outputs": [],
      "stateMutability": "nonpayable",
      "type": "function"
    },
    {
      "inputs": [
        {
          "internalType": "address",
          "name": "_user",
          "type": "address"
        }
      ],
      "name": "updatePhoenixAddress",
      "outputs": [
        {
          "internalType": "bool",
          "name": "",
          "type": "bool"
        }
      ],
      "stateMutability": "nonpayable",
      "type": "function"
    },
    {
      "stateMutability": "payable",
      "type": "receive",
      "payable": true
    },
    {
      "inputs": [],
      "name": "getChainID",
      "outputs": [
        {
          "internalType": "uint256",
          "name": "",
          "type": "uint256"
        }
      ],
      "stateMutability": "view",
      "type": "function",
      "constant": true
    },
    {
      "inputs": [
        {
          "internalType": "bytes32",
          "name": "message",
          "type": "bytes32"
        },
        {
          "internalType": "bytes32",
          "name": "r",
          "type": "bytes32"
        },
        {
          "internalType": "bytes32",
          "name": "s",
          "type": "bytes32"
        },
        {
          "internalType": "uint8",
          "name": "v",
          "type": "uint8"
        }
      ],
      "name": "getSigner",
      "outputs": [
        {
          "internalType": "address",
          "name": "",
          "type": "address"
        }
      ],
      "stateMutability": "pure",
      "type": "function",
      "constant": true
    },
    {
      "inputs": [
        {
          "internalType": "bytes32",
          "name": "message",
          "type": "bytes32"
        },
        {
          "internalType": "bytes32",
          "name": "r",
          "type": "bytes32"
        },
        {
          "internalType": "bytes32",
          "name": "s",
          "type": "bytes32"
        },
        {
          "internalType": "uint8",
          "name": "v",
          "type": "uint8"
        },
        {
          "internalType": "bytes32",
          "name": "token",
          "type": "bytes32"
        },
        {
          "internalType": "uint256",
          "name": "networkFee",
          "type": "uint256"
        },
        {
          "internalType": "address",
          "name": "to",
          "type": "address"
        },
        {
          "internalType": "uint256",
          "name": "amount",
          "type": "uint256"
        }
      ],
      "name": "preAuthorizedTransfer",
      "outputs": [],
      "stateMutability": "nonpayable",
      "type": "function"
    },
    {
      "inputs": [
        {
          "internalType": "bytes4",
          "name": "methodHash",
          "type": "bytes4"
        },
        {
          "internalType": "bytes32",
          "name": "message",
          "type": "bytes32"
        },
        {
          "internalType": "bytes32",
          "name": "r",
          "type": "bytes32"
        },
        {
          "internalType": "bytes32",
          "name": "s",
          "type": "bytes32"
        },
        {
          "internalType": "uint8",
          "name": "v",
          "type": "uint8"
        },
        {
          "internalType": "bytes32",
          "name": "token",
          "type": "bytes32"
        },
        {
          "internalType": "uint256",
          "name": "networkFee",
          "type": "uint256"
        },
        {
          "internalType": "address",
          "name": "to",
          "type": "address"
        },
        {
          "internalType": "uint256",
          "name": "amount",
          "type": "uint256"
        }
      ],
      "name": "preAuthorizedApproval",
      "outputs": [
        {
          "internalType": "bool",
          "name": "",
          "type": "bool"
        }
      ],
      "stateMutability": "nonpayable",
      "type": "function"
    },
    {
      "inputs": [
        {
          "internalType": "bytes4",
          "name": "methodHash",
          "type": "bytes4"
        },
        {
          "internalType": "bytes32",
          "name": "token",
          "type": "bytes32"
        },
        {
          "internalType": "uint256",
          "name": "networkFee",
          "type": "uint256"
        },
        {
          "internalType": "address",
          "name": "broadcaster",
          "type": "address"
        },
        {
          "internalType": "address",
          "name": "to",
          "type": "address"
        },
        {
          "internalType": "uint256",
          "name": "amount",
          "type": "uint256"
        }
      ],
      "name": "getProofTransfer",
      "outputs": [
        {
          "internalType": "bytes32",
          "name": "",
          "type": "bytes32"
        }
      ],
      "stateMutability": "view",
      "type": "function",
      "constant": true
    },
    {
      "inputs": [
        {
          "internalType": "bytes4",
          "name": "methodHash",
          "type": "bytes4"
        },
        {
          "internalType": "bytes32",
          "name": "token",
          "type": "bytes32"
        },
        {
          "internalType": "uint256",
          "name": "networkFee",
          "type": "uint256"
        },
        {
          "internalType": "address",
          "name": "broadcaster",
          "type": "address"
        },
        {
          "internalType": "address",
          "name": "to",
          "type": "address"
        },
        {
          "internalType": "uint256",
          "name": "amount",
          "type": "uint256"
        }
      ],
      "name": "getProofApproval",
      "outputs": [
        {
          "internalType": "bytes32",
          "name": "",
          "type": "bytes32"
        }
      ],
      "stateMutability": "view",
      "type": "function",
      "constant": true
    }
  ],
  "bytecode": "0x60806040526006805460ff60a01b1916600160a31b179055600160078190556004600855600981905560c8600a819055600b91909155600c556011805463ffffffff191663a9059cbb1763ffffffff60201b191667095ea7b3000000001763ffffffff60401b19166b3950935100000000000000001763ffffffff60601b19166fa457c2d7000000000000000000000000179055348015620000a057600080fd5b506040516200293038038062002930833981016040819052620000c391620003fb565b8585858585858181620000df620000d962000234565b62000238565b8151620000f490600490602085019062000292565b5080516200010a90600590602084019062000292565b505050856200012d816001600160a01b03166200028860201b620012a11760201c565b620001555760405162461bcd60e51b81526004016200014c90620004ac565b60405180910390fd5b856001600160a01b0381166200017f5760405162461bcd60e51b81526004016200014c90620004e3565b856001600160a01b038116620001a95760405162461bcd60e51b81526004016200014c90620004e3565b856001600160a01b038116620001d35760405162461bcd60e51b81526004016200014c90620004e3565b5050600680546001600160a01b03199081166001600160a01b039a8b1617909155600d80548216988a16989098179097555050600e805486169487169490941790935550600f80549093169316929092179055506200056d95505050505050565b3390565b600080546001600160a01b038381166001600160a01b0319831681178455604051919092169283917f8be0079c531659141344cd1fd0a4f28419497f9722a3daafe3b4186f6b6457e09190a35050565b803b15155b919050565b828054620002a0906200051a565b90600052602060002090601f016020900481019282620002c457600085556200030f565b82601f10620002df57805160ff19168380011785556200030f565b828001600101855582156200030f579182015b828111156200030f578251825591602001919060010190620002f2565b506200031d92915062000321565b5090565b5b808211156200031d576000815560010162000322565b80516001600160a01b03811681146200028d57600080fd5b600082601f83011262000361578081fd5b81516001600160401b03808211156200037e576200037e62000557565b6040516020601f8401601f1916820181018381118382101715620003a657620003a662000557565b6040528382528584018101871015620003bd578485fd5b8492505b83831015620003e05785830181015182840182015291820191620003c1565b83831115620003f157848185840101525b5095945050505050565b60008060008060008060c0878903121562000414578182fd5b6200041f8762000338565b95506200042f6020880162000338565b94506200043f6040880162000338565b93506200044f6060880162000338565b60808801519093506001600160401b03808211156200046c578384fd5b6200047a8a838b0162000350565b935060a089015191508082111562000490578283fd5b506200049f89828a0162000350565b9150509295509295509295565b60208082526018908201527f4f6e6c7920636f6e747261637420697320616c6c6f7765640000000000000000604082015260600190565b60208082526018908201527f5a65726f2061646472657373206e6f7420616c6c6f7765640000000000000000604082015260600190565b6002810460018216806200052f57607f821691505b602082108114156200055157634e487b7160e01b600052602260045260246000fd5b50919050565b634e487b7160e01b600052604160045260246000fd5b6123b3806200057d6000396000f3fe6080604052600436106102605760003560e01c80638da5cb5b11610144578063c0ee0b8a116100b6578063e9891d7f1161007a578063e9891d7f146106c9578063ecef28e1146106e9578063f2fde38b146106fe578063f866e0491461071e578063f97cedf71461073e578063facd7ecf1461075357610286565b8063c0ee0b8a1461063f578063c19fbdec1461065f578063cfcb9f591461067f578063dd62ed3e14610694578063e5833006146106b457610286565b8063a162140d11610108578063a162140d1461057f578063a457c2d71461059f578063a5d3d728146105bf578063a9059cbb146105df578063a93dfb0d146105ff578063bad425901461061f57610286565b80638da5cb5b1461050057806394a584251461051557806395d89b411461052a5780639bc0df6c1461053f5780639dd0953f1461055f57610286565b80633691e0cf116101dd57806366618d18116101a157806366618d181461045f57806370a082311461047f578063715018a61461049f5780637620588b146104b45780637b6b6b27146104d65780638608e48b146104eb57610286565b80633691e0cf146103de57806339509351146103f35780633a3be9d414610413578063564b81ef1461043557806364f3448f1461044a57610286565b806318160ddd1161022457806318160ddd146103475780631cde8a631461035c5780631e1ad2d41461037c57806323b872dd1461039c578063313ce567146103bc57610286565b8063037311581461028b57806306fdde03146102b6578063095ea7b3146102d85780630ba4adcd14610305578063111157be1461032757610286565b366102865760405162461bcd60e51b815260040161027d90611eb2565b60405180910390fd5b600080fd5b34801561029757600080fd5b506102a0610768565b6040516102ad9190611cb9565b60405180910390f35b3480156102c257600080fd5b506102cb61076e565b6040516102ad9190611cf5565b3480156102e457600080fd5b506102f86102f3366004611917565b610800565b6040516102ad9190611cae565b34801561031157600080fd5b50610325610320366004611bb9565b61081d565b005b34801561033357600080fd5b506102a0610342366004611b09565b6108a4565b34801561035357600080fd5b506102a0610972565b34801561036857600080fd5b506102a0610377366004611b67565b610978565b34801561038857600080fd5b506102f8610397366004611a8c565b6109a8565b3480156103a857600080fd5b506102f86103b73660046118dc565b610a88565b3480156103c857600080fd5b506103d1610ae6565b6040516102ad9190612284565b3480156103ea57600080fd5b506102a0610af6565b3480156103ff57600080fd5b506102f861040e366004611917565b610afc565b34801561041f57600080fd5b50610428610b4b565b6040516102ad9190611c58565b34801561044157600080fd5b506102a0610b5a565b34801561045657600080fd5b50610428610b5e565b34801561046b57600080fd5b5061042861047a3660046119e2565b610b6d565b34801561048b57600080fd5b506102a061049a366004611890565b610c33565b3480156104ab57600080fd5b50610325610c4e565b3480156104c057600080fd5b506104c9610c99565b6040516102ad9190611ce0565b3480156104e257600080fd5b506102a0610caa565b3480156104f757600080fd5b506104c9610cb0565b34801561050c57600080fd5b50610428610cb9565b34801561052157600080fd5b50610428610cc8565b34801561053657600080fd5b506102cb610cd7565b34801561054b57600080fd5b506102a061055a366004611b67565b610ce6565b34801561056b57600080fd5b5061032561057a366004611bb9565b610d08565b34801561058b57600080fd5b506102a061059a366004611b09565b610d6e565b3480156105ab57600080fd5b506102f86105ba366004611917565b610da3565b3480156105cb57600080fd5b506103256105da366004611bb9565b610e1c565b3480156105eb57600080fd5b506102f86105fa366004611917565b610e82565b34801561060b57600080fd5b506102a061061a366004611b67565b610e8f565b34801561062b57600080fd5b5061032561063a366004611b97565b610eb1565b34801561064b57600080fd5b5061032561065a366004611940565b611055565b34801561066b57600080fd5b5061032561067a366004611a20565b6110ce565b34801561068b57600080fd5b506102a0611161565b3480156106a057600080fd5b506102a06106af3660046118aa565b611167565b3480156106c057600080fd5b506104c9611192565b3480156106d557600080fd5b506102f86106e4366004611890565b6111a2565b3480156106f557600080fd5b506104c96111f4565b34801561070a57600080fd5b50610325610719366004611890565b611204565b34801561072a57600080fd5b506102f8610739366004611917565b611275565b34801561074a57600080fd5b506102a0611295565b34801561075f57600080fd5b506102a061129b565b600c5481565b60606004805461077d9061232c565b80601f01602080910402602001604051908101604052809291908181526020018280546107a99061232c565b80156107f65780601f106107cb576101008083540402835291602001916107f6565b820191906000526020600020905b8154815290600101906020018083116107d957829003601f168201915b5050505050905090565b600061081461080d6112a7565b84846112ab565b50600192915050565b6108256112a7565b6001600160a01b0316610836610cb9565b6001600160a01b03161461085c5760405162461bcd60e51b815260040161027d90611f94565b600a81905560098290556040517f52157bec5b4f5ad5638e2f13345ca278ff8655617888654f1f51af41367b24779061089890849084906121d2565b60405180910390a15050565b6011546000906001600160e01b031988811664010000000090920460e01b1614806108e757506011546001600160e01b0319888116600160401b90920460e01b16145b8061090a57506011546001600160e01b0319888116600160601b90920460e01b16145b6109265760405162461bcd60e51b815260040161027d90612128565b6000610930610b5a565b8830898989898960405160200161094e989796959493929190611bfc565b60408051808303601f19018152919052805160209091012098975050505050505050565b60035490565b60006109a0606461099a600c5461099a600b548761135f90919063ffffffff16565b90611372565b90505b919050565b6000806109b98b87873388886108a4565b905060006109cb828c898d8d8d61137e565b905060006109db826106af6112a7565b6011549091506001600160e01b03198e811664010000000090920460e01b161415610a1057610a0b8287876112ab565b610a75565b6011546001600160e01b03198e8116600160401b90920460e01b161415610a4557610a0b8287610a408489611452565b6112ab565b6011546001600160e01b03198e8116600160601b90920460e01b161415610a7557610a758287610a40848961145e565b5060019c9b505050505050505050505050565b600080610a97856106af6112a7565b905082811015610ab95760405162461bcd60e51b815260040161027d90611f4c565b610acf85610ac56112a7565b610a40848761145e565b610ada85858561146a565b50600195945050505050565b600654600160a01b900460ff1690565b600a5481565b6000610814610b096112a7565b848460026000610b176112a7565b6001600160a01b03908116825260208083019390935260409182016000908120918b1681529252902054610a409190612292565b600d546001600160a01b031681565b4690565b600f546001600160a01b031681565b6000806040518060400160405280601c81526020017f19457468657265756d205369676e6564204d6573736167653a0a333200000000815250905060008187604051602001610bbd929190611bda565b604051602081830303815290604052805190602001209050600060018286898960405160008152602001604052604051610bfa9493929190611cc2565b6020604051602081039080840390855afa158015610c1c573d6000803e3d6000fd5b5050604051601f1901519998505050505050505050565b6001600160a01b031660009081526001602052604090205490565b610c566112a7565b6001600160a01b0316610c67610cb9565b6001600160a01b031614610c8d5760405162461bcd60e51b815260040161027d90611f94565b610c976000611519565b565b601154640100000000900460e01b81565b60075481565b60115460e01b81565b6000546001600160a01b031690565b600e546001600160a01b031681565b60606005805461077d9061232c565b60006109a0606461099a600a5461099a6009548761135f90919063ffffffff16565b600d546001600160a01b03163314610d325760405162461bcd60e51b815260040161027d9061200a565b600881905560078290556040517f52157bec5b4f5ad5638e2f13345ca278ff8655617888654f1f51af41367b2477906108989084908490612215565b60115460009060e01b6001600160e01b0319908116908816146109265760405162461bcd60e51b815260040161027d90612128565b60008060026000610db26112a7565b6001600160a01b0390811682526020808301939093526040918201600090812091881681529252902054905082811015610dfe5760405162461bcd60e51b815260040161027d90612156565b610e12610e096112a7565b858584036112ab565b5060019392505050565b600d546001600160a01b03163314610e465760405162461bcd60e51b815260040161027d9061200a565b600c819055600b8290556040517f52157bec5b4f5ad5638e2f13345ca278ff8655617888654f1f51af41367b247790610898908490849061224c565b6000610e1233848461146a565b60006109a0606461099a60085461099a6007548761135f90919063ffffffff16565b610eb96112a7565b6001600160a01b0316610eca610cb9565b6001600160a01b031614610ef05760405162461bcd60e51b815260040161027d90611f94565b806001600160a01b038116610f175760405162461bcd60e51b815260040161027d906120ca565b6006546040516370a0823160e01b815284916001600160a01b0316906370a0823190610f47903090600401611c58565b60206040518083038186803b158015610f5f57600080fd5b505afa158015610f73573d6000803e3d6000fd5b505050506040513d601f19601f82011682018060405250810190610f979190611b7f565b1015610fb55760405162461bcd60e51b815260040161027d90611d6b565b60065460405163a9059cbb60e01b81526001600160a01b039091169063a9059cbb90610fe79085908790600401611c95565b602060405180830381600087803b15801561100157600080fd5b505af1158015611015573d6000803e3d6000fd5b505050506040513d601f19601f8201168201806040525081019061103991906119c2565b50600f54611050906001600160a01b031684611569565b505050565b6006546001600160a01b0316331461107f5760405162461bcd60e51b815260040161027d90611f15565b600061108a84610e8f565b905080156110a857600d546110a8906001600160a01b03168261165a565b600f546110c7906001600160a01b03166110c2868461145e565b61165a565b5050505050565b6011546000906110e59060e01b8686338787610d6e565b905060006110f7828b888c8c8c61137e565b9050841561110c5761110a81338761146a565b505b61111781858561146a565b507f75d90cfdfda08c895e4262bb15d0bba4f27d5714a5950f85f8cead07b3b7e0048185858860405161114d9493929190611c6c565b60405180910390a150505050505050505050565b60085481565b6001600160a01b03918216600090815260026020908152604080832093909416825291909152205490565b601154600160401b900460e01b81565b600d546000906001600160a01b031633146111cf5760405162461bcd60e51b815260040161027d9061200a565b50600d80546001600160a01b0383166001600160a01b03199091161790556001919050565b601154600160601b900460e01b81565b61120c6112a7565b6001600160a01b031661121d610cb9565b6001600160a01b0316146112435760405162461bcd60e51b815260040161027d90611f94565b6001600160a01b0381166112695760405162461bcd60e51b815260040161027d90611de4565b61127281611519565b50565b601060209081526000928352604080842090915290825290205460ff1681565b60095481565b600b5481565b3b151590565b3390565b6001600160a01b0383166112d15760405162461bcd60e51b815260040161027d90612086565b6001600160a01b0382166112f75760405162461bcd60e51b815260040161027d90611e2a565b6001600160a01b0380841660008181526002602090815260408083209487168084529490915290819020849055517f8c5be1e5ebec7d5bd14f71427d1e84f3dd0314c0f7b2291e5b200ac8c7c3b92590611352908590611cb9565b60405180910390a3505050565b600061136b82846122ca565b9392505050565b600061136b82846122aa565b60008061138d87868686610b6d565b90506001600160a01b0381166113b55760405162461bcd60e51b815260040161027d906120ca565b6001600160a01b038116600090815260106020908152604080832089845290915290205460ff16156113f95760405162461bcd60e51b815260040161027d90611ee9565b8688146114185760405162461bcd60e51b815260040161027d90612101565b6001600160a01b03811660009081526010602090815260408083208984529091529020805460ff1916600117905590509695505050505050565b600061136b8284612292565b600061136b82846122e9565b6000826001600160a01b0381166114935760405162461bcd60e51b815260040161027d906120ca565b600061149e84610978565b905060006114ab85610ce6565b905081156114cb57600d546114cb9088906001600160a01b031684611726565b80156114e957600e546114e99088906001600160a01b031683611726565b60006114f58284611452565b905061150b8888611506898561145e565b611726565b506001979650505050505050565b600080546001600160a01b038381166001600160a01b0319831681178455604051919092169283917f8be0079c531659141344cd1fd0a4f28419497f9722a3daafe3b4186f6b6457e09190a35050565b6001600160a01b03821661158f5760405162461bcd60e51b815260040161027d90611fc9565b61159b82600083611050565b6001600160a01b038216600090815260016020526040902054818110156115d45760405162461bcd60e51b815260040161027d90611da2565b6001600160a01b03831660009081526001602052604081208383039055600380548492906116039084906122e9565b90915550506040516000906001600160a01b038516907fddf252ad1be2c89b69c2b068fc378daa952ba7f163c4a11628f55a4df523b3ef90611646908690611cb9565b60405180910390a361105083600084611050565b6001600160a01b0382166116805760405162461bcd60e51b815260040161027d9061219b565b61168c60008383611050565b806003600082825461169e9190612292565b90915550506001600160a01b038216600090815260016020526040812080548392906116cb908490612292565b90915550506040516001600160a01b038316906000907fddf252ad1be2c89b69c2b068fc378daa952ba7f163c4a11628f55a4df523b3ef9061170e908590611cb9565b60405180910390a361172260008383611050565b5050565b6001600160a01b03831661174c5760405162461bcd60e51b815260040161027d90612041565b6001600160a01b0382166117725760405162461bcd60e51b815260040161027d90611d28565b61177d838383611050565b6001600160a01b038316600090815260016020526040902054818110156117b65760405162461bcd60e51b815260040161027d90611e6c565b6001600160a01b038085166000908152600160205260408082208585039055918516815290812080548492906117ed908490612292565b92505081905550826001600160a01b0316846001600160a01b03167fddf252ad1be2c89b69c2b068fc378daa952ba7f163c4a11628f55a4df523b3ef846040516118379190611cb9565b60405180910390a361184a848484611050565b50505050565b80356001600160a01b03811681146109a357600080fd5b80356001600160e01b0319811681146109a357600080fd5b803560ff811681146109a357600080fd5b6000602082840312156118a1578081fd5b61136b82611850565b600080604083850312156118bc578081fd5b6118c583611850565b91506118d360208401611850565b90509250929050565b6000806000606084860312156118f0578081fd5b6118f984611850565b925061190760208501611850565b9150604084013590509250925092565b60008060408385031215611929578182fd5b61193283611850565b946020939093013593505050565b60008060008060608587031215611955578081fd5b61195e85611850565b935060208501359250604085013567ffffffffffffffff80821115611981578283fd5b818701915087601f830112611994578283fd5b8135818111156119a2578384fd5b8860208285010111156119b3578384fd5b95989497505060200194505050565b6000602082840312156119d3578081fd5b8151801515811461136b578182fd5b600080600080608085870312156119f7578384fd5b843593506020850135925060408501359150611a156060860161187f565b905092959194509250565b600080600080600080600080610100898b031215611a3c578384fd5b883597506020890135965060408901359550611a5a60608a0161187f565b94506080890135935060a08901359250611a7660c08a01611850565b915060e089013590509295985092959890939650565b60008060008060008060008060006101208a8c031215611aaa578081fd5b611ab38a611867565b985060208a0135975060408a0135965060608a01359550611ad660808b0161187f565b945060a08a0135935060c08a01359250611af260e08b01611850565b91506101008a013590509295985092959850929598565b60008060008060008060c08789031215611b21578384fd5b611b2a87611867565b95506020870135945060408701359350611b4660608801611850565b9250611b5460808801611850565b915060a087013590509295509295509295565b600060208284031215611b78578081fd5b5035919050565b600060208284031215611b90578081fd5b5051919050565b60008060408385031215611ba9578182fd5b823591506118d360208401611850565b60008060408385031215611bcb578182fd5b50508035926020909101359150565b60008351611bec818460208801612300565b9190910191825250602001919050565b9788526001600160e01b03199690961660208801526bffffffffffffffffffffffff19606095861b8116602489015260388801949094526058870192909252831b8216607886015290911b16608c83015260a082015260c00190565b6001600160a01b0391909116815260200190565b6001600160a01b0394851681529290931660208301526040820152606081019190915260800190565b6001600160a01b03929092168252602082015260400190565b901515815260200190565b90815260200190565b93845260ff9290921660208401526040830152606082015260800190565b6001600160e01b031991909116815260200190565b6000602082528251806020840152611d14816040850160208701612300565b601f01601f19169190910160400192915050565b60208082526023908201527f45524332303a207472616e7366657220746f20746865207a65726f206164647260408201526265737360e81b606082015260800190565b6020808252601c908201527f496e7375666669636965742062616c616e6365206f6620746f6b656e00000000604082015260600190565b60208082526022908201527f45524332303a206275726e20616d6f756e7420657863656564732062616c616e604082015261636560f01b606082015260800190565b60208082526026908201527f4f776e61626c653a206e6577206f776e657220697320746865207a65726f206160408201526564647265737360d01b606082015260800190565b60208082526022908201527f45524332303a20617070726f766520746f20746865207a65726f206164647265604082015261737360f01b606082015260800190565b60208082526026908201527f45524332303a207472616e7366657220616d6f756e7420657863656564732062604082015265616c616e636560d01b606082015260800190565b6020808252601f908201527f436f6e747261637420646f6573206e6f74206163636570742065746865727300604082015260600190565b602080825260129082015271151bdad95b88185b1c9958591e481d5cd95960721b604082015260600190565b6020808252601e908201527f4f6e6c7920546f6b656e20636f6e747261637420697320616c6c6f7765640000604082015260600190565b60208082526028908201527f45524332303a207472616e7366657220616d6f756e74206578636565647320616040820152676c6c6f77616e636560c01b606082015260800190565b6020808252818101527f4f776e61626c653a2063616c6c6572206973206e6f7420746865206f776e6572604082015260600190565b60208082526021908201527f45524332303a206275726e2066726f6d20746865207a65726f206164647265736040820152607360f81b606082015260800190565b60208082526017908201527f4f6e6c792050686f656e697820697320616c6c6f776564000000000000000000604082015260600190565b60208082526025908201527f45524332303a207472616e736665722066726f6d20746865207a65726f206164604082015264647265737360d81b606082015260800190565b60208082526024908201527f45524332303a20617070726f76652066726f6d20746865207a65726f206164646040820152637265737360e01b606082015260800190565b60208082526018908201527f5a65726f2061646472657373206e6f7420616c6c6f7765640000000000000000604082015260600190565b6020808252600d908201526c24b73b30b634b210383937b7b360991b604082015260600190565b60208082526014908201527313595d1a1bd9081b9bdd081cdd5c1c1bdc9d195960621b604082015260600190565b60208082526025908201527f45524332303a2064656372656173656420616c6c6f77616e63652062656c6f77604082015264207a65726f60d81b606082015260800190565b6020808252601f908201527f45524332303a206d696e7420746f20746865207a65726f206164647265737300604082015260600190565b9182526020820152606060408201819052601a908201527f4d79546f6b656e206f776e6572277320636f6d6d697373696f6e000000000000608082015260a00190565b91825260208201526060604082018190526011908201527026b4b73a34b7339031b7b6b6b4b9b4b7b760791b608082015260a00190565b918252602082015260606040820181905260129082015271283437b2b734bc1031b7b6b6b4b9b9b4b7b760711b608082015260a00190565b60ff91909116815260200190565b600082198211156122a5576122a5612367565b500190565b6000826122c557634e487b7160e01b81526012600452602481fd5b500490565b60008160001904831182151516156122e4576122e4612367565b500290565b6000828210156122fb576122fb612367565b500390565b60005b8381101561231b578181015183820152602001612303565b8381111561184a5750506000910152565b60028104600182168061234057607f821691505b6020821081141561236157634e487b7160e01b600052602260045260246000fd5b50919050565b634e487b7160e01b600052601160045260246000fdfea26469706673582212209991873bd5b5832ab4a4b4c7a38f578d1f872e1b1760c0687208a3740b85d43164736f6c63430008000033",
  "immutableReferences": {},
  "source": "\n// SPDX-License-Identifier: MIT\n\npragma solidity ^0.8.0;\n\nimport \"./access/Ownable.sol\";\nimport \"./utils/math/SafeMath.sol\";\nimport \"./token/ERC20/utils/SafeERC20.sol\";\nimport \"./token/ERC20/ERC20.sol\";\n\nabstract contract TokenInterface {\n    function balanceOf(address account) external view virtual returns (uint256);\n\n    function transfer(address recipient, uint256 amount)\n        external\n        virtual\n        returns (bool success);\n}\n\n/**\n * @dev interface defining the TokenRecipient\n */\ninterface TokenRecipient {\n    function tokenFallback(\n        address _from,\n        uint256 _value,\n        bytes calldata data\n    ) external;\n}\n\n/**\n * @title ERC20 Token\n * @author Phoenix\n * @notice Contract for the Token\n */\ncontract ERC20Token is Ownable, ERC20, TokenRecipient {\n    // attach library functions\n    using SafeMath for uint256;\n    using SafeERC20 for TokenInterface;\n    using Address for address;\n\n    //event\n    event CommssionUpdate(\n        uint256 _numerator,\n        uint256 _denominator,\n        string _data\n    );\n    event TransferPreSigned(address _from, address _to, uint256 _value, uint256 _networkFee);\n\n    //public variables\n    TokenInterface private backedTokenContract;\n\n    //private variables\n    uint8 private decimal = 8;\n\n    // These variable help to calculate the commissions on each token transfer transcation\n    uint256 public commission_numerator_minting = 1; // commission percentage on minting 0.025%\n    uint256 public commission_denominator_minting = 4;\n\n    uint256 public commission_numerator_tokenCrw = 1; // commission percentage to token owner 0.005%\n    uint256 public commission_denominator_tokenCrw = 200;\n\n    uint256 public commission_numerator_phoenix_crw = 1; // commission percentage to token owner 0.005%\n    uint256 public commission_denominator_phoenix_crw = 200;\n\n    // addresses at which fees transferred\n    address public phoenixCrw; // token commission to phoenixCRW\n    address public myTokenCrw; // token commission to token Central revenue wallet\n\n    // tokens minted in this wallet when backed token is received\n    address public sellingWallet;\n\n    constructor(\n        address _goldTokenAddress,\n        address _phoenixCrw,\n        address _mytokencrw,\n        address _sellingWallet,\n        string memory _name,\n        string memory _symbol\n    )\n        isContractAddress(_goldTokenAddress)\n        onlyNonZeroAddress(_phoenixCrw)\n        onlyNonZeroAddress(_mytokencrw)\n        onlyNonZeroAddress(_sellingWallet)\n        ERC20(_name, _symbol)\n    {\n        backedTokenContract = TokenInterface(_goldTokenAddress);\n        phoenixCrw = _phoenixCrw;\n        myTokenCrw = _mytokencrw;\n        sellingWallet = _sellingWallet;\n    }\n\n    ////////////////////////////////////////////////////////////////\n    //                 modifiers\n    ////////////////////////////////////////////////////////////////\n\n    modifier onlyNonZeroAddress(address _user) {\n        require(_user != address(0), \"Zero address not allowed\");\n        _;\n    }\n\n    modifier onlyTokenContract() {\n        require(\n            msg.sender == address(backedTokenContract),\n            \"Only Token contract is allowed\"\n        );\n        _;\n    }\n\n    modifier isContractAddress(address _addressContract) {\n        require(\n            _addressContract.isContract(),\n            \"Only contract is allowed\"\n        );\n        _;\n    }\n\n    modifier onlyPhoenix {\n        require(msg.sender == phoenixCrw, \"Only Phoenix is allowed\");\n        _;\n    }\n\n    ////////////////////////////////////////////////////////////////\n    //                  Only Owner functions\n    ////////////////////////////////////////////////////////////////\n\n    /**\n     * @notice transfer tokens from contract \n     * @dev Only owner can call, tokens will be transferred and equivalent amount of Token will be burnt from owner address.\n     * @param _amount the amount of tokens to be transferred\n     * @param _receiver address of the receiver\n\n     */\n    function transferToken(uint256 _amount, address _receiver)\n        external\n        onlyOwner\n        onlyNonZeroAddress(_receiver)\n    {\n        require(\n            backedTokenContract.balanceOf(address(this)) >= _amount,\n            \"Insufficiet balance of token\"\n        );\n        backedTokenContract.transfer(_receiver, _amount);\n        _burn(sellingWallet, _amount);\n    }\n\n    /**\n     * @notice Function called by token contract whenever tokens are deposited to this contract\n     * @dev Only token contract can call.\n     * @param _from Who transferred, not utlised\n     * @param _value The amount transferred\n     * @param data The data supplied by token contract. It will be ignored\n     */\n    function tokenFallback(\n        address _from,\n        uint256 _value,\n        bytes calldata data\n    ) external override onlyTokenContract {\n        uint256 fee = calculateCommissionMint(_value);\n        if (fee > 0) _mint(phoenixCrw, fee);\n        _mint(sellingWallet, _value.sub(fee));\n    }\n\n    ////////////////////////////////////////////////////////////////\n    //                  overriden functions\n    ////////////////////////////////////////////////////////////////\n    function decimals() public view virtual override returns (uint8) {\n        return decimal;\n    }\n\n\n    /**\n     * @notice Standard transfer function to Transfer token\n     * @dev overriden Function of the openzeppelin ERC20 contract\n     * @param recipient receiver's address\n     * @param amount The amount to be transferred\n     */\n    function transfer(address recipient, uint256 amount)\n        public\n        virtual\n        override\n        returns (bool)\n    {\n        privateTransfer(msg.sender, recipient, amount);\n        return true;\n    }\n    \n    /**\n     * @notice Standard transferFrom. Send tokens on behalf of spender\n     * @dev overriden Function of the openzeppelin ERC20 contract\n     * @param recipient receiver's address\n     * @param sender transfer token from account\n     * @param amount The amount to be transferred\n     */\n    function transferFrom(address sender, address recipient, uint256 amount)\n        public\n        virtual\n        override\n        returns (bool)\n    {\n        uint256 currentAllowance = allowance(sender, _msgSender());\n        require(currentAllowance >= amount, \"ERC20: transfer amount exceeds allowance\");\n        _approve(sender, _msgSender(), currentAllowance.sub(amount));\n        privateTransfer(sender, recipient, amount);\n        return true;\n    }\n    \n\n    /**\n     * @notice Internal method to handle transfer logic\n     * @dev Notifies recipient, if recipient is a trusted contract\n     * @param _from Sender address\n     * @param _recipient Recipient address\n     * @param _amount amount of tokens to be transferred\n     * @return bool\n     */\n    function privateTransfer(address _from, address _recipient, uint256 _amount)\n        internal\n        onlyNonZeroAddress(_recipient)\n        returns (bool)\n    {\n        uint256 feeToPhoenix = calculateCommissionPhoenixCrw(_amount);\n        uint256 feeMyTokenOwner = calculateCommissionMyTokenCrw(_amount);\n\n        if (feeToPhoenix > 0) _transfer(_from, phoenixCrw, feeToPhoenix);\n        if (feeMyTokenOwner > 0) _transfer(_from, myTokenCrw, feeMyTokenOwner);\n        uint256 amount_credit = feeMyTokenOwner.add(feeToPhoenix);\n        _transfer(_from, _recipient, _amount.sub(amount_credit));\n        return true;\n    } \n \n    /**\n     * @notice update phoenix wallet address. This address will be responsible for holding commission on tokens transfer\n     * @dev Only Phoenix can call\n     * @param _user The address of phoenixCrw wallet\n     * @return Bool value\n     */\n    function updatePhoenixAddress(address _user)\n        external\n        onlyPhoenix\n        returns (bool)\n    {\n        phoenixCrw = _user;\n        return true;\n    }\n\n    /**\n     * @notice check Minting fee\n     * @dev Does not checks if sender/recipient is whitelisted\n     * @param _amount The intended amount of transfer\n     * @return uint256 Calculated commission\n     */\n    function calculateCommissionMint(uint256 _amount)\n        public\n        view\n        returns (uint256)\n    {\n        return\n            _amount\n                .mul(commission_numerator_minting)\n                .div(commission_denominator_minting)\n                .div(100);\n    }\n\n    /**\n     * @notice check transer fee credited to Token owner\n     * @param _amount The intended amount of transfer\n     * @return uint256 Calculated commission\n     */\n    function calculateCommissionMyTokenCrw(uint256 _amount)\n        public\n        view\n        returns (uint256)\n    {\n        return\n            _amount\n                .mul(commission_numerator_tokenCrw)\n                .div(commission_denominator_tokenCrw)\n                .div(100);\n    }\n\n    /**\n     * @notice check transer fee credited to Phoenix\n     * @param _amount The intended amount of transfer\n     * @return uint256 Calculated commission\n     */\n    function calculateCommissionPhoenixCrw(uint256 _amount)\n        public\n        view\n        returns (uint256)\n    {\n        return\n            _amount\n                .mul(commission_numerator_phoenix_crw)\n                .div(commission_denominator_phoenix_crw)\n                .div(100);\n    }\n\n    /**\n     * @notice Update commission to be charged on each token transfer for Phoenix\n     * @dev Only Phoenix Owner can call\n     * @param _n The numerator of commission\n     * @param _d The denominator of commission\n     */\n    function updateCommssionPhoenixTransfer(uint256 _n, uint256 _d)\n        public\n        onlyPhoenix\n    {\n        commission_denominator_phoenix_crw = _d;\n        commission_numerator_phoenix_crw = _n;\n        emit CommssionUpdate(_n, _d, \"Phoenix commission\");\n    }\n\n    /**\n     * @notice Update commission to be charged on token transfer\n     * @dev Only owner can call\n     * @param _n The numerator of commission\n     * @param _d The denominator of commission\n     */\n    function updateCommssionMyTokenTranfer(uint256 _n, uint256 _d) public onlyOwner {\n        commission_denominator_tokenCrw = _d;\n        commission_numerator_tokenCrw = _n;\n        emit CommssionUpdate(_n, _d, \"MyToken owner's commission\");\n    }\n\n    /**\n     * @notice Update commission to be charged on token minting\n     * @dev Only phoenix can call\n     * @param _n The numerator of commission\n     * @param _d The denominator of commission\n     */\n    function updateCommssionMint(uint256 _n, uint256 _d) public onlyPhoenix {\n        commission_denominator_minting = _d;\n        commission_numerator_minting = _n;\n        emit CommssionUpdate(_n, _d, \"Minting commision\");\n    }\n    \n    \n    /**\n     * @notice Prevents contract from accepting ETHs\n     * @dev Contracts can still be sent ETH with self destruct. If anyone deliberately does that, the ETHs will be lost\n     */\n    receive() external payable {\n        revert(\"Contract does not accept ethers\");\n    }\n    \n    \n}\n\n/**\n * @title AdvancedOToken\n * @author Phoenix \n */    \ncontract MyToken is ERC20Token {\n    mapping(address => mapping(bytes32 => bool)) public tokenUsed; // mapping to track token is used or not\n    \n    bytes4 public methodWord_transfer = bytes4(keccak256(\"transfer(address,uint256)\"));\n    bytes4 public methodWord_approve = bytes4(keccak256(\"approve(address,uint256)\"));\n    bytes4 public methodWord_increaseApproval = bytes4(keccak256(\"increaseAllowance(address,uint256)\"));\n    bytes4 public methodWord_decreaseApproval = bytes4(keccak256(\"decreaseAllowance(address,uint256)\"));\n\n    using SafeMath for uint256;\n\n    constructor(\n        address _goldTokenAddress,\n        address _phoenixCrw,\n        address _tokenCrw,\n        address _sellingWallet,\n        string memory _name,\n        string memory _symbol\n        )  ERC20Token( _goldTokenAddress, _phoenixCrw, _tokenCrw, _sellingWallet, _name, _symbol) {\n    }\n\n    /**\n    * @dev ID of the executing chain\n    * @return uint value\n     */\n    function getChainID() public view returns (uint256) {\n        uint256 id;\n        assembly {\n            id := chainid()\n        }\n        return id;\n    }\n\n    /**\n     * @notice Validates the message and signature\n     * @param proof The message that was expected to be signed by user\n     * @param message The message that user signed\n     * @param r Signature component\n     * @param s Signature component\n     * @param v Signature component\n     * @param token The unique token for each delegated function\n     * @return address Signer of message\n     */\n    function preAuthValidations(bytes32 proof, bytes32 message, bytes32 token, bytes32 r, bytes32 s, uint8 v)\n        private\n        returns(address)\n    {\n        address signer = getSigner(message, r, s, v);\n        require(signer != address(0),\"Zero address not allowed\");\n        require(!tokenUsed[signer][token],\"Token already used\");\n        require(proof == message, \"Invalid proof\");\n        tokenUsed[signer][token] = true;\n        return signer;\n    }\n\n    /**\n     * @notice Find signer\n     * @param message The message that user signed\n     * @param r Signature component\n     * @param s Signature component\n     * @param v Signature component\n     * @return address Signer of message\n     */\n    function getSigner(bytes32 message, bytes32 r, bytes32 s, uint8 v)\n        public\n        pure\n        returns (address)\n    {\n        bytes memory prefix = \"\\x19Ethereum Signed Message:\\n32\";\n        bytes32 prefixedHash = keccak256(abi.encodePacked(prefix, message));\n        address signer = ecrecover(prefixedHash, v, r, s);\n        return signer;\n    }\n\n     /**\n     * @notice Delegated transfer. Gas fee will be paid by relayer\n     * @param message The message that user signed\n     * @param r Signature component\n     * @param s Signature component\n     * @param v Signature component\n     * @param token The unique token for each delegated function\n     * @param networkFee The fee that will be paid to relayer for gas fee he spends\n     * @param to The array of recipients\n     * @param amount The array of amounts to be transferred\n     */\n    function preAuthorizedTransfer(\n        bytes32 message, bytes32 r, bytes32 s, uint8 v, bytes32 token, uint256 networkFee, address to, uint256 amount)\n        public\n    {\n        bytes32 proof = getProofTransfer(methodWord_transfer, token, networkFee, msg.sender, to, amount);\n        address signer = preAuthValidations(proof, message, token, r, s, v);\n\n        // Deduct network fee if broadcaster charges network fee\n        if (networkFee > 0) {\n            privateTransfer(signer, msg.sender, networkFee);\n        }\n        privateTransfer(signer, to, amount);\n        emit TransferPreSigned(signer, to, amount, networkFee);\n    }\n\n    /**\n     * @notice Delegated approval. Gas fee will be paid by relayer\n     * @dev Only approve, increaseApproval and decreaseApproval can be delegated\n     * @param message The message that user signed\n     * @param r Signature component\n     * @param s Signature component\n     * @param v Signature component\n     * @param token The unique token for each delegated function\n     * @param networkFee The fee that will be paid to relayer for gas fee he spends\n     * @param to The spender address\n     * @param amount The amount to be allowed\n     * @return Bool value\n     */\n    function preAuthorizedApproval(\n        bytes4 methodHash, bytes32 message, bytes32 r, bytes32 s, uint8 v, bytes32 token, uint256 networkFee, address to, uint256 amount)\n        public\n        returns (bool)\n    {\n        bytes32 proof = getProofApproval (methodHash, token, networkFee, msg.sender, to, amount);\n        address signer = preAuthValidations(proof, message, token, r, s, v);\n        uint256 currentAllowance = allowance(signer, _msgSender());\n        // Perform approval\n        if(methodHash == methodWord_approve) _approve(signer, to, amount);\n        else if(methodHash == methodWord_increaseApproval) _approve(signer, to, currentAllowance.add(amount));\n        else if(methodHash == methodWord_decreaseApproval) _approve(signer, to, currentAllowance.sub(amount));\n        return true;\n    }\n\n    /**\n     * @notice Get the message to be signed in case of delegated transfer/approvals\n     * @param methodHash The method hash for which delegate action in to be performed\n     * @param token The unique token for each delegated function\n     * @param networkFee The fee that will be paid to relayer for gas fee he spends\n     * @param to The recipient or spender\n     * @param amount The amount to be transferred\n     * @return Bool value\n     */\n    function getProofTransfer(bytes4 methodHash, bytes32 token, uint256 networkFee, address broadcaster, address to, uint256 amount)\n        public\n        view\n        returns (bytes32)\n    {\n        require(methodHash == methodWord_transfer, \"Method not supported\");\n        bytes32 proof = keccak256(abi.encodePacked(\n            getChainID(),\n            bytes4(methodHash),\n            address(this),\n            token,\n            networkFee,\n            broadcaster,\n            to,\n            amount\n    ));\n        return proof;\n    }\n\n    /**\n     * @notice Get the message to be signed in case of delegated transfer/approvals\n     * @param methodHash The method hash for which delegate action in to be performed\n     * @param token The unique token for each delegated function\n     * @param networkFee The fee that will be paid to relayer for gas fee he spends\n     * @param to The recipient or spender\n     * @param amount The amount to be approved\n     * @return Bool value\n     */\n    function getProofApproval(bytes4 methodHash, bytes32 token, uint256 networkFee, address broadcaster, address to, uint256 amount)\n        public\n        view\n        returns (bytes32)\n    {\n        require(\n            methodHash == methodWord_approve ||\n            methodHash == methodWord_increaseApproval ||\n            methodHash == methodWord_decreaseApproval,\n            \"Method not supported\");\n        bytes32 proof = keccak256(abi.encodePacked(\n            getChainID(),\n            bytes4(methodHash),\n            address(this),\n            token,\n            networkFee,\n            broadcaster,\n            to,\n            amount\n        ));\n        return proof;\n    }\n    \n}",
  "sourcePath": "/home/prashant/projects/z-token-smartcontract/contracts/AdvancedZToken.sol",
  "compiler": {
    "name": "solc",
    "version": "0.8.0+commit.c7dfd78e.Emscripten.clang"
  },
  "schemaVersion": "3.4.1",
  "updatedAt": "2021-09-04T17:21:30.485Z",
  "networkType": "ethereum",
  "devdoc": {
    "author": "Phoenix ",
    "kind": "dev",
    "methods": {
      "allowance(address,address)": {
        "details": "See {IERC20-allowance}."
      },
      "approve(address,uint256)": {
        "details": "See {IERC20-approve}. Requirements: - `spender` cannot be the zero address."
      },
      "balanceOf(address)": {
        "details": "See {IERC20-balanceOf}."
      },
      "calculateCommissionMint(uint256)": {
        "details": "Does not checks if sender/recipient is whitelisted",
        "params": {
          "_amount": "The intended amount of transfer"
        },
        "returns": {
          "_0": "uint256 Calculated commission"
        }
      },
      "calculateCommissionMyTokenCrw(uint256)": {
        "params": {
          "_amount": "The intended amount of transfer"
        },
        "returns": {
          "_0": "uint256 Calculated commission"
        }
      },
      "calculateCommissionPhoenixCrw(uint256)": {
        "params": {
          "_amount": "The intended amount of transfer"
        },
        "returns": {
          "_0": "uint256 Calculated commission"
        }
      },
      "decimals()": {
        "details": "Returns the number of decimals used to get its user representation. For example, if `decimals` equals `2`, a balance of `505` tokens should be displayed to a user as `5.05` (`505 / 10 ** 2`). Tokens usually opt for a value of 18, imitating the relationship between Ether and Wei. This is the value {ERC20} uses, unless this function is overridden; NOTE: This information is only used for _display_ purposes: it in no way affects any of the arithmetic of the contract, including {IERC20-balanceOf} and {IERC20-transfer}."
      },
      "decreaseAllowance(address,uint256)": {
        "details": "Atomically decreases the allowance granted to `spender` by the caller. This is an alternative to {approve} that can be used as a mitigation for problems described in {IERC20-approve}. Emits an {Approval} event indicating the updated allowance. Requirements: - `spender` cannot be the zero address. - `spender` must have allowance for the caller of at least `subtractedValue`."
      },
      "getChainID()": {
        "details": "ID of the executing chain",
        "returns": {
          "_0": "uint value"
        }
      },
      "getProofApproval(bytes4,bytes32,uint256,address,address,uint256)": {
        "params": {
          "amount": "The amount to be approved",
          "methodHash": "The method hash for which delegate action in to be performed",
          "networkFee": "The fee that will be paid to relayer for gas fee he spends",
          "to": "The recipient or spender",
          "token": "The unique token for each delegated function"
        },
        "returns": {
          "_0": "Bool value"
        }
      },
      "getProofTransfer(bytes4,bytes32,uint256,address,address,uint256)": {
        "params": {
          "amount": "The amount to be transferred",
          "methodHash": "The method hash for which delegate action in to be performed",
          "networkFee": "The fee that will be paid to relayer for gas fee he spends",
          "to": "The recipient or spender",
          "token": "The unique token for each delegated function"
        },
        "returns": {
          "_0": "Bool value"
        }
      },
      "getSigner(bytes32,bytes32,bytes32,uint8)": {
        "params": {
          "message": "The message that user signed",
          "r": "Signature component",
          "s": "Signature component",
          "v": "Signature component"
        },
        "returns": {
          "_0": "address Signer of message"
        }
      },
      "increaseAllowance(address,uint256)": {
        "details": "Atomically increases the allowance granted to `spender` by the caller. This is an alternative to {approve} that can be used as a mitigation for problems described in {IERC20-approve}. Emits an {Approval} event indicating the updated allowance. Requirements: - `spender` cannot be the zero address."
      },
      "name()": {
        "details": "Returns the name of the token."
      },
      "owner()": {
        "details": "Returns the address of the current owner."
      },
      "preAuthorizedApproval(bytes4,bytes32,bytes32,bytes32,uint8,bytes32,uint256,address,uint256)": {
        "details": "Only approve, increaseApproval and decreaseApproval can be delegated",
        "params": {
          "amount": "The amount to be allowed",
          "message": "The message that user signed",
          "networkFee": "The fee that will be paid to relayer for gas fee he spends",
          "r": "Signature component",
          "s": "Signature component",
          "to": "The spender address",
          "token": "The unique token for each delegated function",
          "v": "Signature component"
        },
        "returns": {
          "_0": "Bool value"
        }
      },
      "preAuthorizedTransfer(bytes32,bytes32,bytes32,uint8,bytes32,uint256,address,uint256)": {
        "params": {
          "amount": "The array of amounts to be transferred",
          "message": "The message that user signed",
          "networkFee": "The fee that will be paid to relayer for gas fee he spends",
          "r": "Signature component",
          "s": "Signature component",
          "to": "The array of recipients",
          "token": "The unique token for each delegated function",
          "v": "Signature component"
        }
      },
      "renounceOwnership()": {
        "details": "Leaves the contract without owner. It will not be possible to call `onlyOwner` functions anymore. Can only be called by the current owner. NOTE: Renouncing ownership will leave the contract without an owner, thereby removing any functionality that is only available to the owner."
      },
      "symbol()": {
        "details": "Returns the symbol of the token, usually a shorter version of the name."
      },
      "tokenFallback(address,uint256,bytes)": {
        "details": "Only token contract can call.",
        "params": {
          "_from": "Who transferred, not utlised",
          "_value": "The amount transferred",
          "data": "The data supplied by token contract. It will be ignored"
        }
      },
      "totalSupply()": {
        "details": "See {IERC20-totalSupply}."
      },
      "transfer(address,uint256)": {
        "details": "overriden Function of the openzeppelin ERC20 contract",
        "params": {
          "amount": "The amount to be transferred",
          "recipient": "receiver's address"
        }
      },
      "transferFrom(address,address,uint256)": {
        "details": "overriden Function of the openzeppelin ERC20 contract",
        "params": {
          "amount": "The amount to be transferred",
          "recipient": "receiver's address",
          "sender": "transfer token from account"
        }
      },
      "transferOwnership(address)": {
        "details": "Transfers ownership of the contract to a new account (`newOwner`). Can only be called by the current owner."
      },
      "transferToken(uint256,address)": {
        "details": "Only owner can call, tokens will be transferred and equivalent amount of Token will be burnt from owner address.",
        "params": {
          "_amount": "the amount of tokens to be transferred",
          "_receiver": "address of the receiver"
        }
      },
      "updateCommssionMint(uint256,uint256)": {
        "details": "Only phoenix can call",
        "params": {
          "_d": "The denominator of commission",
          "_n": "The numerator of commission"
        }
      },
      "updateCommssionMyTokenTranfer(uint256,uint256)": {
        "details": "Only owner can call",
        "params": {
          "_d": "The denominator of commission",
          "_n": "The numerator of commission"
        }
      },
      "updateCommssionPhoenixTransfer(uint256,uint256)": {
        "details": "Only Phoenix Owner can call",
        "params": {
          "_d": "The denominator of commission",
          "_n": "The numerator of commission"
        }
      },
      "updatePhoenixAddress(address)": {
        "details": "Only Phoenix can call",
        "params": {
          "_user": "The address of phoenixCrw wallet"
        },
        "returns": {
          "_0": "Bool value"
        }
      }
    },
    "title": "AdvancedOToken",
    "version": 1
  },
  "userdoc": {
    "kind": "user",
    "methods": {
      "calculateCommissionMint(uint256)": {
        "notice": "check Minting fee"
      },
      "calculateCommissionMyTokenCrw(uint256)": {
        "notice": "check transer fee credited to Token owner"
      },
      "calculateCommissionPhoenixCrw(uint256)": {
        "notice": "check transer fee credited to Phoenix"
      },
      "getProofApproval(bytes4,bytes32,uint256,address,address,uint256)": {
        "notice": "Get the message to be signed in case of delegated transfer/approvals"
      },
      "getProofTransfer(bytes4,bytes32,uint256,address,address,uint256)": {
        "notice": "Get the message to be signed in case of delegated transfer/approvals"
      },
      "getSigner(bytes32,bytes32,bytes32,uint8)": {
        "notice": "Find signer"
      },
      "preAuthorizedApproval(bytes4,bytes32,bytes32,bytes32,uint8,bytes32,uint256,address,uint256)": {
        "notice": "Delegated approval. Gas fee will be paid by relayer"
      },
      "preAuthorizedTransfer(bytes32,bytes32,bytes32,uint8,bytes32,uint256,address,uint256)": {
        "notice": "Delegated transfer. Gas fee will be paid by relayer"
      },
      "tokenFallback(address,uint256,bytes)": {
        "notice": "Function called by token contract whenever tokens are deposited to this contract"
      },
      "transfer(address,uint256)": {
        "notice": "Standard transfer function to Transfer token"
      },
      "transferFrom(address,address,uint256)": {
        "notice": "Standard transferFrom. Send tokens on behalf of spender"
      },
      "transferToken(uint256,address)": {
        "notice": "transfer tokens from contract "
      },
      "updateCommssionMint(uint256,uint256)": {
        "notice": "Update commission to be charged on token minting"
      },
      "updateCommssionMyTokenTranfer(uint256,uint256)": {
        "notice": "Update commission to be charged on token transfer"
      },
      "updateCommssionPhoenixTransfer(uint256,uint256)": {
        "notice": "Update commission to be charged on each token transfer for Phoenix"
      },
      "updatePhoenixAddress(address)": {
        "notice": "update phoenix wallet address. This address will be responsible for holding commission on tokens transfer"
      }
    },
    "version": 1
  }
}