{
  "contractName": "MyToken",
  "abi": [
    {
      "inputs": [
        {
          "internalType": "address",
          "name": "_goldTokenAddress",
          "type": "address"
        },
        {
          "internalType": "address",
          "name": "_phoenixCrw",
          "type": "address"
        },
        {
          "internalType": "address",
          "name": "_tokenCrw",
          "type": "address"
        },
        {
          "internalType": "address",
          "name": "_sellingWallet",
          "type": "address"
        },
        {
          "internalType": "string",
          "name": "_name",
          "type": "string"
        },
        {
          "internalType": "string",
          "name": "_symbol",
          "type": "string"
        }
      ],
      "stateMutability": "nonpayable",
      "type": "constructor"
    },
    {
      "anonymous": false,
      "inputs": [
        {
          "indexed": true,
          "internalType": "address",
          "name": "owner",
          "type": "address"
        },
        {
          "indexed": true,
          "internalType": "address",
          "name": "spender",
          "type": "address"
        },
        {
          "indexed": false,
          "internalType": "uint256",
          "name": "value",
          "type": "uint256"
        }
      ],
      "name": "Approval",
      "type": "event"
    },
    {
      "anonymous": false,
      "inputs": [
        {
          "indexed": false,
          "internalType": "uint256",
          "name": "_numerator",
          "type": "uint256"
        },
        {
          "indexed": false,
          "internalType": "uint256",
          "name": "_denominator",
          "type": "uint256"
        },
        {
          "indexed": false,
          "internalType": "string",
          "name": "_data",
          "type": "string"
        }
      ],
      "name": "CommssionUpdate",
      "type": "event"
    },
    {
      "anonymous": false,
      "inputs": [
        {
          "indexed": true,
          "internalType": "address",
          "name": "previousOwner",
          "type": "address"
        },
        {
          "indexed": true,
          "internalType": "address",
          "name": "newOwner",
          "type": "address"
        }
      ],
      "name": "OwnershipTransferred",
      "type": "event"
    },
    {
      "anonymous": false,
      "inputs": [
        {
          "indexed": true,
          "internalType": "address",
          "name": "from",
          "type": "address"
        },
        {
          "indexed": true,
          "internalType": "address",
          "name": "to",
          "type": "address"
        },
        {
          "indexed": false,
          "internalType": "uint256",
          "name": "value",
          "type": "uint256"
        }
      ],
      "name": "Transfer",
      "type": "event"
    },
    {
      "anonymous": false,
      "inputs": [
        {
          "indexed": false,
          "internalType": "address",
          "name": "_from",
          "type": "address"
        },
        {
          "indexed": false,
          "internalType": "address",
          "name": "_to",
          "type": "address"
        },
        {
          "indexed": false,
          "internalType": "uint256",
          "name": "_value",
          "type": "uint256"
        },
        {
          "indexed": false,
          "internalType": "uint256",
          "name": "_networkFee",
          "type": "uint256"
        }
      ],
      "name": "TransferPreSigned",
      "type": "event"
    },
    {
      "inputs": [
        {
          "internalType": "address",
          "name": "owner",
          "type": "address"
        },
        {
          "internalType": "address",
          "name": "spender",
          "type": "address"
        }
      ],
      "name": "allowance",
      "outputs": [
        {
          "internalType": "uint256",
          "name": "",
          "type": "uint256"
        }
      ],
      "stateMutability": "view",
      "type": "function",
      "constant": true
    },
    {
      "inputs": [
        {
          "internalType": "address",
          "name": "spender",
          "type": "address"
        },
        {
          "internalType": "uint256",
          "name": "amount",
          "type": "uint256"
        }
      ],
      "name": "approve",
      "outputs": [
        {
          "internalType": "bool",
          "name": "",
          "type": "bool"
        }
      ],
      "stateMutability": "nonpayable",
      "type": "function"
    },
    {
      "inputs": [
        {
          "internalType": "address",
          "name": "account",
          "type": "address"
        }
      ],
      "name": "balanceOf",
      "outputs": [
        {
          "internalType": "uint256",
          "name": "",
          "type": "uint256"
        }
      ],
      "stateMutability": "view",
      "type": "function",
      "constant": true
    },
    {
      "inputs": [
        {
          "internalType": "uint256",
          "name": "_amount",
          "type": "uint256"
        }
      ],
      "name": "calculateCommissionMint",
      "outputs": [
        {
          "internalType": "uint256",
          "name": "",
          "type": "uint256"
        }
      ],
      "stateMutability": "view",
      "type": "function",
      "constant": true
    },
    {
      "inputs": [
        {
          "internalType": "uint256",
          "name": "_amount",
          "type": "uint256"
        }
      ],
      "name": "calculateCommissionMyTokenCrw",
      "outputs": [
        {
          "internalType": "uint256",
          "name": "",
          "type": "uint256"
        }
      ],
      "stateMutability": "view",
      "type": "function",
      "constant": true
    },
    {
      "inputs": [
        {
          "internalType": "uint256",
          "name": "_amount",
          "type": "uint256"
        }
      ],
      "name": "calculateCommissionPhoenixCrw",
      "outputs": [
        {
          "internalType": "uint256",
          "name": "",
          "type": "uint256"
        }
      ],
      "stateMutability": "view",
      "type": "function",
      "constant": true
    },
    {
      "inputs": [],
      "name": "commission_denominator_minting",
      "outputs": [
        {
          "internalType": "uint256",
          "name": "",
          "type": "uint256"
        }
      ],
      "stateMutability": "view",
      "type": "function",
      "constant": true
    },
    {
      "inputs": [],
      "name": "commission_denominator_phoenix_crw",
      "outputs": [
        {
          "internalType": "uint256",
          "name": "",
          "type": "uint256"
        }
      ],
      "stateMutability": "view",
      "type": "function",
      "constant": true
    },
    {
      "inputs": [],
      "name": "commission_denominator_tokenCrw",
      "outputs": [
        {
          "internalType": "uint256",
          "name": "",
          "type": "uint256"
        }
      ],
      "stateMutability": "view",
      "type": "function",
      "constant": true
    },
    {
      "inputs": [],
      "name": "commission_numerator_minting",
      "outputs": [
        {
          "internalType": "uint256",
          "name": "",
          "type": "uint256"
        }
      ],
      "stateMutability": "view",
      "type": "function",
      "constant": true
    },
    {
      "inputs": [],
      "name": "commission_numerator_phoenix_crw",
      "outputs": [
        {
          "internalType": "uint256",
          "name": "",
          "type": "uint256"
        }
      ],
      "stateMutability": "view",
      "type": "function",
      "constant": true
    },
    {
      "inputs": [],
      "name": "commission_numerator_tokenCrw",
      "outputs": [
        {
          "internalType": "uint256",
          "name": "",
          "type": "uint256"
        }
      ],
      "stateMutability": "view",
      "type": "function",
      "constant": true
    },
    {
      "inputs": [],
      "name": "decimals",
      "outputs": [
        {
          "internalType": "uint8",
          "name": "",
          "type": "uint8"
        }
      ],
      "stateMutability": "view",
      "type": "function",
      "constant": true
    },
    {
      "inputs": [
        {
          "internalType": "address",
          "name": "spender",
          "type": "address"
        },
        {
          "internalType": "uint256",
          "name": "subtractedValue",
          "type": "uint256"
        }
      ],
      "name": "decreaseAllowance",
      "outputs": [
        {
          "internalType": "bool",
          "name": "",
          "type": "bool"
        }
      ],
      "stateMutability": "nonpayable",
      "type": "function"
    },
    {
      "inputs": [
        {
          "internalType": "address",
          "name": "spender",
          "type": "address"
        },
        {
          "internalType": "uint256",
          "name": "addedValue",
          "type": "uint256"
        }
      ],
      "name": "increaseAllowance",
      "outputs": [
        {
          "internalType": "bool",
          "name": "",
          "type": "bool"
        }
      ],
      "stateMutability": "nonpayable",
      "type": "function"
    },
    {
      "inputs": [],
      "name": "methodWord_approve",
      "outputs": [
        {
          "internalType": "bytes4",
          "name": "",
          "type": "bytes4"
        }
      ],
      "stateMutability": "view",
      "type": "function",
      "constant": true
    },
    {
      "inputs": [],
      "name": "methodWord_decreaseApproval",
      "outputs": [
        {
          "internalType": "bytes4",
          "name": "",
          "type": "bytes4"
        }
      ],
      "stateMutability": "view",
      "type": "function",
      "constant": true
    },
    {
      "inputs": [],
      "name": "methodWord_increaseApproval",
      "outputs": [
        {
          "internalType": "bytes4",
          "name": "",
          "type": "bytes4"
        }
      ],
      "stateMutability": "view",
      "type": "function",
      "constant": true
    },
    {
      "inputs": [],
      "name": "methodWord_transfer",
      "outputs": [
        {
          "internalType": "bytes4",
          "name": "",
          "type": "bytes4"
        }
      ],
      "stateMutability": "view",
      "type": "function",
      "constant": true
    },
    {
      "inputs": [],
      "name": "myTokenCrw",
      "outputs": [
        {
          "internalType": "address",
          "name": "",
          "type": "address"
        }
      ],
      "stateMutability": "view",
      "type": "function",
      "constant": true
    },
    {
      "inputs": [],
      "name": "name",
      "outputs": [
        {
          "internalType": "string",
          "name": "",
          "type": "string"
        }
      ],
      "stateMutability": "view",
      "type": "function",
      "constant": true
    },
    {
      "inputs": [],
      "name": "owner",
      "outputs": [
        {
          "internalType": "address",
          "name": "",
          "type": "address"
        }
      ],
      "stateMutability": "view",
      "type": "function",
      "constant": true
    },
    {
      "inputs": [],
      "name": "phoenixCrw",
      "outputs": [
        {
          "internalType": "address",
          "name": "",
          "type": "address"
        }
      ],
      "stateMutability": "view",
      "type": "function",
      "constant": true
    },
    {
      "inputs": [],
      "name": "renounceOwnership",
      "outputs": [],
      "stateMutability": "nonpayable",
      "type": "function"
    },
    {
      "inputs": [],
      "name": "sellingWallet",
      "outputs": [
        {
          "internalType": "address",
          "name": "",
          "type": "address"
        }
      ],
      "stateMutability": "view",
      "type": "function",
      "constant": true
    },
    {
      "inputs": [],
      "name": "symbol",
      "outputs": [
        {
          "internalType": "string",
          "name": "",
          "type": "string"
        }
      ],
      "stateMutability": "view",
      "type": "function",
      "constant": true
    },
    {
      "inputs": [
        {
          "internalType": "address",
          "name": "_from",
          "type": "address"
        },
        {
          "internalType": "uint256",
          "name": "_value",
          "type": "uint256"
        },
        {
          "internalType": "bytes",
          "name": "data",
          "type": "bytes"
        }
      ],
      "name": "tokenFallback",
      "outputs": [],
      "stateMutability": "nonpayable",
      "type": "function"
    },
    {
      "inputs": [
        {
          "internalType": "address",
          "name": "",
          "type": "address"
        },
        {
          "internalType": "bytes32",
          "name": "",
          "type": "bytes32"
        }
      ],
      "name": "tokenUsed",
      "outputs": [
        {
          "internalType": "bool",
          "name": "",
          "type": "bool"
        }
      ],
      "stateMutability": "view",
      "type": "function",
      "constant": true
    },
    {
      "inputs": [],
      "name": "totalSupply",
      "outputs": [
        {
          "internalType": "uint256",
          "name": "",
          "type": "uint256"
        }
      ],
      "stateMutability": "view",
      "type": "function",
      "constant": true
    },
    {
      "inputs": [
        {
          "internalType": "address",
          "name": "recipient",
          "type": "address"
        },
        {
          "internalType": "uint256",
          "name": "amount",
          "type": "uint256"
        }
      ],
      "name": "transfer",
      "outputs": [
        {
          "internalType": "bool",
          "name": "",
          "type": "bool"
        }
      ],
      "stateMutability": "nonpayable",
      "type": "function"
    },
    {
      "inputs": [
        {
          "internalType": "address",
          "name": "_tokenAddress",
          "type": "address"
        },
        {
          "internalType": "uint256",
          "name": "_value",
          "type": "uint256"
        }
      ],
      "name": "transferAnyERC20Token",
      "outputs": [],
      "stateMutability": "nonpayable",
      "type": "function"
    },
    {
      "inputs": [
        {
          "internalType": "address",
          "name": "sender",
          "type": "address"
        },
        {
          "internalType": "address",
          "name": "recipient",
          "type": "address"
        },
        {
          "internalType": "uint256",
          "name": "amount",
          "type": "uint256"
        }
      ],
      "name": "transferFrom",
      "outputs": [
        {
          "internalType": "bool",
          "name": "",
          "type": "bool"
        }
      ],
      "stateMutability": "nonpayable",
      "type": "function"
    },
    {
      "inputs": [
        {
          "internalType": "address",
          "name": "newOwner",
          "type": "address"
        }
      ],
      "name": "transferOwnership",
      "outputs": [],
      "stateMutability": "nonpayable",
      "type": "function"
    },
    {
      "inputs": [
        {
          "internalType": "uint256",
          "name": "_amount",
          "type": "uint256"
        },
        {
          "internalType": "address",
          "name": "_receiver",
          "type": "address"
        }
      ],
      "name": "transferToken",
      "outputs": [],
      "stateMutability": "nonpayable",
      "type": "function"
    },
    {
      "inputs": [
        {
          "internalType": "uint256",
          "name": "_n",
          "type": "uint256"
        },
        {
          "internalType": "uint256",
          "name": "_d",
          "type": "uint256"
        }
      ],
      "name": "updateCommssionMint",
      "outputs": [],
      "stateMutability": "nonpayable",
      "type": "function"
    },
    {
      "inputs": [
        {
          "internalType": "uint256",
          "name": "_n",
          "type": "uint256"
        },
        {
          "internalType": "uint256",
          "name": "_d",
          "type": "uint256"
        }
      ],
      "name": "updateCommssionMyTokenTranfer",
      "outputs": [],
      "stateMutability": "nonpayable",
      "type": "function"
    },
    {
      "inputs": [
        {
          "internalType": "uint256",
          "name": "_n",
          "type": "uint256"
        },
        {
          "internalType": "uint256",
          "name": "_d",
          "type": "uint256"
        }
      ],
      "name": "updateCommssionPhoenixTransfer",
      "outputs": [],
      "stateMutability": "nonpayable",
      "type": "function"
    },
    {
      "inputs": [
        {
          "internalType": "address",
          "name": "_user",
          "type": "address"
        }
      ],
      "name": "updatePhoenixAddress",
      "outputs": [
        {
          "internalType": "bool",
          "name": "",
          "type": "bool"
        }
      ],
      "stateMutability": "nonpayable",
      "type": "function"
    },
    {
      "stateMutability": "payable",
      "type": "receive",
      "payable": true
    },
    {
      "inputs": [],
      "name": "getChainID",
      "outputs": [
        {
          "internalType": "uint256",
          "name": "",
          "type": "uint256"
        }
      ],
      "stateMutability": "view",
      "type": "function",
      "constant": true
    },
    {
      "inputs": [
        {
          "internalType": "bytes32",
          "name": "message",
          "type": "bytes32"
        },
        {
          "internalType": "bytes32",
          "name": "r",
          "type": "bytes32"
        },
        {
          "internalType": "bytes32",
          "name": "s",
          "type": "bytes32"
        },
        {
          "internalType": "uint8",
          "name": "v",
          "type": "uint8"
        }
      ],
      "name": "getSigner",
      "outputs": [
        {
          "internalType": "address",
          "name": "",
          "type": "address"
        }
      ],
      "stateMutability": "pure",
      "type": "function",
      "constant": true
    },
    {
      "inputs": [
        {
          "internalType": "bytes32",
          "name": "message",
          "type": "bytes32"
        },
        {
          "internalType": "bytes32",
          "name": "r",
          "type": "bytes32"
        },
        {
          "internalType": "bytes32",
          "name": "s",
          "type": "bytes32"
        },
        {
          "internalType": "uint8",
          "name": "v",
          "type": "uint8"
        },
        {
          "internalType": "bytes32",
          "name": "token",
          "type": "bytes32"
        },
        {
          "internalType": "uint256",
          "name": "networkFee",
          "type": "uint256"
        },
        {
          "internalType": "address",
          "name": "to",
          "type": "address"
        },
        {
          "internalType": "uint256",
          "name": "amount",
          "type": "uint256"
        }
      ],
      "name": "preAuthorizedTransfer",
      "outputs": [],
      "stateMutability": "nonpayable",
      "type": "function"
    },
    {
      "inputs": [
        {
          "internalType": "bytes4",
          "name": "methodHash",
          "type": "bytes4"
        },
        {
          "internalType": "bytes32",
          "name": "message",
          "type": "bytes32"
        },
        {
          "internalType": "bytes32",
          "name": "r",
          "type": "bytes32"
        },
        {
          "internalType": "bytes32",
          "name": "s",
          "type": "bytes32"
        },
        {
          "internalType": "uint8",
          "name": "v",
          "type": "uint8"
        },
        {
          "internalType": "bytes32",
          "name": "token",
          "type": "bytes32"
        },
        {
          "internalType": "uint256",
          "name": "networkFee",
          "type": "uint256"
        },
        {
          "internalType": "address",
          "name": "to",
          "type": "address"
        },
        {
          "internalType": "uint256",
          "name": "amount",
          "type": "uint256"
        }
      ],
      "name": "preAuthorizedApproval",
      "outputs": [
        {
          "internalType": "bool",
          "name": "",
          "type": "bool"
        }
      ],
      "stateMutability": "nonpayable",
      "type": "function"
    },
    {
      "inputs": [
        {
          "internalType": "bytes4",
          "name": "methodHash",
          "type": "bytes4"
        },
        {
          "internalType": "bytes32",
          "name": "token",
          "type": "bytes32"
        },
        {
          "internalType": "uint256",
          "name": "networkFee",
          "type": "uint256"
        },
        {
          "internalType": "address",
          "name": "broadcaster",
          "type": "address"
        },
        {
          "internalType": "address",
          "name": "to",
          "type": "address"
        },
        {
          "internalType": "uint256",
          "name": "amount",
          "type": "uint256"
        }
      ],
      "name": "getProofTransfer",
      "outputs": [
        {
          "internalType": "bytes32",
          "name": "",
          "type": "bytes32"
        }
      ],
      "stateMutability": "view",
      "type": "function",
      "constant": true
    },
    {
      "inputs": [
        {
          "internalType": "bytes4",
          "name": "methodHash",
          "type": "bytes4"
        },
        {
          "internalType": "bytes32",
          "name": "token",
          "type": "bytes32"
        },
        {
          "internalType": "uint256",
          "name": "networkFee",
          "type": "uint256"
        },
        {
          "internalType": "address",
          "name": "broadcaster",
          "type": "address"
        },
        {
          "internalType": "address",
          "name": "to",
          "type": "address"
        },
        {
          "internalType": "uint256",
          "name": "amount",
          "type": "uint256"
        }
      ],
      "name": "getProofApproval",
      "outputs": [
        {
          "internalType": "bytes32",
          "name": "",
          "type": "bytes32"
        }
      ],
      "stateMutability": "view",
      "type": "function",
      "constant": true
    }
  ],
  "bytecode": "0x60806040526006805460ff60a01b1916600160a31b179055600160078190556004600855600981905560c8600a819055600b91909155600c556011805463ffffffff191663a9059cbb1763ffffffff60201b191667095ea7b3000000001763ffffffff60401b19166b3950935100000000000000001763ffffffff60601b19166fa457c2d7000000000000000000000000179055348015620000a057600080fd5b5060405162002cee38038062002cee833981016040819052620000c391620003fb565b8585858585858181620000df620000d962000234565b62000238565b8151620000f490600490602085019062000292565b5080516200010a90600590602084019062000292565b505050856200012d816001600160a01b03166200028860201b6200135b1760201c565b620001555760405162461bcd60e51b81526004016200014c90620004ac565b60405180910390fd5b856001600160a01b0381166200017f5760405162461bcd60e51b81526004016200014c90620004e3565b856001600160a01b038116620001a95760405162461bcd60e51b81526004016200014c90620004e3565b856001600160a01b038116620001d35760405162461bcd60e51b81526004016200014c90620004e3565b5050600680546001600160a01b03199081166001600160a01b039a8b1617909155600d80548216988a16989098179097555050600e805486169487169490941790935550600f80549093169316929092179055506200056d95505050505050565b3390565b600080546001600160a01b038381166001600160a01b0319831681178455604051919092169283917f8be0079c531659141344cd1fd0a4f28419497f9722a3daafe3b4186f6b6457e09190a35050565b803b15155b919050565b828054620002a0906200051a565b90600052602060002090601f016020900481019282620002c457600085556200030f565b82601f10620002df57805160ff19168380011785556200030f565b828001600101855582156200030f579182015b828111156200030f578251825591602001919060010190620002f2565b506200031d92915062000321565b5090565b5b808211156200031d576000815560010162000322565b80516001600160a01b03811681146200028d57600080fd5b600082601f83011262000361578081fd5b81516001600160401b03808211156200037e576200037e62000557565b6040516020601f8401601f1916820181018381118382101715620003a657620003a662000557565b6040528382528584018101871015620003bd578485fd5b8492505b83831015620003e05785830181015182840182015291820191620003c1565b83831115620003f157848185840101525b5095945050505050565b60008060008060008060c0878903121562000414578182fd5b6200041f8762000338565b95506200042f6020880162000338565b94506200043f6040880162000338565b93506200044f6060880162000338565b60808801519093506001600160401b03808211156200046c578384fd5b6200047a8a838b0162000350565b935060a089015191508082111562000490578283fd5b506200049f89828a0162000350565b9150509295509295509295565b60208082526018908201527f4f6e6c7920636f6e747261637420697320616c6c6f7765640000000000000000604082015260600190565b60208082526018908201527f5a65726f2061646472657373206e6f7420616c6c6f7765640000000000000000604082015260600190565b6002810460018216806200052f57607f821691505b602082108114156200055157634e487b7160e01b600052602260045260246000fd5b50919050565b634e487b7160e01b600052604160045260246000fd5b612771806200057d6000396000f3fe60806040526004361061026b5760003560e01c806394a5842511610144578063c19fbdec116100b6578063e9891d7f1161007a578063e9891d7f146106f4578063ecef28e114610714578063f2fde38b14610729578063f866e04914610749578063f97cedf714610769578063facd7ecf1461077e57610291565b8063c19fbdec1461066a578063cfcb9f591461068a578063dc39d06d1461069f578063dd62ed3e146106bf578063e5833006146106df57610291565b8063a457c2d711610108578063a457c2d7146105aa578063a5d3d728146105ca578063a9059cbb146105ea578063a93dfb0d1461060a578063bad425901461062a578063c0ee0b8a1461064a57610291565b806394a584251461052057806395d89b41146105355780639bc0df6c1461054a5780639dd0953f1461056a578063a162140d1461058a57610291565b806339509351116101dd57806370a08231116101a157806370a082311461048a578063715018a6146104aa5780637620588b146104bf5780637b6b6b27146104e15780638608e48b146104f65780638da5cb5b1461050b57610291565b806339509351146103fe5780633a3be9d41461041e578063564b81ef1461044057806364f3448f1461045557806366618d181461046a57610291565b806318160ddd1161022f57806318160ddd146103525780631cde8a63146103675780631e1ad2d41461038757806323b872dd146103a7578063313ce567146103c75780633691e0cf146103e957610291565b8063037311581461029657806306fdde03146102c1578063095ea7b3146102e35780630ba4adcd14610310578063111157be1461033257610291565b366102915760405162461bcd60e51b8152600401610288906121b8565b60405180910390fd5b600080fd5b3480156102a257600080fd5b506102ab610793565b6040516102b89190611f79565b60405180910390f35b3480156102cd57600080fd5b506102d6610799565b6040516102b89190611fb5565b3480156102ef57600080fd5b506103036102fe366004611bbb565b61082b565b6040516102b89190611f6e565b34801561031c57600080fd5b5061033061032b366004611e5d565b610848565b005b34801561033e57600080fd5b506102ab61034d366004611dad565b6108cf565b34801561035e57600080fd5b506102ab61099d565b34801561037357600080fd5b506102ab610382366004611e0b565b6109a3565b34801561039357600080fd5b506103036103a2366004611d30565b6109d3565b3480156103b357600080fd5b506103036103c2366004611b80565b610ab3565b3480156103d357600080fd5b506103dc610b13565b6040516102b89190612642565b3480156103f557600080fd5b506102ab610b23565b34801561040a57600080fd5b50610303610419366004611bbb565b610b29565b34801561042a57600080fd5b50610433610b78565b6040516102b89190611f18565b34801561044c57600080fd5b506102ab610b87565b34801561046157600080fd5b50610433610b8b565b34801561047657600080fd5b50610433610485366004611c86565b610b9a565b34801561049657600080fd5b506102ab6104a5366004611b34565b610c60565b3480156104b657600080fd5b50610330610c7b565b3480156104cb57600080fd5b506104d4610cc6565b6040516102b89190611fa0565b3480156104ed57600080fd5b506102ab610cd7565b34801561050257600080fd5b506104d4610cdd565b34801561051757600080fd5b50610433610ce6565b34801561052c57600080fd5b50610433610cf5565b34801561054157600080fd5b506102d6610d04565b34801561055657600080fd5b506102ab610565366004611e0b565b610d13565b34801561057657600080fd5b50610330610585366004611e5d565b610d35565b34801561059657600080fd5b506102ab6105a5366004611dad565b610d9b565b3480156105b657600080fd5b506103036105c5366004611bbb565b610dd0565b3480156105d657600080fd5b506103306105e5366004611e5d565b610e49565b3480156105f657600080fd5b50610303610605366004611bbb565b610eaf565b34801561061657600080fd5b506102ab610625366004611e0b565b610ebc565b34801561063657600080fd5b50610330610645366004611e3b565b610ede565b34801561065657600080fd5b50610330610665366004611be4565b611082565b34801561067657600080fd5b50610330610685366004611cc4565b6110fb565b34801561069657600080fd5b506102ab61118e565b3480156106ab57600080fd5b506103306106ba366004611bbb565b611194565b3480156106cb57600080fd5b506102ab6106da366004611b4e565b611221565b3480156106eb57600080fd5b506104d461124c565b34801561070057600080fd5b5061030361070f366004611b34565b61125c565b34801561072057600080fd5b506104d46112ae565b34801561073557600080fd5b50610330610744366004611b34565b6112be565b34801561075557600080fd5b50610303610764366004611bbb565b61132f565b34801561077557600080fd5b506102ab61134f565b34801561078a57600080fd5b506102ab611355565b600c5481565b6060600480546107a8906126ea565b80601f01602080910402602001604051908101604052809291908181526020018280546107d4906126ea565b80156108215780601f106107f657610100808354040283529160200191610821565b820191906000526020600020905b81548152906001019060200180831161080457829003601f168201915b5050505050905090565b600061083f610838611361565b8484611365565b50600192915050565b610850611361565b6001600160a01b0316610861610ce6565b6001600160a01b0316146108875760405162461bcd60e51b81526004016102889061229a565b600a81905560098290556040517f52157bec5b4f5ad5638e2f13345ca278ff8655617888654f1f51af41367b2477906108c39084908490612590565b60405180910390a15050565b6011546000906001600160e01b031988811664010000000090920460e01b16148061091257506011546001600160e01b0319888116600160401b90920460e01b16145b8061093557506011546001600160e01b0319888116600160601b90920460e01b16145b6109515760405162461bcd60e51b81526004016102889061249c565b600061095b610b87565b88308989898989604051602001610979989796959493929190611ebc565b60408051808303601f19018152919052805160209091012098975050505050505050565b60035490565b60006109cb60646109c5600c546109c5600b548761141990919063ffffffff16565b90611425565b90505b919050565b6000806109e48b87873388886108cf565b905060006109f6828c898d8d8d611431565b90506000610a06826106da611361565b6011549091506001600160e01b03198e811664010000000090920460e01b161415610a3b57610a36828787611365565b610aa0565b6011546001600160e01b03198e8116600160401b90920460e01b161415610a7057610a368287610a6b8489611505565b611365565b6011546001600160e01b03198e8116600160601b90920460e01b161415610aa057610aa08287610a6b8489611511565b5060019c9b505050505050505050505050565b600080610ac2856106da611361565b905082811015610ae45760405162461bcd60e51b815260040161028890612252565b610afa85610af0611361565b610a6b8487611511565b610b0585858561151d565b5060019150505b9392505050565b600654600160a01b900460ff1690565b600a5481565b600061083f610b36611361565b848460026000610b44611361565b6001600160a01b03908116825260208083019390935260409182016000908120918b1681529252902054610a6b9190612650565b600d546001600160a01b031681565b4690565b600f546001600160a01b031681565b6000806040518060400160405280601c81526020017f19457468657265756d205369676e6564204d6573736167653a0a333200000000815250905060008187604051602001610bea929190611e9a565b604051602081830303815290604052805190602001209050600060018286898960405160008152602001604052604051610c279493929190611f82565b6020604051602081039080840390855afa158015610c49573d6000803e3d6000fd5b5050604051601f1901519998505050505050505050565b6001600160a01b031660009081526001602052604090205490565b610c83611361565b6001600160a01b0316610c94610ce6565b6001600160a01b031614610cba5760405162461bcd60e51b81526004016102889061229a565b610cc460006115cc565b565b601154640100000000900460e01b81565b60075481565b60115460e01b81565b6000546001600160a01b031690565b600e546001600160a01b031681565b6060600580546107a8906126ea565b60006109cb60646109c5600a546109c56009548761141990919063ffffffff16565b600d546001600160a01b03163314610d5f5760405162461bcd60e51b815260040161028890612310565b600881905560078290556040517f52157bec5b4f5ad5638e2f13345ca278ff8655617888654f1f51af41367b2477906108c390849084906125d3565b60115460009060e01b6001600160e01b0319908116908816146109515760405162461bcd60e51b81526004016102889061249c565b60008060026000610ddf611361565b6001600160a01b0390811682526020808301939093526040918201600090812091881681529252902054905082811015610e2b5760405162461bcd60e51b815260040161028890612514565b610e3f610e36611361565b85858403611365565b5060019392505050565b600d546001600160a01b03163314610e735760405162461bcd60e51b815260040161028890612310565b600c819055600b8290556040517f52157bec5b4f5ad5638e2f13345ca278ff8655617888654f1f51af41367b2477906108c3908490849061260a565b6000610e3f33848461151d565b60006109cb60646109c56008546109c56007548761141990919063ffffffff16565b610ee6611361565b6001600160a01b0316610ef7610ce6565b6001600160a01b031614610f1d5760405162461bcd60e51b81526004016102889061229a565b806001600160a01b038116610f445760405162461bcd60e51b815260040161028890612407565b6006546040516370a0823160e01b815284916001600160a01b0316906370a0823190610f74903090600401611f18565b60206040518083038186803b158015610f8c57600080fd5b505afa158015610fa0573d6000803e3d6000fd5b505050506040513d601f19601f82011682018060405250810190610fc49190611e23565b1015610fe25760405162461bcd60e51b81526004016102889061202b565b60065460405163a9059cbb60e01b81526001600160a01b039091169063a9059cbb906110149085908790600401611f55565b602060405180830381600087803b15801561102e57600080fd5b505af1158015611042573d6000803e3d6000fd5b505050506040513d601f19601f820116820180604052508101906110669190611c66565b50600f5461107d906001600160a01b03168461161c565b505050565b6006546001600160a01b031633146110ac5760405162461bcd60e51b81526004016102889061221b565b60006110b784610ebc565b905080156110d557600d546110d5906001600160a01b03168261170d565b600f546110f4906001600160a01b03166110ef8684611511565b61170d565b5050505050565b6011546000906111129060e01b8686338787610d9b565b90506000611124828b888c8c8c611431565b905084156111395761113781338761151d565b505b61114481858561151d565b507f75d90cfdfda08c895e4262bb15d0bba4f27d5714a5950f85f8cead07b3b7e0048185858860405161117a9493929190611f2c565b60405180910390a150505050505050505050565b60085481565b61119c611361565b6001600160a01b03166111ad610ce6565b6001600160a01b0316146111d35760405162461bcd60e51b81526004016102889061229a565b6006546001600160a01b03838116911614156112015760405162461bcd60e51b81526004016102889061243e565b61121d61120c610ce6565b6001600160a01b03841690836117d5565b5050565b6001600160a01b03918216600090815260026020908152604080832093909416825291909152205490565b601154600160401b900460e01b81565b600d546000906001600160a01b031633146112895760405162461bcd60e51b815260040161028890612310565b50600d80546001600160a01b0383166001600160a01b03199091161790556001919050565b601154600160601b900460e01b81565b6112c6611361565b6001600160a01b03166112d7610ce6565b6001600160a01b0316146112fd5760405162461bcd60e51b81526004016102889061229a565b6001600160a01b0381166113235760405162461bcd60e51b8152600401610288906120a4565b61132c816115cc565b50565b601060209081526000928352604080842090915290825290205460ff1681565b60095481565b600b5481565b3b151590565b3390565b6001600160a01b03831661138b5760405162461bcd60e51b81526004016102889061238c565b6001600160a01b0382166113b15760405162461bcd60e51b8152600401610288906120ea565b6001600160a01b0380841660008181526002602090815260408083209487168084529490915290819020849055517f8c5be1e5ebec7d5bd14f71427d1e84f3dd0314c0f7b2291e5b200ac8c7c3b9259061140c908590611f79565b60405180910390a3505050565b6000610b0c8284612688565b6000610b0c8284612668565b60008061144087868686610b9a565b90506001600160a01b0381166114685760405162461bcd60e51b815260040161028890612407565b6001600160a01b038116600090815260106020908152604080832089845290915290205460ff16156114ac5760405162461bcd60e51b8152600401610288906121ef565b8688146114cb5760405162461bcd60e51b815260040161028890612475565b6001600160a01b03811660009081526010602090815260408083208984529091529020805460ff1916600117905590509695505050505050565b6000610b0c8284612650565b6000610b0c82846126a7565b6000826001600160a01b0381166115465760405162461bcd60e51b815260040161028890612407565b6000611551846109a3565b9050600061155e85610d13565b9050811561157e57600d5461157e9088906001600160a01b03168461182b565b801561159c57600e5461159c9088906001600160a01b03168361182b565b60006115a88284611505565b90506115be88886115b98985611511565b61182b565b506001979650505050505050565b600080546001600160a01b038381166001600160a01b0319831681178455604051919092169283917f8be0079c531659141344cd1fd0a4f28419497f9722a3daafe3b4186f6b6457e09190a35050565b6001600160a01b0382166116425760405162461bcd60e51b8152600401610288906122cf565b61164e8260008361107d565b6001600160a01b038216600090815260016020526040902054818110156116875760405162461bcd60e51b815260040161028890612062565b6001600160a01b03831660009081526001602052604081208383039055600380548492906116b69084906126a7565b90915550506040516000906001600160a01b038516907fddf252ad1be2c89b69c2b068fc378daa952ba7f163c4a11628f55a4df523b3ef906116f9908690611f79565b60405180910390a361107d8360008461107d565b6001600160a01b0382166117335760405162461bcd60e51b815260040161028890612559565b61173f6000838361107d565b80600360008282546117519190612650565b90915550506001600160a01b0382166000908152600160205260408120805483929061177e908490612650565b90915550506040516001600160a01b038316906000907fddf252ad1be2c89b69c2b068fc378daa952ba7f163c4a11628f55a4df523b3ef906117c1908590611f79565b60405180910390a361121d6000838361107d565b61107d8363a9059cbb60e01b84846040516024016117f4929190611f55565b60408051601f198184030181529190526020810180516001600160e01b03166001600160e01b031990931692909217909152611955565b6001600160a01b0383166118515760405162461bcd60e51b815260040161028890612347565b6001600160a01b0382166118775760405162461bcd60e51b815260040161028890611fe8565b61188283838361107d565b6001600160a01b038316600090815260016020526040902054818110156118bb5760405162461bcd60e51b81526004016102889061212c565b6001600160a01b038085166000908152600160205260408082208585039055918516815290812080548492906118f2908490612650565b92505081905550826001600160a01b0316846001600160a01b03167fddf252ad1be2c89b69c2b068fc378daa952ba7f163c4a11628f55a4df523b3ef8460405161193c9190611f79565b60405180910390a361194f84848461107d565b50505050565b60006119aa826040518060400160405280602081526020017f5361666545524332303a206c6f772d6c6576656c2063616c6c206661696c6564815250856001600160a01b03166119e49092919063ffffffff16565b80519091501561107d57808060200190518101906119c89190611c66565b61107d5760405162461bcd60e51b8152600401610288906124ca565b60606119f384846000856119fb565b949350505050565b606082471015611a1d5760405162461bcd60e51b815260040161028890612172565b611a268561135b565b611a425760405162461bcd60e51b8152600401610288906123d0565b600080866001600160a01b03168587604051611a5e9190611e7e565b60006040518083038185875af1925050503d8060008114611a9b576040519150601f19603f3d011682016040523d82523d6000602084013e611aa0565b606091505b5091509150611ab0828286611abb565b979650505050505050565b60608315611aca575081610b0c565b825115611ada5782518084602001fd5b8160405162461bcd60e51b81526004016102889190611fb5565b80356001600160a01b03811681146109ce57600080fd5b80356001600160e01b0319811681146109ce57600080fd5b803560ff811681146109ce57600080fd5b600060208284031215611b45578081fd5b610b0c82611af4565b60008060408385031215611b60578081fd5b611b6983611af4565b9150611b7760208401611af4565b90509250929050565b600080600060608486031215611b94578081fd5b611b9d84611af4565b9250611bab60208501611af4565b9150604084013590509250925092565b60008060408385031215611bcd578182fd5b611bd683611af4565b946020939093013593505050565b60008060008060608587031215611bf9578081fd5b611c0285611af4565b935060208501359250604085013567ffffffffffffffff80821115611c25578283fd5b818701915087601f830112611c38578283fd5b813581811115611c46578384fd5b886020828501011115611c57578384fd5b95989497505060200194505050565b600060208284031215611c77578081fd5b81518015158114610b0c578182fd5b60008060008060808587031215611c9b578384fd5b843593506020850135925060408501359150611cb960608601611b23565b905092959194509250565b600080600080600080600080610100898b031215611ce0578384fd5b883597506020890135965060408901359550611cfe60608a01611b23565b94506080890135935060a08901359250611d1a60c08a01611af4565b915060e089013590509295985092959890939650565b60008060008060008060008060006101208a8c031215611d4e578081fd5b611d578a611b0b565b985060208a0135975060408a0135965060608a01359550611d7a60808b01611b23565b945060a08a0135935060c08a01359250611d9660e08b01611af4565b91506101008a013590509295985092959850929598565b60008060008060008060c08789031215611dc5578384fd5b611dce87611b0b565b95506020870135945060408701359350611dea60608801611af4565b9250611df860808801611af4565b915060a087013590509295509295509295565b600060208284031215611e1c578081fd5b5035919050565b600060208284031215611e34578081fd5b5051919050565b60008060408385031215611e4d578182fd5b82359150611b7760208401611af4565b60008060408385031215611e6f578182fd5b50508035926020909101359150565b60008251611e908184602087016126be565b9190910192915050565b60008351611eac8184602088016126be565b9190910191825250602001919050565b9788526001600160e01b03199690961660208801526bffffffffffffffffffffffff19606095861b8116602489015260388801949094526058870192909252831b8216607886015290911b16608c83015260a082015260c00190565b6001600160a01b0391909116815260200190565b6001600160a01b0394851681529290931660208301526040820152606081019190915260800190565b6001600160a01b03929092168252602082015260400190565b901515815260200190565b90815260200190565b93845260ff9290921660208401526040830152606082015260800190565b6001600160e01b031991909116815260200190565b6000602082528251806020840152611fd48160408501602087016126be565b601f01601f19169190910160400192915050565b60208082526023908201527f45524332303a207472616e7366657220746f20746865207a65726f206164647260408201526265737360e81b606082015260800190565b6020808252601c908201527f496e7375666669636965742062616c616e6365206f6620746f6b656e00000000604082015260600190565b60208082526022908201527f45524332303a206275726e20616d6f756e7420657863656564732062616c616e604082015261636560f01b606082015260800190565b60208082526026908201527f4f776e61626c653a206e6577206f776e657220697320746865207a65726f206160408201526564647265737360d01b606082015260800190565b60208082526022908201527f45524332303a20617070726f766520746f20746865207a65726f206164647265604082015261737360f01b606082015260800190565b60208082526026908201527f45524332303a207472616e7366657220616d6f756e7420657863656564732062604082015265616c616e636560d01b606082015260800190565b60208082526026908201527f416464726573733a20696e73756666696369656e742062616c616e636520666f6040820152651c8818d85b1b60d21b606082015260800190565b6020808252601f908201527f436f6e747261637420646f6573206e6f74206163636570742065746865727300604082015260600190565b602080825260129082015271151bdad95b88185b1c9958591e481d5cd95960721b604082015260600190565b6020808252601e908201527f4f6e6c7920546f6b656e20636f6e747261637420697320616c6c6f7765640000604082015260600190565b60208082526028908201527f45524332303a207472616e7366657220616d6f756e74206578636565647320616040820152676c6c6f77616e636560c01b606082015260800190565b6020808252818101527f4f776e61626c653a2063616c6c6572206973206e6f7420746865206f776e6572604082015260600190565b60208082526021908201527f45524332303a206275726e2066726f6d20746865207a65726f206164647265736040820152607360f81b606082015260800190565b60208082526017908201527f4f6e6c792050686f656e697820697320616c6c6f776564000000000000000000604082015260600190565b60208082526025908201527f45524332303a207472616e736665722066726f6d20746865207a65726f206164604082015264647265737360d81b606082015260800190565b60208082526024908201527f45524332303a20617070726f76652066726f6d20746865207a65726f206164646040820152637265737360e01b606082015260800190565b6020808252601d908201527f416464726573733a2063616c6c20746f206e6f6e2d636f6e7472616374000000604082015260600190565b60208082526018908201527f5a65726f2061646472657373206e6f7420616c6c6f7765640000000000000000604082015260600190565b6020808252601d908201527f43616e206e6f74207769746864726177204261636b656420546f6b656e000000604082015260600190565b6020808252600d908201526c24b73b30b634b210383937b7b360991b604082015260600190565b60208082526014908201527313595d1a1bd9081b9bdd081cdd5c1c1bdc9d195960621b604082015260600190565b6020808252602a908201527f5361666545524332303a204552433230206f7065726174696f6e20646964206e6040820152691bdd081cdd58d8d9595960b21b606082015260800190565b60208082526025908201527f45524332303a2064656372656173656420616c6c6f77616e63652062656c6f77604082015264207a65726f60d81b606082015260800190565b6020808252601f908201527f45524332303a206d696e7420746f20746865207a65726f206164647265737300604082015260600190565b9182526020820152606060408201819052601a908201527f4d79546f6b656e206f776e6572277320636f6d6d697373696f6e000000000000608082015260a00190565b91825260208201526060604082018190526011908201527026b4b73a34b7339031b7b6b6b4b9b4b7b760791b608082015260a00190565b918252602082015260606040820181905260129082015271283437b2b734bc1031b7b6b6b4b9b9b4b7b760711b608082015260a00190565b60ff91909116815260200190565b6000821982111561266357612663612725565b500190565b60008261268357634e487b7160e01b81526012600452602481fd5b500490565b60008160001904831182151516156126a2576126a2612725565b500290565b6000828210156126b9576126b9612725565b500390565b60005b838110156126d95781810151838201526020016126c1565b8381111561194f5750506000910152565b6002810460018216806126fe57607f821691505b6020821081141561271f57634e487b7160e01b600052602260045260246000fd5b50919050565b634e487b7160e01b600052601160045260246000fdfea2646970667358221220453b18a77890e264d554b8fa360d00b8d61f5dd6e85bab8b888fdec52a9f37c164736f6c63430008000033",
  "immutableReferences": {},
  "source": "\n// SPDX-License-Identifier: MIT\n\npragma solidity ^0.8.0;\n\nimport \"@openzeppelin/contracts/access/Ownable.sol\";\nimport \"@openzeppelin/contracts/utils/math/SafeMath.sol\";\nimport \"@openzeppelin/contracts/token/ERC20/utils/SafeERC20.sol\";\nimport \"@openzeppelin/contracts/token/ERC20/ERC20.sol\";\n\n// import \"./token/ERC20/IERC20.sol\";\n\nabstract contract TokenInterface is IERC20{\n    function balanceOf(address account) external view override virtual returns (uint256);\n\n    function transfer(address recipient, uint256 amount)\n        external\n        override\n        virtual\n        returns (bool success);\n}\n\n/**\n * @dev interface defining the TokenRecipient\n */\ninterface TokenRecipient {\n    function tokenFallback(\n        address _from,\n        uint256 _value,\n        bytes calldata data\n    ) external;\n}\n\n/**\n * @title ERC20 Token\n * @author Phoenix\n * @notice Contract for the Token\n */\ncontract ERC20Token is Ownable, ERC20, TokenRecipient {\n    // attach library functions\n    using SafeMath for uint256;\n    using SafeERC20 for TokenInterface;\n    using Address for address;\n\n    //event\n    event CommssionUpdate(\n        uint256 _numerator,\n        uint256 _denominator,\n        string _data\n    );\n    event TransferPreSigned(address _from, address _to, uint256 _value, uint256 _networkFee);\n\n    //public variables\n    TokenInterface private backedTokenContract;\n\n    //private variables\n    uint8 private decimal = 8;\n\n    // These variable help to calculate the commissions on each token transfer transcation\n    uint256 public commission_numerator_minting = 1; // commission percentage on minting 0.025%\n    uint256 public commission_denominator_minting = 4;\n\n    uint256 public commission_numerator_tokenCrw = 1; // commission percentage to token owner 0.005%\n    uint256 public commission_denominator_tokenCrw = 200;\n\n    uint256 public commission_numerator_phoenix_crw = 1; // commission percentage to token owner 0.005%\n    uint256 public commission_denominator_phoenix_crw = 200;\n\n    // addresses at which fees transferred\n    address public phoenixCrw; // token commission to phoenixCRW\n    address public myTokenCrw; // token commission to token Central revenue wallet\n\n    // tokens minted in this wallet when backed token is received\n    address public sellingWallet;\n\n    constructor(\n        address _goldTokenAddress,\n        address _phoenixCrw,\n        address _mytokencrw,\n        address _sellingWallet,\n        string memory _name,\n        string memory _symbol\n    )\n        isContractAddress(_goldTokenAddress)\n        onlyNonZeroAddress(_phoenixCrw)\n        onlyNonZeroAddress(_mytokencrw)\n        onlyNonZeroAddress(_sellingWallet)\n        ERC20(_name, _symbol)\n    {\n        backedTokenContract = TokenInterface(_goldTokenAddress);\n        phoenixCrw = _phoenixCrw;\n        myTokenCrw = _mytokencrw;\n        sellingWallet = _sellingWallet;\n    }\n\n    ////////////////////////////////////////////////////////////////\n    //                 modifiers\n    ////////////////////////////////////////////////////////////////\n\n    modifier onlyNonZeroAddress(address _user) {\n        require(_user != address(0), \"Zero address not allowed\");\n        _;\n    }\n\n    modifier onlyTokenContract() {\n        require(\n            msg.sender == address(backedTokenContract),\n            \"Only Token contract is allowed\"\n        );\n        _;\n    }\n\n    modifier isContractAddress(address _addressContract) {\n        require(\n            _addressContract.isContract(),\n            \"Only contract is allowed\"\n        );\n        _;\n    }\n\n    modifier onlyPhoenix {\n        require(msg.sender == phoenixCrw, \"Only Phoenix is allowed\");\n        _;\n    }\n\n    ////////////////////////////////////////////////////////////////\n    //                  Only Owner functions\n    ////////////////////////////////////////////////////////////////\n\n    /**\n     * @notice transfer tokens from contract \n     * @dev Only owner can call, tokens will be transferred and equivalent amount of Token will be burnt from owner address.\n     * @param _amount the amount of tokens to be transferred\n     * @param _receiver address of the receiver\n\n     */\n    function transferToken(uint256 _amount, address _receiver)\n        external\n        onlyOwner\n        onlyNonZeroAddress(_receiver)\n    {\n        require(\n            backedTokenContract.balanceOf(address(this)) >= _amount,\n            \"Insufficiet balance of token\"\n        );\n        backedTokenContract.transfer(_receiver, _amount);\n        _burn(sellingWallet, _amount);\n    }\n\n    /**\n     * @notice Function called by token contract whenever tokens are deposited to this contract\n     * @dev Only token contract can call.\n     * @param _from Who transferred, not utlised\n     * @param _value The amount transferred\n     * @param data The data supplied by token contract. It will be ignored\n     */\n    function tokenFallback(\n        address _from,\n        uint256 _value,\n        bytes calldata data\n    ) external override onlyTokenContract {\n        uint256 fee = calculateCommissionMint(_value);\n        if (fee > 0) _mint(phoenixCrw, fee);\n        _mint(sellingWallet, _value.sub(fee));\n    }\n\n    ////////////////////////////////////////////////////////////////\n    //                  overriden functions\n    ////////////////////////////////////////////////////////////////\n    function decimals() public view virtual override returns (uint8) {\n        return decimal;\n    }\n\n\n    /**\n     * @notice Standard transfer function to Transfer token\n     * @dev overriden Function of the openzeppelin ERC20 contract\n     * @param recipient receiver's address\n     * @param amount The amount to be transferred\n     */\n    function transfer(address recipient, uint256 amount)\n        public\n        virtual\n        override\n        returns (bool)\n    {\n        privateTransfer(msg.sender, recipient, amount);\n        return true;\n    }\n    \n    /**\n     * @notice Standard transferFrom. Send tokens on behalf of spender\n     * @dev overriden Function of the openzeppelin ERC20 contract\n     * @param recipient receiver's address\n     * @param sender transfer token from account\n     * @param amount The amount to be transferred\n     */\n    function transferFrom(address sender, address recipient, uint256 amount)\n        public\n        virtual\n        override\n        returns (bool)\n    {\n        uint256 currentAllowance = allowance(sender, _msgSender());\n        require(currentAllowance >= amount, \"ERC20: transfer amount exceeds allowance\");\n        _approve(sender, _msgSender(), currentAllowance.sub(amount));\n        privateTransfer(sender, recipient, amount);\n        return true;\n    }\n    \n\n    /**\n     * @notice Internal method to handle transfer logic\n     * @dev Notifies recipient, if recipient is a trusted contract\n     * @param _from Sender address\n     * @param _recipient Recipient address\n     * @param _amount amount of tokens to be transferred\n     * @return bool\n     */\n    function privateTransfer(address _from, address _recipient, uint256 _amount)\n        internal\n        onlyNonZeroAddress(_recipient)\n        returns (bool)\n    {\n        uint256 feeToPhoenix = calculateCommissionPhoenixCrw(_amount);\n        uint256 feeMyTokenOwner = calculateCommissionMyTokenCrw(_amount);\n\n        if (feeToPhoenix > 0) _transfer(_from, phoenixCrw, feeToPhoenix);\n        if (feeMyTokenOwner > 0) _transfer(_from, myTokenCrw, feeMyTokenOwner);\n        uint256 amount_credit = feeMyTokenOwner.add(feeToPhoenix);\n        _transfer(_from, _recipient, _amount.sub(amount_credit));\n        return true;\n    } \n \n    /**\n     * @notice update phoenix wallet address. This address will be responsible for holding commission on tokens transfer\n     * @dev Only Phoenix can call\n     * @param _user The address of phoenixCrw wallet\n     * @return Bool value\n     */\n    function updatePhoenixAddress(address _user)\n        external\n        onlyPhoenix\n        returns (bool)\n    {\n        phoenixCrw = _user;\n        return true;\n    }\n\n    /**\n     * @notice check Minting fee\n     * @dev Does not checks if sender/recipient is whitelisted\n     * @param _amount The intended amount of transfer\n     * @return uint256 Calculated commission\n     */\n    function calculateCommissionMint(uint256 _amount)\n        public\n        view\n        returns (uint256)\n    {\n        return\n            _amount\n                .mul(commission_numerator_minting)\n                .div(commission_denominator_minting)\n                .div(100);\n    }\n\n    /**\n     * @notice check transer fee credited to Token owner\n     * @param _amount The intended amount of transfer\n     * @return uint256 Calculated commission\n     */\n    function calculateCommissionMyTokenCrw(uint256 _amount)\n        public\n        view\n        returns (uint256)\n    {\n        return\n            _amount\n                .mul(commission_numerator_tokenCrw)\n                .div(commission_denominator_tokenCrw)\n                .div(100);\n    }\n\n    /**\n     * @notice check transer fee credited to Phoenix\n     * @param _amount The intended amount of transfer\n     * @return uint256 Calculated commission\n     */\n    function calculateCommissionPhoenixCrw(uint256 _amount)\n        public\n        view\n        returns (uint256)\n    {\n        return\n            _amount\n                .mul(commission_numerator_phoenix_crw)\n                .div(commission_denominator_phoenix_crw)\n                .div(100);\n    }\n\n    /**\n     * @notice Update commission to be charged on each token transfer for Phoenix\n     * @dev Only Phoenix Owner can call\n     * @param _n The numerator of commission\n     * @param _d The denominator of commission\n     */\n    function updateCommssionPhoenixTransfer(uint256 _n, uint256 _d)\n        public\n        onlyPhoenix\n    {\n        commission_denominator_phoenix_crw = _d;\n        commission_numerator_phoenix_crw = _n;\n        emit CommssionUpdate(_n, _d, \"Phoenix commission\");\n    }\n\n    /**\n     * @notice Update commission to be charged on token transfer\n     * @dev Only owner can call\n     * @param _n The numerator of commission\n     * @param _d The denominator of commission\n     */\n    function updateCommssionMyTokenTranfer(uint256 _n, uint256 _d) public onlyOwner {\n        commission_denominator_tokenCrw = _d;\n        commission_numerator_tokenCrw = _n;\n        emit CommssionUpdate(_n, _d, \"MyToken owner's commission\");\n    }\n\n    /**\n     * @notice Update commission to be charged on token minting\n     * @dev Only phoenix can call\n     * @param _n The numerator of commission\n     * @param _d The denominator of commission\n     */\n    function updateCommssionMint(uint256 _n, uint256 _d) public onlyPhoenix {\n        commission_denominator_minting = _d;\n        commission_numerator_minting = _n;\n        emit CommssionUpdate(_n, _d, \"Minting commision\");\n    }\n    \n    \n    /**\n     * @notice Prevents contract from accepting ETHs\n     * @dev Contracts can still be sent ETH with self destruct. If anyone deliberately does that, the ETHs will be lost\n     */\n    receive() external payable {\n        revert(\"Contract does not accept ethers\");\n    }\n    \n    /**\n     * @notice Owner can transfer out any accidentally sent ERC20 tokens accept OTokens\n     * @param _tokenAddress The contract address of ERC-20 compitable token\n     * @param _value The number of tokens to be transferred to owner\n     */\n    function transferAnyERC20Token(address _tokenAddress, uint _value) public onlyOwner {\n        require (_tokenAddress != address(backedTokenContract),\"Can not withdraw Backed Token\");\n        TokenInterface(_tokenAddress).safeTransfer(owner(), _value);\n    }\n}\n\n/**\n * @title AdvancedOToken\n * @author Phoenix \n */    \ncontract MyToken is ERC20Token {\n    mapping(address => mapping(bytes32 => bool)) public tokenUsed; // mapping to track token is used or not\n    \n    bytes4 public methodWord_transfer = bytes4(keccak256(\"transfer(address,uint256)\"));\n    bytes4 public methodWord_approve = bytes4(keccak256(\"approve(address,uint256)\"));\n    bytes4 public methodWord_increaseApproval = bytes4(keccak256(\"increaseAllowance(address,uint256)\"));\n    bytes4 public methodWord_decreaseApproval = bytes4(keccak256(\"decreaseAllowance(address,uint256)\"));\n\n    using SafeMath for uint256;\n\n    constructor(\n        address _goldTokenAddress,\n        address _phoenixCrw,\n        address _tokenCrw,\n        address _sellingWallet,\n        string memory _name,\n        string memory _symbol\n        )  ERC20Token( _goldTokenAddress, _phoenixCrw, _tokenCrw, _sellingWallet, _name, _symbol) {\n    }\n\n    /**\n    * @dev ID of the executing chain\n    * @return uint value\n     */\n    function getChainID() public view returns (uint256) {\n        uint256 id;\n        assembly {\n            id := chainid()\n        }\n        return id;\n    }\n\n    /**\n     * @notice Validates the message and signature\n     * @param proof The message that was expected to be signed by user\n     * @param message The message that user signed\n     * @param r Signature component\n     * @param s Signature component\n     * @param v Signature component\n     * @param token The unique token for each delegated function\n     * @return address Signer of message\n     */\n    function preAuthValidations(bytes32 proof, bytes32 message, bytes32 token, bytes32 r, bytes32 s, uint8 v)\n        private\n        returns(address)\n    {\n        address signer = getSigner(message, r, s, v);\n        require(signer != address(0),\"Zero address not allowed\");\n        require(!tokenUsed[signer][token],\"Token already used\");\n        require(proof == message, \"Invalid proof\");\n        tokenUsed[signer][token] = true;\n        return signer;\n    }\n\n    /**\n     * @notice Find signer\n     * @param message The message that user signed\n     * @param r Signature component\n     * @param s Signature component\n     * @param v Signature component\n     * @return address Signer of message\n     */\n    function getSigner(bytes32 message, bytes32 r, bytes32 s, uint8 v)\n        public\n        pure\n        returns (address)\n    {\n        bytes memory prefix = \"\\x19Ethereum Signed Message:\\n32\";\n        bytes32 prefixedHash = keccak256(abi.encodePacked(prefix, message));\n        address signer = ecrecover(prefixedHash, v, r, s);\n        return signer;\n    }\n\n     /**\n     * @notice Delegated transfer. Gas fee will be paid by relayer\n     * @param message The message that user signed\n     * @param r Signature component\n     * @param s Signature component\n     * @param v Signature component\n     * @param token The unique token for each delegated function\n     * @param networkFee The fee that will be paid to relayer for gas fee he spends\n     * @param to The array of recipients\n     * @param amount The array of amounts to be transferred\n     */\n    function preAuthorizedTransfer(\n        bytes32 message, bytes32 r, bytes32 s, uint8 v, bytes32 token, uint256 networkFee, address to, uint256 amount)\n        public\n    {\n        bytes32 proof = getProofTransfer(methodWord_transfer, token, networkFee, msg.sender, to, amount);\n        address signer = preAuthValidations(proof, message, token, r, s, v);\n\n        // Deduct network fee if broadcaster charges network fee\n        if (networkFee > 0) {\n            privateTransfer(signer, msg.sender, networkFee);\n        }\n        privateTransfer(signer, to, amount);\n        emit TransferPreSigned(signer, to, amount, networkFee);\n    }\n\n    /**\n     * @notice Delegated approval. Gas fee will be paid by relayer\n     * @dev Only approve, increaseApproval and decreaseApproval can be delegated\n     * @param message The message that user signed\n     * @param r Signature component\n     * @param s Signature component\n     * @param v Signature component\n     * @param token The unique token for each delegated function\n     * @param networkFee The fee that will be paid to relayer for gas fee he spends\n     * @param to The spender address\n     * @param amount The amount to be allowed\n     * @return Bool value\n     */\n    function preAuthorizedApproval(\n        bytes4 methodHash, bytes32 message, bytes32 r, bytes32 s, uint8 v, bytes32 token, uint256 networkFee, address to, uint256 amount)\n        public\n        returns (bool)\n    {\n        bytes32 proof = getProofApproval (methodHash, token, networkFee, msg.sender, to, amount);\n        address signer = preAuthValidations(proof, message, token, r, s, v);\n        uint256 currentAllowance = allowance(signer, _msgSender());\n        // Perform approval\n        if(methodHash == methodWord_approve) _approve(signer, to, amount);\n        else if(methodHash == methodWord_increaseApproval) _approve(signer, to, currentAllowance.add(amount));\n        else if(methodHash == methodWord_decreaseApproval) _approve(signer, to, currentAllowance.sub(amount));\n        return true;\n    }\n\n    /**\n     * @notice Get the message to be signed in case of delegated transfer/approvals\n     * @param methodHash The method hash for which delegate action in to be performed\n     * @param token The unique token for each delegated function\n     * @param networkFee The fee that will be paid to relayer for gas fee he spends\n     * @param to The recipient or spender\n     * @param amount The amount to be transferred\n     * @return Bool value\n     */\n    function getProofTransfer(bytes4 methodHash, bytes32 token, uint256 networkFee, address broadcaster, address to, uint256 amount)\n        public\n        view\n        returns (bytes32)\n    {\n        require(methodHash == methodWord_transfer, \"Method not supported\");\n        bytes32 proof = keccak256(abi.encodePacked(\n            getChainID(),\n            bytes4(methodHash),\n            address(this),\n            token,\n            networkFee,\n            broadcaster,\n            to,\n            amount\n    ));\n        return proof;\n    }\n\n    /**\n     * @notice Get the message to be signed in case of delegated transfer/approvals\n     * @param methodHash The method hash for which delegate action in to be performed\n     * @param token The unique token for each delegated function\n     * @param networkFee The fee that will be paid to relayer for gas fee he spends\n     * @param to The recipient or spender\n     * @param amount The amount to be approved\n     * @return Bool value\n     */\n    function getProofApproval(bytes4 methodHash, bytes32 token, uint256 networkFee, address broadcaster, address to, uint256 amount)\n        public\n        view\n        returns (bytes32)\n    {\n        require(\n            methodHash == methodWord_approve ||\n            methodHash == methodWord_increaseApproval ||\n            methodHash == methodWord_decreaseApproval,\n            \"Method not supported\");\n        bytes32 proof = keccak256(abi.encodePacked(\n            getChainID(),\n            bytes4(methodHash),\n            address(this),\n            token,\n            networkFee,\n            broadcaster,\n            to,\n            amount\n        ));\n        return proof;\n    }\n    \n}",
  "sourcePath": "/home/prashant/projects/z-token-smartcontract/contracts/MyToken.sol",
  "compiler": {
    "name": "solc",
    "version": "0.8.0+commit.c7dfd78e.Emscripten.clang"
  },
  "schemaVersion": "3.4.1",
  "updatedAt": "2021-09-06T16:44:58.179Z",
  "networkType": "ethereum",
  "devdoc": {
    "author": "Phoenix ",
    "kind": "dev",
    "methods": {
      "allowance(address,address)": {
        "details": "See {IERC20-allowance}."
      },
      "approve(address,uint256)": {
        "details": "See {IERC20-approve}. Requirements: - `spender` cannot be the zero address."
      },
      "balanceOf(address)": {
        "details": "See {IERC20-balanceOf}."
      },
      "calculateCommissionMint(uint256)": {
        "details": "Does not checks if sender/recipient is whitelisted",
        "params": {
          "_amount": "The intended amount of transfer"
        },
        "returns": {
          "_0": "uint256 Calculated commission"
        }
      },
      "calculateCommissionMyTokenCrw(uint256)": {
        "params": {
          "_amount": "The intended amount of transfer"
        },
        "returns": {
          "_0": "uint256 Calculated commission"
        }
      },
      "calculateCommissionPhoenixCrw(uint256)": {
        "params": {
          "_amount": "The intended amount of transfer"
        },
        "returns": {
          "_0": "uint256 Calculated commission"
        }
      },
      "decimals()": {
        "details": "Returns the number of decimals used to get its user representation. For example, if `decimals` equals `2`, a balance of `505` tokens should be displayed to a user as `5,05` (`505 / 10 ** 2`). Tokens usually opt for a value of 18, imitating the relationship between Ether and Wei. This is the value {ERC20} uses, unless this function is overridden; NOTE: This information is only used for _display_ purposes: it in no way affects any of the arithmetic of the contract, including {IERC20-balanceOf} and {IERC20-transfer}."
      },
      "decreaseAllowance(address,uint256)": {
        "details": "Atomically decreases the allowance granted to `spender` by the caller. This is an alternative to {approve} that can be used as a mitigation for problems described in {IERC20-approve}. Emits an {Approval} event indicating the updated allowance. Requirements: - `spender` cannot be the zero address. - `spender` must have allowance for the caller of at least `subtractedValue`."
      },
      "getChainID()": {
        "details": "ID of the executing chain",
        "returns": {
          "_0": "uint value"
        }
      },
      "getProofApproval(bytes4,bytes32,uint256,address,address,uint256)": {
        "params": {
          "amount": "The amount to be approved",
          "methodHash": "The method hash for which delegate action in to be performed",
          "networkFee": "The fee that will be paid to relayer for gas fee he spends",
          "to": "The recipient or spender",
          "token": "The unique token for each delegated function"
        },
        "returns": {
          "_0": "Bool value"
        }
      },
      "getProofTransfer(bytes4,bytes32,uint256,address,address,uint256)": {
        "params": {
          "amount": "The amount to be transferred",
          "methodHash": "The method hash for which delegate action in to be performed",
          "networkFee": "The fee that will be paid to relayer for gas fee he spends",
          "to": "The recipient or spender",
          "token": "The unique token for each delegated function"
        },
        "returns": {
          "_0": "Bool value"
        }
      },
      "getSigner(bytes32,bytes32,bytes32,uint8)": {
        "params": {
          "message": "The message that user signed",
          "r": "Signature component",
          "s": "Signature component",
          "v": "Signature component"
        },
        "returns": {
          "_0": "address Signer of message"
        }
      },
      "increaseAllowance(address,uint256)": {
        "details": "Atomically increases the allowance granted to `spender` by the caller. This is an alternative to {approve} that can be used as a mitigation for problems described in {IERC20-approve}. Emits an {Approval} event indicating the updated allowance. Requirements: - `spender` cannot be the zero address."
      },
      "name()": {
        "details": "Returns the name of the token."
      },
      "owner()": {
        "details": "Returns the address of the current owner."
      },
      "preAuthorizedApproval(bytes4,bytes32,bytes32,bytes32,uint8,bytes32,uint256,address,uint256)": {
        "details": "Only approve, increaseApproval and decreaseApproval can be delegated",
        "params": {
          "amount": "The amount to be allowed",
          "message": "The message that user signed",
          "networkFee": "The fee that will be paid to relayer for gas fee he spends",
          "r": "Signature component",
          "s": "Signature component",
          "to": "The spender address",
          "token": "The unique token for each delegated function",
          "v": "Signature component"
        },
        "returns": {
          "_0": "Bool value"
        }
      },
      "preAuthorizedTransfer(bytes32,bytes32,bytes32,uint8,bytes32,uint256,address,uint256)": {
        "params": {
          "amount": "The array of amounts to be transferred",
          "message": "The message that user signed",
          "networkFee": "The fee that will be paid to relayer for gas fee he spends",
          "r": "Signature component",
          "s": "Signature component",
          "to": "The array of recipients",
          "token": "The unique token for each delegated function",
          "v": "Signature component"
        }
      },
      "renounceOwnership()": {
        "details": "Leaves the contract without owner. It will not be possible to call `onlyOwner` functions anymore. Can only be called by the current owner. NOTE: Renouncing ownership will leave the contract without an owner, thereby removing any functionality that is only available to the owner."
      },
      "symbol()": {
        "details": "Returns the symbol of the token, usually a shorter version of the name."
      },
      "tokenFallback(address,uint256,bytes)": {
        "details": "Only token contract can call.",
        "params": {
          "_from": "Who transferred, not utlised",
          "_value": "The amount transferred",
          "data": "The data supplied by token contract. It will be ignored"
        }
      },
      "totalSupply()": {
        "details": "See {IERC20-totalSupply}."
      },
      "transfer(address,uint256)": {
        "details": "overriden Function of the openzeppelin ERC20 contract",
        "params": {
          "amount": "The amount to be transferred",
          "recipient": "receiver's address"
        }
      },
      "transferAnyERC20Token(address,uint256)": {
        "params": {
          "_tokenAddress": "The contract address of ERC-20 compitable token",
          "_value": "The number of tokens to be transferred to owner"
        }
      },
      "transferFrom(address,address,uint256)": {
        "details": "overriden Function of the openzeppelin ERC20 contract",
        "params": {
          "amount": "The amount to be transferred",
          "recipient": "receiver's address",
          "sender": "transfer token from account"
        }
      },
      "transferOwnership(address)": {
        "details": "Transfers ownership of the contract to a new account (`newOwner`). Can only be called by the current owner."
      },
      "transferToken(uint256,address)": {
        "details": "Only owner can call, tokens will be transferred and equivalent amount of Token will be burnt from owner address.",
        "params": {
          "_amount": "the amount of tokens to be transferred",
          "_receiver": "address of the receiver"
        }
      },
      "updateCommssionMint(uint256,uint256)": {
        "details": "Only phoenix can call",
        "params": {
          "_d": "The denominator of commission",
          "_n": "The numerator of commission"
        }
      },
      "updateCommssionMyTokenTranfer(uint256,uint256)": {
        "details": "Only owner can call",
        "params": {
          "_d": "The denominator of commission",
          "_n": "The numerator of commission"
        }
      },
      "updateCommssionPhoenixTransfer(uint256,uint256)": {
        "details": "Only Phoenix Owner can call",
        "params": {
          "_d": "The denominator of commission",
          "_n": "The numerator of commission"
        }
      },
      "updatePhoenixAddress(address)": {
        "details": "Only Phoenix can call",
        "params": {
          "_user": "The address of phoenixCrw wallet"
        },
        "returns": {
          "_0": "Bool value"
        }
      }
    },
    "title": "AdvancedOToken",
    "version": 1
  },
  "userdoc": {
    "kind": "user",
    "methods": {
      "calculateCommissionMint(uint256)": {
        "notice": "check Minting fee"
      },
      "calculateCommissionMyTokenCrw(uint256)": {
        "notice": "check transer fee credited to Token owner"
      },
      "calculateCommissionPhoenixCrw(uint256)": {
        "notice": "check transer fee credited to Phoenix"
      },
      "getProofApproval(bytes4,bytes32,uint256,address,address,uint256)": {
        "notice": "Get the message to be signed in case of delegated transfer/approvals"
      },
      "getProofTransfer(bytes4,bytes32,uint256,address,address,uint256)": {
        "notice": "Get the message to be signed in case of delegated transfer/approvals"
      },
      "getSigner(bytes32,bytes32,bytes32,uint8)": {
        "notice": "Find signer"
      },
      "preAuthorizedApproval(bytes4,bytes32,bytes32,bytes32,uint8,bytes32,uint256,address,uint256)": {
        "notice": "Delegated approval. Gas fee will be paid by relayer"
      },
      "preAuthorizedTransfer(bytes32,bytes32,bytes32,uint8,bytes32,uint256,address,uint256)": {
        "notice": "Delegated transfer. Gas fee will be paid by relayer"
      },
      "tokenFallback(address,uint256,bytes)": {
        "notice": "Function called by token contract whenever tokens are deposited to this contract"
      },
      "transfer(address,uint256)": {
        "notice": "Standard transfer function to Transfer token"
      },
      "transferAnyERC20Token(address,uint256)": {
        "notice": "Owner can transfer out any accidentally sent ERC20 tokens accept OTokens"
      },
      "transferFrom(address,address,uint256)": {
        "notice": "Standard transferFrom. Send tokens on behalf of spender"
      },
      "transferToken(uint256,address)": {
        "notice": "transfer tokens from contract "
      },
      "updateCommssionMint(uint256,uint256)": {
        "notice": "Update commission to be charged on token minting"
      },
      "updateCommssionMyTokenTranfer(uint256,uint256)": {
        "notice": "Update commission to be charged on token transfer"
      },
      "updateCommssionPhoenixTransfer(uint256,uint256)": {
        "notice": "Update commission to be charged on each token transfer for Phoenix"
      },
      "updatePhoenixAddress(address)": {
        "notice": "update phoenix wallet address. This address will be responsible for holding commission on tokens transfer"
      }
    },
    "version": 1
  }
}