{
  "contractName": "OToken",
  "abi": [
    {
      "inputs": [
        {
          "internalType": "address",
          "name": "_minter",
          "type": "address"
        },
        {
          "internalType": "address",
          "name": "_crw",
          "type": "address"
        },
        {
          "internalType": "address",
          "name": "_newDeputyOwner",
          "type": "address"
        }
      ],
      "stateMutability": "nonpayable",
      "type": "constructor"
    },
    {
      "anonymous": false,
      "inputs": [
        {
          "indexed": true,
          "internalType": "address",
          "name": "tokenOwner",
          "type": "address"
        },
        {
          "indexed": true,
          "internalType": "address",
          "name": "spender",
          "type": "address"
        },
        {
          "indexed": false,
          "internalType": "uint256",
          "name": "tokens",
          "type": "uint256"
        }
      ],
      "name": "Approval",
      "type": "event"
    },
    {
      "anonymous": false,
      "inputs": [
        {
          "indexed": false,
          "internalType": "address",
          "name": "_newCRW",
          "type": "address"
        },
        {
          "indexed": false,
          "internalType": "address",
          "name": "_oldCRW",
          "type": "address"
        }
      ],
      "name": "CRWUpdated",
      "type": "event"
    },
    {
      "anonymous": false,
      "inputs": [
        {
          "indexed": false,
          "internalType": "uint256",
          "name": "_numerator",
          "type": "uint256"
        },
        {
          "indexed": false,
          "internalType": "uint256",
          "name": "_denominator",
          "type": "uint256"
        }
      ],
      "name": "CommssionUpdate",
      "type": "event"
    },
    {
      "anonymous": false,
      "inputs": [
        {
          "indexed": false,
          "internalType": "address",
          "name": "_oldOwner",
          "type": "address"
        },
        {
          "indexed": false,
          "internalType": "address",
          "name": "_newOwner",
          "type": "address"
        }
      ],
      "name": "DeputyOwnerUpdated",
      "type": "event"
    },
    {
      "anonymous": false,
      "inputs": [
        {
          "indexed": false,
          "internalType": "address",
          "name": "_from",
          "type": "address"
        },
        {
          "indexed": false,
          "internalType": "address",
          "name": "to",
          "type": "address"
        },
        {
          "indexed": false,
          "internalType": "uint256",
          "name": "_token",
          "type": "uint256"
        },
        {
          "indexed": false,
          "internalType": "string",
          "name": "sawtoothHash",
          "type": "string"
        },
        {
          "indexed": false,
          "internalType": "string",
          "name": "orderId",
          "type": "string"
        }
      ],
      "name": "MintOrBurn",
      "type": "event"
    },
    {
      "anonymous": false,
      "inputs": [
        {
          "indexed": false,
          "internalType": "address",
          "name": "_newMinter",
          "type": "address"
        },
        {
          "indexed": false,
          "internalType": "address",
          "name": "_oldMinter",
          "type": "address"
        }
      ],
      "name": "MinterUpdated",
      "type": "event"
    },
    {
      "anonymous": false,
      "inputs": [
        {
          "indexed": false,
          "internalType": "address",
          "name": "oldOwner",
          "type": "address"
        },
        {
          "indexed": false,
          "internalType": "address",
          "name": "newOwner",
          "type": "address"
        }
      ],
      "name": "OwnershipUpdated",
      "type": "event"
    },
    {
      "anonymous": false,
      "inputs": [
        {
          "indexed": false,
          "internalType": "address",
          "name": "_newSuspenseWallet",
          "type": "address"
        },
        {
          "indexed": false,
          "internalType": "address",
          "name": "_oldSuspenseWallet",
          "type": "address"
        }
      ],
      "name": "SuspenseWalletUpdated",
      "type": "event"
    },
    {
      "anonymous": false,
      "inputs": [
        {
          "indexed": false,
          "internalType": "address",
          "name": "_user",
          "type": "address"
        },
        {
          "indexed": false,
          "internalType": "bool",
          "name": "_isWhitelisted",
          "type": "bool"
        },
        {
          "indexed": false,
          "internalType": "string",
          "name": "_type",
          "type": "string"
        }
      ],
      "name": "TaxFreeUserUpdate",
      "type": "event"
    },
    {
      "anonymous": false,
      "inputs": [
        {
          "indexed": true,
          "internalType": "address",
          "name": "from",
          "type": "address"
        },
        {
          "indexed": true,
          "internalType": "address",
          "name": "to",
          "type": "address"
        },
        {
          "indexed": false,
          "internalType": "uint256",
          "name": "tokens",
          "type": "uint256"
        }
      ],
      "name": "Transfer",
      "type": "event"
    },
    {
      "anonymous": false,
      "inputs": [
        {
          "indexed": false,
          "internalType": "address",
          "name": "_contractAddress",
          "type": "address"
        },
        {
          "indexed": false,
          "internalType": "bool",
          "name": "_isActive",
          "type": "bool"
        }
      ],
      "name": "TrustedContractUpdate",
      "type": "event"
    },
    {
      "inputs": [],
      "name": "centralRevenueWallet",
      "outputs": [
        {
          "internalType": "address",
          "name": "",
          "type": "address"
        }
      ],
      "stateMutability": "view",
      "type": "function"
    },
    {
      "inputs": [],
      "name": "commission_denominator",
      "outputs": [
        {
          "internalType": "uint256",
          "name": "",
          "type": "uint256"
        }
      ],
      "stateMutability": "view",
      "type": "function"
    },
    {
      "inputs": [],
      "name": "commission_numerator",
      "outputs": [
        {
          "internalType": "uint256",
          "name": "",
          "type": "uint256"
        }
      ],
      "stateMutability": "view",
      "type": "function"
    },
    {
      "inputs": [],
      "name": "decimals",
      "outputs": [
        {
          "internalType": "uint256",
          "name": "",
          "type": "uint256"
        }
      ],
      "stateMutability": "view",
      "type": "function"
    },
    {
      "inputs": [],
      "name": "deputyOwner",
      "outputs": [
        {
          "internalType": "address",
          "name": "",
          "type": "address"
        }
      ],
      "stateMutability": "view",
      "type": "function"
    },
    {
      "inputs": [
        {
          "internalType": "address",
          "name": "",
          "type": "address"
        }
      ],
      "name": "isTaxFreeRecipeint",
      "outputs": [
        {
          "internalType": "bool",
          "name": "",
          "type": "bool"
        }
      ],
      "stateMutability": "view",
      "type": "function"
    },
    {
      "inputs": [
        {
          "internalType": "address",
          "name": "",
          "type": "address"
        }
      ],
      "name": "isTaxFreeSender",
      "outputs": [
        {
          "internalType": "bool",
          "name": "",
          "type": "bool"
        }
      ],
      "stateMutability": "view",
      "type": "function"
    },
    {
      "inputs": [],
      "name": "minter",
      "outputs": [
        {
          "internalType": "address",
          "name": "",
          "type": "address"
        }
      ],
      "stateMutability": "view",
      "type": "function"
    },
    {
      "inputs": [],
      "name": "name",
      "outputs": [
        {
          "internalType": "string",
          "name": "",
          "type": "string"
        }
      ],
      "stateMutability": "view",
      "type": "function"
    },
    {
      "inputs": [],
      "name": "owner",
      "outputs": [
        {
          "internalType": "address",
          "name": "",
          "type": "address"
        }
      ],
      "stateMutability": "view",
      "type": "function"
    },
    {
      "inputs": [
        {
          "internalType": "uint256",
          "name": "_validationCode",
          "type": "uint256"
        }
      ],
      "name": "renounceOwnership",
      "outputs": [],
      "stateMutability": "nonpayable",
      "type": "function"
    },
    {
      "inputs": [
        {
          "internalType": "string",
          "name": "",
          "type": "string"
        },
        {
          "internalType": "string",
          "name": "",
          "type": "string"
        }
      ],
      "name": "sawtoothHashMapping",
      "outputs": [
        {
          "internalType": "bool",
          "name": "",
          "type": "bool"
        }
      ],
      "stateMutability": "view",
      "type": "function"
    },
    {
      "inputs": [],
      "name": "suspenseWallet",
      "outputs": [
        {
          "internalType": "address",
          "name": "",
          "type": "address"
        }
      ],
      "stateMutability": "view",
      "type": "function"
    },
    {
      "inputs": [],
      "name": "symbol",
      "outputs": [
        {
          "internalType": "string",
          "name": "",
          "type": "string"
        }
      ],
      "stateMutability": "view",
      "type": "function"
    },
    {
      "inputs": [],
      "name": "totalSupply",
      "outputs": [
        {
          "internalType": "uint256",
          "name": "",
          "type": "uint256"
        }
      ],
      "stateMutability": "view",
      "type": "function"
    },
    {
      "inputs": [
        {
          "internalType": "address",
          "name": "",
          "type": "address"
        }
      ],
      "name": "trustedContracts",
      "outputs": [
        {
          "internalType": "bool",
          "name": "",
          "type": "bool"
        }
      ],
      "stateMutability": "view",
      "type": "function"
    },
    {
      "inputs": [
        {
          "internalType": "address",
          "name": "_newOwner",
          "type": "address"
        }
      ],
      "name": "updateOwner",
      "outputs": [],
      "stateMutability": "nonpayable",
      "type": "function"
    },
    {
      "stateMutability": "payable",
      "type": "receive"
    },
    {
      "inputs": [
        {
          "internalType": "address",
          "name": "_to",
          "type": "address"
        },
        {
          "internalType": "uint256",
          "name": "_value",
          "type": "uint256"
        }
      ],
      "name": "transfer",
      "outputs": [
        {
          "internalType": "bool",
          "name": "",
          "type": "bool"
        }
      ],
      "stateMutability": "nonpayable",
      "type": "function"
    },
    {
      "inputs": [
        {
          "internalType": "address",
          "name": "_to",
          "type": "address"
        },
        {
          "internalType": "uint256",
          "name": "_value",
          "type": "uint256"
        }
      ],
      "name": "transferIncludingFee",
      "outputs": [
        {
          "internalType": "bool",
          "name": "",
          "type": "bool"
        }
      ],
      "stateMutability": "nonpayable",
      "type": "function"
    },
    {
      "inputs": [
        {
          "internalType": "address[]",
          "name": "_addressArr",
          "type": "address[]"
        },
        {
          "internalType": "uint256[]",
          "name": "_amountArr",
          "type": "uint256[]"
        },
        {
          "internalType": "bool",
          "name": "_includingFees",
          "type": "bool"
        }
      ],
      "name": "bulkTransfer",
      "outputs": [
        {
          "internalType": "bool",
          "name": "",
          "type": "bool"
        }
      ],
      "stateMutability": "nonpayable",
      "type": "function"
    },
    {
      "inputs": [
        {
          "internalType": "address",
          "name": "_spender",
          "type": "address"
        },
        {
          "internalType": "uint256",
          "name": "_value",
          "type": "uint256"
        }
      ],
      "name": "approve",
      "outputs": [
        {
          "internalType": "bool",
          "name": "",
          "type": "bool"
        }
      ],
      "stateMutability": "nonpayable",
      "type": "function"
    },
    {
      "inputs": [
        {
          "internalType": "address",
          "name": "_spender",
          "type": "address"
        },
        {
          "internalType": "uint256",
          "name": "_addedValue",
          "type": "uint256"
        }
      ],
      "name": "increaseApproval",
      "outputs": [
        {
          "internalType": "bool",
          "name": "",
          "type": "bool"
        }
      ],
      "stateMutability": "nonpayable",
      "type": "function"
    },
    {
      "inputs": [
        {
          "internalType": "address",
          "name": "_spender",
          "type": "address"
        },
        {
          "internalType": "uint256",
          "name": "_subtractedValue",
          "type": "uint256"
        }
      ],
      "name": "decreaseApproval",
      "outputs": [
        {
          "internalType": "bool",
          "name": "",
          "type": "bool"
        }
      ],
      "stateMutability": "nonpayable",
      "type": "function"
    },
    {
      "inputs": [
        {
          "internalType": "address",
          "name": "_spender",
          "type": "address"
        },
        {
          "internalType": "uint256",
          "name": "_value",
          "type": "uint256"
        },
        {
          "internalType": "bytes",
          "name": "_extraData",
          "type": "bytes"
        }
      ],
      "name": "approveAndCall",
      "outputs": [
        {
          "internalType": "bool",
          "name": "",
          "type": "bool"
        }
      ],
      "stateMutability": "nonpayable",
      "type": "function"
    },
    {
      "inputs": [
        {
          "internalType": "address",
          "name": "_from",
          "type": "address"
        },
        {
          "internalType": "address",
          "name": "_to",
          "type": "address"
        },
        {
          "internalType": "uint256",
          "name": "_value",
          "type": "uint256"
        }
      ],
      "name": "transferFrom",
      "outputs": [
        {
          "internalType": "bool",
          "name": "",
          "type": "bool"
        }
      ],
      "stateMutability": "nonpayable",
      "type": "function"
    },
    {
      "inputs": [
        {
          "internalType": "address",
          "name": "_to",
          "type": "address"
        },
        {
          "internalType": "uint256",
          "name": "_value",
          "type": "uint256"
        },
        {
          "internalType": "string",
          "name": "_sawtoothHash",
          "type": "string"
        },
        {
          "internalType": "string",
          "name": "_orderId",
          "type": "string"
        }
      ],
      "name": "mint",
      "outputs": [
        {
          "internalType": "bool",
          "name": "",
          "type": "bool"
        }
      ],
      "stateMutability": "nonpayable",
      "type": "function"
    },
    {
      "inputs": [
        {
          "internalType": "address[]",
          "name": "_addressArr",
          "type": "address[]"
        },
        {
          "internalType": "uint256[]",
          "name": "_amountArr",
          "type": "uint256[]"
        },
        {
          "internalType": "string",
          "name": "_sawtoothHash",
          "type": "string"
        },
        {
          "internalType": "string",
          "name": "_orderId",
          "type": "string"
        }
      ],
      "name": "bulkMint",
      "outputs": [
        {
          "internalType": "bool",
          "name": "",
          "type": "bool"
        }
      ],
      "stateMutability": "nonpayable",
      "type": "function"
    },
    {
      "inputs": [
        {
          "internalType": "uint256",
          "name": "_value",
          "type": "uint256"
        },
        {
          "internalType": "string",
          "name": "_sawtoothHash",
          "type": "string"
        },
        {
          "internalType": "string",
          "name": "_orderId",
          "type": "string"
        }
      ],
      "name": "burn",
      "outputs": [
        {
          "internalType": "bool",
          "name": "",
          "type": "bool"
        }
      ],
      "stateMutability": "nonpayable",
      "type": "function"
    },
    {
      "inputs": [
        {
          "internalType": "address[]",
          "name": "_users",
          "type": "address[]"
        },
        {
          "internalType": "bool",
          "name": "_isSpecial",
          "type": "bool"
        }
      ],
      "name": "updateTaxFreeRecipient",
      "outputs": [
        {
          "internalType": "bool",
          "name": "",
          "type": "bool"
        }
      ],
      "stateMutability": "nonpayable",
      "type": "function"
    },
    {
      "inputs": [
        {
          "internalType": "address[]",
          "name": "_users",
          "type": "address[]"
        },
        {
          "internalType": "bool",
          "name": "_isSpecial",
          "type": "bool"
        }
      ],
      "name": "updateTaxFreeSender",
      "outputs": [
        {
          "internalType": "bool",
          "name": "",
          "type": "bool"
        }
      ],
      "stateMutability": "nonpayable",
      "type": "function"
    },
    {
      "inputs": [
        {
          "internalType": "address",
          "name": "_suspenseWallet",
          "type": "address"
        }
      ],
      "name": "addSuspenseWallet",
      "outputs": [
        {
          "internalType": "bool",
          "name": "",
          "type": "bool"
        }
      ],
      "stateMutability": "nonpayable",
      "type": "function"
    },
    {
      "inputs": [
        {
          "internalType": "address",
          "name": "_minter",
          "type": "address"
        }
      ],
      "name": "updateMinter",
      "outputs": [
        {
          "internalType": "bool",
          "name": "",
          "type": "bool"
        }
      ],
      "stateMutability": "nonpayable",
      "type": "function"
    },
    {
      "inputs": [
        {
          "internalType": "address",
          "name": "_contractAddress",
          "type": "address"
        },
        {
          "internalType": "bool",
          "name": "_isActive",
          "type": "bool"
        }
      ],
      "name": "addTrustedContracts",
      "outputs": [],
      "stateMutability": "nonpayable",
      "type": "function"
    },
    {
      "inputs": [
        {
          "internalType": "uint256",
          "name": "_numerator",
          "type": "uint256"
        },
        {
          "internalType": "uint256",
          "name": "_denominator",
          "type": "uint256"
        }
      ],
      "name": "updateCommssion",
      "outputs": [],
      "stateMutability": "nonpayable",
      "type": "function"
    },
    {
      "inputs": [
        {
          "internalType": "address",
          "name": "_newDeputyOwner",
          "type": "address"
        }
      ],
      "name": "updateDeputyOwner",
      "outputs": [],
      "stateMutability": "nonpayable",
      "type": "function"
    },
    {
      "inputs": [
        {
          "internalType": "address",
          "name": "_newCrw",
          "type": "address"
        }
      ],
      "name": "updateCRW",
      "outputs": [],
      "stateMutability": "nonpayable",
      "type": "function"
    },
    {
      "inputs": [
        {
          "internalType": "address",
          "name": "_tokenAddress",
          "type": "address"
        },
        {
          "internalType": "uint256",
          "name": "_value",
          "type": "uint256"
        }
      ],
      "name": "transferAnyERC20Token",
      "outputs": [],
      "stateMutability": "nonpayable",
      "type": "function"
    },
    {
      "inputs": [
        {
          "internalType": "address",
          "name": "_tokenOwner",
          "type": "address"
        },
        {
          "internalType": "address",
          "name": "_spender",
          "type": "address"
        }
      ],
      "name": "allowance",
      "outputs": [
        {
          "internalType": "uint256",
          "name": "remaining",
          "type": "uint256"
        }
      ],
      "stateMutability": "view",
      "type": "function"
    },
    {
      "inputs": [
        {
          "internalType": "address",
          "name": "_tokenOwner",
          "type": "address"
        }
      ],
      "name": "balanceOf",
      "outputs": [
        {
          "internalType": "uint256",
          "name": "balance",
          "type": "uint256"
        }
      ],
      "stateMutability": "view",
      "type": "function"
    },
    {
      "inputs": [
        {
          "internalType": "uint256",
          "name": "_amount",
          "type": "uint256"
        }
      ],
      "name": "calculateCommission",
      "outputs": [
        {
          "internalType": "uint256",
          "name": "",
          "type": "uint256"
        }
      ],
      "stateMutability": "view",
      "type": "function"
    },
    {
      "inputs": [
        {
          "internalType": "address",
          "name": "_from",
          "type": "address"
        },
        {
          "internalType": "address",
          "name": "_to",
          "type": "address"
        }
      ],
      "name": "isTaxFreeTx",
      "outputs": [
        {
          "internalType": "bool",
          "name": "",
          "type": "bool"
        }
      ],
      "stateMutability": "view",
      "type": "function"
    }
  ],
  "bytecode": "0x608060405260006002553480156200001657600080fd5b506040516200306038038062003060833981016040819052620000399162000238565b600080546001600160a01b03191633179055826001600160a01b0381166200007e5760405162461bcd60e51b81526004016200007590620002a9565b60405180910390fd5b826001600160a01b038116620000a85760405162461bcd60e51b81526004016200007590620002a9565b826001600160a01b038116620000d25760405162461bcd60e51b81526004016200007590620002a9565b60008054336001600160a01b03199182161782556005805482166001600160a01b038a8116919091179091556004805483168983161790556001805490921690871617815560065560646007556040517f1cf2de25c5bf439ac0287061c3a0fa69b3b02867d0ccfd2ded34e42577050b7391620001529189919062000281565b60405180910390a17f9c107c5300b2d5823a8d75329cb77d7084bd17f97b438a0726f4f8e824984a0e8560006040516200018e92919062000281565b60405180910390a17f6449a5a44e51743e0691c9ad4086f669822fbd23f02d1963a16ca190bf0096d8846000604051620001ca92919062000281565b60405180910390a17f5cd59bcd6c1e50a230fbb0b72ec685bbc5d42ebedc1f24715bcd30371a571dc260016064604051620002079291906200029b565b60405180910390a1505050505050620002e0565b80516001600160a01b03811681146200023357600080fd5b919050565b6000806000606084860312156200024d578283fd5b62000258846200021b565b925062000268602085016200021b565b915062000278604085016200021b565b90509250925092565b6001600160a01b0392831681529116602082015260400190565b918252602082015260400190565b60208082526018908201527f5a65726f2061646472657373206e6f7420616c6c6f7765640000000000000000604082015260600190565b612d7080620002f06000396000f3fe60806040526004361061024a5760003560e01c806369afb97411610139578063a87cce75116100b6578063d73dd6231161007a578063d73dd6231461069b578063db878816146106bb578063dc39d06d146106db578063dd62ed3e146106fb578063e5919a4f1461071b578063ebefd2561461073b57610270565b8063a87cce7514610606578063a9059cbb1461061b578063ba211db01461063b578063cae9ca511461065b578063ce9b43211461067b57610270565b80637d654c7f116100fd5780637d654c7f1461057c578063880cdc311461059c57806388a75520146105bc5780638da5cb5b146105dc57806395d89b41146105f157610270565b806369afb974146104e757806369fc10d81461050757806370a082311461051c57806374b1807b1461053c5780637aa25cb11461055c57610270565b80632fb102cf116101c75780634eb03f6e1161018b5780634eb03f6e1461045d5780634f5b86121461047d5780635be9f1dc146104925780635d2ade8a146104a757806366188463146104c757610270565b80632fb102cf146103d3578063313ce567146103f357806336ff3b64146104085780633832d0091461042857806345af823b1461043d57610270565b806318160ddd1161020e57806318160ddd146103315780631c4e44b91461035357806323b872dd1461037357806329c30eaf146103935780632e673ce7146103b357610270565b806302fc988a1461027557806306fdde031461029757806307546172146102c25780630845bd1a146102e4578063095ea7b31461031157610270565b366102705760405162461bcd60e51b815260040161026790612a38565b60405180910390fd5b600080fd5b34801561028157600080fd5b506102956102903660046122ea565b61075b565b005b3480156102a357600080fd5b506102ac61082a565b6040516102b99190612855565b60405180910390f35b3480156102ce57600080fd5b506102d761084d565b6040516102b991906126b2565b3480156102f057600080fd5b506103046102ff3660046124a1565b61085c565b6040516102b9919061284a565b34801561031d57600080fd5b5061030461032c366004612320565b610ad3565b34801561033d57600080fd5b50610346610ae9565b6040516102b99190612bc3565b34801561035f57600080fd5b5061030461036e366004612320565b610aef565b34801561037f57600080fd5b5061030461038e3660046122af565b610b2f565b34801561039f57600080fd5b506102956103ae366004612263565b610bdf565b3480156103bf57600080fd5b506103046103ce366004612263565b610c98565b3480156103df57600080fd5b506103046103ee3660046123b1565b610cad565b3480156103ff57600080fd5b50610346610e73565b34801561041457600080fd5b50610295610423366004612649565b610e78565b34801561043457600080fd5b50610346610ef3565b34801561044957600080fd5b50610304610458366004612263565b610ef9565b34801561046957600080fd5b50610304610478366004612263565b610f0e565b34801561048957600080fd5b506102d7610fcc565b34801561049e57600080fd5b506102d7610fdb565b3480156104b357600080fd5b506103046104c236600461250f565b610fea565b3480156104d357600080fd5b506103046104e2366004612320565b611170565b3480156104f357600080fd5b5061030461050236600461227d565b61117d565b34801561051357600080fd5b506103466111d1565b34801561052857600080fd5b50610346610537366004612263565b6111d7565b34801561054857600080fd5b50610304610557366004612263565b6111f6565b34801561056857600080fd5b50610304610577366004612570565b6112b4565b34801561058857600080fd5b506102956105973660046125d1565b6112f1565b3480156105a857600080fd5b506102956105b7366004612263565b61138a565b3480156105c857600080fd5b506103046105d736600461242c565b61142e565b3480156105e857600080fd5b506102d76114e6565b3480156105fd57600080fd5b506102ac6114f5565b34801561061257600080fd5b506102d7611513565b34801561062757600080fd5b50610304610636366004612320565b611522565b34801561064757600080fd5b506103046106563660046125e9565b611532565b34801561066757600080fd5b50610304610676366004612349565b6116e9565b34801561068757600080fd5b506103466106963660046125d1565b611773565b3480156106a757600080fd5b506103046106b6366004612320565b61179b565b3480156106c757600080fd5b506103046106d636600461250f565b6117a8565b3480156106e757600080fd5b506102956106f6366004612320565b611924565b34801561070757600080fd5b5061034661071636600461227d565b61196c565b34801561072757600080fd5b50610304610736366004612263565b611997565b34801561074757600080fd5b50610295610756366004612263565b6119ac565b6000546001600160a01b031633148061077e57506001546001600160a01b031633145b61079a5760405162461bcd60e51b8152600401610267906129f3565b6107ac826001600160a01b0316611a65565b6107c85760405162461bcd60e51b815260040161026790612a6f565b6001600160a01b0382166000908152600d602052604090819020805460ff1916831515179055517fbf44f4257b0ec1facd8b3effe5419fe6026fc9f8390b6dccfa492d95f6c4703f9061081e9084908490612731565b60405180910390a15050565b6040518060400160405280600781526020016627902a37b5b2b760c91b81525081565b6005546001600160a01b031681565b6005546000906001600160a01b031633146108895760405162461bcd60e51b815260040161026790612931565b8282600c8260405161089b9190612696565b9081526020016040518091039020816040516108b79190612696565b9081526040519081900360200190205460ff16156108e75760405162461bcd60e51b8152600401610267906128b7565b85518751146109085760405162461bcd60e51b815260040161026790612909565b60005b8751811015610ac557600087828151811061093657634e487b7160e01b600052603260045260246000fd5b60200260200101519050600089838151811061096257634e487b7160e01b600052603260045260246000fd5b6020026020010151905060006001600160a01b0316816001600160a01b0316141561099f5760405162461bcd60e51b815260040161026790612b0b565b6002546109ac9083611a9e565b6002556001600160a01b0381166000908152600860205260409020546109d29083611a9e565b6001600160a01b038216600090815260086020526040908190209190915551600190600c90610a02908b90612696565b908152602001604051809103902088604051610a1e9190612696565b908152604051908190036020018120805492151560ff19909316929092179091556001600160a01b03821690600090600080516020612d1b83398151915290610a68908690612bc3565b60405180910390a37f1b33ab12d041639db1acd2c2ad0509f0657641c3f69907ff8e92f2cfddd8e701600082848b8b604051610aa89594939291906126e0565b60405180910390a150508080610abd90612cc2565b91505061090b565b506001979650505050505050565b6000610ae0338484611ad7565b90505b92915050565b60025481565b6000826001600160a01b038116610b185760405162461bcd60e51b815260040161026790612b0b565b610b2733858560006001611b47565b949350505050565b6001600160a01b0383166000908152600960209081526040808320338452909152812054821115610b725760405162461bcd60e51b815260040161026790612961565b6001600160a01b0384166000908152600960209081526040808320338452909152902054610ba09083611ca6565b6001600160a01b0385166000908152600960209081526040808320338452909152812091909155610bd79085908590859080611b47565b509392505050565b6000546001600160a01b03163314610c095760405162461bcd60e51b815260040161026790612ae8565b806001600160a01b038116610c305760405162461bcd60e51b815260040161026790612b0b565b6004546040517f9c107c5300b2d5823a8d75329cb77d7084bd17f97b438a0726f4f8e824984a0e91610c6d9185916001600160a01b0316906126c6565b60405180910390a150600480546001600160a01b0319166001600160a01b0392909216919091179055565b600b6020526000908152604090205460ff1681565b6005546000906001600160a01b03163314610cda5760405162461bcd60e51b815260040161026790612931565b846001600160a01b038116610d015760405162461bcd60e51b815260040161026790612b0b565b8383600c82604051610d139190612696565b908152602001604051809103902081604051610d2f9190612696565b9081526040519081900360200190205460ff1615610d5f5760405162461bcd60e51b8152600401610267906128b7565b6001600c87604051610d719190612696565b908152602001604051809103902086604051610d8d9190612696565b908152604051908190036020019020805491151560ff19909216919091179055600254610dba9088611a9e565b6002556001600160a01b038816600090815260086020526040902054610de09088611a9e565b6001600160a01b038916600081815260086020526040808220939093559151909190600080516020612d1b83398151915290610e1d908b90612bc3565b60405180910390a37f1b33ab12d041639db1acd2c2ad0509f0657641c3f69907ff8e92f2cfddd8e701600089898989604051610e5d9594939291906126e0565b60405180910390a1506001979650505050505050565b600881565b6000546001600160a01b0316331480610e9b57506001546001600160a01b031633145b610eb75760405162461bcd60e51b8152600401610267906129f3565b600781905560068290556040517f5cd59bcd6c1e50a230fbb0b72ec685bbc5d42ebedc1f24715bcd30371a571dc29061081e9084908490612bcc565b60075481565b600a6020526000908152604090205460ff1681565b600080546001600160a01b03163314610f395760405162461bcd60e51b815260040161026790612ae8565b816001600160a01b038116610f605760405162461bcd60e51b815260040161026790612b0b565b6005546040517f1cf2de25c5bf439ac0287061c3a0fa69b3b02867d0ccfd2ded34e42577050b7391610f9d9186916001600160a01b0316906126c6565b60405180910390a1600580546001600160a01b0385166001600160a01b03199091161790556001915050919050565b6003546001600160a01b031681565b6004546001600160a01b031681565b600080546001600160a01b031633148061100e57506001546001600160a01b031633145b61102a5760405162461bcd60e51b8152600401610267906129f3565b60005b83518110156111665760006001600160a01b031684828151811061106157634e487b7160e01b600052603260045260246000fd5b60200260200101516001600160a01b031614156110905760405162461bcd60e51b815260040161026790612b0b565b82600a60008684815181106110b557634e487b7160e01b600052603260045260246000fd5b60200260200101516001600160a01b03166001600160a01b0316815260200190815260200160002060006101000a81548160ff0219169083151502179055507f052749499d8e5b549127bad6ad1be0b0a43ea343a0e273935710862139ddfa8184828151811061113557634e487b7160e01b600052603260045260246000fd5b60200260200101518460405161114c929190612788565b60405180910390a18061115e81612cc2565b91505061102d565b5060019392505050565b6000610ae0338484611cd0565b6001600160a01b0381166000908152600b602052604081205460ff16806111bc57506001600160a01b0383166000908152600a602052604090205460ff165b156111c957506001610ae3565b506000610ae3565b60065481565b6001600160a01b0381166000908152600860205260409020545b919050565b600080546001600160a01b031633146112215760405162461bcd60e51b815260040161026790612ae8565b816001600160a01b0381166112485760405162461bcd60e51b815260040161026790612b0b565b6003546040517ffb23b3bd9bb06ef536416900877e413ae5f43e9cfade156caadd817ee44a51e7916112859186916001600160a01b0316906126c6565b60405180910390a1600380546001600160a01b0385166001600160a01b03199091161790556001915050919050565b8151602081840181018051600c82529282019482019490942091909352815180830184018051928152908401929093019190912091525460ff1681565b6000546001600160a01b0316331461131b5760405162461bcd60e51b815260040161026790612ae8565b8063075bcd151461133e5760405162461bcd60e51b815260040161026790612868565b600080546001600160a01b03191681556040517f4c19d31874b3f8325813d90efdd10758f703ab99b84367f07276ecd2cd69c95d9161137f913391906126c6565b60405180910390a150565b6000546001600160a01b031633146113b45760405162461bcd60e51b815260040161026790612ae8565b6001600160a01b0381166113da5760405162461bcd60e51b81526004016102679061288e565b600080546001600160a01b0319166001600160a01b0383811691909117918290556040517f4c19d31874b3f8325813d90efdd10758f703ab99b84367f07276ecd2cd69c95d9261137f9233929116906126c6565b600082518451146114515760405162461bcd60e51b815260040161026790612909565b60005b84518110156114d957600084828151811061147f57634e487b7160e01b600052603260045260246000fd5b6020026020010151905060008683815181106114ab57634e487b7160e01b600052603260045260246000fd5b602002602001015190506114c3338284600089611b47565b50505080806114d190612cc2565b915050611454565b50600190505b9392505050565b6000546001600160a01b031681565b6040518060400160405280600281526020016113d560f21b81525081565b6001546001600160a01b031681565b6000610ae0338484600080611b47565b6003546000906001600160a01b0316331461155f5760405162461bcd60e51b815260040161026790612ab1565b8282600c826040516115719190612696565b90815260200160405180910390208160405161158d9190612696565b9081526040519081900360200190205460ff16156115bd5760405162461bcd60e51b8152600401610267906128b7565b336000908152600860205260409020548611156115ec5760405162461bcd60e51b815260040161026790612990565b6001600c866040516115fe9190612696565b90815260200160405180910390208560405161161a9190612696565b9081526040805160209281900383019020805460ff191693151593909317909255336000908152600890915220546116529087611ca6565b3360009081526008602052604090205560025461166f9087611ca6565b6002556040516000903390600080516020612d1b83398151915290611695908a90612bc3565b60405180910390a37f1b33ab12d041639db1acd2c2ad0509f0657641c3f69907ff8e92f2cfddd8e7013360008888886040516116d59594939291906126e0565b60405180910390a150600195945050505050565b6000836116f68185610ad3565b1561176957604051638f4ffcb160e01b81526001600160a01b03821690638f4ffcb19061172d9033908890309089906004016127da565b600060405180830381600087803b15801561174757600080fd5b505af115801561175b573d6000803e3d6000fd5b5050505060019150506114df565b60009150506114df565b6000610ae3606461179560075461179560065487611dc990919063ffffffff16565b90611e0c565b6000610ae0338484611e19565b600080546001600160a01b03163314806117cc57506001546001600160a01b031633145b6117e85760405162461bcd60e51b8152600401610267906129f3565b60005b83518110156111665760006001600160a01b031684828151811061181f57634e487b7160e01b600052603260045260246000fd5b60200260200101516001600160a01b0316141561184e5760405162461bcd60e51b815260040161026790612b0b565b82600b600086848151811061187357634e487b7160e01b600052603260045260246000fd5b60200260200101516001600160a01b03166001600160a01b0316815260200190815260200160002060006101000a81548160ff0219169083151502179055507f052749499d8e5b549127bad6ad1be0b0a43ea343a0e273935710862139ddfa818482815181106118f357634e487b7160e01b600052603260045260246000fd5b60200260200101518460405161190a92919061274c565b60405180910390a18061191c81612cc2565b9150506117eb565b6000546001600160a01b0316331461194e5760405162461bcd60e51b815260040161026790612ae8565b600054611968906001600160a01b03848116911683611ea8565b5050565b6001600160a01b03918216600090815260096020908152604080832093909416825291909152205490565b600d6020526000908152604090205460ff1681565b6000546001600160a01b031633146119d65760405162461bcd60e51b815260040161026790612ae8565b806001600160a01b0381166119fd5760405162461bcd60e51b815260040161026790612b0b565b6001546040517f6449a5a44e51743e0691c9ad4086f669822fbd23f02d1963a16ca190bf0096d891611a3a9185916001600160a01b0316906126c6565b60405180910390a150600180546001600160a01b0319166001600160a01b0392909216919091179055565b6000813f7fc5d2460186f7233c927e7db2dcc703c0e500b653ca82273b7bfad8045d85a470818114801590610b27575050151592915050565b600080611aab8385612c28565b9050838110158015611abd5750828110155b610ae057634e487b7160e01b600052600160045260246000fd5b6001600160a01b0380841660008181526009602090815260408083209487168084529490915280822085905551909291907f8c5be1e5ebec7d5bd14f71427d1e84f3dd0314c0f7b2291e5b200ac8c7c3b92590611b35908690612bc3565b60405180910390a35060019392505050565b6000846001600160a01b038116611b705760405162461bcd60e51b815260040161026790612b0b565b848480611b825750611b82888861117d565b15611bd0576001600160a01b038816600090815260086020526040902054861115611bbf5760405162461bcd60e51b815260040161026790612990565b611bca888883611f31565b50611c9b565b6000611bdb87611773565b90508415611c2c576001600160a01b038916600090815260086020526040902054871115611c1b5760405162461bcd60e51b815260040161026790612990565b611c258782611ca6565b9150611c6d565b611c368782611a9e565b6001600160a01b038a166000908152600860205260409020541015611c6d5760405162461bcd60e51b815260040161026790612990565b8015611c8d57600454611c8b908a906001600160a01b031683611f31565b505b611c98898984611f31565b50505b610ac5888883611fc3565b600082821115611cc657634e487b7160e01b600052600160045260246000fd5b610ae08284612c7f565b6001600160a01b03808416600090815260096020908152604080832093861683529290529081205480831115611d2d576001600160a01b038086166000908152600960209081526040808320938816835292905290812055611d5e565b611d378184611ca6565b6001600160a01b038087166000908152600960209081526040808320938916835292905220555b6001600160a01b03858116600081815260096020908152604080832094891680845294909152908190205490517f8c5be1e5ebec7d5bd14f71427d1e84f3dd0314c0f7b2291e5b200ac8c7c3b92591611db691612bc3565b60405180910390a3506001949350505050565b600082611dd857506000610ae3565b6000611de48385612c60565b905082611df18583612c40565b14610ae057634e487b7160e01b600052600160045260246000fd5b600080610b278385612c40565b6001600160a01b038084166000908152600960209081526040808320938616835292905290812054611e4b9083611a9e565b6001600160a01b038581166000818152600960209081526040808320948916808452949091529081902084905551919290917f8c5be1e5ebec7d5bd14f71427d1e84f3dd0314c0f7b2291e5b200ac8c7c3b92591611b3591612bc3565b611eba836001600160a01b0316611a65565b611ed65760405162461bcd60e51b815260040161026790612b8c565b611f2c8363a9059cbb60e01b8484604051602401611ef59291906127c1565b60408051601f198184030181529190526020810180516001600160e01b03166001600160e01b03199093169290921790915261204c565b505050565b6001600160a01b038316600090815260086020526040812054611f549083611ca6565b6001600160a01b038086166000908152600860205260408082209390935590851681522054611f839083611a9e565b6001600160a01b038085166000818152600860205260409081902093909355915190861690600080516020612d1b83398151915290611b35908690612bc3565b6001600160a01b0382166000908152600d602052604090205460ff1615611f2c5760405163607705c560e11b815282906001600160a01b0382169063c0ee0b8a906120149087908690600401612817565b600060405180830381600087803b15801561202e57600080fd5b505af1158015612042573d6000803e3d6000fd5b5050505050505050565b600080836001600160a01b0316836040516120679190612696565b6000604051808303816000865af19150503d80600081146120a4576040519150601f19603f3d011682016040523d82523d6000602084013e6120a9565b606091505b5091509150816120cb5760405162461bcd60e51b8152600401610267906129be565b80511561210257808060200190518101906120e69190612554565b6121025760405162461bcd60e51b815260040161026790612b42565b50505050565b600067ffffffffffffffff83111561212257612122612cf3565b612135601f8401601f1916602001612bda565b905082815283838301111561214957600080fd5b828260208301376000602084830101529392505050565b80356001600160a01b03811681146111f157600080fd5b600082601f830112612187578081fd5b8135602061219c61219783612c04565b612bda565b82815281810190858301838502870184018810156121b8578586fd5b855b858110156121dd576121cb82612160565b845292840192908401906001016121ba565b5090979650505050505050565b600082601f8301126121fa578081fd5b8135602061220a61219783612c04565b8281528181019085830183850287018401881015612226578586fd5b855b858110156121dd57813584529284019290840190600101612228565b600082601f830112612254578081fd5b610ae083833560208501612108565b600060208284031215612274578081fd5b610ae082612160565b6000806040838503121561228f578081fd5b61229883612160565b91506122a660208401612160565b90509250929050565b6000806000606084860312156122c3578081fd5b6122cc84612160565b92506122da60208501612160565b9150604084013590509250925092565b600080604083850312156122fc578182fd5b61230583612160565b9150602083013561231581612d09565b809150509250929050565b60008060408385031215612332578182fd5b61233b83612160565b946020939093013593505050565b60008060006060848603121561235d578283fd5b61236684612160565b925060208401359150604084013567ffffffffffffffff811115612388578182fd5b8401601f81018613612398578182fd5b6123a786823560208401612108565b9150509250925092565b600080600080608085870312156123c6578081fd5b6123cf85612160565b935060208501359250604085013567ffffffffffffffff808211156123f2578283fd5b6123fe88838901612244565b93506060870135915080821115612413578283fd5b5061242087828801612244565b91505092959194509250565b600080600060608486031215612440578283fd5b833567ffffffffffffffff80821115612457578485fd5b61246387838801612177565b94506020860135915080821115612478578384fd5b50612485868287016121ea565b925050604084013561249681612d09565b809150509250925092565b600080600080608085870312156124b6578182fd5b843567ffffffffffffffff808211156124cd578384fd5b6124d988838901612177565b955060208701359150808211156124ee578384fd5b6124fa888389016121ea565b945060408701359150808211156123f2578384fd5b60008060408385031215612521578182fd5b823567ffffffffffffffff811115612537578283fd5b61254385828601612177565b925050602083013561231581612d09565b600060208284031215612565578081fd5b8151610ae081612d09565b60008060408385031215612582578182fd5b823567ffffffffffffffff80821115612599578384fd5b6125a586838701612244565b935060208501359150808211156125ba578283fd5b506125c785828601612244565b9150509250929050565b6000602082840312156125e2578081fd5b5035919050565b6000806000606084860312156125fd578081fd5b83359250602084013567ffffffffffffffff8082111561261b578283fd5b61262787838801612244565b9350604086013591508082111561263c578283fd5b506123a786828701612244565b6000806040838503121561265b578182fd5b50508035926020909101359150565b60008151808452612682816020860160208601612c96565b601f01601f19169290920160200192915050565b600082516126a8818460208701612c96565b9190910192915050565b6001600160a01b0391909116815260200190565b6001600160a01b0392831681529116602082015260400190565b6001600160a01b038681168252851660208201526040810184905260a0606082018190526000906127139083018561266a565b8281036080840152612725818561266a565b98975050505050505050565b6001600160a01b039290921682521515602082015260400190565b6001600160a01b039290921682521515602082015260606040820181905260099082015268149958da5c1a595b9d60ba1b608082015260a00190565b6001600160a01b03929092168252151560208201526060604082018190526006908201526529b2b73232b960d11b608082015260a00190565b6001600160a01b03929092168252602082015260400190565b6001600160a01b038581168252602082018590528316604082015260806060820181905260009061280d9083018461266a565b9695505050505050565b6001600160a01b03929092168252602082015260606040820181905260029082015261060f60f31b608082015260a00190565b901515815260200190565b600060208252610ae0602083018461266a565b6020808252600c908201526b496e76616c696420636f646560a01b604082015260600190565b6020808252600f908201526e496e76616c6964206164647265737360881b604082015260600190565b60208082526032908201527f536177746f6f7468206861736820616d64206f72646572496420636f6d62696e604082015271185d1a5bdb88185b1c9958591e481d5cd95960721b606082015260800190565b6020808252600e908201526d496e76616c696420706172616d7360901b604082015260600190565b6020808252601690820152751bdb9b1e481b5a5b9d195c881a5cc8185b1b1bddd95960521b604082015260600190565b602080825260159082015274125b9cdd59999a58da595b9d08185c1c1c9bdd985b605a1b604082015260600190565b602080825260149082015273496e73756666696369656e742062616c616e636560601b604082015260600190565b6020808252818101527f5361666545524332303a206c6f772d6c6576656c2063616c6c206661696c6564604082015260600190565b60208082526025908201527f4f6e6c79206f776e6572206f7220646570757479206f776e657220697320616c6040820152641b1bddd95960da1b606082015260800190565b6020808252601f908201527f436f6e747261637420646f6573206e6f74206163636570742065746865727300604082015260600190565b60208082526022908201527f4f6e6c7920636f6e747261637420616464726573732063616e20626520616464604082015261195960f21b606082015260800190565b6020808252601f908201527f6f6e6c792073757370656e73652077616c6c657420697320616c6c6f77656400604082015260600190565b6020808252600990820152682737ba1037bbb732b960b91b604082015260600190565b60208082526018908201527f5a65726f2061646472657373206e6f7420616c6c6f7765640000000000000000604082015260600190565b6020808252602a908201527f5361666545524332303a204552433230206f7065726174696f6e20646964206e6040820152691bdd081cdd58d8d9595960b21b606082015260800190565b6020808252601f908201527f5361666545524332303a2063616c6c20746f206e6f6e2d636f6e747261637400604082015260600190565b90815260200190565b918252602082015260400190565b60405181810167ffffffffffffffff81118282101715612bfc57612bfc612cf3565b604052919050565b600067ffffffffffffffff821115612c1e57612c1e612cf3565b5060209081020190565b60008219821115612c3b57612c3b612cdd565b500190565b600082612c5b57634e487b7160e01b81526012600452602481fd5b500490565b6000816000190483118215151615612c7a57612c7a612cdd565b500290565b600082821015612c9157612c91612cdd565b500390565b60005b83811015612cb1578181015183820152602001612c99565b838111156121025750506000910152565b6000600019821415612cd657612cd6612cdd565b5060010190565b634e487b7160e01b600052601160045260246000fd5b634e487b7160e01b600052604160045260246000fd5b8015158114612d1757600080fd5b5056feddf252ad1be2c89b69c2b068fc378daa952ba7f163c4a11628f55a4df523b3efa264697066735822122059d6a4ba31040be7b821a0ecd78328f90293c0cadcda0de492651ea29dc818e764736f6c63430008000033",
  "immutableReferences": {},
  "source": "// SPDX-License-Identifier: MIT\n\n/**\n\n* MIT License\n* ===========\n* \n* Copyright (c) 2020 OLegacy\n* \n* Permission is hereby granted, free of charge, to any person obtaining a copy\n* of this software and associated documentation files (the \"Software\"), to deal\n* in the Software without restriction, including without limitation the rights\n* to use, copy, modify, merge, publish, distribute, sublicense, and/or sell\n* copies of the Software, and to permit persons to whom the Software is\n* furnished to do so, subject to the following conditions:\n* \n* The above copyright notice and this permission notice shall be included in all\n* copies or substantial portions of the Software.\n* \n* THE SOFTWARE IS PROVIDED \"AS IS\", WITHOUT WARRANTY OF ANY KIND, EXPRESS OR\n* IMPLIED, INCLUDING BUT NOT LIMITED TO THE WARRANTIES OF MERCHANTABILITY,\n* FITNESS FOR A PARTICULAR PURPOSE AND NONINFRINGEMENT. IN NO EVENT SHALL THE\n* AUTHORS OR COPYRIGHT HOLDERS BE LIABLE FOR ANY CLAIM, DAMAGES OR OTHER\n* LIABILITY, WHETHER IN AN ACTION OF CONTRACT, TORT OR OTHERWISE, ARISING FROM,\n* OUT OF OR IN CONNECTION WITH THE SOFTWARE OR THE USE OR OTHER DEALINGS IN THE\n* SOFTWARE.\n*\n*/\n\npragma solidity 0.8.0;\n\nimport \"./Ownership.sol\";\nimport \"./Address.sol\";\nimport \"./ERC20Interface.sol\";\nimport \"./SafeERC20.sol\";\n\n\nlibrary SafeMath {\n    /**\n        The MIT License (MIT)\n\n        Copyright (c) 2016-2020 zOS Global Limited\n\n        Permission is hereby granted, free of charge, to any person obtaining\n        a copy of this software and associated documentation files (the\n        \"Software\"), to deal in the Software without restriction, including\n        without limitation the rights to use, copy, modify, merge, publish,\n        distribute, sublicense, and/or sell copies of the Software, and to\n        permit persons to whom the Software is furnished to do so, subject to\n        the following conditions:\n\n        The above copyright notice and this permission notice shall be included\n        in all copies or substantial portions of the Software.\n\n        THE SOFTWARE IS PROVIDED \"AS IS\", WITHOUT WARRANTY OF ANY KIND, EXPRESS\n        OR IMPLIED, INCLUDING BUT NOT LIMITED TO THE WARRANTIES OF\n        MERCHANTABILITY, FITNESS FOR A PARTICULAR PURPOSE AND NONINFRINGEMENT.\n        IN NO EVENT SHALL THE AUTHORS OR COPYRIGHT HOLDERS BE LIABLE FOR ANY\n        CLAIM, DAMAGES OR OTHER LIABILITY, WHETHER IN AN ACTION OF CONTRACT,\n        TORT OR OTHERWISE, ARISING FROM, OUT OF OR IN CONNECTION WITH THE\n        SOFTWARE OR THE USE OR OTHER DEALINGS IN THE SOFTWARE.\n    */\n\n\n    function mul(uint256 a, uint256 b) internal pure returns (uint256) {\n        if (a == 0) {\n            return 0;\n        }\n        uint256 c = a * b;\n        assert(c / a == b);\n        return c;\n    }\n    function div(uint256 a, uint256 b) internal pure returns (uint256) {\n        // assert(b > 0); // Solidity automatically throws when dividing by 0\n        uint256 c = a / b;\n        // assert(a == b * c + a % b); // There is no case in which this doesn't hold\n        return c;\n    }\n\n    function sub(uint256 a, uint256 b) internal pure returns (uint256) {\n        assert(b <= a);\n        return a - b;\n    }\n\n    function add(uint256 a, uint256 b) internal pure returns (uint256) {\n        uint256 c = a + b;\n        assert(c >= a && c >= b);\n        return c;\n    }\n}\n\n\ninterface TokenRecipient {\n    function receiveApproval(address _from, uint256 _value, address _token, bytes calldata _extraData) external; \n    function tokenFallback(address _from, uint256 _value, bytes calldata _data) external;\n}\n\n/**\n * @title OToken\n * @author OLegacy\n */\ncontract OToken is ERC20Interface, Ownership {\n\n    using SafeMath for uint256;\n    using Address for address;\n    using SafeERC20 for ERC20Interface;\n\n    // State variables\n    string public constant name = 'O Token'; // Name of token\n    string public constant symbol = 'OT';  // Symbol of token\n    uint256 public constant decimals = 8; // Decimals in token\n    address public deputyOwner; // to perform tasks on behalf of owner in automated applications\n    uint256 public totalSupply = 0; // initially totalSupply 0\n\n    // external wallet addresses\n    address public suspenseWallet; // the contract resposible for burning tokens\n    address public centralRevenueWallet; // platform wallet to collect commission\n    address public minter; // adddress of minter\n\n    // to hold commissions on each token transfer\n    uint256 public commission_numerator; // commission percentage numerator\n    uint256 public commission_denominator;// commission percentage denominator\n\n    // mappings\n    mapping (address => uint256) balances; // balances mapping to hold OT balance of address\n    mapping (address => mapping (address => uint256) ) allowed; // mapping to hold allowances\n\n    mapping (address => bool) public isTaxFreeSender; // tokens transferred from these users won't be taxed\n    mapping (address => bool) public isTaxFreeRecipeint; // if token transferred to these addresses won't be taxed\n    mapping (string => mapping(string => bool)) public sawtoothHashMapping;\n    mapping (address => bool) public trustedContracts; // contracts on which tokenFallback will be called\n\n    // events\n    event MintOrBurn(address _from, address to, uint256 _token, string sawtoothHash, string orderId );\n    event CommssionUpdate(uint256 _numerator, uint256 _denominator);\n    event TaxFreeUserUpdate(address _user, bool _isWhitelisted, string _type);\n    event TrustedContractUpdate(address _contractAddress, bool _isActive);\n    event MinterUpdated(address _newMinter, address _oldMinter);\n    event SuspenseWalletUpdated(address _newSuspenseWallet, address _oldSuspenseWallet);\n    event DeputyOwnerUpdated(address _oldOwner, address _newOwner);\n    event CRWUpdated(address _newCRW, address _oldCRW);\n\n    constructor (address _minter, address _crw, address _newDeputyOwner)\n        public\n        onlyNonZeroAddress(_minter)\n        onlyNonZeroAddress(_crw)\n        onlyNonZeroAddress(_newDeputyOwner)\n    {\n        owner = msg.sender; // set owner address to be msg.sender\n        minter = _minter; // set minter address\n        centralRevenueWallet = _crw; // set central revenue wallet address\n        deputyOwner = _newDeputyOwner; // set deputy owner\n        commission_numerator = 1; // set commission\n        commission_denominator = 100;\n        // emit proper events\n        emit MinterUpdated(_minter, address(0));\n        emit CRWUpdated(_crw, address(0));\n        emit DeputyOwnerUpdated(_newDeputyOwner, address(0));\n        emit CommssionUpdate(1, 100);\n    }\n\n\n    // Modifiers\n    modifier canBurn() {\n        require(msg.sender == suspenseWallet, \"only suspense wallet is allowed\");\n        _;\n    }\n\n    modifier onlyMinter() {\n        require(msg.sender == minter,\"only minter is allowed\");\n        _;\n    }\n\n    modifier onlyDeputyOrOwner() {\n        require(msg.sender == owner || msg.sender == deputyOwner, \"Only owner or deputy owner is allowed\");\n        _;\n    }\n\n    modifier onlyNonZeroAddress(address _user) {\n        require(_user != address(0), \"Zero address not allowed\");\n        _;\n    }\n\n    modifier onlyValidSawtoothEntry(string memory _sawtoothHash, string memory _orderId) {\n        require(!sawtoothHashMapping[_sawtoothHash][_orderId], \"Sawtooth hash amd orderId combination already used\");\n        _;\n    }\n \n \n    ////////////////////////////////////////////////////////////////\n    //                  Public Functions\n    ////////////////////////////////////////////////////////////////\n\n    /**\n     * @notice Standard transfer function to Transfer token\n     * @dev The commission will be charged on top of _value\n     * @param _to recipient address\n     * @param _value amount of tokens to be transferred to recipient\n     * @return Bool value\n     */ \n    function transfer(address _to, uint256 _value) public override returns (bool) {\n        return privateTransfer(msg.sender, _to, _value, false, false); // internal method\n    }\n\n    /**\n     * @notice Alternate method to standard transfer with fee deducted from transfer amount\n     * @dev The commission will be deducted from _value\n     * @param _to recipient address\n     * @param _value amount of tokens to be transferred to recipient\n     * @return Bool value\n     */ \n    function transferIncludingFee(address _to, uint256 _value)\n        public\n        onlyNonZeroAddress(_to)\n        returns(bool)\n    {\n        return privateTransfer(msg.sender, _to, _value, false, true);\n    }\n\n    /**\n     * @notice Bulk transfer\n     * @dev The commission will be charged on top of _value\n     * @param _addressArr array of recipient address\n     * @param _amountArr array of amounts corresponding to index on _addressArr\n     * @param _includingFees Denotes if fee should be deducted from amount or added to amount\n     * @return Bool value\n     */ \n    function bulkTransfer (address[] memory _addressArr, uint256[] memory _amountArr, bool _includingFees) public returns (bool) {\n        require(_addressArr.length == _amountArr.length, \"Invalid params\");\n        for(uint256 i = 0 ; i < _addressArr.length; i++){\n            uint256 _value = _amountArr[i];\n            address _to = _addressArr[i];\n            privateTransfer(msg.sender, _to, _value, false, _includingFees); // internal method\n        }\n        return true;\n    }\n    \n    /**\n     * @notice Standard Approve function\n     * @dev This suffers from race condition. Use increaseApproval/decreaseApproval instead\n     * @param _spender The user which is allowed to spend on behalf of msg.sender\n     * @param _value amount of token allowed\n     * @return Bool value\n     */ \n    function approve(address _spender, uint256 _value) public override  returns (bool) {\n        return _approve(msg.sender, _spender, _value);\n    }\n\n    /**\n     * @notice Increase allowance\n     * @param _spender The user which is allowed to spend on behalf of msg.sender\n     * @param _addedValue amount by which allowance needs to be increased\n     * @return Bool value\n     */ \n    function increaseApproval(address _spender, uint256 _addedValue) public returns (bool) {\n       return _increaseApproval(msg.sender, _spender, _addedValue);\n    }\n  \n    /**\n     * @notice Decrease allowance\n     * @dev if the _subtractedValue is more than previous allowance, allowance will be set to 0\n     * @param _spender The user which is allowed to spend on behalf of msg.sender\n     * @param _subtractedValue amount by which allowance needs to be decreases\n     * @return Bool value\n     */ \n    function decreaseApproval (address _spender, uint256 _subtractedValue) public returns (bool) {\n        return _decreaseApproval(msg.sender, _spender, _subtractedValue);\n    }\n    \n    /**\n     * @notice Approve and call\n     * @param _spender The user which is allowed to spend on behalf of msg.sender\n     * @param _value amount of token allowed\n     * @param _extraData The extra data that will be send to recipient contract\n     * @return Bool value\n     */ \n    function approveAndCall(address _spender, uint256 _value, bytes memory _extraData) public returns (bool) {\n        TokenRecipient spender = TokenRecipient(_spender);\n        if (approve(_spender, _value)) {\n                spender.receiveApproval(msg.sender, _value, address(this), _extraData);\n                return true;\n        }else{\n            return false;\n        }\n    }\n\n    /**\n     * @notice Standard transferFrom. Send tokens on behalf of spender\n     * @dev from must have allowed msg.sender atleast _value to spend\n     * @param _from Spender which has allowed msg.sender to spend on his behalf\n     * @param _to Recipient to which tokens are to be transferred\n     * @param _value The amount of token that will be transferred\n     * @return Bool value\n     */ \n    function transferFrom(address _from, address _to, uint256 _value) override public returns (bool) {\n        require(_value <= allowed[_from][msg.sender] ,\"Insufficient approval\");\n        allowed[_from][msg.sender] = allowed[_from][msg.sender].sub(_value);\n        privateTransfer(_from, _to, _value, false, false);\n    }\n\n\n   \n    ////////////////////////////////////////////////////////////////\n    //                  Special User functions\n    ////////////////////////////////////////////////////////////////\n    /**\n     * @notice Mint function.\n     * @dev Only minter address is allowed to mint\n     * @param _to The address to which tokens will be minted\n     * @param _value No of tokens to be minted\n     * @param _sawtoothHash The hash on sawtooth blockchain to track complete token generation cycle\n     * @return Bool value\n     */\n    function mint(address _to, uint256 _value, string memory _sawtoothHash, string memory _orderId)\n        public\n        onlyMinter\n        onlyNonZeroAddress(_to)\n        onlyValidSawtoothEntry(_sawtoothHash, _orderId)\n        returns (bool)\n    {\n        sawtoothHashMapping[_sawtoothHash][_orderId] = true;\n        totalSupply = totalSupply.add(_value);\n        balances[_to] = balances[_to].add(_value);\n        emit Transfer(address(0), _to, _value);\n        emit MintOrBurn(address(0), _to, _value, _sawtoothHash, _orderId);\n        return true;\n\n    }\n\n    /**\n     * @notice Bulk Mint function.\n     * @dev Only minter address is allowed to mint\n     * @param _addressArr The array of address to which tokens will be minted\n     * @param _amountArr The array of tokens that will be minted\n     * @param _sawtoothHash The hash on sawtooth blockchain to track complete token generation cycle\n     * @param _orderId The id of order in sawtooth blockchain\n     * @return Bool value\n     */\n    function bulkMint (address[] memory _addressArr, uint256[] memory _amountArr, string memory _sawtoothHash, string memory _orderId)\n        public\n        onlyMinter\n        onlyValidSawtoothEntry(_sawtoothHash, _orderId)\n        returns (bool)\n    {\n        require(_addressArr.length == _amountArr.length, \"Invalid params\");\n        for(uint256 i = 0; i < _addressArr.length; i++){\n            uint256 _value = _amountArr[i];\n            address _to = _addressArr[i];\n            \n            require(_to != address(0),\"Zero address not allowed\");\n            totalSupply = totalSupply.add(_value);\n            balances[_to] = balances[_to].add(_value);\n            sawtoothHashMapping[_sawtoothHash][_orderId] = true;\n            emit Transfer(address(0), _to, _value);\n            emit MintOrBurn(address(0), _to, _value, _sawtoothHash, _orderId);\n        }\n        return true;\n\n    }\n\n    /**\n     * @notice Standard burn function.\n     * @dev Only address allowd can burn\n     * @param _value No of tokens to be burned\n     * @param _sawtoothHash The hash on sawtooth blockchain to track gold withdrawal\n     * @param _orderId The id of order in sawtooth blockchain\n     * @return Bool value\n     */\n    function burn(uint256 _value, string memory _sawtoothHash, string memory _orderId)\n        public\n        canBurn\n        onlyValidSawtoothEntry(_sawtoothHash, _orderId)\n        returns (bool)\n    {\n        require(balances[msg.sender] >= _value, \"Insufficient balance\");\n        sawtoothHashMapping[_sawtoothHash][_orderId] = true;\n        balances[msg.sender] = balances[msg.sender].sub(_value);\n        totalSupply = totalSupply.sub(_value);\n        emit Transfer(msg.sender, address(0), _value);\n        emit MintOrBurn(msg.sender, address(0), _value, _sawtoothHash, _orderId);\n        return true;\n    }\n\n    /**\n     * @notice Add/Remove a whitelisted recipient. Token transfer to this address won't be taxed\n     * @dev Only Deputy owner can call\n     * @param _users The array of addresses to be whitelisted/blacklisted\n     * @param _isSpecial true means user will be added; false means user will be removed\n     * @return Bool value\n     */\n    function updateTaxFreeRecipient(address[] memory _users, bool _isSpecial)\n        public\n        onlyDeputyOrOwner\n        returns (bool)\n    {\n        for(uint256 i=0; i<_users.length; i++) {\n            require(_users[i] != address(0), \"Zero address not allowed\");\n            isTaxFreeRecipeint[_users[i]] = _isSpecial;\n            emit TaxFreeUserUpdate(_users[i], _isSpecial, 'Recipient');\n        }\n        \n        return true;\n    }\n\n    /**\n     * @notice Add/Remove a whitelisted sender. Token transfer from this address won't be taxed\n     * @dev Only Deputy owner can call\n     * @param _users The array of addresses to be whitelisted/blacklisted\n     * @param _isSpecial true means user will be added; false means user will be removed\n     * @return Bool value\n     */\n    function updateTaxFreeSender(address[] memory _users, bool _isSpecial)\n        public\n        onlyDeputyOrOwner\n        returns (bool)\n    {\n        for(uint256 i=0; i<_users.length; i++) {\n            require(_users[i] != address(0), \"Zero address not allowed\");\n            isTaxFreeSender[_users[i]] = _isSpecial;\n            emit TaxFreeUserUpdate(_users[i], _isSpecial, 'Sender');\n        }\n        return true;\n    }\n\n    ////////////////////////////////////////////////////////////////\n    //                  Only Owner functions\n    ////////////////////////////////////////////////////////////////\n\n    /**\n     * @notice Add Suspense wallet address. This can be updated again in case of suspense contract is upgraded.\n     * @dev Only owner can call\n     * @param _suspenseWallet The address suspense wallet\n     * @return Bool value\n     */\n    function addSuspenseWallet(address _suspenseWallet)\n        public\n        onlyOwner\n        onlyNonZeroAddress(_suspenseWallet)\n        returns (bool)\n    {\n        emit SuspenseWalletUpdated(_suspenseWallet, suspenseWallet);\n        suspenseWallet = _suspenseWallet;\n        return true;\n    }\n\n    /**\n     * @notice Add Minter wallet address. This address will be responsible for minting tokens\n     * @dev Only owner can call\n     * @param _minter The address of minter wallet\n     * @return Bool value\n     */\n    function updateMinter(address _minter)\n        public\n        onlyOwner\n        onlyNonZeroAddress(_minter)\n        returns (bool)\n    {\n        emit MinterUpdated(_minter, minter);\n        minter = _minter;\n        return true;\n    }\n\n    /**\n     * @notice Add/Remove trusted contracts. The trusted contracts will be notified in case of tokens are transferred to them\n     * @dev Only owner can call and only contract address can be added\n     * @param _contractAddress The address of trusted contract\n     * @param _isActive true means whitelited; false means blackkisted\n     */\n    function addTrustedContracts(address _contractAddress, bool _isActive) public onlyDeputyOrOwner {\n        require(_contractAddress.isContract(), \"Only contract address can be added\");\n        trustedContracts[_contractAddress] = _isActive;\n        emit TrustedContractUpdate(_contractAddress, _isActive);\n    }\n\n    /**\n     * @notice Update commission to be charged on each token transfer\n     * @dev Only owner can call\n     * @param _numerator The numerator of commission\n     * @param _denominator The denominator of commission\n     */\n    function updateCommssion(uint256 _numerator, uint256 _denominator)\n        public\n        onlyDeputyOrOwner\n    {\n        commission_denominator = _denominator;\n        commission_numerator = _numerator;\n        emit CommssionUpdate(_numerator, _denominator);\n    }\n\n    /**\n     * @notice Update deputy owner. The Hot wallet version of owner\n     * @dev Only owner can call\n     * @param _newDeputyOwner The address of new deputy owner\n     */\n    function updateDeputyOwner(address _newDeputyOwner)\n        public\n        onlyOwner\n        onlyNonZeroAddress(_newDeputyOwner)\n    {\n        emit DeputyOwnerUpdated(_newDeputyOwner, deputyOwner);\n        deputyOwner = _newDeputyOwner;\n    }\n\n\n    /**\n     * @notice Update central revenue wallet\n     * @dev Only owner can call\n     * @param _newCrw The address of new central revenue wallet\n     */\n    function updateCRW(address _newCrw)\n        public\n        onlyOwner\n        onlyNonZeroAddress(_newCrw)\n    {\n        emit CRWUpdated(_newCrw, centralRevenueWallet);\n        centralRevenueWallet = _newCrw;\n    }\n\n    /**\n     * @notice  Owner can transfer out any accidentally sent ERC20 tokens\n     * @param _tokenAddress The contract address of ERC-20 compitable token\n     * @param _value The number of tokens to be transferred to owner\n     */\n    function transferAnyERC20Token(address _tokenAddress, uint256 _value) public onlyOwner {\n        ERC20Interface(_tokenAddress).safeTransfer(owner, _value);\n    }\n\n\n\n    ////////////////////////////////////////////////////////////////\n    //                  Internal/ Private methods\n    ////////////////////////////////////////////////////////////////\n\n    /**\n     * @notice Internal method to handle transfer logic\n     * @dev Notifies recipient, if recipient is a trusted contract\n     * @param _from Sender address\n     * @param _to Recipient address\n     * @param _amount amount of tokens to be transferred\n     * @param _withoutFees If true, commission will not be charged\n     * @param _includingFees Denotes if fee should be deducted from amount or added to amount\n     * @return bool\n     */\n    function privateTransfer(address _from, address _to, uint256 _amount, bool _withoutFees, bool _includingFees)\n        internal\n        onlyNonZeroAddress(_to)\n        returns (bool)\n    {\n        uint256 _amountToTransfer = _amount;\n        if(_withoutFees || isTaxFreeTx(_from, _to)) {\n            require(balances[_from] >= _amount, \"Insufficient balance\");\n            _transferWithoutFee(_from, _to, _amountToTransfer);\n        } else {\n            uint256 fee = calculateCommission(_amount);\n\n            if(_includingFees) {\n                require(balances[_from] >= _amount, \"Insufficient balance\");\n                _amountToTransfer = _amount.sub(fee);\n            } else {\n                require(balances[_from] >= _amount.add(fee), \"Insufficient balance\");\n            }\n            if(fee > 0 ) _transferWithoutFee(_from, centralRevenueWallet, fee);\n            _transferWithoutFee(_from, _to, _amountToTransfer);\n        }\n        notifyTrustedContract(_from, _to, _amountToTransfer);\n        return true;\n    }\n\n\n    /**\n     * @notice Internal method to facilitate token approval\n     * @param _sender The user which allows _spender to spend on his behalf\n     * @param _spender The user which is allowed to spend on behalf of msg.sender\n     * @param _value amount of token allowed\n     * @return Bool value\n     */ \n    function _approve(address _sender, address _spender, uint256 _value)\n        internal returns (bool)\n    {\n        allowed[_sender][_spender] = _value;\n        emit Approval (_sender, _spender, _value);\n        return true;\n    }\n\n   /**\n     * @notice Internal method to Increase allowance\n     * @param _sender The user which allows _spender to spend on his behalf\n     * @param _spender The user which is allowed to spend on behalf of msg.sender\n     * @param _addedValue amount by which allowance needs to be increased\n     * @return Bool value\n     */ \n    function _increaseApproval(address _sender, address _spender, uint256 _addedValue)\n        internal returns (bool)\n    {\n        allowed[_sender][_spender] = allowed[_sender][_spender].add(_addedValue);\n        emit Approval(_sender, _spender, allowed[_sender][_spender]);\n        return true;\n    }\n\n    /**\n     * @notice Internal method to Decrease allowance\n     * @dev if the _subtractedValue is more than previous allowance, allowance will be set to 0\n     * @param _sender The user which allows _spender to spend on his behalf\n     * @param _spender The user which is allowed to spend on behalf of msg.sender\n     * @param _subtractedValue amount by which allowance needs to be decreases\n     * @return Bool value\n     */\n    function _decreaseApproval (address _sender, address _spender, uint256 _subtractedValue )\n        internal returns (bool)\n    {\n        uint256 oldValue = allowed[_sender][_spender];\n        if (_subtractedValue > oldValue) {\n            allowed[_sender][_spender] = 0;\n        } else {\n            allowed[_sender][_spender] = oldValue.sub(_subtractedValue);\n        }\n        emit Approval(_sender, _spender, allowed[_sender][_spender]);\n        return true;\n    }\n\n    /**\n     * @notice Internal method to transfer tokens without commission\n     * @param _from Sender address\n     * @param _to Recipient address\n     * @param _amount amount of tokens to be transferred\n     * @return Bool value\n     */\n    function _transferWithoutFee(address _from, address _to, uint256 _amount)\n        private\n        returns (bool)\n    {\n        balances[_from] = balances[_from].sub(_amount);\n        balances[_to] = balances[_to].add(_amount);\n        emit Transfer(_from, _to, _amount);\n        return true;\n    }\n\n\n    /**\n     * @notice Notifies recipient about transfer only if recipient is trused contract\n     * @param _from Sender address\n     * @param _to Recipient contract address\n     * @param _value amount of tokens to be transferred\n     */\n    function notifyTrustedContract(address _from, address _to, uint256 _value) internal {\n        // if the contract is trusted, notify it about the transfer\n        if(trustedContracts[_to]) {\n            TokenRecipient trustedContract = TokenRecipient(_to);\n            trustedContract.tokenFallback(_from, _value, '0x');\n        }\n\n    }\n\n    ////////////////////////////////////////////////////////////////\n    //                  Public View functions\n    ////////////////////////////////////////////////////////////////\n\n  \n    /**\n     * @notice Get allowance from token owner to spender\n     * @param _tokenOwner The token owner\n     * @param _spender The user which is allowed to spend\n     */\n    function allowance(address _tokenOwner, address _spender) override public view returns (uint256 remaining) {\n        return allowed[_tokenOwner][_spender];\n    }\n\n\n    /**\n     * @notice Get balance of user\n     * @param _tokenOwner User address\n     */\n    function balanceOf(address _tokenOwner) override public view returns (uint256 balance) {\n        return balances[_tokenOwner];\n    }\n\n    /**\n     * @notice check transer fee\n     * @dev Does not checks if sender/recipient is whitelisted\n     * @param _amount The intended amount of transfer\n     */\n    function calculateCommission(uint256 _amount) public view returns (uint256) {\n        return _amount.mul(commission_numerator).div(commission_denominator).div(100);\n    }\n\n    /**\n     * @notice Checks if transfer between parties will be taxed or not\n     * @param _from Sender address\n     * @param _to Recipient address\n     * @return bool true if no commission will be charged\n     */\n    function isTaxFreeTx(address _from, address _to) public view returns(bool) {\n        if(isTaxFreeRecipeint[_to] || isTaxFreeSender[_from]) return true;\n        else return false;\n    }\n\n    /**\n     * @notice Prevents contract from accepting ETHs\n     * @dev Contracts can still be sent ETH with self destruct. If anyone deliberately does that, the ETHs will be lost\n     */\n    receive () external payable {\n        revert(\"Contract does not accept ethers\");\n    }\n}\n\n\n/**\n * @title AdvancedOToken\n * @author OLegacy\n */    \ncontract AdvancedOToken is OToken {\n    mapping(address => mapping(bytes32 => bool)) public tokenUsed; // mapping to track token is used or not\n    \n    bytes4 public methodWord_transfer = bytes4(keccak256(\"transfer(address,uint256)\"));\n    bytes4 public methodWord_approve = bytes4(keccak256(\"approve(address,uint256)\"));\n    bytes4 public methodWord_increaseApproval = bytes4(keccak256(\"increaseApproval(address,uint256)\"));\n    bytes4 public methodWord_decreaseApproval = bytes4(keccak256(\"decreaseApproval(address,uint256)\"));\n\n\n    constructor(address minter, address crw, address deputyOwner) public OToken(minter, crw, deputyOwner) {\n    }\n\n    /**\n    * @dev ID of the executing chain\n    * @return uint value\n\n     */\n    function getChainID() public view returns (uint256) {\n        uint256 id;\n        assembly {\n            id := chainid()\n        }\n        return id;\n    }\n\n    /**\n     * @notice Delegated Bulk transfer. Gas fee will be paid by relayer\n     * @param message The message that user signed\n     * @param r Signature component\n     * @param s Signature component\n     * @param v Signature component\n     * @param token The unique token for each delegated function\n     * @param networkFee The fee that will be paid to relayer for gas fee he spends\n     * @param _addressArr The array of recipients\n     * @param _amountArr The array of amounts to be transferred\n     * @param _includingFees Denotes if fee should be deducted from amount or added to amount\n     * @return Bool value\n     */\n    function preAuthorizedBulkTransfer(\n        bytes32 message, bytes32 r, bytes32 s, uint8 v, bytes32 token, uint256 networkFee, address[] memory _addressArr,\n        uint256[] memory _amountArr, bool _includingFees )\n        public\n        returns (bool)\n    {\n        require(_addressArr.length == _amountArr.length, \"Invalid params\");\n\n        bytes32 proof = getProofBulkTransfer(\n            token, networkFee, msg.sender, _addressArr, _amountArr, _includingFees\n        );\n       \n        address signer = preAuthValidations(proof, message, token, r, s, v);\n\n        // Deduct network fee if broadcaster charges network fee\n        if (networkFee > 0) {\n            privateTransfer(signer, msg.sender, networkFee, true, false);\n        }\n        // Execute original transfer function\n\n        for(uint256 i = 0; i < _addressArr.length; i++){\n            uint256 _value = _amountArr[i];\n            address _to = _addressArr[i];\n            privateTransfer(signer, _to, _value, false, _includingFees);\n        }\n\n        return true;\n\n    }\n\n    /**\n     * @notice Delegated transfer. Gas fee will be paid by relayer\n     * @param message The message that user signed\n     * @param r Signature component\n     * @param s Signature component\n     * @param v Signature component\n     * @param token The unique token for each delegated function\n     * @param networkFee The fee that will be paid to relayer for gas fee he spends\n     * @param to The recipient address\n     * @param amount The amount to be transferred\n     * @param includingFees Denotes if fee should be deducted from amount or added to amount\n     */\n    function preAuthorizedTransfer(\n        bytes32 message, bytes32 r, bytes32 s, uint8 v, bytes32 token, uint256 networkFee, address to, uint256 amount, bool includingFees)\n        public\n    {\n\n        bytes32 proof = getProofTransfer(methodWord_transfer, token, networkFee, msg.sender, to, amount, includingFees);\n        address signer = preAuthValidations(proof, message, token, r, s, v);\n\n        // Deduct network fee if broadcaster charges network fee\n        if (networkFee > 0) {\n            privateTransfer(signer, msg.sender, networkFee, true, false);\n        }\n\n        privateTransfer(signer, to, amount, false, includingFees);\n        \n    }\n\n    /**\n     * @notice Delegated approval. Gas fee will be paid by relayer\n     * @dev Only approve, increaseApproval and decreaseApproval can be delegated\n     * @param message The message that user signed\n     * @param r Signature component\n     * @param s Signature component\n     * @param v Signature component\n     * @param token The unique token for each delegated function\n     * @param networkFee The fee that will be paid to relayer for gas fee he spends\n     * @param to The spender address\n     * @param amount The amount to be allowed\n     * @return Bool value\n     */\n    function preAuthorizedApproval(\n        bytes4 methodHash, bytes32 message, bytes32 r, bytes32 s, uint8 v, bytes32 token, uint256 networkFee, address to, uint256 amount)\n        public\n        returns (bool)\n    {\n        bytes32 proof = getProofApproval (methodHash, token, networkFee, msg.sender, to, amount);\n        address signer = preAuthValidations(proof, message, token, r, s, v);\n\n        // Perform approval\n        if(methodHash == methodWord_approve) return _approve(signer, to, amount);\n        else if(methodHash == methodWord_increaseApproval) return _increaseApproval(signer, to, amount);\n        else if(methodHash == methodWord_decreaseApproval) return _decreaseApproval(signer, to, amount);\n    }\n\n    /**\n     * @notice Validates the message and signature\n     * @param proof The message that was expected to be signed by user\n     * @param message The message that user signed\n     * @param r Signature component\n     * @param s Signature component\n     * @param v Signature component\n     * @param token The unique token for each delegated function\n     * @return address Signer of message\n     */\n    function preAuthValidations(bytes32 proof, bytes32 message, bytes32 token, bytes32 r, bytes32 s, uint8 v)\n        private\n        returns(address)\n    {\n        address signer = getSigner(message, r, s, v);\n        require(signer != address(0),\"Zero address not allowed\");\n        require(!tokenUsed[signer][token],\"Token already used\");\n        require(proof == message, \"Invalid proof\");\n        tokenUsed[signer][token] = true;\n        return signer;\n    }\n\n    \n    /**\n     * @notice Find signer\n     * @param message The message that user signed\n     * @param r Signature component\n     * @param s Signature component\n     * @param v Signature component\n     * @return address Signer of message\n     */\n    function getSigner(bytes32 message, bytes32 r, bytes32 s, uint8 v)\n        public\n        pure\n        returns (address)\n    {\n        bytes memory prefix = \"\\x19Ethereum Signed Message:\\n32\";\n        bytes32 prefixedHash = keccak256(abi.encodePacked(prefix, message));\n        address signer = ecrecover(prefixedHash, v, r, s);\n        return signer;\n    }\n\n    \n    /**\n     * @notice The message to be signed in case of delegated bulk transfer\n     * @param token The unique token for each delegated function\n     * @param networkFee The fee that will be paid to relayer for gas fee he spends\n     * @param _addressArr The array of recipients\n     * @param _amountArr The array of amounts to be transferred\n     * @param _includingFees Denotes if fee should be deducted from amount or added to amount\n     * @return Bool value\n     */\n    function getProofBulkTransfer(bytes32 token, uint256 networkFee, address broadcaster, address[] memory _addressArr, uint256[] memory _amountArr, bool _includingFees)\n        public\n        view\n        returns (bytes32)\n    {\n        bytes32 proof = keccak256(abi.encodePacked(\n            getChainID(),\n            bytes4(methodWord_transfer),\n            address(this),\n            token,\n            networkFee,\n            broadcaster,\n            _addressArr,\n            _amountArr,\n            _includingFees\n        ));\n        return proof;\n    }\n\n\n\n    /**\n     * @notice Get the message to be signed in case of delegated transfer/approvals\n     * @param methodHash The method hash for which delegate action in to be performed\n     * @param token The unique token for each delegated function\n     * @param networkFee The fee that will be paid to relayer for gas fee he spends\n     * @param to The recipient or spender\n     * @param amount The amount to be approved\n     * @return Bool value\n     */\n    function getProofApproval(bytes4 methodHash, bytes32 token, uint256 networkFee, address broadcaster, address to, uint256 amount)\n        public\n        view\n        returns (bytes32)\n    {\n        require(\n            methodHash == methodWord_approve ||\n            methodHash == methodWord_increaseApproval ||\n            methodHash == methodWord_decreaseApproval,\n            \"Method not supported\");\n        bytes32 proof = keccak256(abi.encodePacked(\n            getChainID(),\n            bytes4(methodHash),\n            address(this),\n            token,\n            networkFee,\n            broadcaster,\n            to,\n            amount\n        ));\n        return proof;\n    }\n\n    /**\n     * @notice Get the message to be signed in case of delegated transfer/approvals\n     * @param methodHash The method hash for which delegate action in to be performed\n     * @param token The unique token for each delegated function\n     * @param networkFee The fee that will be paid to relayer for gas fee he spends\n     * @param to The recipient or spender\n     * @param amount The amount to be transferred\n     * @param includingFees Denotes if fee should be deducted from amount or added to amount\n     * @return Bool value\n     */\n    function getProofTransfer(bytes4 methodHash, bytes32 token, uint256 networkFee, address broadcaster, address to, uint256 amount, bool includingFees)\n        public\n        view\n        returns (bytes32)\n    {\n        require(methodHash == methodWord_transfer, \"Method not supported\");\n        bytes32 proof = keccak256(abi.encodePacked(\n            getChainID(),\n            bytes4(methodHash),\n            address(this),\n            token,\n            networkFee,\n            broadcaster,\n            to,\n            amount,\n            includingFees\n        ));\n        return proof;\n    }\n\n   \n\n}",
  "sourcePath": "/home/prashant/projects/z-token-smartcontract/contracts/OT_contracts/OToken.sol",
  "compiler": {
    "name": "solc",
    "version": "0.8.0+commit.c7dfd78e.Emscripten.clang"
  },
  "schemaVersion": "3.4.1",
  "updatedAt": "2021-09-06T16:44:45.888Z",
  "devdoc": {
    "author": "OLegacy",
    "kind": "dev",
    "methods": {
      "addSuspenseWallet(address)": {
        "details": "Only owner can call",
        "params": {
          "_suspenseWallet": "The address suspense wallet"
        },
        "returns": {
          "_0": "Bool value"
        }
      },
      "addTrustedContracts(address,bool)": {
        "details": "Only owner can call and only contract address can be added",
        "params": {
          "_contractAddress": "The address of trusted contract",
          "_isActive": "true means whitelited; false means blackkisted"
        }
      },
      "allowance(address,address)": {
        "params": {
          "_spender": "The user which is allowed to spend",
          "_tokenOwner": "The token owner"
        }
      },
      "approve(address,uint256)": {
        "details": "This suffers from race condition. Use increaseApproval/decreaseApproval instead",
        "params": {
          "_spender": "The user which is allowed to spend on behalf of msg.sender",
          "_value": "amount of token allowed"
        },
        "returns": {
          "_0": "Bool value"
        }
      },
      "approveAndCall(address,uint256,bytes)": {
        "params": {
          "_extraData": "The extra data that will be send to recipient contract",
          "_spender": "The user which is allowed to spend on behalf of msg.sender",
          "_value": "amount of token allowed"
        },
        "returns": {
          "_0": "Bool value"
        }
      },
      "balanceOf(address)": {
        "params": {
          "_tokenOwner": "User address"
        }
      },
      "bulkMint(address[],uint256[],string,string)": {
        "details": "Only minter address is allowed to mint",
        "params": {
          "_addressArr": "The array of address to which tokens will be minted",
          "_amountArr": "The array of tokens that will be minted",
          "_orderId": "The id of order in sawtooth blockchain",
          "_sawtoothHash": "The hash on sawtooth blockchain to track complete token generation cycle"
        },
        "returns": {
          "_0": "Bool value"
        }
      },
      "bulkTransfer(address[],uint256[],bool)": {
        "details": "The commission will be charged on top of _value",
        "params": {
          "_addressArr": "array of recipient address",
          "_amountArr": "array of amounts corresponding to index on _addressArr",
          "_includingFees": "Denotes if fee should be deducted from amount or added to amount"
        },
        "returns": {
          "_0": "Bool value"
        }
      },
      "burn(uint256,string,string)": {
        "details": "Only address allowd can burn",
        "params": {
          "_orderId": "The id of order in sawtooth blockchain",
          "_sawtoothHash": "The hash on sawtooth blockchain to track gold withdrawal",
          "_value": "No of tokens to be burned"
        },
        "returns": {
          "_0": "Bool value"
        }
      },
      "calculateCommission(uint256)": {
        "details": "Does not checks if sender/recipient is whitelisted",
        "params": {
          "_amount": "The intended amount of transfer"
        }
      },
      "decreaseApproval(address,uint256)": {
        "details": "if the _subtractedValue is more than previous allowance, allowance will be set to 0",
        "params": {
          "_spender": "The user which is allowed to spend on behalf of msg.sender",
          "_subtractedValue": "amount by which allowance needs to be decreases"
        },
        "returns": {
          "_0": "Bool value"
        }
      },
      "increaseApproval(address,uint256)": {
        "params": {
          "_addedValue": "amount by which allowance needs to be increased",
          "_spender": "The user which is allowed to spend on behalf of msg.sender"
        },
        "returns": {
          "_0": "Bool value"
        }
      },
      "isTaxFreeTx(address,address)": {
        "params": {
          "_from": "Sender address",
          "_to": "Recipient address"
        },
        "returns": {
          "_0": "bool true if no commission will be charged"
        }
      },
      "mint(address,uint256,string,string)": {
        "details": "Only minter address is allowed to mint",
        "params": {
          "_sawtoothHash": "The hash on sawtooth blockchain to track complete token generation cycle",
          "_to": "The address to which tokens will be minted",
          "_value": "No of tokens to be minted"
        },
        "returns": {
          "_0": "Bool value"
        }
      },
      "renounceOwnership(uint256)": {
        "details": "Renounce the ownership. This will leave the contract without any owner. Only owner can call this function",
        "params": {
          "_validationCode": "A code to prevent aaccidental calling of this function"
        }
      },
      "transfer(address,uint256)": {
        "details": "The commission will be charged on top of _value",
        "params": {
          "_to": "recipient address",
          "_value": "amount of tokens to be transferred to recipient"
        },
        "returns": {
          "_0": "Bool value"
        }
      },
      "transferAnyERC20Token(address,uint256)": {
        "params": {
          "_tokenAddress": "The contract address of ERC-20 compitable token",
          "_value": "The number of tokens to be transferred to owner"
        }
      },
      "transferFrom(address,address,uint256)": {
        "details": "from must have allowed msg.sender atleast _value to spend",
        "params": {
          "_from": "Spender which has allowed msg.sender to spend on his behalf",
          "_to": "Recipient to which tokens are to be transferred",
          "_value": "The amount of token that will be transferred"
        },
        "returns": {
          "_0": "Bool value"
        }
      },
      "transferIncludingFee(address,uint256)": {
        "details": "The commission will be deducted from _value",
        "params": {
          "_to": "recipient address",
          "_value": "amount of tokens to be transferred to recipient"
        },
        "returns": {
          "_0": "Bool value"
        }
      },
      "updateCRW(address)": {
        "details": "Only owner can call",
        "params": {
          "_newCrw": "The address of new central revenue wallet"
        }
      },
      "updateCommssion(uint256,uint256)": {
        "details": "Only owner can call",
        "params": {
          "_denominator": "The denominator of commission",
          "_numerator": "The numerator of commission"
        }
      },
      "updateDeputyOwner(address)": {
        "details": "Only owner can call",
        "params": {
          "_newDeputyOwner": "The address of new deputy owner"
        }
      },
      "updateMinter(address)": {
        "details": "Only owner can call",
        "params": {
          "_minter": "The address of minter wallet"
        },
        "returns": {
          "_0": "Bool value"
        }
      },
      "updateOwner(address)": {
        "details": "Transfer the ownership to some other address. new owner can not be a zero address. Only owner can call this function",
        "params": {
          "_newOwner": "Address to which ownership is being transferred"
        }
      },
      "updateTaxFreeRecipient(address[],bool)": {
        "details": "Only Deputy owner can call",
        "params": {
          "_isSpecial": "true means user will be added; false means user will be removed",
          "_users": "The array of addresses to be whitelisted/blacklisted"
        },
        "returns": {
          "_0": "Bool value"
        }
      },
      "updateTaxFreeSender(address[],bool)": {
        "details": "Only Deputy owner can call",
        "params": {
          "_isSpecial": "true means user will be added; false means user will be removed",
          "_users": "The array of addresses to be whitelisted/blacklisted"
        },
        "returns": {
          "_0": "Bool value"
        }
      }
    },
    "title": "OToken",
    "version": 1
  },
  "userdoc": {
    "kind": "user",
    "methods": {
      "addSuspenseWallet(address)": {
        "notice": "Add Suspense wallet address. This can be updated again in case of suspense contract is upgraded."
      },
      "addTrustedContracts(address,bool)": {
        "notice": "Add/Remove trusted contracts. The trusted contracts will be notified in case of tokens are transferred to them"
      },
      "allowance(address,address)": {
        "notice": "Get allowance from token owner to spender"
      },
      "approve(address,uint256)": {
        "notice": "Standard Approve function"
      },
      "approveAndCall(address,uint256,bytes)": {
        "notice": "Approve and call"
      },
      "balanceOf(address)": {
        "notice": "Get balance of user"
      },
      "bulkMint(address[],uint256[],string,string)": {
        "notice": "Bulk Mint function."
      },
      "bulkTransfer(address[],uint256[],bool)": {
        "notice": "Bulk transfer"
      },
      "burn(uint256,string,string)": {
        "notice": "Standard burn function."
      },
      "calculateCommission(uint256)": {
        "notice": "check transer fee"
      },
      "decreaseApproval(address,uint256)": {
        "notice": "Decrease allowance"
      },
      "increaseApproval(address,uint256)": {
        "notice": "Increase allowance"
      },
      "isTaxFreeTx(address,address)": {
        "notice": "Checks if transfer between parties will be taxed or not"
      },
      "mint(address,uint256,string,string)": {
        "notice": "Mint function."
      },
      "transfer(address,uint256)": {
        "notice": "Standard transfer function to Transfer token"
      },
      "transferAnyERC20Token(address,uint256)": {
        "notice": "Owner can transfer out any accidentally sent ERC20 tokens"
      },
      "transferFrom(address,address,uint256)": {
        "notice": "Standard transferFrom. Send tokens on behalf of spender"
      },
      "transferIncludingFee(address,uint256)": {
        "notice": "Alternate method to standard transfer with fee deducted from transfer amount"
      },
      "updateCRW(address)": {
        "notice": "Update central revenue wallet"
      },
      "updateCommssion(uint256,uint256)": {
        "notice": "Update commission to be charged on each token transfer"
      },
      "updateDeputyOwner(address)": {
        "notice": "Update deputy owner. The Hot wallet version of owner"
      },
      "updateMinter(address)": {
        "notice": "Add Minter wallet address. This address will be responsible for minting tokens"
      },
      "updateTaxFreeRecipient(address[],bool)": {
        "notice": "Add/Remove a whitelisted recipient. Token transfer to this address won't be taxed"
      },
      "updateTaxFreeSender(address[],bool)": {
        "notice": "Add/Remove a whitelisted sender. Token transfer from this address won't be taxed"
      }
    },
    "version": 1
  }
}