{
  "contractName": "Ownership",
  "abi": [
    {
      "inputs": [],
      "stateMutability": "nonpayable",
      "type": "constructor"
    },
    {
      "anonymous": false,
      "inputs": [
        {
          "indexed": false,
          "internalType": "address",
          "name": "oldOwner",
          "type": "address"
        },
        {
          "indexed": false,
          "internalType": "address",
          "name": "newOwner",
          "type": "address"
        }
      ],
      "name": "OwnershipUpdated",
      "type": "event"
    },
    {
      "inputs": [],
      "name": "owner",
      "outputs": [
        {
          "internalType": "address",
          "name": "",
          "type": "address"
        }
      ],
      "stateMutability": "view",
      "type": "function"
    },
    {
      "inputs": [
        {
          "internalType": "address",
          "name": "_newOwner",
          "type": "address"
        }
      ],
      "name": "updateOwner",
      "outputs": [],
      "stateMutability": "nonpayable",
      "type": "function"
    },
    {
      "inputs": [
        {
          "internalType": "uint256",
          "name": "_validationCode",
          "type": "uint256"
        }
      ],
      "name": "renounceOwnership",
      "outputs": [],
      "stateMutability": "nonpayable",
      "type": "function"
    }
  ],
  "bytecode": "0x608060405234801561001057600080fd5b50600080546001600160a01b031916331790556102fd806100326000396000f3fe608060405234801561001057600080fd5b50600436106100415760003560e01c80637d654c7f14610046578063880cdc311461005b5780638da5cb5b1461006e575b600080fd5b61005961005436600461020f565b61008c565b005b6100596100693660046101e1565b61012e565b6100766101d2565b6040516100839190610227565b60405180910390f35b6000546001600160a01b031633146100bf5760405162461bcd60e51b81526004016100b6906102a4565b60405180910390fd5b8063075bcd15146100e25760405162461bcd60e51b81526004016100b690610255565b600080546001600160a01b03191681556040517f4c19d31874b3f8325813d90efdd10758f703ab99b84367f07276ecd2cd69c95d916101239133919061023b565b60405180910390a150565b6000546001600160a01b031633146101585760405162461bcd60e51b81526004016100b6906102a4565b6001600160a01b03811661017e5760405162461bcd60e51b81526004016100b69061027b565b600080546001600160a01b0319166001600160a01b0383811691909117918290556040517f4c19d31874b3f8325813d90efdd10758f703ab99b84367f07276ecd2cd69c95d9261012392339291169061023b565b6000546001600160a01b031681565b6000602082840312156101f2578081fd5b81356001600160a01b0381168114610208578182fd5b9392505050565b600060208284031215610220578081fd5b5035919050565b6001600160a01b0391909116815260200190565b6001600160a01b0392831681529116602082015260400190565b6020808252600c908201526b496e76616c696420636f646560a01b604082015260600190565b6020808252600f908201526e496e76616c6964206164647265737360881b604082015260600190565b6020808252600990820152682737ba1037bbb732b960b91b60408201526060019056fea2646970667358221220250ba91f4446d9111f226487ec9f605f382e769bbe94b954c25698eed96bdab064736f6c63430008000033",
  "immutableReferences": {},
  "source": "// SPDX-License-Identifier: MIT\n\n/**\n\n* MIT License\n* ===========\n* \n* Copyright (c) 2020 OLegacy\n* \n* Permission is hereby granted, free of charge, to any person obtaining a copy\n* of this software and associated documentation files (the \"Software\"), to deal\n* in the Software without restriction, including without limitation the rights\n* to use, copy, modify, merge, publish, distribute, sublicense, and/or sell\n* copies of the Software, and to permit persons to whom the Software is\n* furnished to do so, subject to the following conditions:\n* \n* The above copyright notice and this permission notice shall be included in all\n* copies or substantial portions of the Software.\n* \n* THE SOFTWARE IS PROVIDED \"AS IS\", WITHOUT WARRANTY OF ANY KIND, EXPRESS OR\n* IMPLIED, INCLUDING BUT NOT LIMITED TO THE WARRANTIES OF MERCHANTABILITY,\n* FITNESS FOR A PARTICULAR PURPOSE AND NONINFRINGEMENT. IN NO EVENT SHALL THE\n* AUTHORS OR COPYRIGHT HOLDERS BE LIABLE FOR ANY CLAIM, DAMAGES OR OTHER\n* LIABILITY, WHETHER IN AN ACTION OF CONTRACT, TORT OR OTHERWISE, ARISING FROM,\n* OUT OF OR IN CONNECTION WITH THE SOFTWARE OR THE USE OR OTHER DEALINGS IN THE\n* SOFTWARE.\n*\n*/\n\npragma solidity 0.8.0;\n\ncontract Ownership {\n\n  address public owner;\n  event OwnershipUpdated(address oldOwner, address newOwner);\n\n  constructor() public {\n    owner = msg.sender;\n  }\n\n  modifier onlyOwner() {\n    require(msg.sender == owner, \"Not owner\");\n    _;\n  }\n\n  /**\n   * @dev Transfer the ownership to some other address.\n   * new owner can not be a zero address.\n   * Only owner can call this function\n   * @param _newOwner Address to which ownership is being transferred\n   */\n  function updateOwner(address _newOwner)\n    public\n    onlyOwner\n  {\n    require(_newOwner != address(0x0), \"Invalid address\");\n    owner = _newOwner;\n    emit OwnershipUpdated(msg.sender, owner);\n  }\n\n  /**\n   * @dev Renounce the ownership.\n   * This will leave the contract without any owner.\n   * Only owner can call this function\n   * @param _validationCode A code to prevent aaccidental calling of this function\n   */\n  function renounceOwnership(uint _validationCode)\n    public\n    onlyOwner\n  {\n    require(_validationCode == 123456789, \"Invalid code\");\n    owner = address(0);\n    emit OwnershipUpdated(msg.sender, owner);\n  }\n}",
  "sourcePath": "/home/prashant/projects/z-token-smartcontract/contracts/OT_contracts/Ownership.sol",
  "compiler": {
    "name": "solc",
    "version": "0.8.0+commit.c7dfd78e.Emscripten.clang"
  },
  "schemaVersion": "3.4.1",
  "updatedAt": "2021-09-05T10:26:04.175Z",
  "devdoc": {
    "kind": "dev",
    "methods": {
      "renounceOwnership(uint256)": {
        "details": "Renounce the ownership. This will leave the contract without any owner. Only owner can call this function",
        "params": {
          "_validationCode": "A code to prevent aaccidental calling of this function"
        }
      },
      "updateOwner(address)": {
        "details": "Transfer the ownership to some other address. new owner can not be a zero address. Only owner can call this function",
        "params": {
          "_newOwner": "Address to which ownership is being transferred"
        }
      }
    },
    "version": 1
  },
  "userdoc": {
    "kind": "user",
    "methods": {},
    "version": 1
  }
}