{
  "contractName": "ZToken",
  "abi": [
    {
      "inputs": [
        {
          "internalType": "address",
          "name": "_goldTokenAddress",
          "type": "address"
        },
        {
          "internalType": "address",
          "name": "_phoenixCrw",
          "type": "address"
        },
        {
          "internalType": "address",
          "name": "_zcrw",
          "type": "address"
        },
        {
          "internalType": "address",
          "name": "_sellingWallet",
          "type": "address"
        }
      ],
      "stateMutability": "nonpayable",
      "type": "constructor"
    },
    {
      "anonymous": false,
      "inputs": [
        {
          "indexed": true,
          "internalType": "address",
          "name": "owner",
          "type": "address"
        },
        {
          "indexed": true,
          "internalType": "address",
          "name": "spender",
          "type": "address"
        },
        {
          "indexed": false,
          "internalType": "uint256",
          "name": "value",
          "type": "uint256"
        }
      ],
      "name": "Approval",
      "type": "event"
    },
    {
      "anonymous": false,
      "inputs": [
        {
          "indexed": false,
          "internalType": "uint256",
          "name": "_numerator",
          "type": "uint256"
        },
        {
          "indexed": false,
          "internalType": "uint256",
          "name": "_denominator",
          "type": "uint256"
        },
        {
          "indexed": false,
          "internalType": "string",
          "name": "_data",
          "type": "string"
        }
      ],
      "name": "CommssionUpdate",
      "type": "event"
    },
    {
      "anonymous": false,
      "inputs": [
        {
          "indexed": true,
          "internalType": "address",
          "name": "previousOwner",
          "type": "address"
        },
        {
          "indexed": true,
          "internalType": "address",
          "name": "newOwner",
          "type": "address"
        }
      ],
      "name": "OwnershipTransferred",
      "type": "event"
    },
    {
      "anonymous": false,
      "inputs": [
        {
          "indexed": true,
          "internalType": "address",
          "name": "from",
          "type": "address"
        },
        {
          "indexed": true,
          "internalType": "address",
          "name": "to",
          "type": "address"
        },
        {
          "indexed": false,
          "internalType": "uint256",
          "name": "value",
          "type": "uint256"
        }
      ],
      "name": "Transfer",
      "type": "event"
    },
    {
      "anonymous": false,
      "inputs": [
        {
          "indexed": false,
          "internalType": "address",
          "name": "_from",
          "type": "address"
        },
        {
          "indexed": false,
          "internalType": "address",
          "name": "_to",
          "type": "address"
        },
        {
          "indexed": false,
          "internalType": "uint256",
          "name": "_value",
          "type": "uint256"
        },
        {
          "indexed": false,
          "internalType": "uint256",
          "name": "_networkFee",
          "type": "uint256"
        }
      ],
      "name": "TransferPreSigned",
      "type": "event"
    },
    {
      "inputs": [
        {
          "internalType": "address",
          "name": "owner",
          "type": "address"
        },
        {
          "internalType": "address",
          "name": "spender",
          "type": "address"
        }
      ],
      "name": "allowance",
      "outputs": [
        {
          "internalType": "uint256",
          "name": "",
          "type": "uint256"
        }
      ],
      "stateMutability": "view",
      "type": "function"
    },
    {
      "inputs": [
        {
          "internalType": "address",
          "name": "spender",
          "type": "address"
        },
        {
          "internalType": "uint256",
          "name": "amount",
          "type": "uint256"
        }
      ],
      "name": "approve",
      "outputs": [
        {
          "internalType": "bool",
          "name": "",
          "type": "bool"
        }
      ],
      "stateMutability": "nonpayable",
      "type": "function"
    },
    {
      "inputs": [
        {
          "internalType": "address",
          "name": "account",
          "type": "address"
        }
      ],
      "name": "balanceOf",
      "outputs": [
        {
          "internalType": "uint256",
          "name": "",
          "type": "uint256"
        }
      ],
      "stateMutability": "view",
      "type": "function"
    },
    {
      "inputs": [],
      "name": "commission_denominator_minting",
      "outputs": [
        {
          "internalType": "uint256",
          "name": "",
          "type": "uint256"
        }
      ],
      "stateMutability": "view",
      "type": "function"
    },
    {
      "inputs": [],
      "name": "commission_denominator_phoenix_crw",
      "outputs": [
        {
          "internalType": "uint256",
          "name": "",
          "type": "uint256"
        }
      ],
      "stateMutability": "view",
      "type": "function"
    },
    {
      "inputs": [],
      "name": "commission_denominator_zcrw",
      "outputs": [
        {
          "internalType": "uint256",
          "name": "",
          "type": "uint256"
        }
      ],
      "stateMutability": "view",
      "type": "function"
    },
    {
      "inputs": [],
      "name": "commission_numerator_minting",
      "outputs": [
        {
          "internalType": "uint256",
          "name": "",
          "type": "uint256"
        }
      ],
      "stateMutability": "view",
      "type": "function"
    },
    {
      "inputs": [],
      "name": "commission_numerator_phoenix_crw",
      "outputs": [
        {
          "internalType": "uint256",
          "name": "",
          "type": "uint256"
        }
      ],
      "stateMutability": "view",
      "type": "function"
    },
    {
      "inputs": [],
      "name": "commission_numerator_zcrw",
      "outputs": [
        {
          "internalType": "uint256",
          "name": "",
          "type": "uint256"
        }
      ],
      "stateMutability": "view",
      "type": "function"
    },
    {
      "inputs": [
        {
          "internalType": "address",
          "name": "spender",
          "type": "address"
        },
        {
          "internalType": "uint256",
          "name": "subtractedValue",
          "type": "uint256"
        }
      ],
      "name": "decreaseAllowance",
      "outputs": [
        {
          "internalType": "bool",
          "name": "",
          "type": "bool"
        }
      ],
      "stateMutability": "nonpayable",
      "type": "function"
    },
    {
      "inputs": [
        {
          "internalType": "address",
          "name": "spender",
          "type": "address"
        },
        {
          "internalType": "uint256",
          "name": "addedValue",
          "type": "uint256"
        }
      ],
      "name": "increaseAllowance",
      "outputs": [
        {
          "internalType": "bool",
          "name": "",
          "type": "bool"
        }
      ],
      "stateMutability": "nonpayable",
      "type": "function"
    },
    {
      "inputs": [],
      "name": "name",
      "outputs": [
        {
          "internalType": "string",
          "name": "",
          "type": "string"
        }
      ],
      "stateMutability": "view",
      "type": "function"
    },
    {
      "inputs": [],
      "name": "owner",
      "outputs": [
        {
          "internalType": "address",
          "name": "",
          "type": "address"
        }
      ],
      "stateMutability": "view",
      "type": "function"
    },
    {
      "inputs": [],
      "name": "phoenixCrw",
      "outputs": [
        {
          "internalType": "address",
          "name": "",
          "type": "address"
        }
      ],
      "stateMutability": "view",
      "type": "function"
    },
    {
      "inputs": [],
      "name": "renounceOwnership",
      "outputs": [],
      "stateMutability": "nonpayable",
      "type": "function"
    },
    {
      "inputs": [],
      "name": "sellingWallet",
      "outputs": [
        {
          "internalType": "address",
          "name": "",
          "type": "address"
        }
      ],
      "stateMutability": "view",
      "type": "function"
    },
    {
      "inputs": [],
      "name": "symbol",
      "outputs": [
        {
          "internalType": "string",
          "name": "",
          "type": "string"
        }
      ],
      "stateMutability": "view",
      "type": "function"
    },
    {
      "inputs": [],
      "name": "totalSupply",
      "outputs": [
        {
          "internalType": "uint256",
          "name": "",
          "type": "uint256"
        }
      ],
      "stateMutability": "view",
      "type": "function"
    },
    {
      "inputs": [
        {
          "internalType": "address",
          "name": "newOwner",
          "type": "address"
        }
      ],
      "name": "transferOwnership",
      "outputs": [],
      "stateMutability": "nonpayable",
      "type": "function"
    },
    {
      "inputs": [],
      "name": "zCrw",
      "outputs": [
        {
          "internalType": "address",
          "name": "",
          "type": "address"
        }
      ],
      "stateMutability": "view",
      "type": "function"
    },
    {
      "stateMutability": "payable",
      "type": "receive"
    },
    {
      "inputs": [
        {
          "internalType": "uint256",
          "name": "_amount",
          "type": "uint256"
        },
        {
          "internalType": "address",
          "name": "_receiver",
          "type": "address"
        }
      ],
      "name": "transferToken",
      "outputs": [],
      "stateMutability": "nonpayable",
      "type": "function"
    },
    {
      "inputs": [
        {
          "internalType": "address",
          "name": "_from",
          "type": "address"
        },
        {
          "internalType": "uint256",
          "name": "_value",
          "type": "uint256"
        },
        {
          "internalType": "bytes",
          "name": "data",
          "type": "bytes"
        }
      ],
      "name": "tokenFallback",
      "outputs": [],
      "stateMutability": "nonpayable",
      "type": "function"
    },
    {
      "inputs": [],
      "name": "decimals",
      "outputs": [
        {
          "internalType": "uint8",
          "name": "",
          "type": "uint8"
        }
      ],
      "stateMutability": "view",
      "type": "function"
    },
    {
      "inputs": [
        {
          "internalType": "address",
          "name": "recipient",
          "type": "address"
        },
        {
          "internalType": "uint256",
          "name": "amount",
          "type": "uint256"
        }
      ],
      "name": "transfer",
      "outputs": [
        {
          "internalType": "bool",
          "name": "",
          "type": "bool"
        }
      ],
      "stateMutability": "nonpayable",
      "type": "function"
    },
    {
      "inputs": [
        {
          "internalType": "address",
          "name": "sender",
          "type": "address"
        },
        {
          "internalType": "address",
          "name": "recipient",
          "type": "address"
        },
        {
          "internalType": "uint256",
          "name": "amount",
          "type": "uint256"
        }
      ],
      "name": "transferFrom",
      "outputs": [
        {
          "internalType": "bool",
          "name": "",
          "type": "bool"
        }
      ],
      "stateMutability": "nonpayable",
      "type": "function"
    },
    {
      "inputs": [
        {
          "internalType": "address",
          "name": "_user",
          "type": "address"
        }
      ],
      "name": "updatePhoenixAddress",
      "outputs": [
        {
          "internalType": "bool",
          "name": "",
          "type": "bool"
        }
      ],
      "stateMutability": "nonpayable",
      "type": "function"
    },
    {
      "inputs": [
        {
          "internalType": "uint256",
          "name": "_amount",
          "type": "uint256"
        }
      ],
      "name": "calculateCommissionMint",
      "outputs": [
        {
          "internalType": "uint256",
          "name": "",
          "type": "uint256"
        }
      ],
      "stateMutability": "view",
      "type": "function"
    },
    {
      "inputs": [
        {
          "internalType": "uint256",
          "name": "_amount",
          "type": "uint256"
        }
      ],
      "name": "calculateCommissionToZCrw",
      "outputs": [
        {
          "internalType": "uint256",
          "name": "",
          "type": "uint256"
        }
      ],
      "stateMutability": "view",
      "type": "function"
    },
    {
      "inputs": [
        {
          "internalType": "uint256",
          "name": "_amount",
          "type": "uint256"
        }
      ],
      "name": "calculateCommissionPhoenixCrw",
      "outputs": [
        {
          "internalType": "uint256",
          "name": "",
          "type": "uint256"
        }
      ],
      "stateMutability": "view",
      "type": "function"
    },
    {
      "inputs": [
        {
          "internalType": "uint256",
          "name": "_n",
          "type": "uint256"
        },
        {
          "internalType": "uint256",
          "name": "_d",
          "type": "uint256"
        }
      ],
      "name": "updateCommssionPhoenixTransfer",
      "outputs": [],
      "stateMutability": "nonpayable",
      "type": "function"
    },
    {
      "inputs": [
        {
          "internalType": "uint256",
          "name": "_n",
          "type": "uint256"
        },
        {
          "internalType": "uint256",
          "name": "_d",
          "type": "uint256"
        }
      ],
      "name": "updateCommssionZTranfer",
      "outputs": [],
      "stateMutability": "nonpayable",
      "type": "function"
    },
    {
      "inputs": [
        {
          "internalType": "uint256",
          "name": "_n",
          "type": "uint256"
        },
        {
          "internalType": "uint256",
          "name": "_d",
          "type": "uint256"
        }
      ],
      "name": "updateCommssionMint",
      "outputs": [],
      "stateMutability": "nonpayable",
      "type": "function"
    }
  ],
  "bytecode": "0x60806040526006805460ff60a01b1916600160a31b179055600160078190556004600855600981905560c8600a819055600b91909155600c553480156200004557600080fd5b5060405162001eac38038062001eac833981016040819052620000689162000324565b604051806040016040528060068152602001652d2a37b5b2b760d11b81525060405180604001604052806002815260200161169560f21b815250620000bc620000b66200020860201b60201c565b6200020c565b8151620000d190600490602085019062000266565b508051620000e790600590602084019062000266565b505050836200010a816001600160a01b03166200025c60201b62000d511760201c565b620001325760405162461bcd60e51b8152600401620001299062000380565b60405180910390fd5b836001600160a01b0381166200015c5760405162461bcd60e51b81526004016200012990620003b7565b836001600160a01b038116620001865760405162461bcd60e51b81526004016200012990620003b7565b836001600160a01b038116620001b05760405162461bcd60e51b81526004016200012990620003b7565b5050600680546001600160a01b039788166001600160a01b031991821617909155600d8054968816968216969096179095555050600e805492851692841692909217909155600f80549190931691161790556200042b565b3390565b600080546001600160a01b038381166001600160a01b0319831681178455604051919092169283917f8be0079c531659141344cd1fd0a4f28419497f9722a3daafe3b4186f6b6457e09190a35050565b803b15155b919050565b8280546200027490620003ee565b90600052602060002090601f016020900481019282620002985760008555620002e3565b82601f10620002b357805160ff1916838001178555620002e3565b82800160010185558215620002e3579182015b82811115620002e3578251825591602001919060010190620002c6565b50620002f1929150620002f5565b5090565b5b80821115620002f15760008155600101620002f6565b80516001600160a01b03811681146200026157600080fd5b600080600080608085870312156200033a578384fd5b62000345856200030c565b935062000355602086016200030c565b925062000365604086016200030c565b915062000375606086016200030c565b905092959194509250565b60208082526016908201527f497320636f6e747261637420697320616c6c6f77656400000000000000000000604082015260600190565b60208082526018908201527f5a65726f2061646472657373206e6f7420616c6c6f7765640000000000000000604082015260600190565b6002810460018216806200040357607f821691505b602082108114156200042557634e487b7160e01b600052602260045260246000fd5b50919050565b611a71806200043b6000396000f3fe6080604052600436106101e75760003560e01c806395d89b4111610102578063c0ee0b8a11610095578063e9891d7f11610064578063e9891d7f1461054f578063ece3c7fb1461056f578063f2fde38b14610584578063facd7ecf146105a45761020d565b8063c0ee0b8a146104e5578063cfcb9f5914610505578063d84c32791461051a578063dd62ed3e1461052f5761020d565b8063a5d3d728116100d1578063a5d3d72814610465578063a9059cbb14610485578063a93dfb0d146104a5578063bad42590146104c55761020d565b806395d89b41146103f05780639dd0953f14610405578063a071723214610425578063a457c2d7146104455761020d565b8063395093511161017a57806370a082311161014957806370a082311461038f578063715018a6146103af5780637b6b6b27146103c65780638da5cb5b146103db5761020d565b806339509351146103255780633a3be9d41461034557806362beb1961461035a57806364f3448f1461037a5761020d565b80631cde8a63116101b65780631cde8a63146102a157806323b872dd146102c157806328b01719146102e1578063313ce567146103035761020d565b8063037311581461021257806306fdde031461023d578063095ea7b31461025f57806318160ddd1461028c5761020d565b3661020d5760405162461bcd60e51b81526004016102049061161d565b60405180910390fd5b600080fd5b34801561021e57600080fd5b506102276105b9565b60405161023491906118bc565b60405180910390f35b34801561024957600080fd5b506102526105bf565b6040516102349190611440565b34801561026b57600080fd5b5061027f61027a3660046112ca565b610651565b6040516102349190611435565b34801561029857600080fd5b5061022761066e565b3480156102ad57600080fd5b506102276102bc366004611395565b610674565b3480156102cd57600080fd5b5061027f6102dc36600461128f565b6106a4565b3480156102ed57600080fd5b506102f6610707565b6040516102349190611408565b34801561030f57600080fd5b50610318610716565b604051610234919061196e565b34801561033157600080fd5b5061027f6103403660046112ca565b610726565b34801561035157600080fd5b506102f6610775565b34801561036657600080fd5b50610227610375366004611395565b610784565b34801561038657600080fd5b506102f66107a6565b34801561039b57600080fd5b506102276103aa366004611243565b6107b5565b3480156103bb57600080fd5b506103c46107d0565b005b3480156103d257600080fd5b5061022761081b565b3480156103e757600080fd5b506102f6610821565b3480156103fc57600080fd5b50610252610830565b34801561041157600080fd5b506103c46104203660046113e7565b61083f565b34801561043157600080fd5b506103c46104403660046113e7565b6108b1565b34801561045157600080fd5b5061027f6104603660046112ca565b61092c565b34801561047157600080fd5b506103c46104803660046113e7565b6109a5565b34801561049157600080fd5b5061027f6104a03660046112ca565b610a0b565b3480156104b157600080fd5b506102276104c0366004611395565b610a18565b3480156104d157600080fd5b506103c46104e03660046113c5565b610a3a565b3480156104f157600080fd5b506103c46105003660046112f3565b610bd2565b34801561051157600080fd5b50610227610c4b565b34801561052657600080fd5b50610227610c51565b34801561053b57600080fd5b5061022761054a36600461125d565b610c57565b34801561055b57600080fd5b5061027f61056a366004611243565b610c82565b34801561057b57600080fd5b50610227610cd4565b34801561059057600080fd5b506103c461059f366004611243565b610cda565b3480156105b057600080fd5b50610227610d4b565b600c5481565b6060600480546105ce906119ea565b80601f01602080910402602001604051908101604052809291908181526020018280546105fa906119ea565b80156106475780601f1061061c57610100808354040283529160200191610647565b820191906000526020600020905b81548152906001019060200180831161062a57829003601f168201915b5050505050905090565b600061066561065e610d57565b8484610d5b565b50600192915050565b60035490565b600061069c6064610696600c54610696600b5487610e0f90919063ffffffff16565b90610e22565b90505b919050565b6000806106b38561054a610d57565b9050828110156106d55760405162461bcd60e51b81526004016102049061168b565b6106f0856106e1610d57565b6106eb86856119d3565b610d5b565b6106fb858585610e2e565b50600195945050505050565b600e546001600160a01b031681565b600654600160a01b900460ff1690565b6000610665610733610d57565b848460026000610741610d57565b6001600160a01b03908116825260208083019390935260409182016000908120918b16815292529020546106eb919061197c565b600d546001600160a01b031681565b600061069c6064610696600a5461069660095487610e0f90919063ffffffff16565b600f546001600160a01b031681565b6001600160a01b031660009081526001602052604090205490565b6107d8610d57565b6001600160a01b03166107e9610821565b6001600160a01b03161461080f5760405162461bcd60e51b8152600401610204906116d3565b6108196000610edd565b565b60075481565b6000546001600160a01b031690565b6060600580546105ce906119ea565b600d546001600160a01b031633146108695760405162461bcd60e51b815260040161020490611749565b600881905560078290556040517f52157bec5b4f5ad5638e2f13345ca278ff8655617888654f1f51af41367b2477906108a590849084906118c5565b60405180910390a15050565b6108b9610d57565b6001600160a01b03166108ca610821565b6001600160a01b0316146108f05760405162461bcd60e51b8152600401610204906116d3565b600a81905560098290556040517f52157bec5b4f5ad5638e2f13345ca278ff8655617888654f1f51af41367b2477906108a590849084906118fc565b6000806002600061093b610d57565b6001600160a01b03908116825260208083019390935260409182016000908120918816815292529020549050828110156109875760405162461bcd60e51b815260040161020490611840565b61099b610992610d57565b85858403610d5b565b5060019392505050565b600d546001600160a01b031633146109cf5760405162461bcd60e51b815260040161020490611749565b600c819055600b8290556040517f52157bec5b4f5ad5638e2f13345ca278ff8655617888654f1f51af41367b2477906108a59084908490611936565b600061099b338484610e2e565b600061069c606461069660085461069660075487610e0f90919063ffffffff16565b610a42610d57565b6001600160a01b0316610a53610821565b6001600160a01b031614610a795760405162461bcd60e51b8152600401610204906116d3565b806001600160a01b038116610aa05760405162461bcd60e51b815260040161020490611809565b6006546040516370a0823160e01b815284916001600160a01b0316906370a0823190610ad0903090600401611408565b60206040518083038186803b158015610ae857600080fd5b505afa158015610afc573d6000803e3d6000fd5b505050506040513d601f19601f82011682018060405250810190610b2091906113ad565b1015610b3e5760405162461bcd60e51b8152600401610204906114d6565b60065460405163a9059cbb60e01b81526001600160a01b039091169063a9059cbb90610b70908590879060040161141c565b602060405180830381600087803b158015610b8a57600080fd5b505af1158015610b9e573d6000803e3d6000fd5b505050506040513d601f19601f82011682018060405250810190610bc29190611375565b50610bcd3384610f2d565b505050565b6006546001600160a01b03163314610bfc5760405162461bcd60e51b815260040161020490611654565b6000610c0784610a18565b90508015610c2557600d54610c25906001600160a01b03168261101e565b600f54610c44906001600160a01b0316610c3f86846110ea565b61101e565b5050505050565b60085481565b600a5481565b6001600160a01b03918216600090815260026020908152604080832093909416825291909152205490565b600d546000906001600160a01b03163314610caf5760405162461bcd60e51b815260040161020490611749565b50600d80546001600160a01b0383166001600160a01b03199091161790556001919050565b60095481565b610ce2610d57565b6001600160a01b0316610cf3610821565b6001600160a01b031614610d195760405162461bcd60e51b8152600401610204906116d3565b6001600160a01b038116610d3f5760405162461bcd60e51b81526004016102049061154f565b610d4881610edd565b50565b600b5481565b3b151590565b3390565b6001600160a01b038316610d815760405162461bcd60e51b8152600401610204906117c5565b6001600160a01b038216610da75760405162461bcd60e51b815260040161020490611595565b6001600160a01b0380841660008181526002602090815260408083209487168084529490915290819020849055517f8c5be1e5ebec7d5bd14f71427d1e84f3dd0314c0f7b2291e5b200ac8c7c3b92590610e029085906118bc565b60405180910390a3505050565b6000610e1b82846119b4565b9392505050565b6000610e1b8284611994565b6000826001600160a01b038116610e575760405162461bcd60e51b815260040161020490611809565b6000610e6284610674565b90506000610e6f85610784565b90508115610e8f57600d54610e8f9088906001600160a01b0316846110f6565b8015610ead57600e54610ead9088906001600160a01b0316836110f6565b6000610eb98284611220565b9050610ecf8888610eca89856110ea565b6110f6565b506001979650505050505050565b600080546001600160a01b038381166001600160a01b0319831681178455604051919092169283917f8be0079c531659141344cd1fd0a4f28419497f9722a3daafe3b4186f6b6457e09190a35050565b6001600160a01b038216610f535760405162461bcd60e51b815260040161020490611708565b610f5f82600083610bcd565b6001600160a01b03821660009081526001602052604090205481811015610f985760405162461bcd60e51b81526004016102049061150d565b6001600160a01b0383166000908152600160205260408120838303905560038054849290610fc79084906119d3565b90915550506040516000906001600160a01b038516907fddf252ad1be2c89b69c2b068fc378daa952ba7f163c4a11628f55a4df523b3ef9061100a9086906118bc565b60405180910390a3610bcd83600084610bcd565b6001600160a01b0382166110445760405162461bcd60e51b815260040161020490611885565b61105060008383610bcd565b8060036000828254611062919061197c565b90915550506001600160a01b0382166000908152600160205260408120805483929061108f90849061197c565b90915550506040516001600160a01b038316906000907fddf252ad1be2c89b69c2b068fc378daa952ba7f163c4a11628f55a4df523b3ef906110d29085906118bc565b60405180910390a36110e660008383610bcd565b5050565b6000610e1b82846119d3565b6001600160a01b03831661111c5760405162461bcd60e51b815260040161020490611780565b6001600160a01b0382166111425760405162461bcd60e51b815260040161020490611493565b61114d838383610bcd565b6001600160a01b038316600090815260016020526040902054818110156111865760405162461bcd60e51b8152600401610204906115d7565b6001600160a01b038085166000908152600160205260408082208585039055918516815290812080548492906111bd90849061197c565b92505081905550826001600160a01b0316846001600160a01b03167fddf252ad1be2c89b69c2b068fc378daa952ba7f163c4a11628f55a4df523b3ef8460405161120791906118bc565b60405180910390a361121a848484610bcd565b50505050565b6000610e1b828461197c565b80356001600160a01b038116811461069f57600080fd5b600060208284031215611254578081fd5b610e1b8261122c565b6000806040838503121561126f578081fd5b6112788361122c565b91506112866020840161122c565b90509250929050565b6000806000606084860312156112a3578081fd5b6112ac8461122c565b92506112ba6020850161122c565b9150604084013590509250925092565b600080604083850312156112dc578182fd5b6112e58361122c565b946020939093013593505050565b60008060008060608587031215611308578081fd5b6113118561122c565b935060208501359250604085013567ffffffffffffffff80821115611334578283fd5b818701915087601f830112611347578283fd5b813581811115611355578384fd5b886020828501011115611366578384fd5b95989497505060200194505050565b600060208284031215611386578081fd5b81518015158114610e1b578182fd5b6000602082840312156113a6578081fd5b5035919050565b6000602082840312156113be578081fd5b5051919050565b600080604083850312156113d7578182fd5b823591506112866020840161122c565b600080604083850312156113f9578182fd5b50508035926020909101359150565b6001600160a01b0391909116815260200190565b6001600160a01b03929092168252602082015260400190565b901515815260200190565b6000602080835283518082850152825b8181101561146c57858101830151858201604001528201611450565b8181111561147d5783604083870101525b50601f01601f1916929092016040019392505050565b60208082526023908201527f45524332303a207472616e7366657220746f20746865207a65726f206164647260408201526265737360e81b606082015260800190565b6020808252601c908201527f496e7375666669636965742062616c616e6365206f6620746f6b656e00000000604082015260600190565b60208082526022908201527f45524332303a206275726e20616d6f756e7420657863656564732062616c616e604082015261636560f01b606082015260800190565b60208082526026908201527f4f776e61626c653a206e6577206f776e657220697320746865207a65726f206160408201526564647265737360d01b606082015260800190565b60208082526022908201527f45524332303a20617070726f766520746f20746865207a65726f206164647265604082015261737360f01b606082015260800190565b60208082526026908201527f45524332303a207472616e7366657220616d6f756e7420657863656564732062604082015265616c616e636560d01b606082015260800190565b6020808252601f908201527f436f6e747261637420646f6573206e6f74206163636570742065746865727300604082015260600190565b6020808252601e908201527f4f6e6c7920546f6b656e20636f6e747261637420697320616c6c6f7765640000604082015260600190565b60208082526028908201527f45524332303a207472616e7366657220616d6f756e74206578636565647320616040820152676c6c6f77616e636560c01b606082015260800190565b6020808252818101527f4f776e61626c653a2063616c6c6572206973206e6f7420746865206f776e6572604082015260600190565b60208082526021908201527f45524332303a206275726e2066726f6d20746865207a65726f206164647265736040820152607360f81b606082015260800190565b60208082526017908201527f4f6e6c792050686f656e697820697320616c6c6f776564000000000000000000604082015260600190565b60208082526025908201527f45524332303a207472616e736665722066726f6d20746865207a65726f206164604082015264647265737360d81b606082015260800190565b60208082526024908201527f45524332303a20617070726f76652066726f6d20746865207a65726f206164646040820152637265737360e01b606082015260800190565b60208082526018908201527f5a65726f2061646472657373206e6f7420616c6c6f7765640000000000000000604082015260600190565b60208082526025908201527f45524332303a2064656372656173656420616c6c6f77616e63652062656c6f77604082015264207a65726f60d81b606082015260800190565b6020808252601f908201527f45524332303a206d696e7420746f20746865207a65726f206164647265737300604082015260600190565b90815260200190565b91825260208201526060604082018190526011908201527026b4b73a34b7339031b7b6b6b4b9b4b7b760791b608082015260a00190565b9182526020820152606060408201819052601490820152732d1037bbb732b913b99031b7b6b6b4b9b9b4b7b760611b608082015260a00190565b918252602082015260606040820181905260129082015271283437b2b734bc1031b7b6b6b4b9b9b4b7b760711b608082015260a00190565b60ff91909116815260200190565b6000821982111561198f5761198f611a25565b500190565b6000826119af57634e487b7160e01b81526012600452602481fd5b500490565b60008160001904831182151516156119ce576119ce611a25565b500290565b6000828210156119e5576119e5611a25565b500390565b6002810460018216806119fe57607f821691505b60208210811415611a1f57634e487b7160e01b600052602260045260246000fd5b50919050565b634e487b7160e01b600052601160045260246000fdfea26469706673582212202afca92080760f6a8c752da6ffbf1c89c7b6f17a6c89e4c798ac5b7556935c0064736f6c63430008000033",
  "immutableReferences": {},
  "source": "/**\n * MIT License\n * ===========\n *\n * Copyright (c) 2021 Phoenix\n *\n * Permission is hereby granted, free of charge, to any person obtaining a copy\n * of this software and associated documentation files (the \"Software\"), to deal\n * in the Software without restriction, including without limitation the rights\n * to use, copy, modify, merge, publish, distribute, sublicense, and/or sell\n * copies of the Software, and to permit persons to whom the Software is\n * furnished to do so, subject to the following conditions:\n *\n * The above copyright notice and this permission notice shall be included in all\n * copies or substantial portions of the Software.\n *\n * THE SOFTWARE IS PROVIDED \"AS IS\", WITHOUT WARRANTY OF ANY KIND, EXPRESS OR\n * IMPLIED, INCLUDING BUT NOT LIMITED TO THE WARRANTIES OF MERCHANTABILITY,\n * FITNESS FOR A PARTICULAR PURPOSE AND NONINFRINGEMENT. IN NO EVENT SHALL THE\n * AUTHORS OR COPYRIGHT HOLDERS BE LIABLE FOR ANY CLAIM, DAMAGES OR OTHER\n * LIABILITY, WHETHER IN AN ACTION OF CONTRACT, TORT OR OTHERWISE, ARISING FROM,\n * OUT OF OR IN CONNECTION WITH THE SOFTWARE OR THE USE OR OTHER DEALINGS IN THE\n * SOFTWARE.\n *\n */\n\n// SPDX-License-Identifier: MIT\n\npragma solidity ^0.8.0;\n\nimport \"@openzeppelin/contracts/access/Ownable.sol\";\nimport \"@openzeppelin/contracts/utils/math/SafeMath.sol\";\nimport \"@openzeppelin/contracts/token/ERC20/utils/SafeERC20.sol\";\nimport \"@openzeppelin/contracts/token/ERC20/ERC20.sol\";\n\nabstract contract TokenInterface {\n    function balanceOf(address account) external view virtual returns (uint256);\n\n    function transfer(address recipient, uint256 amount)\n        external\n        virtual\n        returns (bool success);\n}\n\n/**\n * @dev interface defining the TokenRecipient\n */\ninterface TokenRecipient {\n    function tokenFallback(\n        address _from,\n        uint256 _value,\n        bytes calldata data\n    ) external;\n}\n\n/**\n * @title ZToken\n * @author Phoenix\n * @notice Contract for the ZToken\n * @dev All function calls are currently implemented without side effects\n */\ncontract ZToken is Ownable, ERC20, TokenRecipient {\n    // attach library functions\n    using SafeMath for uint256;\n    using SafeERC20 for TokenInterface;\n    using Address for address;\n\n    //event\n    event CommssionUpdate(\n        uint256 _numerator,\n        uint256 _denominator,\n        string _data\n    );\n    event TransferPreSigned(address _from, address _to, uint256 _value, uint256 _networkFee);\n\n    //public variables\n    TokenInterface private backedTokenContract;\n\n    //private variables\n    uint8 private decimal = 8;\n\n    // These variable help to calculate the commissions on each token transfer transcation\n    uint256 public commission_numerator_minting = 1; // commission percentage on minting 0.025%\n    uint256 public commission_denominator_minting = 4;\n\n    uint256 public commission_numerator_zcrw = 1; // commission percentage to zowner 0.005%\n    uint256 public commission_denominator_zcrw = 200;\n\n    uint256 public commission_numerator_phoenix_crw = 1; // commission percentage to zowner 0.005%\n    uint256 public commission_denominator_phoenix_crw = 200;\n\n    // addresses at which fees transferred\n    address public phoenixCrw; // Z commission to phoenixCRW\n    address public zCrw; // Z commission to ZCRW\n\n    // tokens minted in this wallet\n    address public sellingWallet;\n\n    constructor(\n        address _goldTokenAddress,\n        address _phoenixCrw,\n        address _zcrw,\n        address _sellingWallet\n    )\n        isContractaAddress(_goldTokenAddress)\n        onlyNonZeroAddress(_phoenixCrw)\n        onlyNonZeroAddress(_zcrw)\n        onlyNonZeroAddress(_sellingWallet)\n        ERC20(\"ZToken\", \"ZT\")\n    {\n        backedTokenContract = TokenInterface(_goldTokenAddress);\n        phoenixCrw = _phoenixCrw;\n        zCrw = _zcrw;\n        sellingWallet = _sellingWallet;\n    }\n\n    ////////////////////////////////////////////////////////////////\n    //                 modifiers\n    ////////////////////////////////////////////////////////////////\n\n    modifier onlyNonZeroAddress(address _user) {\n        require(_user != address(0), \"Zero address not allowed\");\n        _;\n    }\n\n    modifier onlyTokenContract() {\n        require(\n            msg.sender == address(backedTokenContract),\n            \"Only Token contract is allowed\"\n        );\n        _;\n    }\n\n    modifier isContractaAddress(address _addressContract) {\n        require(\n            _addressContract.isContract(),\n            \"Is contract is allowed\"\n        );\n        _;\n    }\n\n    modifier onlyPhoenix {\n        require(msg.sender == phoenixCrw, \"Only Phoenix is allowed\");\n        _;\n    }\n\n    ////////////////////////////////////////////////////////////////\n    //                  Only Owner functions\n    ////////////////////////////////////////////////////////////////\n\n    /**\n     * @notice transfer tokens from contract \n     * @dev Only owner can call, tokens will be transferred and equivalent amount of ZToken will be burnt.\n     * @param _amount the amount of tokens to be transferred\n     * @param _receiver address of the receiver\n\n     */\n    function transferToken(uint256 _amount, address _receiver)\n        external\n        onlyOwner\n        onlyNonZeroAddress(_receiver)\n    {\n        require(\n            backedTokenContract.balanceOf(address(this)) >= _amount,\n            \"Insufficiet balance of token\"\n        );\n        backedTokenContract.transfer(_receiver, _amount);\n        _burn(msg.sender, _amount);\n    }\n\n    /**\n     * @notice Function called by token contract whenever tokens are deposited to this contract\n     * @dev Only token contract can call.\n     * @param _from Who transferred, not utlised\n     * @param _value The amount transferred\n     * @param data The data supplied by token contract. It will be ignored\n     */\n    function tokenFallback(\n        address _from,\n        uint256 _value,\n        bytes calldata data\n    ) external override onlyTokenContract {\n        uint256 fee = calculateCommissionMint(_value);\n        if (fee > 0) _mint(phoenixCrw, fee);\n        _mint(sellingWallet, _value.sub(fee));\n    }\n\n    ////////////////////////////////////////////////////////////////\n    //                  overriden functions\n    ////////////////////////////////////////////////////////////////\n    function decimals() public view virtual override returns (uint8) {\n        return decimal;\n    }\n\n\n    /**\n     * @notice Standard transfer function to Transfer token\n     * @dev overriden Function of the openzeppelin ERC20 contract\n     * @param recipient receiver's address\n     * @param amount The amount to be transferred\n     */\n    function transfer(address recipient, uint256 amount)\n        public\n        virtual\n        override\n        returns (bool)\n    {\n        privateTransfer(msg.sender, recipient, amount);\n        return true;\n    }\n    \n    /**\n     * @notice Standard transferFrom. Send tokens on behalf of spender\n     * @dev overriden Function of the openzeppelin ERC20 contract\n     * @param recipient receiver's address\n     * @param sender transfer token from account\n     * @param amount The amount to be transferred\n     */\n    function transferFrom(address sender, address recipient, uint256 amount)\n        public\n        virtual\n        override\n        returns (bool)\n    {\n        uint256 currentAllowance = allowance(sender, _msgSender());\n        require(currentAllowance >= amount, \"ERC20: transfer amount exceeds allowance\");\n        _approve(sender, _msgSender(), currentAllowance - amount);\n        privateTransfer(sender, recipient, amount);\n        return true;\n    }\n    \n\n    /**\n     * @notice Internal method to handle transfer logic\n     * @dev Notifies recipient, if recipient is a trusted contract\n     * @param _from Sender address\n     * @param _recipient Recipient address\n     * @param _amount amount of tokens to be transferred\n     * @return bool\n     */\n    function privateTransfer(address _from, address _recipient, uint256 _amount)\n        internal\n        onlyNonZeroAddress(_recipient)\n        returns (bool)\n    {\n        uint256 feeToOlegacy = calculateCommissionPhoenixCrw(_amount);\n        uint256 feeToZowner = calculateCommissionToZCrw(_amount);\n\n        if (feeToOlegacy > 0) _transfer(_from, phoenixCrw, feeToOlegacy);\n        if (feeToZowner > 0) _transfer(_from, zCrw, feeToZowner);\n        uint256 amount_credit = feeToZowner.add(feeToOlegacy);\n        _transfer(_from, _recipient, _amount.sub(amount_credit));\n        return true;\n    } \n \n    /**\n     * @notice update phoenix wallet address. This address will be responsible for holding commission on tokens transfer\n     * @dev Only Phoenix can call\n     * @param _user The address of phoenixCrw wallet\n     * @return Bool value\n     */\n    function updatePhoenixAddress(address _user)\n        external\n        onlyPhoenix\n        returns (bool)\n    {\n        phoenixCrw = _user;\n        return true;\n    }\n\n    /**\n     * @notice check Minting fee\n     * @dev Does not checks if sender/recipient is whitelisted\n     * @param _amount The intended amount of transfer\n     * @return uint256 Calculated commission\n     */\n    function calculateCommissionMint(uint256 _amount)\n        public\n        view\n        returns (uint256)\n    {\n        return\n            _amount\n                .mul(commission_numerator_minting)\n                .div(commission_denominator_minting)\n                .div(100);\n    }\n\n    /**\n     * @notice check transer fee credited to ZToken owner\n     * @param _amount The intended amount of transfer\n     * @return uint256 Calculated commission\n     */\n    function calculateCommissionToZCrw(uint256 _amount)\n        public\n        view\n        returns (uint256)\n    {\n        return\n            _amount\n                .mul(commission_numerator_zcrw)\n                .div(commission_denominator_zcrw)\n                .div(100);\n    }\n\n    /**\n     * @notice check transer fee credited to Phoenix\n     * @param _amount The intended amount of transfer\n     * @return uint256 Calculated commission\n     */\n    function calculateCommissionPhoenixCrw(uint256 _amount)\n        public\n        view\n        returns (uint256)\n    {\n        return\n            _amount\n                .mul(commission_numerator_phoenix_crw)\n                .div(commission_denominator_phoenix_crw)\n                .div(100);\n    }\n\n    /**\n     * @notice Update commission to be charged on each token transfer for Phoenix\n     * @dev Only Phoenix Owner can call\n     * @param _n The numerator of commission\n     * @param _d The denominator of commission\n     */\n    function updateCommssionPhoenixTransfer(uint256 _n, uint256 _d)\n        public\n        onlyPhoenix\n    {\n        commission_denominator_phoenix_crw = _d;\n        commission_numerator_phoenix_crw = _n;\n        emit CommssionUpdate(_n, _d, \"Phoenix commission\");\n    }\n\n    /**\n     * @notice Update commission to be charged on each token transfer for Z owner\n     * @dev Only owner can call\n     * @param _n The numerator of commission\n     * @param _d The denominator of commission\n     */\n    function updateCommssionZTranfer(uint256 _n, uint256 _d) public onlyOwner {\n        commission_denominator_zcrw = _d;\n        commission_numerator_zcrw = _n;\n        emit CommssionUpdate(_n, _d, \"Z owner's commission\");\n    }\n\n    /**\n     * @notice Update commission to be charged on token minting\n     * @dev Only phoenix can call\n     * @param _n The numerator of commission\n     * @param _d The denominator of commission\n     */\n    function updateCommssionMint(uint256 _n, uint256 _d) public onlyPhoenix {\n        commission_denominator_minting = _d;\n        commission_numerator_minting = _n;\n        emit CommssionUpdate(_n, _d, \"Minting commision\");\n    }\n    \n    \n    /**\n     * @notice Prevents contract from accepting ETHs\n     * @dev Contracts can still be sent ETH with self destruct. If anyone deliberately does that, the ETHs will be lost\n     */\n    receive() external payable {\n        revert(\"Contract does not accept ethers\");\n    }\n    \n    \n}\n\n/**\n * @title AdvancedOToken\n * @author Phoenix \n */    \ncontract AdvancedZToken is ZToken {\n    mapping(address => mapping(bytes32 => bool)) public tokenUsed; // mapping to track token is used or not\n    \n    bytes4 public methodWord_transfer = bytes4(keccak256(\"transfer(address,uint256)\"));\n    bytes4 public methodWord_approve = bytes4(keccak256(\"approve(address,uint256)\"));\n    bytes4 public methodWord_increaseApproval = bytes4(keccak256(\"increaseAllowance(address,uint256)\"));\n    bytes4 public methodWord_decreaseApproval = bytes4(keccak256(\"decreaseAllowance(address,uint256)\"));\n\n    using SafeMath for uint256;\n\n    constructor(\n        address _goldTokenAddress,\n        address _phoenixCrw,\n        address _zcrw,\n        address _sellingWallet)  ZToken( _goldTokenAddress, _phoenixCrw, _zcrw, _sellingWallet) {\n    }\n\n    /**\n    * @dev ID of the executing chain\n    * @return uint value\n     */\n    function getChainID() public view returns (uint256) {\n        uint256 id;\n        assembly {\n            id := chainid()\n        }\n        return id;\n    }\n\n    /**\n     * @notice Validates the message and signature\n     * @param proof The message that was expected to be signed by user\n     * @param message The message that user signed\n     * @param r Signature component\n     * @param s Signature component\n     * @param v Signature component\n     * @param token The unique token for each delegated function\n     * @return address Signer of message\n     */\n    function preAuthValidations(bytes32 proof, bytes32 message, bytes32 token, bytes32 r, bytes32 s, uint8 v)\n        private\n        returns(address)\n    {\n        address signer = getSigner(message, r, s, v);\n        require(signer != address(0),\"Zero address not allowed\");\n        require(!tokenUsed[signer][token],\"Token already used\");\n        require(proof == message, \"Invalid proof\");\n        tokenUsed[signer][token] = true;\n        return signer;\n    }\n\n    /**\n     * @notice Find signer\n     * @param message The message that user signed\n     * @param r Signature component\n     * @param s Signature component\n     * @param v Signature component\n     * @return address Signer of message\n     */\n    function getSigner(bytes32 message, bytes32 r, bytes32 s, uint8 v)\n        public\n        pure\n        returns (address)\n    {\n        bytes memory prefix = \"\\x19Ethereum Signed Message:\\n32\";\n        bytes32 prefixedHash = keccak256(abi.encodePacked(prefix, message));\n        address signer = ecrecover(prefixedHash, v, r, s);\n        return signer;\n    }\n\n     /**\n     * @notice Delegated transfer. Gas fee will be paid by relayer\n     * @param message The message that user signed\n     * @param r Signature component\n     * @param s Signature component\n     * @param v Signature component\n     * @param token The unique token for each delegated function\n     * @param networkFee The fee that will be paid to relayer for gas fee he spends\n     * @param to The array of recipients\n     * @param amount The array of amounts to be transferred\n     */\n    function preAuthorizedTransfer(\n        bytes32 message, bytes32 r, bytes32 s, uint8 v, bytes32 token, uint256 networkFee, address to, uint256 amount)\n        public\n    {\n        bytes32 proof = getProofTransfer(methodWord_transfer, token, networkFee, msg.sender, to, amount);\n        address signer = preAuthValidations(proof, message, token, r, s, v);\n\n        // Deduct network fee if broadcaster charges network fee\n        if (networkFee > 0) {\n            privateTransfer(signer, msg.sender, networkFee);\n        }\n        privateTransfer(signer, to, amount);\n        emit TransferPreSigned(signer, to, amount, networkFee);\n    }\n\n    /**\n     * @notice Delegated approval. Gas fee will be paid by relayer\n     * @dev Only approve, increaseApproval and decreaseApproval can be delegated\n     * @param message The message that user signed\n     * @param r Signature component\n     * @param s Signature component\n     * @param v Signature component\n     * @param token The unique token for each delegated function\n     * @param networkFee The fee that will be paid to relayer for gas fee he spends\n     * @param to The spender address\n     * @param amount The amount to be allowed\n     * @return Bool value\n     */\n    function preAuthorizedApproval(\n        bytes4 methodHash, bytes32 message, bytes32 r, bytes32 s, uint8 v, bytes32 token, uint256 networkFee, address to, uint256 amount)\n        public\n        returns (bool)\n    {\n        bytes32 proof = getProofApproval (methodHash, token, networkFee, msg.sender, to, amount);\n        address signer = preAuthValidations(proof, message, token, r, s, v);\n        uint256 currentAllowance = allowance(signer, _msgSender());\n        // Perform approval\n        if(methodHash == methodWord_approve) _approve(signer, to, amount);\n        else if(methodHash == methodWord_increaseApproval) _approve(signer, to, currentAllowance.add(amount));\n        else if(methodHash == methodWord_decreaseApproval) _approve(signer, to, currentAllowance.sub(amount));\n        return true;\n    }\n\n    /**\n     * @notice Get the message to be signed in case of delegated transfer/approvals\n     * @param methodHash The method hash for which delegate action in to be performed\n     * @param token The unique token for each delegated function\n     * @param networkFee The fee that will be paid to relayer for gas fee he spends\n     * @param to The recipient or spender\n     * @param amount The amount to be transferred\n     * @return Bool value\n     */\n    function getProofTransfer(bytes4 methodHash, bytes32 token, uint256 networkFee, address broadcaster, address to, uint256 amount)\n        public\n        view\n        returns (bytes32)\n    {\n        require(methodHash == methodWord_transfer, \"Method not supported\");\n        bytes32 proof = keccak256(abi.encodePacked(\n            getChainID(),\n            bytes4(methodHash),\n            address(this),\n            token,\n            networkFee,\n            broadcaster,\n            to,\n            amount\n    ));\n        return proof;\n    }\n\n    /**\n     * @notice Get the message to be signed in case of delegated transfer/approvals\n     * @param methodHash The method hash for which delegate action in to be performed\n     * @param token The unique token for each delegated function\n     * @param networkFee The fee that will be paid to relayer for gas fee he spends\n     * @param to The recipient or spender\n     * @param amount The amount to be approved\n     * @return Bool value\n     */\n    function getProofApproval(bytes4 methodHash, bytes32 token, uint256 networkFee, address broadcaster, address to, uint256 amount)\n        public\n        view\n        returns (bytes32)\n    {\n        require(\n            methodHash == methodWord_approve ||\n            methodHash == methodWord_increaseApproval ||\n            methodHash == methodWord_decreaseApproval,\n            \"Method not supported\");\n        bytes32 proof = keccak256(abi.encodePacked(\n            getChainID(),\n            bytes4(methodHash),\n            address(this),\n            token,\n            networkFee,\n            broadcaster,\n            to,\n            amount\n        ));\n        return proof;\n    }\n    \n}",
  "sourcePath": "/home/prashant/projects/z-token-smartcontract/contracts/AdvancedZToken.sol",
  "compiler": {
    "name": "solc",
    "version": "0.8.0+commit.c7dfd78e.Emscripten.clang"
  },
  "schemaVersion": "3.4.1",
  "updatedAt": "2021-07-05T19:15:26.423Z",
  "devdoc": {
    "author": "Phoenix",
    "details": "All function calls are currently implemented without side effects",
    "kind": "dev",
    "methods": {
      "allowance(address,address)": {
        "details": "See {IERC20-allowance}."
      },
      "approve(address,uint256)": {
        "details": "See {IERC20-approve}. Requirements: - `spender` cannot be the zero address."
      },
      "balanceOf(address)": {
        "details": "See {IERC20-balanceOf}."
      },
      "calculateCommissionMint(uint256)": {
        "details": "Does not checks if sender/recipient is whitelisted",
        "params": {
          "_amount": "The intended amount of transfer"
        },
        "returns": {
          "_0": "uint256 Calculated commission"
        }
      },
      "calculateCommissionPhoenixCrw(uint256)": {
        "params": {
          "_amount": "The intended amount of transfer"
        },
        "returns": {
          "_0": "uint256 Calculated commission"
        }
      },
      "calculateCommissionToZCrw(uint256)": {
        "params": {
          "_amount": "The intended amount of transfer"
        },
        "returns": {
          "_0": "uint256 Calculated commission"
        }
      },
      "decimals()": {
        "details": "Returns the number of decimals used to get its user representation. For example, if `decimals` equals `2`, a balance of `505` tokens should be displayed to a user as `5,05` (`505 / 10 ** 2`). Tokens usually opt for a value of 18, imitating the relationship between Ether and Wei. This is the value {ERC20} uses, unless this function is overridden; NOTE: This information is only used for _display_ purposes: it in no way affects any of the arithmetic of the contract, including {IERC20-balanceOf} and {IERC20-transfer}."
      },
      "decreaseAllowance(address,uint256)": {
        "details": "Atomically decreases the allowance granted to `spender` by the caller. This is an alternative to {approve} that can be used as a mitigation for problems described in {IERC20-approve}. Emits an {Approval} event indicating the updated allowance. Requirements: - `spender` cannot be the zero address. - `spender` must have allowance for the caller of at least `subtractedValue`."
      },
      "increaseAllowance(address,uint256)": {
        "details": "Atomically increases the allowance granted to `spender` by the caller. This is an alternative to {approve} that can be used as a mitigation for problems described in {IERC20-approve}. Emits an {Approval} event indicating the updated allowance. Requirements: - `spender` cannot be the zero address."
      },
      "name()": {
        "details": "Returns the name of the token."
      },
      "owner()": {
        "details": "Returns the address of the current owner."
      },
      "renounceOwnership()": {
        "details": "Leaves the contract without owner. It will not be possible to call `onlyOwner` functions anymore. Can only be called by the current owner. NOTE: Renouncing ownership will leave the contract without an owner, thereby removing any functionality that is only available to the owner."
      },
      "symbol()": {
        "details": "Returns the symbol of the token, usually a shorter version of the name."
      },
      "tokenFallback(address,uint256,bytes)": {
        "details": "Only token contract can call.",
        "params": {
          "_from": "Who transferred, not utlised",
          "_value": "The amount transferred",
          "data": "The data supplied by token contract. It will be ignored"
        }
      },
      "totalSupply()": {
        "details": "See {IERC20-totalSupply}."
      },
      "transfer(address,uint256)": {
        "details": "overriden Function of the openzeppelin ERC20 contract",
        "params": {
          "amount": "The amount to be transferred",
          "recipient": "receiver's address"
        }
      },
      "transferFrom(address,address,uint256)": {
        "details": "overriden Function of the openzeppelin ERC20 contract",
        "params": {
          "amount": "The amount to be transferred",
          "recipient": "receiver's address",
          "sender": "transfer token from account"
        }
      },
      "transferOwnership(address)": {
        "details": "Transfers ownership of the contract to a new account (`newOwner`). Can only be called by the current owner."
      },
      "transferToken(uint256,address)": {
        "details": "Only owner can call, tokens will be transferred and equivalent amount of ZToken will be burnt.",
        "params": {
          "_amount": "the amount of tokens to be transferred",
          "_receiver": "address of the receiver"
        }
      },
      "updateCommssionMint(uint256,uint256)": {
        "details": "Only phoenix can call",
        "params": {
          "_d": "The denominator of commission",
          "_n": "The numerator of commission"
        }
      },
      "updateCommssionPhoenixTransfer(uint256,uint256)": {
        "details": "Only Phoenix Owner can call",
        "params": {
          "_d": "The denominator of commission",
          "_n": "The numerator of commission"
        }
      },
      "updateCommssionZTranfer(uint256,uint256)": {
        "details": "Only owner can call",
        "params": {
          "_d": "The denominator of commission",
          "_n": "The numerator of commission"
        }
      },
      "updatePhoenixAddress(address)": {
        "details": "Only Phoenix can call",
        "params": {
          "_user": "The address of phoenixCrw wallet"
        },
        "returns": {
          "_0": "Bool value"
        }
      }
    },
    "title": "ZToken",
    "version": 1
  },
  "userdoc": {
    "kind": "user",
    "methods": {
      "calculateCommissionMint(uint256)": {
        "notice": "check Minting fee"
      },
      "calculateCommissionPhoenixCrw(uint256)": {
        "notice": "check transer fee credited to Phoenix"
      },
      "calculateCommissionToZCrw(uint256)": {
        "notice": "check transer fee credited to ZToken owner"
      },
      "tokenFallback(address,uint256,bytes)": {
        "notice": "Function called by token contract whenever tokens are deposited to this contract"
      },
      "transfer(address,uint256)": {
        "notice": "Standard transfer function to Transfer token"
      },
      "transferFrom(address,address,uint256)": {
        "notice": "Standard transferFrom. Send tokens on behalf of spender"
      },
      "transferToken(uint256,address)": {
        "notice": "transfer tokens from contract "
      },
      "updateCommssionMint(uint256,uint256)": {
        "notice": "Update commission to be charged on token minting"
      },
      "updateCommssionPhoenixTransfer(uint256,uint256)": {
        "notice": "Update commission to be charged on each token transfer for Phoenix"
      },
      "updateCommssionZTranfer(uint256,uint256)": {
        "notice": "Update commission to be charged on each token transfer for Z owner"
      },
      "updatePhoenixAddress(address)": {
        "notice": "update phoenix wallet address. This address will be responsible for holding commission on tokens transfer"
      }
    },
    "notice": "Contract for the ZToken",
    "version": 1
  }
}